:020000040800F2
:10000000E8670020C1020008955D0008D30B0008D6
:10001000915D0008290800089368000800000000AE
:10002000000000000000000000000000290200089D
:100030002D080008000000006D0200086965000836
:10004000DB020008DB020008DB020008C5610008D3
:10005000DB020008DB020008DB020008DB0200080C
:10006000DB020008DB020008DB020008DB020008FC
:10007000DB020008DB020008DB020008DB020008EC
:10008000DB020008DB020008DB020008DB020008DC
:10009000DB020008DB020008DB020008B9090008E7
:1000A000DB020008DB020008DB020008DB020008BC
:1000B000DB020008D9650008DB020008DB0200084B
:1000C000DB020008DB020008DB020008DB0200089C
:1000D000DB02000871660008DB020008DB02000892
:1000E000DB020008DB020008DB020008DB0200087C
:1000F000DB020008DB020008DB020008DB0200086C
:10010000DB020008DB02000811660008DB020008C1
:10011000DB020008DB020008DB020008DB0200084B
:10012000DB020008DB020008DB020008DB0200083B
:1001300000F002F800F068F80AA090E8000C824491
:100140008344AAF10107DA4501D100F05DF8AFF26E
:10015000090EBAE80F0013F0010F18BFFB1A43F0A5
:1001600001031847B0B20000D0B200000A444FF0BB
:10017000000C10F8013B13F0070408BF10F8014B06
:100180001D1108BF10F8015B641E05D010F8016B4B
:10019000641E01F8016BF9D113F0080F1EBF10F8AF
:1001A000014BAD1C0C1B09D16D1E58BF01F801CBD2
:1001B000FAD505E014F8016B01F8016B6D1EF9D555
:1001C0009142D6D37047000000230024002500266A
:1001D000103A28BF78C1FBD8520728BF30C148BFAA
:1001E0000B607047642900F0F780782900F03081B7
:1001F000632900F06F82732900F074820020704739
:100200001FB51FBD10B510BD00F0B8FA1146FFF7BD
:10021000F7FF06F0E1FC00F0D6FA03B4FFF7F2FFB7
:1002200003BC06F038FB0000224B19680868B0E8F0
:10023000F00F80F30988BFF36F8F4FF0000080F359
:1002400011884EF00D0E704700000000064800684F
:10025000006880F3088862B661B6BFF34F8FBFF3C2
:100260006F8F00DF00BF00BF08ED00E0EFF30980F3
:10027000BFF36F8F0F4B1A6820E9F00F106008B5BD
:100280004FF0500080F31188BFF34F8FBFF36F8F93
:1002900008F0FAF94FF0000080F31188BDE808403B
:1002A00019680868B0E8F00F80F30988BFF36F8F12
:1002B000704700BF48000020EFF305807047000042
:1002C0000948804709480047FEE7FEE7FEE7FEE7EA
:1002D000FEE7FEE7FEE7FEE7FEE7FEE70448054926
:1002E000054A064B70470000796500083101000897
:1002F000E8610020E8670020E8630020E863002050
:10030000704700000FB4044910B503AA029800F02A
:10031000EDF910BC5DF814FB2C0000202DE9F04134
:100320000E460446002020622046E168884730B32C
:10033000252805D0D4E901219047206A401CF2E726
:10034000E168204600278847050018D0A5F1410044
:10035000192802D820354FF4006732462946204636
:100360002760FFF73FFF40B1012804D0F61D26F0BB
:1003700007060836D8E7361DD6E72846DAE7206AAA
:10038000BDE8F08170B50C460546012A05D02878F5
:10039000800600D5EA69002302E0012305E05B1C2A
:1003A000934202D2E05C0028F9D1A869E618C01A8D
:1003B000A861286A184428622846AFF3008004E048
:1003C000D5E9012114F8010B9047B442F8D328462F
:1003D000AFF3008070BD00002DE9F0410646002417
:1003E00010687529314616A510D0AFF3008000289B
:1003F00002DA404213A507E031688A0701D512A549
:1004000002E0490704D511A5012401E0AFF3008003
:1004100000210A2206F1240709E0B0FBF2FCB0FB40
:10042000F2F302FB1C00303078541846491C0028B7
:10043000F3D123462A463046BDE8F04100F0CEB85D
:10044000000000002D0000002B0000002000000034
:1004500070B504460D4621461068AFF30080218830
:10046000090502D50F4A7A4402E00E4A7A440E3258
:10047000002104F1240305E000F00F060009965D59
:100480005E54491C0028F7D120780023000704D5CA
:10049000702D02D009B1022311322046BDE8704010
:1004A00000F09CB880AF0000032A40F2308010F0CA
:1004B000030C00F0158011F8013BBCF1020F6244FF
:1004C00098BF11F801CB00F8013B38BF11F8013B90
:1004D000A2F1040298BF00F801CB38BF00F8013B3D
:1004E00011F0030300F01481083AC0F0088051F8BD
:1004F000043B083A51F804CBA0E80810F5E7121DB8
:100500005CBF51F8043B40F8043BAFF30080D207D6
:1005100024BF11F8013B11F801CB48BF11F8012BA2
:1005200024BF00F8013B00F801CB48BF00F8012BC5
:10053000704702F0FF0343EA032242EA024200F05E
:1005400002B84FF000020429C0F0128010F0030C32
:1005500000F01B80CCF1040CBCF1020F18BF00F8B6
:10056000012BA8BF20F8022BA1EB0C0100F00DB865
:100570005FEAC17C24BF00F8012B00F8012B48BFC3
:1005800000F8012B70474FF0000200B51346944667
:100590009646203922BFA0E80C50A0E80C50B1F1DB
:1005A0002001BFF4F7AF090728BFA0E80C5048BFEF
:1005B0000CC05DF804EB890028BF40F8042B08BF8D
:1005C000704748BF20F8022B11F0804F18BF00F889
:1005D000012B704770477047704770472DE9F0470F
:1005E0000D4699469246044600F1240801688806A3
:1005F00004D5E06921F01001216000E00120A8424B
:1006000001DD471B00E00027A1697A1902EB090010
:10061000081AA0612078C00602D42046AFF30080FB
:10062000002608E0D4E901211AF806009047206A64
:10063000401C761C20624E45F4DB2078C0060AD5AB
:100640002046AFF3008006E0D4E901213020904736
:10065000206A401C2062381EA7F10107F4DC07E085
:10066000D4E9012118F805009047206A401C206257
:10067000281EA5F10105F3DC2046AFF300802078A9
:10068000000602D50220BDE8F0870120FBE700004C
:1006900001694A1C02610878704700B58FB0CDE946
:1006A00001310021059105497944CDE90310114636
:1006B0006846FFF733FE0FB000BD0000E5FFFFFF07
:1006C00010B5436913B1AFF3008001E0FFF75AFEA4
:1006D000012010BD127800F124010A7000224A7036
:1006E0000122EDE711684FF0FF32E9E7074B70B5E3
:1006F0000D467B44FFF7D1FF0446284600F03AF848
:1007000010B14FF0FF3070BD204670BDA3620000F5
:1007100010B5203AC0F00B80B1E81850203AA0E89C
:100720001850B1E81850A0E81850BFF4F5AF5FEAD0
:10073000027C24BFB1E81850A0E8185044BF18C983
:1007400018C0BDE810405FEA827C24BF51F8043B2A
:1007500040F8043B08BF7047D20728BF31F8023B7E
:1007600048BF11F8012B28BF20F8023B48BF00F812
:10077000012B7047007B00F080007047754600F049
:100780002BF8AE4605006946534620F00700854623
:1007900018B020B5FFF7A2FDBDE820404FF00006DD
:1007A0004FF000074FF000084FF0000B21F0070159
:1007B000AC46ACE8C009ACE8C009ACE8C009ACE89C
:1007C000C0098D46704710B50446AFF3008020463F
:1007D000BDE81040FFF721BD00487047846100204C
:1007E00010B5012005F040FB002005F03DFB10BDD9
:1007F00008B5014600200090034800900098084486
:1008000000900098008808BD006C004008B50022E8
:100810000092044A0092009A02440092009A1160E9
:1008200008BD0000006C004000BFFEE770470000FC
:100830002DE9F0419EB006460F4690465C2107A880
:10084000FFF7A1FE524903C9CDE9050100240025A7
:100850005048007A4F4989784E4A52784D4B1B7860
:10086000CDE90032CDE902104A48C3798279818806
:1008700049A0FFF747FD1E244625102020230090A5
:100880004C4829460268204605F03AF914351020F4
:1008900000904048828804232946204605F030F91C
:1008A0002034002005232D2229460090204605F003
:1008B00093F8641D1020009036488279022329465F
:1008C000204605F01DF91034002005232D2229466D
:1008D0000090204605F080F8641D102000902D48FF
:1008E000C27902232946204605F00AF91034002077
:1008F0000523202229460090204605F06DF8641D4E
:10090000102000902348027802232946204605F053
:10091000F7F81034002005233A222946009020469B
:1009200005F05AF8641D102000901A4842780223FE
:100930002946204605F0E4F81034002005233A2229
:1009400029460090204605F047F8641D10200090CD
:100950001048827802232946204605F0D1F804F198
:10096000100084B200200523202229460090204652
:1009700005F032F8601D84B2102000900548027A1C
:1009800001232946204605F0BBF81EB0BDE8F081E2
:10099000D4B300083A01002025642D25642D256478
:1009A0002025643A25643A2564207765656B3A25ED
:1009B000640D0A002000002010B5142005F0E0FFAF
:1009C00020210A4800F0FAF860B909A0FFF79AFC64
:1009D000012C07D134B120070A490860BFF34F8FBB
:1009E000BFF36F8F202000F00FF810BD0010014002
:1009F000BBD6B8B4C8CECEF132B5C4D4CBD0D0219A
:100A00000D0A000004ED00E0014908607047000095
:100A1000140401402DE9F041024600250026002083
:100A200000230024002791F803C00CF00F0591F873
:100A300003C00CF0100CBCF1000F03D091F802C001
:100A40004CEA050591F800C0BCF1000F31D01468E4
:100A500000202BE04FF0010C0CFA00F3B1F800C0BD
:100A60000CEA03069E4220D183004FF00F0C0CFAD3
:100A700003F7BC4305FA03FC4CEA040491F803C0F5
:100A8000BCF1280F06D14FF0010C0CFA00FCC2F8A3
:100A900014C00AE091F803C0BCF1480F05D14FF033
:100AA000010C0CFA00FCC2F810C0401C0828D1D37D
:100AB0001460B1F800C0BCF1FF0F34DD54680020B1
:100AC0002EE000F1080C4FF0010808FA0CF3B1F821
:100AD00000C00CEA03069E4221D183004FF00F0CA8
:100AE0000CFA03F7BC4305FA03FC4CEA040491F842
:100AF00003C0BCF1280F05D100F1080C08FA0CF86E
:100B0000C2F8148091F803C0BCF1480F07D100F17E
:100B1000080C4FF0010808FA0CF8C2F81080401CCD
:100B20000828CED35460BDE8F0810000F0B50A4635
:100B3000002300240021002500F00046B6F1004FFC
:100B400002D11D4EF16901E01B4E7168C0F30345EF
:100B500083B200F44016B6F5401F08D121F0706151
:100B6000154E766826F07066134F7E6012E000F432
:100B70008016B6F5801F06D1032606FA05F4A143B8
:100B800041F0706106E0460D360103FA06F6B14306
:100B900041F0706122B1460D360103FA06F6314389
:100BA00000F00046B6F1004F02D1034EF16101E0C2
:100BB000014E7160F0BD00000000014002460020BF
:100BC00093680B400BB1012000E0002070470161E9
:100BD000704700BFFEE70146CA1701EB9272921000
:100BE000A1EB820292B9642091FBF0F200FB12109B
:100BF00050B94FF4C87091FBF0F200FB121008B925
:100C0000012070470020FCE70120FAE70020F8E708
:100C100008B50121142005F017F901211148FFF74B
:100C200085FF4FF40040ADF8000048208DF8030028
:100C300069460D48FFF7EEFE2020ADF80000482081
:100C40008DF8030069460948FFF7E4FE0120ADF87E
:100C5000000028208DF8030069460348FFF7DAFEFC
:100C600008BD0000000230000008014000100140F3
:100C700010B5044614B101201A49087019480078CB
:100C8000F8B120211848FFF799FF28B14FF400412F
:100C90001648FFF793FFA0B9142005F02DFE0020A1
:100CA0001049087020211048FFF788FF08B901207B
:100CB00010BD4FF400410D48FFF780FF78B90220C6
:100CC000F6E720210848FFF779FF012807D1C10383
:100CD0000648FFF773FF012801D102490870002080
:100CE000E6E7000018000020001001400008014065
:100CF00070B5044600261D480588408845431B48BA
:100D0000808846F60401884216D118488079012867
:100D100012D10020154988712A2048812B20888112
:100D20000021084604F07AFC0120104988712B202C
:100D300048812A20888103E00021084604F06EFCE7
:100D400004F0DEFF00260DE04FF4807008490861D2
:100D500040004861074804608020486108618000C5
:100D60000861761CAE42EFD370BD00002C0100205C
:100D7000001001400C0C014010B50446002C66D157
:100D80006C498871F02008804FF4A07048800846B4
:100D9000808849F2413188420BD06648808846F607
:100DA0000401884205D06348808845F210318842AA
:100DB0001AD12C205F4908812A2048812B20888164
:100DC0000846808846F60401884205D05948808844
:100DD00045F21031884206D14FF4A0705549088081
:100DE0004FF4F0704880A1E05248808845F21051DD
:100DF000884210D14FF430504E4908814FF42850AA
:100E000048814FF42C5088814FF4F07008804FF4E3
:100E1000487048808AE04748808841F663118842DC
:100E20000DD12C20434908812B2048812A2088811C
:100E30004FF4F07008804FF44870488076E022202C
:100E40003C49088120204881212088816EE00120D2
:100E5000384988714FF4A0700880F0204880084617
:100E6000808849F24131884205D03248808845F275
:100E70001031884207D12C202E4908812A20488130
:100E80002B2088813FE02B48808846F60401884269
:100E900007D12C20274908812B2048812A208881CE
:100EA00031E02448808845F21051884210D14FF437
:100EB0003050204908814FF4285048814FF42C507D
:100EC00088814FF4487008804FF4F07048801AE031
:100ED0001848808841F6631188420DD12C201549AD
:100EE00008812A2048812B2088814FF4487008808F
:100EF0004FF4F070488006E022200E49088121203E
:100F00004881202088810B48808846F60401884269
:100F100005D00848808845F21031884206D14FF448
:100F2000F070044908804FF4A0704880002004F05D
:100F300049F910BD2C0100202DE9FF4F84B08146F6
:100F40008A460020039002900698A0EB09050798B6
:100F5000A0EB0A06CDF80490CDF800A0002D01DD2D
:100F6000012705E00DB9002702E04FF0FF376D4281
:100F7000002E02DD4FF0010806E016B94FF0000820
:100F800002E04FF0FF387642B54201DD2C4600E02A
:100F900034464FF0000B21E0009A91B2019A90B2D2
:100FA00000F022F8039828440390029830440290FD
:100FB0000398A04205DD0398001B03900198384474
:100FC00001900298A04205DD0298001B0290009853
:100FD000404400900BF101001FFA80FB601C834528
:100FE000DADD08B0BDE8F08F30B504460D4629467D
:100FF000204604F013FB04F083FE4FF48070074991
:101000000861400048610648008806490860802061
:101010000249486108618000086130BD001001404C
:101020001A0000200C0C0140F0B504460D4616468F
:101030001F462B46324629462046FFF77DFF3B469A
:10104000224629462046FFF777FF3B46324639467F
:101050002046FFF771FF3B46324629463046FFF7F0
:101060006BFFF0BD70B504460D461646D348808828
:1010700049F24131884205D0D048808845F210318C
:10108000884240D1CD49488904F028FE4FF4807051
:10109000CB490861400048612012CA49086080209D
:1010A000C74948610861800008614010086140003C
:1010B0004861E0B2C34908608020C14948610861C5
:1010C00080000861BD49888904F008FE4FF48070F3
:1010D000BB490861400048612812BA490860802075
:1010E000B74948610861800008614010086140000C
:1010F0004861E8B2B34908608020B149486108619D
:10110000800008613DE1AD48808845F21051884279
:1011100050D1AA49488904F0E1FD4FF48070A849F4
:101120000861400048612012A64908608020A44957
:101130004861086180000861A0494989491C88B25A
:1011400004F0CCFD4FF480709D4908614000486177
:10115000E0B29C490860802099494861086180009C
:1011600008619649888904F0B9FD4FF4807094496C
:101170000861400048612812924908608020904927
:1011800048610861800008618C498989491C88B2DE
:1011900004F0A4FD4FF48070894908614000486163
:1011A000E8B288490860802085494861086180006C
:1011B0000861E6E08148808841F6631188427DD16C
:1011C0007E48807920B97D480088401E001B84B28B
:1011D0007A49488904F082FD4FF4807078490861AB
:1011E00040004861201277490860802074494861B6
:1011F0000861800008614010086140004861E0B269
:101200007049086080206E4948610861800008616B
:10121000401008614000486120126A49086080203F
:10122000674948610861800008614010086140001A
:101230004861E0B263490860802061494861086103
:10124000800008615D49888904F048FD4FF4807092
:101250005B4908614000486128125A4908608020B3
:1012600057494861086180000861401008614000EA
:101270004861E8B2534908608020514948610861DB
:1012800080000861401008614000486128124D4903
:10129000086080204A494861086180000861401068
:1012A000086140004861E8B246490860802044492E
:1012B000486108618000086163E0FFE73F4880887B
:1012C00046F60401884249D13C488079012804D17E
:1012D0003A480088401E001B84B23849488904F00F
:1012E000FDFC4FF4807036490861400048612012CF
:1012F00034490860802032494861086180000861F3
:101300004010086140004861E0B22E49086080202A
:101310002B4948610861800008612849888904F0E8
:10132000DDFC4FF4807026490861400048612812B6
:1013300024490860802022494861086180000861D2
:101340004010086140004861E8B21E4908608020F2
:101350001B49486108618000086112E017488079E4
:10136000012804D115480088401E001B84B213498F
:101370004889214604F0CCFC10498889294604F0AC
:10138000C7FC4FF480700E494861400048610B482B
:1013900000890C4908608020094948610861800083
:1013A00008614010086140004861064806608020DE
:1013B000486108618000086170BD00002C010020B8
:1013C000001001400C0C01402DE9FC4F05460E4673
:1013D00017469846DDF82C90002001902C48808814
:1013E00046F60401884229D129488079012825D16F
:1013F000AB46354626480088C01B401E86B247468D
:1014000023480088A0EB0B00401E1FFA80F8002044
:101410001F4988712A2048812B20888143463A46FB
:1014200031462846CDF80090FFF7CEFF012018493D
:1014300088712B2048812A20888127E0781B401C56
:1014400080B2019034461FE02146284604F0E6F8B9
:1014500004F056FC4FF0000A11E04FF480700D4983
:101460000861400048610C48C0F800908020486145
:101470000861800008610AF101001FFA80FA0198F2
:101480008245EADB601C84B24445DDDDBDE8FC8FAB
:101490002C010020001001400C0C014008B5012176
:1014A000192004F0D1FC0121FE48FFF73FFB4FF467
:1014B000F860ADF8000010208DF8030003208DF8CF
:1014C00002006946F848FFF7A5FA4FF4F861F648BC
:1014D000FFF77DFB4FF6FF70ADF800006946F3485B
:1014E000FFF798FA4FF6FF71F048FFF770FB3220D4
:1014F00005F002FA0121002004F00AFC322005F078
:10150000FBF9002003F0ECFDE9498880084680885B
:10151000FF280ADB084680884FF6FF71884204D016
:10152000E3488088B0F5134F7ED1D32004F0D6FB7A
:1015300003F09EFD03F09CFD03F09AFDDC498880DA
:10154000084680884FF6FF7101EA0020D84988805C
:1015500003F08EFDD64989880843D549888008461E
:10156000808849F2413188425ED0BF2004F0B6FB4A
:1015700003F07EFD03F07CFD03F07AFD03F078FDBF
:10158000CB498880084680884FF6FF7101EA002029
:10159000C749888003F06CFDC54989880843C44960
:1015A00088800846808846F60401884274D0D4209A
:1015B00004F094FB03F05CFD03F05AFD03F058FDCA
:1015C000BB498880084680884FF6FF7101EA0020F9
:1015D000B749888003F04CFDB54989880843B44970
:1015E00088800846808845F21031884254D04FF4F4
:1015F0005A4004F073FB03F03BFD4FF45B4004F0F2
:101600006DFB03F035FDAA498880084680884FF6B7
:10161000FF7101EA0020A64988804FF45C4004F085
:101620005DFB03F025FD00E036E0A1498988084311
:101630009F49888008468088B0F5004F02D145F266
:10164000105088809A48808845F21051884223D0F3
:10165000A12004F043FB03F00BFD9549888003F0C3
:1016600007FD93498880084680884FF6FF7101EA9C
:1016700000208F49888003F0FBFC8D49898808434E
:101680008B4988800846808845F26171884203D181
:1016900041F66310864988808548818885A0FEF7D9
:1016A00031FE8348808849F2413188427ED1CF2083
:1016B00004F014FB002004F0FFFAC12004F0FCFA4F
:1016C000302004F0F9FAED2004F008FB642004F067
:1016D000F3FA032004F0F0FA122004F0EDFA81206E
:1016E00004F0EAFAE82004F0F9FA852004F0E4FABC
:1016F000102004F0E1FA7A2004F0DEFACB2004F0A6
:10170000EDFA392004F0D8FA2C2004F0D5FA0020A4
:1017100004F0D2FA342004F0CFFA022004F0CCFA1C
:10172000F72004F0DBFA202004F0C6FAEA2004F0E7
:10173000D5FA002004F0C0FA002004F0BDFAC02061
:1017400004F0CCFA1B2004F0B7FAC12004F0C6FA6A
:10175000012004F0B1FAC52004F0C0FA302004F0F2
:10176000ABFA302004F0A8FAC72004F0B7FAB7208B
:1017700004F0A2FA362004F0B1FA482004F09CFAF2
:101780003A2004F0ABFA552004F096FAB12004F0A8
:10179000A5FA002004F090FA1A2004F08DFAB62081
:1017A00004F09CFA0A2004F087FA00E0A9E0A220E5
:1017B00004F082FAF22004F091FA002004F07CFA9E
:1017C000262004F08BFA012004F076FAE02004F0E1
:1017D00085FA0F2004F070FA2A2004F06DFA282010
:1017E00004F06AFA082004F067FA0E2004F064FAA4
:1017F000082004F061FA542004F05EFAA92004F0F5
:101800005BFA432004F058FA0A2004F055FA0F203E
:1018100004F052FA002004F04FFA002004F04CFAD1
:10182000002004F049FA002004F046FAE12004F018
:1018300055FA002004F040FA152004F03DFA172074
:1018400004F03AFA072004F037FA112004F034FAD1
:10185000062004F031FA2B2004F02EFA562004F072
:101860002BFA3C2004F028FA052004F025FA102079
:1018700004F022FA0F2004F01FFA3F2004F01CFAB3
:101880003F2004F019FA0F2004F016FA2B2004F080
:1018900025FA002004F010FA002004F00DFA0120CF
:1018A00010E000000002300000100140000C014078
:1018B0002C010020204C43442049443A25780D0A4D
:1018C0000000000004F0F8F93F2004F0F5F92A20A8
:1018D00004F004FA002004F0EFF9002004F0ECF921
:1018E000002004F0E9F9EF2004F0E6F9112004F0FB
:1018F000F5F9782005F000F8292004F0EFF903F05D
:101900009ABBFE48808846F6040188427ED11120A9
:1019100004F0E4F9142004F0EFFFD02004F0DEF925
:10192000072004F0C9F9422004F0C6F91D2004F094
:10193000C3F9D12004F0D2F9002004F0BDF91A2037
:1019400004F0BAF9092004F0B7F9D22004F0C6F97E
:10195000012004F0B1F9222004F0AEF9C02004F017
:10196000BDF9102004F0A8F93B2004F0A5F90020EF
:1019700004F0A2F9022004F09FF9112004F09CF970
:10198000C52004F0ABF9032004F096F9C82004F058
:10199000A5F9002004F090F9252004F08DF921200C
:1019A00004F08AF9052004F087F9002004F084F996
:1019B0000A2004F081F9652004F07EF9252004F066
:1019C0007BF9772004F078F9502004F075F90F20A6
:1019D00004F072F9002004F06FF9F82004F07EF9A9
:1019E000012004F069F9FE2004F078F9002004F0E9
:1019F00063F9022004F060F9202004F06FF936202A
:101A000004F06CF9082004F057F900E02AE03A20CD
:101A100004F064F9552004F04FF92B2004F05EF92E
:101A2000002004F049F9002004F046F9012004F0F8
:101A300043F93F2004F040F92A2004F04FF9002038
:101A400004F03AF9002004F037F9012004F034F9E9
:101A5000DF2004F031F9782004F04EFF292004F053
:101A60003DF94CE7A548808845F21031884240F0A6
:101A70007C87ED2004F032F9012004F01DF9FE20EE
:101A800004F01AF9EE2004F029F9DE2004F014F92C
:101A9000212004F011F9F12004F020F9012004F0D4
:101AA0000BF9DF2004F01AF9102004F005F9C42026
:101AB00004F014F98F2004F0FFF8C62004F00EF9AA
:101AC000002004F0F9F8E22004F0F6F8E22004F037
:101AD000F3F8E22004F0F0F8BF2004F0FFF8AA20A9
:101AE00004F0EAF8B02004F0F9F80D2004F0E4F86E
:101AF000002004F0E1F80D2004F0DEF8002004F0EE
:101B0000DBF8112004F0D8F8002004F0D5F81920F3
:101B100004F0D2F8002004F0CFF8212004F0CCF833
:101B2000002004F0C9F82D2004F0C6F8002004F0CD
:101B3000C3F83D2004F0C0F8002004F0BDF85D209B
:101B400004F0BAF8002004F0B7F85D2004F0B4F80F
:101B5000002004F0B1F8B12004F0C0F8802004F0B7
:101B6000ABF8002004F0A8F88B2004F0A5F80020C2
:101B700004F0A2F8962004F09FF8002004F09CF8EE
:101B8000B22004F0ABF8002004F096F8002004F036
:101B900093F8022004F090F8002004F08DF8032060
:101BA00004F08AF8002004F087F8B32004F096F8D7
:101BB000002004F081F8002004F07EF8002004F0FA
:101BC0007BF8002004F078F8002004F075F800207D
:101BD00004F072F8002004F06FF8002004F06CF8B4
:101BE000002004F069F8002004F066F8002004F0FA
:101BF00063F8002004F060F8002004F05DF8002095
:101C000004F05AF8002004F057F8002004F054F8CB
:101C1000002004F051F8002004F04EF8002004F0F9
:101C20004BF8002004F048F8002004F045F80020AC
:101C300004F042F8002004F03FF8002004F03CF8E3
:101C4000B42004F04BF88B2004F036F8002004F0A8
:101C500033F8962004F030F8002004F02DF8A1208D
:101C600004F02AF8002004F027F8B52004F036F834
:101C7000022004F021F8002004F01EF8032004F0F4
:101C80001BF8002004F018F8042004F015F80020D8
:101C900004F012F8B62004F021F8002004F00CF84B
:101CA000002004F009F8B72004F018F8002004F030
:101CB00003F8002004F000F83F2003F0FDFF0020AF
:101CC00003F0FAFF5E2003F0F7FF002003F0F4FFBB
:101CD000642003F0F1FF002003F0EEFF8C2003F0FE
:101CE000EBFF002003F0E8FFAC2003F0E5FF00204D
:101CF00003F0E2FFDC2003F0DFFF01E02C01002015
:101D0000002003F0D9FF702003F0D6FF002003F07D
:101D1000D3FF902003F0D0FF002003F0CDFFEB2095
:101D200003F0CAFF002003F0C7FFDC2003F0C4FF6C
:101D3000002003F0C1FFB82003F0D0FF002003F023
:101D4000BBFF002003F0B8FF002003F0B5FF002028
:101D500003F0B2FF002003F0AFFF002003F0ACFF60
:101D6000002003F0A9FF002003F0A6FFBA2003F033
:101D7000B5FF242003F0A0FF002003F09DFF00200A
:101D800003F09AFF002003F097FFC12003F0A6FFA5
:101D9000202003F091FF002003F08EFF542003F079
:101DA0008BFF002003F088FFFF2003F085FF002059
:101DB00003F082FFC22003F091FF0A2003F07CFFB2
:101DC000002003F079FF042003F076FF002003F0E9
:101DD00073FFC32003F082FF3C2003F06DFF00205F
:101DE00003F06AFF3A2003F067FF002003F064FF6E
:101DF000392003F061FF002003F05EFF372003F07D
:101E00005BFF002003F058FF3C2003F055FF00204B
:101E100003F052FF362003F04FFF002003F04CFF89
:101E2000322003F049FF002003F046FF2F2003F08B
:101E300043FF002003F040FF2C2003F03DFF002073
:101E400003F03AFF292003F037FF002003F034FFAE
:101E5000262003F031FF002003F02EFF242003F0A2
:101E60002BFF002003F028FF242003F025FF002093
:101E700003F022FF232003F01FFF002003F01CFFCC
:101E80003C2003F019FF002003F016FF362003F07A
:101E900013FF002003F010FF322003F00DFF00209D
:101EA00003F00AFF2F2003F007FF002003F004FFD8
:101EB0002C2003F001FF002003F0FEFE292003F098
:101EC000FBFE002003F0F8FE262003F0F5FE0020C4
:101ED00003F0F2FE242003F0EFFE002003F0ECFEFE
:101EE000242003F0E9FE002003F0E6FE232003F0A7
:101EF000E3FE002003F0E0FEC42003F0EFFE6220CA
:101F000003F0DAFE002003F0D7FE052003F0D4FE34
:101F1000002003F0D1FE842003F0CEFE002003F069
:101F2000CBFEF02003F0C8FE002003F0C5FE182011
:101F300003F0C2FE002003F0BFFEA42003F0BCFEAD
:101F4000002003F0B9FE182003F0B6FE002003F0D5
:101F5000B3FE502003F0B0FE002003F0ADFE0C20D5
:101F600003F0AAFE002003F0A7FE172003F0A4FE52
:101F7000002003F0A1FE952003F09EFE002003F058
:101F80009BFEF32003F098FE002003F095FEE62070
:101F900003F092FE002003F08FFEC52003F09EFEAA
:101FA000322003F089FE002003F086FE442003F077
:101FB00083FE002003F080FE652003F07DFE0020FC
:101FC00003F07AFE762003F077FE002003F074FE23
:101FD000882003F071FE002003F06EFEC62003F09F
:101FE0007DFE202003F068FE002003F065FE172030
:101FF00003F062FE002003F05FFE012003F05CFEB0
:10200000002003F059FEC72003F068FE002003F013
:1020100053FE002003F050FE002003F04DFE002090
:1020200003F04AFEC82003F059FE002003F044FEEE
:10203000002003F041FE002003F03EFE002003F0EC
:102040003BFEC92003F04AFE002003F035FE0020CD
:1020500003F032FE002003F02FFE002003F02CFEE0
:10206000002003F029FE002003F026FE002003F0EC
:1020700023FE002003F020FE002003F01DFE0020C0
:1020800003F01AFE002003F017FE002003F014FEF8
:10209000002003F011FE002003F00EFE002003F0EC
:1020A0000BFE002003F008FEE02003F017FE1620D0
:1020B00003F002FE002003F0FFFD1C2003F0FCFDF6
:1020C000002003F0F9FD212003F0F6FD002003F0CD
:1020D000F3FD362003F0F0FD002003F0EDFD462077
:1020E00003F0EAFD002003F0E7FD522003F0E4FDD9
:1020F000002003F0E1FD642003F0DEFD002003F08A
:10210000DBFD7A2003F0D8FD002003F0D5FD8B2005
:1021100003F0D2FD002003F0CFFD992003F0CCFDA9
:10212000002003F0C9FDA82003F0C6FD002003F045
:10213000C3FDB92003F0C0FD002003F0BDFDC420A5
:1021400003F0BAFD002003F0B7FDCA2003F0B4FD90
:10215000002003F0B1FDD22003F0AEFD002003F01B
:10216000ABFDD92003F0A8FD002003F0A5FDE02081
:1021700003F0A2FD002003F09FFDF32003F09CFD7F
:10218000002003F099FDE12003F0A8FD162003F0E4
:1021900093FD002003F090FD1C2003F08DFD002036
:1021A00003F08AFD222003F087FD002003F084FD68
:1021B000362003F081FD002003F07EFD452003F072
:1021C0007BFD002003F078FD522003F075FD002018
:1021D00003F072FD642003F06FFD002003F06CFD3E
:1021E0007A2003F069FD002003F066FD8B2003F0E8
:1021F00063FD002003F060FD992003F05DFD0020E9
:1022000003F05AFDA82003F057FD002003F054FD11
:10221000B92003F051FD002003F04EFDC42003F06F
:102220004BFD002003F048FDCA2003F045FD0020CF
:1022300003F042FDD22003F03FFD002003F03CFDFF
:10224000D82003F039FD002003F036FDE02003F034
:1022500033FD002003F030FDF32003F02DFD0020BE
:1022600003F02AFDE22003F039FD052003F024FDF0
:10227000002003F021FD0B2003F01EFD002003F0E1
:102280001BFD1B2003F018FD002003F015FD34207A
:1022900003F012FD002003F00FFD442003F00CFDBD
:1022A000002003F009FD4F2003F006FD002003F09D
:1022B00003FD612003F000FD002003F0FDFC792008
:1022C00003F0FAFC002003F0F7FC882003F0F4FC94
:1022D000002003F0F1FC972003F0EEFC002003F057
:1022E000EBFCA62003F0E8FC002003F0E5FCB7209F
:1022F00003F0E2FC002003F0DFFCC22003F0DCFC72
:10230000002003F0D9FCC72003F0D6FC002003F026
:10231000D3FCD12003F0D0FC002003F0CDFCD6206C
:1023200003F0CAFC002003F0C7FCDD2003F0C4FC6E
:10233000002003F0C1FCF32003F0BEFC002003F0FA
:10234000BBFCE32003F0CAFC052003F0B5FC002031
:1023500003F0B2FC0A2003F0AFFC002003F0ACFC59
:102360001C2003F0A9FC002003F0A6FC332003F09E
:10237000A3FC002003F0A0FC442003F09DFC0020FF
:1023800003F09AFC502003F097FC002003F094FC2B
:10239000622003F091FC002003F08EFC782003F013
:1023A0008BFC002003F088FC882003F085FC0020D3
:1023B00003F082FC972003F07FFC002003F07CFCFC
:1023C000A62003F079FC002003F076FCB72003F090
:1023D00073FC002003F070FCC22003F06DFC0020B1
:1023E00003F06AFCC72003F067FC002003F064FCE4
:1023F000D12003F061FC002003F05EFCD52003F047
:102400005BFC002003F058FCDD2003F055FC0020AD
:1024100003F052FCF32003F04FFC002003F04CFCCF
:10242000E42003F05BFC012003F046FC002003F0F5
:1024300043FC012003F040FC002003F03DFC02209F
:1024400003F03AFC002003F037FC2A2003F034FCB0
:10245000002003F031FC3C2003F02EFC002003F0B0
:102460002BFC4B2003F028FC002003F025FC5D2012
:1024700003F022FC002003F01FFC742003F01CFC7E
:10248000002003F019FC842003F016FC002003F068
:1024900013FC932003F010FC002003F00DFCA2209D
:1024A00003F00AFC002003F007FCB32003F004FC57
:1024B000002003F001FCBE2003F0FEFB002003F02F
:1024C000FBFBC42003F0F8FB002003F0F5FBCD205C
:1024D00003F0F2FB002003F0EFFBD32003F0ECFB52
:1024E000002003F0E9FBDD2003F0E6FB002003F011
:1024F000E3FBF32003F0E0FB002003F0DDFBE5202D
:1025000003F0ECFB002003F0D7FB002003F0D4FB2A
:10251000002003F0D1FB002003F0CEFB022003F0EB
:10252000CBFB002003F0C8FB292003F0C5FB0020F3
:1025300003F0C2FB3C2003F0BFFB002003F0BCFB18
:102540004B2003F0B9FB002003F0B6FB5D2003F045
:10255000B3FB002003F0B0FB742003F0ADFB0020C0
:1025600003F0AAFB842003F0A7FB002003F0A4FBE8
:10257000932003F0A1FB002003F09EFBA22003F0B8
:102580009BFB002003F098FBB32003F095FB002099
:1025900003F092FBBE2003F08FFB002003F08CFBC6
:1025A000C42003F089FB002003F086FBCD2003F05C
:1025B00083FB002003F080FBD32003F07DFB002091
:1025C00003F07AFBDC2003F077FB002003F074FBC0
:1025D000F32003F071FB002003F06EFBE62003F014
:1025E0007DFB112003F068FB002003F065FB342025
:1025F00003F062FB002003F05FFB562003F05CFB5E
:10260000002003F059FB762003F056FB002003F076
:1026100053FB772003F050FB002003F04DFB6620B6
:1026200003F04AFB002003F047FB882003F044FB43
:10263000002003F041FB992003F03EFB002003F053
:102640003BFBBB2003F038FB002003F035FB992057
:1026500003F032FB002003F02FFB662003F02CFB7D
:10266000002003F029FB552003F026FB002003F097
:1026700023FB552003F020FB002003F01DFB452029
:1026800003F01AFB002003F017FB432003F014FBB8
:10269000002003F011FB442003F00EFB002003F0A8
:1026A0000BFBE72003F01AFB322003F005FB0020B0
:1026B00003F002FB552003F0FFFA002003F0FCFAC0
:1026C000762003F0F9FA002003F0F6FA662003F012
:1026D000F3FA002003F0F0FA672003F0EDFA00208F
:1026E00003F0EAFA672003F0E7FA002003F0E4FAC7
:1026F000872003F0E1FA002003F0DEFA992003F0CE
:10270000DBFA002003F0D8FABB2003F0D5FA002052
:1027100003F0D2FA992003F0CFFA002003F0CCFAAC
:10272000772003F0C9FA002003F0C6FA442003F032
:10273000C3FA002003F0C0FA562003F0BDFA0020CF
:1027400003F0BAFA232003F0B7FA002003F0B4FA3A
:10275000332003F0B1FA002003F0AEFA452003F075
:10276000ABFA002003F0A8FAE82003F0B7FA002043
:1027700003F0A2FA002003F09FFA992003F09CFADC
:10278000002003F099FA872003F096FA002003F066
:1027900093FA882003F090FA002003F08DFA772056
:1027A00003F08AFA002003F087FA662003F084FA27
:1027B000002003F081FA882003F07EFA002003F065
:1027C0007BFAAA2003F078FA002003F075FABB2008
:1027D00003F072FA002003F06FFA992003F06CFA0C
:1027E000002003F069FA662003F066FA002003F087
:1027F00063FA552003F060FA002003F05DFA5520DB
:1028000003F05AFA002003F057FA442003F054FA78
:10281000002003F051FA442003F04EFA002003F0A8
:102820004BFA552003F048FA002003F045FAE9205E
:1028300003F054FAAA2003F03FFA002003F03CFA18
:10284000002003F039FA002003F036FA002003F0EC
:1028500045FAAA2003F030FACF2003F03FFA002017
:1028600003F02AFA002003F027FA002003F024FAEC
:10287000002003F021FA002003F01EFA002003F0EC
:102880001BFA002003F018FA002003F015FA0020CC
:1028900003F012FA002003F00FFA002003F00CFA04
:1028A000002003F009FA002003F006FA002003F0EC
:1028B00003FA002003F000FA002003F0FDF90020E5
:1028C00003F0FAF9F02003F009FA002003F0F4F91C
:1028D000502003F0F1F9002003F0EEF9002003F09E
:1028E000EBF9002003F0E8F9F32003F0F7F90020FA
:1028F00003F0E2F9F92003F0F1F9062003F0DCF926
:10290000102003F0D9F9292003F0D6F9002003F0B4
:10291000D3F93A2003F0E2F9552003F0CDF9112064
:1029200003F0DCF9642003F0E7FF292003F0D6F977
:10293000352003F0D3F9002003F0BEF9512003F055
:10294000CDF9FF2003F0B8F9532003F0C7F92C208C
:1029500003F0B2F9552003F0C1F9822003F0ACF97D
:102960002C2003F0BBF902F066BBFE48808845F2DC
:10297000105188427ED155214FF4704003F0C8F9C0
:10298000AA214FF2010003F0C3F952214FF20200D5
:1029900003F0BEF908214FF2030003F0B9F9012159
:1029A0004FF2040003F0B4F90D214FF4304003F06E
:1029B000AFF90D214BF2010003F0AAF90D214BF202
:1029C000020003F0A5F934214FF4364003F0A0F9DA
:1029D00034214BF2016003F09BF934214BF2026089
:1029E00003F096F90D214FF4314003F091F90D21D8
:1029F0004BF2011003F08CF90D214BF2021003F0A1
:102A000087F934214FF4374003F082F934214BF237
:102A1000017003F07DF934214BF2027003F078F974
:102A200000214FF4324003F073F900214BF20120F2
:102A300003F06EF900214BF2022003F069F9242122
:102A40004FF4384003F064F924214BF6010003F001
:102A50005FF924214BF6020003F05AF901214FF4EB
:102A60003F4003F055F90F214FF4334003F050F984
:102A70000F2100E0FEE34BF2013003F049F90F2192
:102A80004BF2023003F044F934214FF4394003F0A3
:102A90003FF934214BF6011003F03AF934214BF69B
:102AA000021003F035F908214FF4354003F030F9F6
:102AB00008214BF2015003F02BF908214BF2025090
:102AC00003F026F903214FF4424003F021F92421B9
:102AD0004FF43A4003F01CF924214BF6012003F097
:102AE00017F924214BF6022003F012F900214FF4CC
:102AF0003C4003F00DF978214BF6014003F008F952
:102B000000214BF6024003F003F900214FF43D4051
:102B100003F0FEF878214BF6015003F0F9F800219C
:102B20004BF6025003F0F4F800214FF43E4003F05E
:102B3000EFF864214BF6016003F0EAF800214FF44E
:102B4000514003F0E5F833214DF2011003F0E0F8B5
:102B500000214DF2021003F0DBF834214DF2031096
:102B600003F0D6F800214DF2041003F0D1F83A2119
:102B70004DF2051003F0CCF800214DF2061003F0E1
:102B8000C7F84A214DF2071003F0C2F800214DF2B8
:102B9000081003F0BDF85C214DF2091003F0B8F8FD
:102BA00000214DF20A1003F0B3F881214DF20B1011
:102BB00003F0AEF800214DF20C1003F0A9F8A621A5
:102BC0004DF20D1003F0A4F800214DF20E1003F0A9
:102BD0009FF8E5214DF20F1003F09AF801214DF214
:102BE000101003F095F813214DF2111003F090F836
:102BF00001214DF2121003F08BF854214DF2131005
:102C000003F086F801214DF2141003F081F88221BF
:102C10004DF2151003F07CF801214DF2161003F06F
:102C200077F8CA214DF2171003F072F802214DF225
:102C3000181003F06DF800214DF2191003F068F838
:102C400002214DF21A1003F063F801214DF21B101E
:102C500003F05EF802214DF21C1003F059F8342104
:102C60004DF21D1003F054F802214DF21E1003F036
:102C70004FF867214DF21F1003F04AF802214DF280
:102C8000201003F045F884214DF2211003F040F8A4
:102C900002214DF2221003F03BF8A4214DF2231043
:102CA00003F036F802214DF2241003F031F8B72179
:102CB0004DF2251003F02CF802214DF2261003F0FE
:102CC00027F8CF214DF2271003F022F802214DF210
:102CD000281003F01DF8DE214DF2291003F018F83A
:102CE00002214DF22A1003F013F8F2214DF22B10BD
:102CF00003F00EF802214DF22C1003F009F8FE212A
:102D00004DF22D1003F004F803214DF22E1002F0C5
:102D1000FFFF10214DF22F1002F0FAFF03214DF2B8
:102D2000301002F0F5FF33214DF2311002F0F0FFC8
:102D300003214DF2321002F0EBFF6D214DF2331002
:102D400002F0E6FF00214FF4524002F0E1FF332190
:102D50004DF2012002F0DCFF00214DF2022002F0D2
:102D6000D7FF01E02C01002034214DF2032002F0B6
:102D7000CFFF00214DF2042002F0CAFF3A214DF2AC
:102D8000052002F0C5FF00214DF2062002F0C0FF31
:102D90004A214DF2072002F0BBFF00214DF208202E
:102DA00002F0B6FF5C214DF2092002F0B1FF0021D4
:102DB0004DF20A2002F0ACFF81214DF20B2002F00F
:102DC000A7FF00214DF20C2002F0A2FFA6214DF238
:102DD0000D2002F09DFF00214DF20E2002F098FF21
:102DE000E5214DF20F2002F093FF01214DF210205A
:102DF00002F08EFF13214DF2112002F089FF012114
:102E00004DF2122002F084FF54214DF2132002F003
:102E10007FFF01214DF2142002F07AFF82214DF252
:102E2000152002F075FF01214DF2162002F070FF0F
:102E3000CA214DF2172002F06BFF02214DF218203B
:102E400002F066FF00214DF2192002F061FF02211D
:102E50004DF21A2002F05CFF01214DF21B2002F01E
:102E600057FF02214DF21C2002F052FF34214DF297
:102E70001D2002F04DFF02214DF21E2002F048FFFE
:102E800067214DF21F2002F043FF02214DF2202066
:102E900002F03EFF84214DF2212002F039FF022191
:102EA0004DF2222002F034FFA4214DF2232002F043
:102EB0002FFF02214DF2242002F02AFFB7214DF20C
:102EC000252002F025FF02214DF2262002F020FFEE
:102ED000CF214DF2272002F01BFF02214DF22820C6
:102EE00002F016FFDE214DF2292002F011FF02212F
:102EF0004DF22A2002F00CFFF2214DF22B2002F0BD
:102F000007FF02214DF22C2002F002FFFE214DF2BC
:102F10002D2002F0FDFE03214DF22E2002F0F8FEDE
:102F200010214DF22F2002F0F3FE03214DF230204C
:102F300002F0EEFE33214DF2312002F0E9FE0321D2
:102F40004DF2322002F0E4FE6D214DF2332002F00A
:102F5000DFFE00214FF4534002F0DAFE33214DF240
:102F6000013002F0D5FE00214DF2023002F0D0FE19
:102F700034214DF2033002F0CBFE00214DF204303B
:102F800002F0C6FE3A214DF2053002F0C1FE0021EA
:102F90004DF2063002F0BCFE4A214DF2073002F03D
:102FA000B7FE00214DF2083002F0B2FE5C214DF276
:102FB000093002F0ADFE00214DF20A3002F0A8FE09
:102FC00081214DF20B3002F0A3FE00214DF20C30B6
:102FD00002F09EFEA6214DF20D3002F099FE002176
:102FE0004DF20E3002F094FEE5214DF20F3002F06A
:102FF0008FFE01214DF2103002F08AFE13214DF2B6
:10300000113002F085FE01214DF2123002F080FEF7
:1030100054214DF2133002F07BFE01214DF21430A9
:1030200002F076FE82214DF2153002F071FE012190
:103030004DF2163002F06CFECA214DF2173002F04C
:1030400067FE02214DF2183002F062FE00214DF2BF
:10305000193002F05DFE02214DF21A3002F058FEE6
:1030600001214DF21B3002F053FE02214DF21C30C3
:1030700002F04EFE34214DF21D3002F049FE0221D5
:103080004DF21E3002F044FE67214DF21F3002F077
:103090003FFE02214DF2203002F03AFE84214DF233
:1030A000213002F035FE02214DF2223002F030FED6
:1030B000A4214DF2233002F02BFE02214DF22430E8
:1030C00002F026FEB7214DF2253002F021FE02214A
:1030D0004DF2263002F01CFECF214DF2273002F0D7
:1030E00017FE02214DF2283002F012FEDE214DF2D1
:1030F000293002F00DFE02214DF22A3002F008FEC6
:10310000F2214DF22B3002F003FE02214DF22C3061
:1031100002F0FEFDFE214DF22D3002F0F9FD0321FB
:103120004DF22E3002F0F4FD10214DF22F3002F05E
:10313000EFFD03214DF2303002F0EAFD33214DF274
:10314000313002F0E5FD03214DF2323002F0E0FDB6
:103150006D214DF2333002F0DBFD00214FF454407D
:1031600002F0D6FD33214DF2014002F0D1FD0021E5
:103170004DF2024002F0CCFD34214DF2034002F04A
:10318000C7FD00214DF2044002F0C2FD3A214DF28C
:10319000054002F0BDFD00214DF2064002F0B8FDF1
:1031A0004A214DF2074002F0B3FD00214DF20840E4
:1031B00002F0AEFD5C214DF2094002F0A9FD0021B4
:1031C0004DF20A4002F0A4FD81214DF20B4002F0C5
:1031D0009FFD00214DF20C4002F09AFDA6214DF218
:1031E0000D4002F095FD00214DF20E4002F090FDE1
:1031F000E5214DF20F4002F08BFD01214DF2104010
:1032000002F086FD13214DF2114002F081FD0121F3
:103210004DF2124002F07CFD54214DF2134002F0B9
:1032200077FD01214DF2144002F072FD82214DF232
:10323000154002F06DFD01214DF2164002F068FDCF
:10324000CA214DF2174002F063FD02214DF21840F1
:1032500002F05EFD00214DF2194002F059FD0221FD
:103260004DF21A4002F054FD01214DF21B4002F0D4
:103270004FFD00E004E302214DF21C4002F048FD46
:1032800034214DF21D4002F043FD02214DF21E405B
:1032900002F03EFD67214DF21F4002F039FD022190
:1032A0004DF2204002F034FD84214DF2214002F025
:1032B0002FFD02214DF2224002F02AFDA4214DF201
:1032C000234002F025FD02214DF2244002F020FDB2
:1032D000B7214DF2254002F01BFD02214DF22640A0
:1032E00002F016FDCF214DF2274002F011FD022120
:1032F0004DF2284002F00CFDDE214DF2294002F093
:1033000007FD02214DF22A4002F002FDF2214DF2AA
:103310002B4002F0FDFC02214DF22C4002F0F8FCA3
:10332000FE214DF22D4002F0F3FC03214DF22E4020
:1033300002F0EEFC10214DF22F4002F0E9FC0321D7
:103340004DF2304002F0E4FC33214DF2314002F006
:10335000DFFC03214DF2324002F0DAFC6D214DF228
:10336000334002F0D5FC00214FF4554002F0D0FC70
:1033700033214DF2015002F0CBFC00214DF20250FE
:1033800002F0C6FC34214DF2035002F0C1FC0021D2
:103390004DF2045002F0BCFC3A214DF2055002F00F
:1033A000B7FC00214DF2065002F0B2FC4A214DF26A
:1033B000075002F0ADFC00214DF2085002F0A8FCCD
:1033C0005C214DF2095002F0A3FC00214DF20A509D
:1033D00002F09EFC81214DF20B5002F099FC00217D
:1033E0004DF20C5002F094FCA6214DF20D5002F06B
:1033F0008FFC00214DF20E5002F08AFCE5214DF2C7
:103400000F5002F085FC01214DF2105002F080FCBB
:1034100013214DF2115002F07BFC01214DF21250AC
:1034200002F076FC54214DF2135002F071FC0121A0
:103430004DF2145002F06CFC82214DF2155002F056
:1034400067FC01214DF2165002F062FCCA214DF2D8
:10345000175002F05DFC02214DF2185002F058FCAA
:1034600000214DF2195002F053FC02214DF21A5086
:1034700002F04EFC01214DF21B5002F049FC0221EA
:103480004DF21C5002F044FC34214DF21D5002F06C
:103490003FFC02214DF21E5002F03AFC67214DF232
:1034A0001F5002F035FC02214DF2205002F030FC9A
:1034B00084214DF2215002F02BFC02214DF22250CA
:1034C00002F026FCA4214DF2235002F021FC02213F
:1034D0004DF2245002F01CFCB7214DF2255002F0B1
:1034E00017FC02214DF2265002F012FCCF214DF2C2
:1034F000275002F00DFC02214DF2285002F008FC8A
:10350000DE214DF2295002F003FC02214DF22A5037
:1035100002F0FEFBF2214DF22B5002F0F9FB0221EA
:103520004DF22C5002F0F4FBFE214DF22D5002F032
:10353000EFFB03214DF22E5002F0EAFB10214DF279
:103540002F5002F0E5FB03214DF2305002F0E0FB7A
:1035500033214DF2315002F0DBFB03214DF23250AA
:1035600002F0D6FB6D214DF2335002F0D1FB002169
:103570004FF4564002F0CCFB33214DF2016002F0D3
:10358000C7FB00214DF2026002F0C2FB34214DF274
:10359000036002F0BDFB00214DF2046002F0B8FBB5
:1035A0003A214DF2056002F0B3FB00214DF20660B6
:1035B00002F0AEFB4A214DF2076002F0A9FB0021A8
:1035C0004DF2086002F0A4FB5C214DF2096002F0AC
:1035D0009FFB00214DF20A6002F09AFB81214DF21F
:1035E0000B6002F095FB00214DF20C6002F090FBA5
:1035F000A6214DF20D6002F08BFB00214DF20E6012
:1036000002F086FBE5214DF20F6002F081FB012103
:103610004DF2106002F07CFB13214DF2116002F0BC
:1036200077FB01214DF2126002F072FB54214DF242
:10363000136002F06DFB01214DF2146002F068FB93
:1036400082214DF2156002F063FB01214DF21660FC
:1036500002F05EFBCA214DF2176002F059FB022115
:103660004DF2186002F054FB00214DF2196002F097
:103670004FFB02214DF21A6002F04AFB01214DF28C
:103680001B6002F045FB02214DF21C6002F040FB82
:1036900034214DF21D6002F03BFB02214DF21E6011
:1036A00002F036FB67214DF21F6002F031FB022170
:1036B0004DF2206002F02CFB84214DF2216002F0DB
:1036C00027FB02214DF2226002F022FBA4214DF2E1
:1036D000236002F01DFB02214DF2246002F018FB72
:1036E000B7214DF2256002F013FB02214DF2266056
:1036F00002F00EFBCF214DF2276002F009FB022100
:103700004DF2286002F004FBDE214DF2296002F048
:10371000FFFA02214DF22A6002F0FAFAF2214DF28C
:103720002B6002F0F5FA02214DF22C6002F0F0FA63
:10373000FE214DF22D6002F0EBFA03214DF22E60D6
:1037400002F0E6FA10214DF22F6002F0E1FA0321B7
:103750004DF2306002F0DCFA33214DF2316002F0BC
:10376000D7FA03214DF2326002F0D2FA6D214DF208
:10377000336002F0CDFA55214FF4704002F0C8FAE0
:10378000AA214FF2010002F0C3FA52214FF20200C7
:1037900002F0BEFA08214FF2030002F0B9FA00214C
:1037A0004FF2040002F0B4FACC214FF4314002F0A1
:1037B000AFFA00214BF2011002F0AAFA05214FF4F2
:1037C000364002F0A5FA70214FF4374002F0A0FA1B
:1037D00070214BF2017002F09BFA01214FF4384046
:1037E00002F096FA03214BF6010002F091FA032150
:1037F0004BF6020002F08CFA03214BF6030002F0B4
:1038000087FA02214FF43C4002F082FA00214BF685
:10381000014002F07DFA00214BF6024002F078FAF6
:10382000D0214FF4494002F073FA02214CF6011006
:1038300002F06EFA50214CF6021002F069FA5021A3
:103840004CF6031002F064FA50214CF6041002F01A
:103850005FFA00214FF4545002F05AFA55214FF408
:10386000685002F055FA4FF4885002F037FA782089
:1038700003F062F84FF4245002F030FA01F0DBBBA1
:10388000FE48808849F2253188427DD147F6F00113
:10389000E52002F03DFA4FF48071012002F038FA81
:1038A0004FF4E061022002F033FA41F230010320CC
:1038B00002F02EFA0021042002F02AFA40F202213E
:1038C000082002F025FA0021092002F021FA002147
:1038D0000A2002F01DFA00210C2002F019FA002142
:1038E0000D2002F015FA00210F2002F011FA00213C
:1038F000102002F00DFA0721112002F009FA002130
:10390000122002F005FA0021132002F001FA002132
:10391000072002F0FDF941F29061102002F0F8F961
:1039200040F22721112002F0F3F99D21122002F02C
:10393000EFF94FF4C851132002F0EAF925212920AC
:1039400002F0E6F90D212B2002F0E2F907213020E8
:1039500002F0DEF940F20331312002F0D9F90321FF
:10396000322002F0D5F940F20621352002F0D0F9DC
:103970000821362002F0CCF940F20641372002F04F
:10398000C7F94FF4417100E058E0382002F0C0F967
:103990000721392002F0BCF940F202613C2002F01C
:1039A000B7F908213D2002F0B3F90021502002F0C0
:1039B000AFF9EF21512002F0ABF90021522002F0C3
:1039C000A7F940F23F11532002F0A2F94FF427412A
:1039D000602002F09DF90121612002F099F9002197
:1039E0006A2002F095F90021802002F091F900216F
:1039F000812002F08DF90021822002F089F9002156
:103A0000832002F085F90021842002F081F9002151
:103A1000852002F07DF91021902002F079F94FF411
:103A2000C061922002F074F940F23311072002F0D5
:103A30006FF92221002002F06BF91FE78F48808880
:103A400049F2283188427DD141F28F01EC2002F009
:103A50005FF941F23421EF2002F05AF94FF48071FE
:103A6000012002F055F94FF4E061022002F050F914
:103A700041F23001032002F04BF90021042002F052
:103A800047F940F20221082002F042F90021092002
:103A900002F03EF900210A2002F03AF901210C203F
:103AA00002F036F900210D2002F032F900210F203A
:103AB00002F02EF90021102002F02AF9072111202E
:103AC00002F026F90021122002F022F90021132031
:103AD00002F01EF90121072002F01AF9322002F04B
:103AE0000BFF41F29041102002F012F940F2272121
:103AF000112002F00DF9322002F0FEFE8A21122080
:103B000002F006F9322002F0F7FE4FF4D0511320F4
:103B100002F0FEF80621292002F0FAF80D212B20F0
:103B200002F0F6F8322002F0E7FE0021202002F039
:103B3000EFF80021212002F0EBF8322002F0DCFE49
:103B4000002100E075E0302002F0E2F840F204616C
:103B5000312002F0DDF840F20531322002F0D8F8D1
:103B60000021352002F0D4F840F60941362002F059
:103B7000CFF84FF40171372002F0CAF840F201315A
:103B8000382002F0C5F840F20771392002F0C0F881
:103B900000213C2002F0BCF840F60A213D2002F052
:103BA000B7F8322002F0A8FE0021502002F0B0F851
:103BB000EF21512002F0ACF80021522002F0A8F8C9
:103BC00040F23F11532002F0A3F84FF42741602048
:103BD00002F09EF80121612002F09AF800216A208B
:103BE00002F096F80021802002F092F80021812056
:103BF00002F08EF80021822002F08AF80021832052
:103C000002F086F80021842002F082F8002185204D
:103C100002F07EF81021902002F07AF84FF4C06193
:103C2000922002F075F840F23311072002F070F88C
:103C300024E61248808849F2203188427ED1002152
:103C4000084602F065F84FF48071012002F060F838
:103C50004FF4E061022002F05BF841F230010320F2
:103C600002F056F80021042002F052F840F202213E
:103C7000082002F04DF80021092001E02C0100206D
:103C800002F046F800210A2002F042F801210C203F
:103C900002F03EF800210D2002F03AF800210F203A
:103CA00002F036F8322002F027FE40F20111072020
:103CB00002F02EF8322002F01FFE4FF48651102041
:103CC00002F026F80721112002F022F84FF4887143
:103CD000122002F01DF84FF43061132002F018F8A2
:103CE0000021292002F014F844F210012B2002F0E8
:103CF0000FF80021502002F00BF8EF21512002F0C4
:103D000007F80021522002F003F840F23F1153203F
:103D100001F0FEFF4FF41C51602001F0F9FF01217A
:103D2000612001F0F5FF00216A2001F0F1FF002180
:103D3000802001F0EDFF0021812000E030E001F063
:103D4000E7FF0021822001F0E3FF0021832001F042
:103D5000DFFF0021842001F0DBFF0021852001F03E
:103D6000D7FF1021902001F0D3FF0021922001F015
:103D7000CFFF0121932001F0CBFF4FF488719520F4
:103D800001F0C6FF0021972001F0C2FF002198201A
:103D900001F0BEFF40F27311072001F0B9FF6DE59D
:103DA000FE48808849F2313188427DD141F21401C8
:103DB000E72001F0ADFF4FF48071012001F0A8FF72
:103DC0004FF40071022001F0A3FF41F238010320FB
:103DD00001F09EFF40F20221082001F099FF00212E
:103DE000092001F095FF00210A2001F091FF002138
:103DF0000C2001F08DFF00210D2001F089FF002132
:103E00000F2001F085FF0021102001F081FF072124
:103E1000112001F07DFF0021122001F079FF002127
:103E2000132001F075FFC82002F066FD41F2906199
:103E3000102001F06DFF40F22721112001F068FFF2
:103E4000322002F059FD0C21122001F061FF3220D6
:103E500002F052FD4FF40061132001F059FF1121CF
:103E6000292001F055FF0B212B2001F051FF3220BA
:103E700002F042FD0021202001F04AFF40F23F11F4
:103E8000212001F045FF0021302001F041FF4FF4D7
:103E90008371312001F03CFF0021322001F038FF16
:103EA0004FF40171352000E064E001F031FF41F290
:103EB0000A61362001F02CFF40F20771372001F033
:103EC00027FF4FF48371382001F022FF40F2077181
:103ED000392001F01DFF40F202413C2001F018FFA3
:103EE00040F60F413D2001F013FF0021502001F06A
:103EF0000FFFEF21512001F00BFF0021522001F0B4
:103F000007FF40F23F11532001F002FF4FF41C5114
:103F1000602001F0FDFE0121612001F0F9FE002189
:103F20006A2001F0F5FE0021802001F0F1FE002161
:103F3000812001F0EDFE0021822001F0E9FE002148
:103F4000832001F0E5FE0021842001F0E1FE002144
:103F5000852001F0DDFE1021902001F0D9FE4FF404
:103F6000C061922001F0D4FE40F23311072001F02D
:103F7000CFFE83E48948808845F2084188427DD19C
:103F80004FF48071012001F0C3FE4FF4E061022084
:103F900001F0BEFE41F23001032001F0B9FE002124
:103FA000042001F0B5FE40F20721082001F0B0FE28
:103FB0000021092001F0ACFE00210A2001F0A8FE3A
:103FC00000210C2001F0A4FE00210D2001F0A0FE34
:103FD00000210F2001F09CFE142002F08DFC41F224
:103FE000B061102001F094FE0121112001F090FE3B
:103FF0000121172001F08CFE4FF49C71122001F07A
:1040000087FE4FF40061132001F082FE0921292070
:1040100001F07EFE09212A2001F07AFE0021A42071
:1040200001F076FE0021502001F072FEEF215120B8
:1040300001F06EFE0021522001F06AFE40F23F11B5
:10404000532001F065FE4FF41C51602001F060FE2A
:104050000121612001F05CFE00216A2001F058FE80
:104060000021802001F054FE0021812001F050FE4B
:104070000021822001F04CFE002100E024E083209A
:1040800001F046FE0021842001F042FE002185203F
:1040900001F03EFE1321902001F03AFE0021922013
:1040A00001F036FE0321932001F032FE4FF48871B7
:1040B000952001F02DFE40F27311072001F028FE3B
:1040C000322002F019FCB8E43448808841F20551EE
:1040D00088427DD10021072001F01AFE322002F033
:1040E0000BFC4FF48E71122001F012FE0121A4206E
:1040F00001F00EFE0F21082001F00AFE08210A201F
:1041000001F006FE08210D2001F002FE40F20771C9
:10411000302001F0FDFD0721312001F0F9FD40F2D2
:104120000361322001F0F4FD4FF4E061332001F02F
:10413000EFFD40F20221342001F0EAFD022135209A
:1041400001F0E6FD41F60F71362001F0E1FD40F28D
:104150000771372001F0DCFD0021382001F0D8FD87
:104160000021392001F0D4FD40F207713A2001F01E
:10417000CFFD00213B2001F0CBFD07213C2001F0C9
:10418000C7FD00213D2001F0C3FD322002F0B4FB49
:104190000121072001F0BCFD012101E02C010020DC
:1041A000172001F0B5FD322002F0A6FB4FF4BD51FF
:1041B000102001F0ADFD40F21721112001F0A8FD03
:1041C0004FF48F71122001F0A3FD4FF4706100E0F5
:1041D00098E0132001F09CFD00212A2001F098FDB9
:1041E0000A21292001F094FD4FF49F71122001F063
:1041F0008FFD0021502001F08BFDEF21512001F0B7
:1042000087FD0021522001F083FD40F23F11532031
:1042100001F07EFD4FF41C51602001F079FD012179
:10422000612001F075FD00216A2001F071FD00217F
:10423000802001F06DFD0021812001F069FD002149
:10424000822001F065FD0021832001F061FD002145
:10425000842001F05DFD0021852001F059FD13212E
:10426000902001F055FD4FF44071922001F050FD77
:104270000521932001F04CFD0021952001F048FD1F
:104280000021972001F044FD0021982001F040FD1D
:104290004FF48071012001F03BFD4FF4E0610220FA
:1042A00001F036FD41F23801032001F031FD00211B
:1042B000042001F02DFD00210C2001F029FD00213A
:1042C0000F2001F025FD0021202001F021FD00211B
:1042D000212001F01DFD2121072001F019FD1420EE
:1042E00002F00AFB6121072001F012FD142002F008
:1042F00003FB40F27311072001F00AFD142002F0C5
:10430000FBFA95E4FE4880884BF2055188427CD147
:104310000021084601F0FCFC0021084601F0F8FCF1
:104320000021084601F0F4FC0021084601F0F0FCF1
:104330000121A42001F0ECFC142002F0DDFA4FF47E
:104340001C51602001F0E4FC40F20221082001F041
:10435000DFFC4FF40571302001F0DAFC43F21571F7
:10436000312001F0D5FC40F20461322001F0D0FC94
:1043700040F61661332001F0CBFC42F211213420CB
:1043800001F0C6FC4FF4A851352001F0C1FC48F201
:104390000751362001F0BCFC41F20741372001F003
:1043A000B7FC41F20341382001F0B2FC2021392052
:1043B00001F0AEFC1A21902001F0AAFC002110208F
:1043C00001F0A6FC0721112001F0A2FC002112201F
:1043D00001F09EFC0021132001F09AFC142002F051
:1043E0008BFA4FF4E661102001F092FC40F2371195
:1043F000112001F08DFC142002F07EFA4FF4DC71E4
:10440000122001F085FC142000E085E002F074FA2F
:104410004FF47061132001F07BFC80212A2001F011
:1044200077FC4821292001F073FC142002F064FA83
:104430004FF48071012001F06BFC4FF4E061022029
:1044400001F066FC41F23801032001F061FC40F20A
:104450000221082001F05CFC00210A2001F058FC38
:1044600000210C2001F054FC00210D2001F050FC33
:1044700030210E2001F04CFC0021502001F048FCBE
:10448000EF21512001F044FC0021522001F040FCBA
:1044900040F23F11532001F03BFC4FF41C516020CF
:1044A00001F036FC0121612001F032FC00216A207C
:1044B00001F02EFC1121902001F02AFC4FF4C06184
:1044C000922001F025FC40F20241932001F020FCF3
:1044D0000221942001F01CFC142002F00DFA0121AD
:1044E000072001F015FC142002F006FA61210720D4
:1044F00001F00EFC40F27311072001F009FC0021CD
:10450000202001F005FC0021212001F001FC2221E6
:10451000002001F0FDFB42E4794880884CF205510F
:1045200088427CD10021084601F0F2FB00210846B8
:1045300001F0EEFB142002F0DFF90021084601F043
:10454000E7FB0021084601F0E3FB0021084601F0EB
:10455000DFFB0021084601F0DBFB0121A42001F074
:10456000D7FB142002F0C8F94FF41C51602001F071
:10457000CFFB40F60601082001F0CAFB40F20371B0
:10458000302001F0C5FB0121312001F0C1FB0421E5
:10459000322001F0BDFB4FF48171332001F0B8FBF4
:1045A0004FF44071342001F0B3FB40F20311352089
:1045B00001F0AEFB1F21362001F0AAFB40F203718F
:1045C000372001F0A5FB0121382001F0A1FB0421D7
:1045D000392001F09DFB1521902001F099FB4FF44B
:1045E0008261102001F094FB40F24721112001F07C
:1045F0008FFB4FF4DE71122001F08AFB4FF46061F3
:10460000132001F085FB782002F076F94FF48071D9
:10461000012001F07DFB4FF40071022000E052E028
:1046200001F076FB41F23001032001F071FB08211B
:104630000A2001F06DFB00210C2001F069FB202114
:104640000E2001F065FB00210F2001F061FB00212D
:10465000202001F05DFB0021212001F059FB3D21CC
:104660002A2001F055FB142002F046F92D212920C3
:1046700001F04EFB0021502001F04AFB4DF2EF010A
:10468000512001F045FB0021522001F041FB40F296
:104690003F11532001F03CFB0021612001F038FB69
:1046A00000216A2001F034FB4FF44071922001F0A8
:1046B0002FFB0521932001F02BFB4FF48071072085
:1046C00001F026FB55E40E48808848F6891188429F
:1046D0007ED10121002001F01BFB4AF6A40103203A
:1046E00001F016FB00210C2001F012FB40F60C013A
:1046F0000D2001F00DFB4FF42C510E2002E00000C4
:104700002C01002001F004FBB0211E2001F000FB71
:1047100042F63F31012001F0FBFA4FF4C061022064
:1047200001F0F6FA0021102001F0F2FA46F27801C9
:10473000112001F0EDFA0021052001F0E9FA002135
:10474000062001F0E5FA4EF61C71162001F0E0FAA1
:104750000321172001F0DCFA40F23321072001F099
:10476000D7FA00210B2001F0D3FA00210F2001F02D
:10477000CFFA0021412001F0CBFA0021422001F0C4
:10478000C7FA0021482001F0C3FA40F23F11492046
:1047900001F0BEFA00214A2001F0BAFA00214B20B4
:1047A00001F0B6FA4FF46F41442001F0B1FA002154
:1047B000452001F0ADFA40F23F11462001F0A8FA81
:1047C00040F20771302001F0A3FA4FF4017100E0CC
:1047D00040E0312001F09CFA4FF40171322001F0E9
:1047E00097FA40F20251332001F092FA40F2075159
:1047F000342001F08DFA4FF40171352001F088FA70
:104800004FF40171362001F083FA40F20251372053
:1048100001F07EFA40F202313A2001F079FA40F2DA
:1048200002313B2001F074FA0021232001F070FADC
:104830000021242001F06CFA4FF40041252001F002
:1048400067FA00214F2001F063FA00214E2001F0A9
:104850005FFAF0E3FE48808844F2315188427DD10E
:104860000121002001F054FA0A2002F045F841F23B
:104870002861102001F04CFA0E21122001F048FAB4
:1048800040F63921132001F043FA0A2002F034F8EF
:104890004021112001F03CFA5021152001F038FA96
:1048A0000A2002F029F81E21122001F031FA0A2014
:1048B00002F022F84FF4B151102001F029FA42F62B
:1048C0003921132001F024FA0A2002F015F84FF4E0
:1048D0008071012001F01CFA4FF44071022001F0B8
:1048E00017FA41F23801032001F012FA40F20221D6
:1048F000082001F00DFA08210A2001F009FA002130
:10490000302001F005FA40F20241312001F000FAB6
:104910004FF48371322001F0FBF940F20351332050
:1049200001F0F6F94FF48271342001F0F1F940F210
:104930000131352001F0ECF940F20771362001F029
:10494000E7F940F20531372001F0E2F94FF4027146
:10495000382001F0DDF940F60B7100E03CE0392031
:1049600001F0D6F90221412001F0D2F94FF41C5197
:10497000602001F0CDF90121612001F0C9F94FF467
:104980000471902001F0C4F94FF48571922001F078
:10499000BFF90421932001F0BBF94FF48071A020EE
:1049A00001F0B6F90121072001F0B2F92121072019
:1049B00001F0AEF92321072001F0AAF933210720E5
:1049C00001F0A6F940F23311072001F0A1F900210E
:1049D000A02001F09DF92EE39D48808844F23551D6
:1049E00088427CD13021152001F092F910219A20C3
:1049F00001F08EF92021112001F08AF943F22841BB
:104A0000102001F085F90221122001F081F941F214
:104A10003801132001F07CF9282001F06DFF1221EC
:104A2000084601F075F9282001F066FF43F22041A5
:104A3000102001F06DF943F23801132001F068F9FC
:104A4000462001F059FF0021302001F061F940F2C9
:104A50000241312001F05CF940F20731322001F0CF
:104A600057F94FF44171332001F052F904213420F9
:104A700001F04EF940F20141352001F049F940F2D0
:104A80000771362001F044F940F20531372001F07A
:104A90003FF94FF4C261382001F03AF94FF4C26196
:104AA000392001F035F94FF48071012001F030F91F
:104AB0004FF44071022001F02BF941F23001032044
:104AC00001F026F940F60801082001F021F908213B
:104AD0000A2001F01DF94FF41C51602000E033E082
:104AE00001F016F90121612001F012F94FF49F71D4
:104AF000902001F00DF94FF48071922001F008F937
:104B00004FF48071932001F003F94FF44051A0203D
:104B100001F0FEF81021A32001F0FAF8012107208E
:104B200001F0F6F82121072001F0F2F823210720F7
:104B300001F0EEF83321072001F0EAF840F23311DA
:104B4000072001F0E5F876E24148808841F66311DC
:104B50008842F8D1E22001F0C1F84FF480703D495D
:104B60000861400048611D203B49086080203949A8
:104B70004861086180000861401008614000486198
:104B80000220354908608020324948610861800070
:104B90000861401008614000486104202E49086007
:104BA00080202C494861086180000861642001F080
:104BB000C3FEE02001F092F84FF4807025490861AF
:104BC0004000486101202449086080202149486153
:104BD0000861800008610A2001F08EFEE02001F0EB
:104BE0007DF84FF480701B49086140004861032044
:104BF00019490860802017494861086180000861F0
:104C00000C2001F079FE012001F068F80A2001F083
:104C100073FEE62001F062F84FF480700D490861E0
:104C2000400048612F200C490860802009494861F4
:104C30000861800008614010086140004861FF2061
:104C4000054908608020034948610861800005E04B
:104C50002C010020001001400C0C014008614010A4
:104C6000086140004861FF20F84908608020F84949
:104C70004861086180000861B02001F02FF84FF40E
:104C80008070F3490861400048612020EF490860C6
:104C90008020EF4948610861800008614010086188
:104CA000400048610020E94908608020E8494861E7
:104CB00008618000086140100861400048610320DD
:104CC000E24908608020E24948610861800008618B
:104CD000401008614000486140F21F30DB49086025
:104CE0008020DB494861086180000861401008614C
:104CF000400048610120D54908608020D4494861BE
:104D0000086180000861401008614000486140F27D
:104D1000DF10CE4908608020CD49486108618000DD
:104D2000086140100861400048610020C7490860E0
:104D30008020C7494861086180000861B42000F004
:104D4000CDFF4FF48070C2490861400048610420E3
:104D5000BE4908608020BE49486108618000086142
:104D6000401008614000486140F21F40B7490860A8
:104D70008020B749486108618000086140100861DF
:104D8000400048610020B14908608020B049486176
:104D900008618000086140100861400048612E20D1
:104DA000AA4908608020AA4948610861800008611A
:104DB00040100861400048610020A449086080203C
:104DC000A349486108618000086140100861400003
:104DD000486100209D49086080209D494861086124
:104DE0008000086140100861400048610020974938
:104DF0000860802096494861086180000861401081
:104E00000861400048610020904908608020904976
:104E10004861086180000861B62000F05FFF4FF430
:104E200080708B4908614000486102208749086012
:104E3000802087494861086180000861401008614E
:104E4000400048614FF40370804908608020804929
:104E500048610861800008614010086140004861B5
:104E600000207A4908608020794948610861800003
:104E700008614010086140004861172073490860CC
:104E80008020734948610861800008614010086112
:104E90004000486115206D49086080206C494861D8
:104EA00008618000086140100861400048610020EE
:104EB0006649086080206649486108618000086191
:104EC000401008614000486100206049086080206F
:104ED0005F494861086180000861F02000F0FEFE33
:104EE0004FF480705A4908614000486103205749D7
:104EF00008608020564948610861800008612920C7
:104F000000F0ECFED02000F0E9FE4FF48070504934
:104F100008614000486100204C49086080204C49ED
:104F20004861086180000861BE2000F0D7FE4FF4A0
:104F30008070474908614000486105204349086086
:104F40008020434948610861800008614010086181
:104F500040004861FE203D49086080203C4948618E
:104F6000086180000861401008614000486101202C
:104F70003649086080203649486108618000086130
:104F800040100861400048610020304908608020DE
:104F90002F494861086180000861401008614000A5
:104FA000486100202949086080202949486108613A
:104FB00080000861401008614000486100202349DA
:104FC0000860802022494861086180000861B8209B
:104FD00000F084FE4FF480701D4908614000486174
:104FE00003201A490860802019494861086180003F
:104FF00008614010086140004861012013490860C1
:10500000802013494861086180000861BA2000F0DF
:1050100065FE4FF480700E49086140004861012030
:105020000A49086080200A494861086180000861D7
:10503000642000F05DF80020FBF79EFE012005498A
:1050400008604FF6FF70FBF753FE08BD0C0C0140E3
:1050500000100140A801224210B50246012000E0E4
:1050600050430B1EA1F10104E1B2F9D110BD0000C3
:1050700010B54FF0883017490860091D08600020FE
:1050800014490C31086088151349086140004861D3
:10509000402048611148808848F68911884202D131
:1050A000022001F049FC0B480830006884B240201F
:1050B00009490861C00008614FF0333005490860B4
:1050C000091D08604FF6FF7002490C310860204648
:1050D00010BD0000000C0140001001402C01002018
:1050E00010B50446204600F0F9FDFFF7C1FF10BDE2
:1050F0002DE9F0410446BE2000F0F0FD4FF4807031
:105100002D4908614000486105202C490860802035
:105110002949486108618000086140100861400029
:105120004861204604F059FC05464FF06632244B96
:1051300004F066FC074604F023FC20490860802048
:105140001D49486108618000086140100861400005
:1051500048610120194908608020174948610861A9
:10516000800008614010086140004861FF20134939
:105170000860802010494861086180000861401083
:1051800008614000486100200C49086080200A49FD
:105190004861086180000861401008614000486172
:1051A00000200649086080200349486108618000AA
:1051B0000861BDE8F0810000001001400C0C0140C6
:1051C00066660440F0B5054600240027FC48807957
:1051D00001280BD1FA48808846F60401884205D0A0
:1051E000F748808841F66311884208D1F4488079F5
:1051F000F0B9F348808841F66311884218D1082D30
:1052000015D2DFE805F00406080A0C0E1012062578
:105210000DE007250BE0042509E0052507E0012541
:1052200005E0002503E0032501E0022500BF00BFE3
:10523000E348808849F24131884217D0E0488088AD
:1052400046F60401884211D0DD48808845F21031CD
:1052500088420BD0DA48808845F21051884205D048
:10526000D748808841F6631188427DD1082D1CD231
:10527000DFE805F00406090C0F12151800BF14E052
:1052800044F0800411E044F040040EE044F0C00417
:105290000BE044F0200408E044F0600405E044F032
:1052A000A00402E044F0E00400BF00BFC4488088CE
:1052B00045F21051884202D14FF4585700E036278A
:1052C000BF48808845F2103188420DD0BC488088A4
:1052D00045F21051884207D0B948808841F66311E1
:1052E000884201D044F00804B548808846F604019D
:1052F000884201D144F002042146384600F008FDFE
:10530000AF48808841F6631188421DD004F0200028
:1053100068B1AB480088AA494988884214DAA8488D
:1053200006884088A6490880084646800CE0A448C4
:105330000088A3494988884206DDA148068840883C
:105340009F490880084646809D48808845F2105154
:1053500088427DD19A49488900F0C0FC4FF48070A2
:1053600098490861400000E030E14861002096491A
:105370000860802093494861086180000861904975
:105380004989491C88B200F0A9FC4FF480708D490E
:1053900008614000486100208B49086080208949ED
:1053A000486108618000086185494989891C88B283
:1053B00000F094FC4FF4807082490861400048611D
:1053C0007F480088401E00127F49086080207D4988
:1053D000486108618000086179494989C91C88B21F
:1053E00000F07CFC4FF48070764908614000486111
:1053F00073480078401EC0B273490860802071492C
:1054000048610861800008616D49888900F066FC88
:105410004FF480706B4908614000486100206A4980
:10542000086080206749486108618000086164491C
:105430008989491C88B200F051FC4FF480706149A1
:1054400008614000486100205F490860802000E05A
:1054500035E05C49486108618000086158498989E4
:10546000891C88B200F03AFC4FF4807055490861FD
:105470004000486152484088401E0012524908606E
:105480008020504948610861800008614C49898941
:10549000C91C88B200F022FC4FF4807049490861B1
:1054A0004000486146488078401EC0B246490860C6
:1054B000802044494861086180000861ADE04049AE
:1054C000488900F00BFC4FF480703E4908614000B1
:1054D000486100203C49086080203A4948610861E1
:1054E0008000086140100861400048610020364992
:1054F00008608020334948610861800008614010DD
:105500000861400048612E480088401E00122E4964
:10551000086080202B4948610861800008614010C4
:1055200008614000486126480078401EC0B2264904
:105530000860802023494861086180000861204993
:10554000888900F0CBFB4FF480701E490861400051
:10555000486100201C49086080201A4948610861A0
:105560008000086140100861400048610020164931
:10557000086080201349486108618000086140107C
:105580000861400048610E484088401E00120E49E4
:10559000086080200B494861086180000861401064
:1055A00008614000486106488078401EC0B2064944
:1055B00008608020034948610861800008612CE090
:1055C0002C010020001001400C0C0140082D1CD2C1
:1055D000DFE805F004070A0D0F12151844F0300437
:1055E00013E044F0100410E044F020040DE000BF8C
:1055F0000BE044F0380408E044F0280405E044F0EF
:10560000180402E044F0080400BF00BF032744F47C
:1056100080542146384600F07BFBF0BD30B504468F
:105620000D46EA48808849F24131884205D0E74872
:10563000808845F21031884240D1E449488900F021
:105640004DFB4FF48070E249086140004861201230
:10565000E04908608020DE494861086180000861F7
:105660004010086140004861E0B2DA4908608020DB
:10567000D7494861086180000861D449888900F0F1
:105680002DFB4FF48070D249086140004861281218
:10569000D04908608020CE494861086180000861D7
:1056A0004010086140004861E8B2CA4908608020A3
:1056B000C749486108618000086186E1C348808865
:1056C00046F60401884249D1C0488079012804D1B6
:1056D000BE480088401E001B84B2BC49488900F0C7
:1056E000FDFA4FF48070BA49086140004861201209
:1056F000B84908608020B6494861086180000861A7
:105700004010086140004861E0B2B2490860802062
:10571000AF494861086180000861AC49888900F0A0
:10572000DDFA4FF48070AA490861400048612812F0
:10573000A84908608020A649486108618000086186
:105740004010086140004861E8B2A249086080202A
:105750009F49486108618000086136E19B48808864
:1057600041F6631188427DD19848807900283FD165
:1057700096480088401E001B84B29449488900F076
:10578000ADFA4FF4807092490861400048610020F2
:105790009049086080208E49486108618000086156
:1057A000401008614000486100208A49086080205C
:1057B0008749486108618000086140100861400025
:1057C000486120128349086080208149486108614E
:1057D000800008614010086140004861E0B27D49E6
:1057E000086080207A49486108618000086141E0D2
:1057F0007649488900F072FA4FF480707449086164
:105800004000486120127349086080207049486157
:105810000861800008614010086140004861E0B202
:105820006C49086080206A4948610861800008610D
:10583000401008614000486164480088401E001222
:1058400064490860802062494861086180000861FD
:1058500040100861400048615C480078401EC0B2BA
:105860005C4900E047E008608020594948610861D0
:10587000800008615549888900F030FA4FF4807043
:10588000534908614000486128125249086080204D
:105890004F4948610861800008614010086140007C
:1058A0004861E8B24B490860802049494861086175
:1058B000800008614010086140004861434840880A
:1058C000401E001243490860802041494861086138
:1058D0008000086140100861400048613B488078C2
:1058E000401EC0B23B4908608020394948610861C8
:1058F0008000086169E03548808845F2105188428F
:1059000050D13249488900F0E9F94FF480703049AC
:1059100008614000486120122E49086080202C490F
:10592000486108618000086128494989491C88B29A
:1059300000F0D4F94FF480702549086140004861B7
:10594000E0B2244908608020214948610861800054
:1059500008611E49888900F0C1F94FF480701C4924
:1059600008614000486128121A49086080201849DF
:10597000486108618000086114498989491C88B21E
:1059800000F0ACF94FF480701149086140004861A3
:10599000E8B21049086080200D4948610861800024
:1059A000086112E009488079012804D1074800887D
:1059B000401E001B84B205494889214600F0A8F921
:1059C00002498889294600F0A3F930BD2C01002046
:1059D000001001400C0C01402DE9F84F80460E46A6
:1059E00017461C46B3462046E31704EB5373DB10FF
:1059F00021464FEAE47C04EB5C7C4FEAEC0CA4EB20
:105A0000CC0CBCF1000F02D04FF0010C01E04FF0C4
:105A1000000C6344224604EBD27C4FEA6C0C03FB7F
:105A20000CF3DBB20093A7F12000C7B2002556E0CB
:105A30000C2C07D107EB47002B4901EB800010F835
:105A4000059013E0102C05D1284800EB071010F842
:105A500005900BE0182C07D107EBC700244901EB98
:105A6000800010F8059001E0BDE8F88F4FF0000AC3
:105A70002FE009F0800030B11E48028831464046D0
:105A8000FBF7F0FA07E00A9828B91B48028831466C
:105A90004046FBF7E7FA4FEA49604FEA1069701C8D
:105AA00086B216484088B04200DCDDE7A6EB0B006A
:105AB000A0420AD15E4608F101001FFA80F80F48A3
:105AC0000088404500DCCFE706E00AF1010000F065
:105AD000FF0ABAF1080FCCDB00BF681CC5B2009802
