:020000040800F2
:10000000F00A0020B9020008BD020008BF02000883
:10001000C1020008C3020008C50200080000000079
:10002000000000000000000000000000C7020008FF
:10003000C902000800000000CB020008CD02000841
:10004000D1790008CF020008CF0200081D73000814
:10005000CF020008CF020008251A0008CF020008CE
:10006000CF020008CF020008CF020008CF0200082C
:10007000CF020008CF020008CF020008CF0200081C
:10008000CF020008CF020008CF020008CF0200080C
:10009000CF020008CF020008CF020008C91A0008EA
:1000A000CF020008CF020008CF020008CF020008EC
:1000B000CF020008F176000821770008CF0200087F
:1000C000CF020008CF020008CF020008CF020008CC
:1000D000CF0200084D790008CF020008CF020008C7
:1000E000851A0008CF020008CF020008CF020008DE
:1000F000CF020008CF020008CF020008CF0200089C
:10010000CF020008CF0200085D770008CF02000888
:10011000CF020008CF020008CF020008CF0200087B
:10012000CF020008CF020008CF020008CF0200086B
:1001300000F002F800F0B0F80AA090E8000C824449
:100140008344AAF10107DA4501D100F0A5F8AFF226
:10015000090EBAE80F0013F0010F18BFFB1A43F0A5
:1001600001031847E0B3000000B400000A444FF058
:10017000000C10F8013B13F0070408BF10F8014B06
:100180001D1108BF10F8015B641E05D010F8016B4B
:10019000641E01F8016BF9D113F0080F1EBF10F8AF
:1001A000014BAD1C0C1B09D16D1E58BF01F801CBD2
:1001B000FAD505E014F8016B01F8016B6D1EF9D555
:1001C0009142D6D37047000000230024002500266A
:1001D000103A28BF78C1FBD8520728BF30C148BFAA
:1001E0000B6070476E2900F07283702900F0A581C2
:1001F000662909F01082652909F00D82672909F046
:100200000A826129AFF3008003681B0A28BF41F00E
:100210008001692900F01681642900F01381752995
:1002200000F010816F2900F07F86782900F071813D
:10023000E92900F01986E42900F01686F52900F076
:100240001386EF2900F07C86F82900F0708103689E
:10025000DB0928BF41F08001632900F088857329FC
:1002600000F08D85E32900F02B87F32900F030871B
:10027000002070471FB500F08FFE04000020002111
:1002800008F0D2FD401C60600020002108F0B6FD9F
:10029000E0601FBD10B510BD00F0D2FF1146FFF7A2
:1002A000E9FF07F025FD00F0F9FF03B4FFF7F2FFC7
:1002B00003BC07F0D2FB000008480047FEE7FEE75A
:1002C000FEE7FEE7FEE7FEE7FEE7FEE7FEE7FEE706
:1002D00003480449044A054B7047000031010008F7
:1002E000F0040020F00A0020F0060020F0060020B4
:1002F000704700007CB51D4616460C00009001D0EA
:100300002044401E074B7B442A46694601903046F4
:1003100000F003FD05461CB10020694600F010FD09
:1003200028467CBD410A00000FB4044910B503AA59
:10033000029800F029FD10BC5DF814FB04000020B9
:100340000FB41CB5084B06AA7B446946009005987B
:1003500000F0E3FC04460020694600F0F1FC204672
:100360001CBC5DF814FB0000F50900000FB47CB55F
:100370000C0009AA009001D02044401E084B7B4489
:1003800069460190089800F0C8FC05461CB10020A1
:10039000694600F0D5FC28467CBC5DF814FB0000E3
:1003A000C909000070B5044685690068C10601D519
:1003B000302600E02026C00707D070BDD4E9012117
:1003C00030469047206A401C20626D1EF6D570BDF5
:1003D00070B5044685690078C00707D170BDD4E9BF
:1003E000012120209047206A401C20626D1EF6D516
:1003F00070BD70B50C460546012A05D028788006E8
:1004000000D5EA69002302E0012305E05B1C93426A
:1004100002D2E05C0028F9D1A869E618C01AA861E8
:10042000286A184428622846FFF7BCFF04E0D5E993
:10043000012114F8010B9047B442F8D32846FFF786
:10044000C7FF70BD2DE9F0410646002410687529EC
:10045000314616A510D000F0CFF9002802DA40424C
:1004600013A507E031688A0701D512A502E0490704
:1004700004D511A5012401E000F0C7F900210A22EA
:1004800006F1240709E0B0FBF2FCB0FBF2F302FB3B
:100490001C00303078541846491C0028F3D12346FC
:1004A0002A463046BDE8F04100F0B8B9000000002F
:1004B0002D0000002B00000020000000F0B40D46CD
:1004C0000188090502D5214C7C4402E01F4C7C4484
:1004D0000E34002100F1240608E002F00F07120993
:1004E000E75D42EA03721B097754491C52EA03078D
:1004F000F3D102780023120704D5702D06D009B17C
:10050000022311342246F0BC00F088B901231034D4
:10051000F8E770B504460D462146106800F075F9FD
:10052000024629462046BDE870400023C6E7D21D9A
:1005300022F00703D3E90023C0E70368126843F001
:10054000200303600823C3610023B7E778A90000F4
:100550002DE9F05F894604464FF0000ADFF874B1D8
:10056000FB44C0F820A02046E1688847002874D0EA
:10057000252806D0D4E901219047206A401C20623A
:10058000F1E700265F462046E168884720280546B7
:1005900007DB312D05D2781910F8200C08B106437D
:1005A000F1E7B00701D526F00406C4F81CA0002727
:1005B000C4F818A02A2D09D0284607F047FA38B306
:1005C00004EB8708303DC8F8185019E059F8041BAF
:1005D000204604EB87029161E1688847012F0546B8
:1005E00018D1E069002820DA26F020061DE0D8F8AE
:1005F000180000EB800005EB40003038C8F8180008
:100600002046E1688847054607F020FA0028EED129
:10061000012F0AD02E2D08D12046E16888477F1C83
:100620000546022F46F02006C4DBA069002803DA45
:10063000404246F00106A061F00701D026F0100606
:100640006C2D0BD0682D09D04C2D39D06A2D35D0AA
:10065000742D35D07A2D33D016E038E0E1682F467E
:1006600020468847B842054609D16C2F26D04FF462
:100670008060E168064320468847054604E06C2F09
:100680001AD04FF4807006430DB3A5F1410019282C
:1006900002D8203546F400664A46294620462660A0
:1006A0004E46FFF79FFD80B101280BD0F61D26F0C6
:1006B000070000F1080956E74020E4E78020D8E76A
:1006C0000020D6E706F104094DE7284652E7206AE4
:1006D000BDE8F09F08A90000014A00F03BBC000003
:1006E000A801002010B5431C02E010F8011B71B1F5
:1006F0008107FAD14FF0013202C88C1A8C4314EAF8
:10070000C211F9D0C01A0A0603D0C01E10BDC01A0B
:1007100010BD0A0401D0801E10BD0902FCD0401E8D
:1007200010BD4FF0000200B513469446964620399E
:1007300022BFA0E80C50A0E80C50B1F12001BFF49A
:10074000F7AF090728BFA0E80C5048BF0CC05DF800
:1007500004EB890028BF40F8042B08BF704748BF4E
:1007600020F8022B11F0804F18BF00F8012B7047C2
:100770004FF0013C50F8042B51F8043B9A4221D130
:10078000A2EB0C03934313EACC1317D150F8042BBC
:1007900051F8043B9A4215D1A2EB0C03934313EAA0
:1007A000CC130BD150F8042B51F8043B9A4209D1D9
:1007B000A2EB0C03934313EACC13DBD04FF0000001
:1007C000704700BFD01A01BAB1FA81F101F01801E7
:1007D00022FA01F0CB40C1F12001DBB2C0B2C01A55
:1007E0002CFA01F3D11A914311EAC311E6D17047F3
:1007F000704770477047704709684A0501D540B295
:100800007047C905FCD500B2704709684A0501D593
:10081000C0B27047C905FCD580B270472DE9F047DA
:100820000D4699469246044600F124080168880660
:1008300004D5E06921F01001216000E00120A84208
:1008400001DD471B00E00027A1697A1902EB0900CE
:10085000081AA0612078C00602D42046FFF7A2FD46
:10086000002608E0D4E901211AF806009047206A22
:10087000401C761C20624E45F4DB2078C0060AD569
:100880002046FFF78FFD06E0D4E901213020904794
:10089000206A401C2062381EA7F10107F4DC07E043
:1008A000D4E9012118F805009047206A401C206215
:1008B000281EA5F10105F3DC2046FFF789FD20780D
:1008C000000602D50220BDE8F0870120FBE7116891
:1008D0000268006A530501D508700AE0D30501D506
:1008E000088006E0130603D5C217C1E9000200E044
:1008F00008600120704770472DE9FF4F0C461E46E7
:100900004FF0FF378BB0D2E90001DDF860800A902C
:100910008A46C1F30A5505B93D46002108464FF005
:100920000000BAF1000F00F4400005DA00EB80008F
:100930004FF4400101EA50004FEA9059B9F1010F1C
:1009400000DDB9460A9850EA4A000ED044F610502D
:10095000A5F2FF3545432F14B8F1000F1ED07542A4
:10096000291E1EDDC9F100021CE0B8F1010F4FF095
:10097000000001D0302103E0F24305E02154401C87
:10098000B042FBDB30460022002121540B99C1F814
:100990000880C1E900200FB0BDE8F08FBD1B6D1CC1
:1009A000DEE74A4600DA694206A800F095FB06AB8E
:1009B00093E8070003AB83E8070050460A9900F06C
:1009C00076FC8DE80700A0F500501F3800900398D2
:1009D000002D09DD42F21F014A46084403A9039095
:1009E000684600F0D5FE08E0A0F500504A461F38E2
:1009F00003A90390684600F0DFFE8DE807000004BD
:100A0000000C03D04FF0FF30410800E01046B8F171
:100A1000000F03D00022009215461EE0751E05D47B
:100A200000F0BEFA303262556D1EF9D5B346012290
:100A3000084302D000227F1C04E02078302801D136
:100A400000227F1E002A099786D01DE0112D07DAAB
:100A500000F0A6FA303262556D1C50EA0102F5D161
:100A6000084302D00098C8B10EE00021681E05E0DE
:100A7000235C625C63542254401E491C8142F7DBB4
:100A8000AB46A81B401E0990002004F80B000B98F1
:100A9000099AC0F80880C0E9002B7CE711264FF0C6
:100AA000000859E72DE9F04F88460446D21D22F090
:100AB000070191B0D1E90001CDE90A0106F0B2FFCA
:100AC00002460B98C00F01D02D2007E02068810757
:100AD00001D52B2002E0202101EAC000032A099061
:100AE00001D0072A05DB03464146204600F09EFA66
:100AF0000BE12078800601D5E06900E00620B8F11E
:100B0000650F814606D0B8F1660F18D0B8F1670FAF
:100B100070D131E00020B9F1110F009001DB1123F9
:100B200001E009F101030AAA01A90CA8FFF7E4FEFC
:100B3000DDE90C70002609F10105834647E001203C
:100B40004B4600904FF000470AAA01A90CA8FFF7F6
:100B5000D3FEDDE90DB00C995D46002610B909F110
:100B600001000D18B9EB050003D4C0F1FF3609F1FF
:100B70000105A5EB09002BE0B9F1010F01DA4FF0F7
:100B800001090020B9F1110F0090484601DD112341
:100B900000E003460AAA01A90CA8FFF7ADFEDDE9B3
:100BA0000C704D4600268346207800070AD4AB45DA
:100BB00000DA5D4601A8012D04DD411911F8011C80
:100BC000302907D04F4502DA17F1040F04DA01206B
:100BD00082460FE06D1EEEE7002F02DCED1B3E4467
:100BE00003E0781CA84200DD7D1CB81B00F1010A5F
:100BF0004FF000472078000703D4AA4501DB4FF0EF
:100C0000FF3A0021B7F1004F0DF143088DF8431072
:100C100024D002202B23002F01DA7F422D230A212A
:100C2000021EA0F1010000DC5FB197FBF1FC97FB15
:100C3000F1F201FB1C7C17460CF1300C08F801CDD9
:100C4000EEE7A8F1010003702188090501D54521CF
:100C500000E06521A0F1010800F8011C09980FA926
:100C6000A1EB0807FF1D00B10120411901EBEA705B
:100C7000A1693844081A401EA0612078C00602D439
:100C80002046FFF78FFB099828B1D4E9012190474E
:100C9000206A401C20622078C00622D52046FFF73B
:100CA00081FB1EE0002E04DBB34502DD01A8805D60
:100CB00000E03020D4E901219047206A401C2062E6
:100CC000761CAAF101005FEA000A0AD100F064F97B
:100CD000C0680168405CD4E901219047206A401C4B
:100CE0002062281EA5F10105DCDC07E0D4E9012122
:100CF00018F8010B9047206A401C2062381EA7F1AB
:100D00000107F3DC2046FFF763FB032011B043E645
:100D100001694A1C02610878704700B58FB0CDE9BF
:100D200001310021059105497944CDE903101146AF
:100D30006846FFF70DFC0FB000BD0000E5FFFFFFA8
:100D40000A6802F8010B0A607047D1E900239A4251
:100D500002D2531C0B601070704710B5436913B179
:100D6000AFF3008001E0FFF744FB012010BD1278D3
:100D700000F124010A7000224A700122EDE7116897
:100D80004FF0FF32E9E70000074B70B50D467B449A
:100D9000FFF7C3FF0446284600F00CFA10B14FF0ED
:100DA000FF3070BD204670BD3F6F00002DE9FF5F32
:100DB00015468A460446DFF8AC80F8440027D8E997
:100DC00000103E46CDE9001010E03AF816106A46D1
:100DD00002A800F0F3F9411C07D02178890603D559
:100DE000E269391891420DD80744761C20788006B4
:100DF00002D5E069B84205DDAE42E6DB3AF81600FE
:100E00000028E2D1A069C01BA0612046FFF7CAFA02
:100E1000D8E90010CDE90010002017E03AF81810CA
:100E20006A4602A800F0CAF9B0F1FF3F81460BD034
:100E300000250DF1080B05E0D4E901211BF80500A0
:100E400090476D1C4D45F7D308F10100B042804634
:100E5000E4DB206A384420622046FFF7B9FABDE897
:100E6000FF9F0000C2A000002DE9F0418046D21D86
:100E700022F007020025D2E90002F52915A614D0B8
:100E8000011E72F1000106DA0023D0EB030063EBD0
:100E9000020211A608E0D8F800108B0701D50FA6B2
:100EA00002E0490701D50EA601251146002408F1EC
:100EB000240704E000F074F830323A55641C50EA1C
:100EC0000102F7D12B46324621464046BDE8F041AB
:100ED000FFF7A4BC000000002D0000002B00000064
:100EE0002000000030B4002100F1240408E002F0EA
:100EF0000705D208303542EA4372DB086554491CC5
:100F000052EA0305F3D10468002310A2250708D58F
:100F100004F020040C4304D0C46901230CA2641E15
:100F2000C46130BCFFF77ABC10B504462146106896
:100F3000FFF76BFC02462046BDE810400023D1E7D6
:100F4000D21D22F00701D1E90023CBE70000000009
:100F5000300000002DE9F04115460E46040002D194
:100F60002C6804B90BA4204600F058F904442078FA
:100F700070B127463146384600F040F904442078E5
:100F800010B1002004F8010B38462C60BDE8F08158
:100F90000027F9E70000000000487047AC0400207B
:100FA00030B5B0F10A024FEA900E71F100034EEA3B
:100FB000817EB0EB0E0061EB91014FEA101E4EEA0C
:100FC000017E10EB0E0041EB11114FEA102E4EEA9C
:100FD000016E10EB0E0041EB11214FEA104E4EEA6C
:100FE000014E10EB0E0041EB1141401841F10001A0
:100FF0004FEAD00040EA41704FEAD10110EB800582
:101000004FEA810444EA907444EB01046D1944EB07
:101010000404521BA3414FF0000348BF0A3200D51D
:1010200030BD401C41F1000130BD00002DE9F04110
:101030001F46044603260168072A01F4006004DB0A
:1010400008B116A505E016A503E008B115A500E056
:1010500015A521F010002060A069C01EA0610FB18D
:10106000401EA0612046FFF79DF94FB1D4E9012150
:1010700038469047206A401C2062C01C206206E06F
:10108000206AFAE7D4E9012115F8010B9047761E92
:10109000F8D22046FFF79CF9BDE8F0814E414E00A2
:1010A0006E616E00494E4600696E660010B5436978
:1010B00013B1AFF3008001E0FFF778FE012010BD0F
:1010C000128800F1240182840022C2840122EDE70B
:1010D00011684FF0FF32E9E72DE9F04781461646E7
:1010E0008AB0334878440DC88DE80D003048784404
:1010F000801C03AC0DC884E80D0041F69B30084409
:10110000372190FBF1F290FBF1F5A5F1800501FB91
:1011100012041B3C02D56442012000E00020DFF8ED
:1011200090A080460027FA44AAF1BE0A0DE0E0072D
:1011300009D03246684607EB47010AEB810100F00F
:101140003BFB8DE8070064107F1C002CEFD1184F8B
:101150007F44AC3F18E0E80714D007EB04100DF112
:10116000180A90E80E008AE80E00C068F04201D12B
:1011700098190890324606A903A800F01DFB03AB9E
:1011800083E807006D10641C002DE4D132466946E7
:10119000B8F1000F03A802D000F0FAFA01E000F065
:1011A0000BFBC9E90001C9F808200AB0BDE8F087C7
:1011B0001C9E0000007B00F08000704770B5164652
:1011C0000C46054600F062F8036893F80101012817
:1011D00006D0FF2C0FD8185D68B101202C7070BDAF
:1011E000D3F807013246214603F207130344284689
:1011F000BDE8704018474FF0FF3070BD30B5034672
:101200001D781DB10A4603E0AC4201D1181A30BD69
:1012100012F8014B002CF7D15B1CF1E730B5034607
:101220001D783DB10A4612F8014B1CB1AC42FAD10F
:101230005B1CF5E7181A30BD004870478C0400208D
:101240007546FFF7F9FFAE4605006946534620F0A4
:101250000700854618B020B5FFF73AF8BDE82040F2
:101260004FF000064FF000074FF000084FF0000B62
:1012700021F00701AC46ACE8C009ACE8C009ACE815
:10128000C009ACE8C0098D467047000010B5FFF7F3
:1012900083FE001D10BD00BF917B000010B5044609
:1012A000AFF300802046BDE81040FEF7FEBF5FEAC6
:1012B000400C08BF91F0000F4FEA8C234FEAC12287
:1012C00043EA51514FEA1C5018BF00F5F0404FEA75
:1012D000300018BF41F000415FEA6C5C00F02980EB
:1012E000BCF1FF3F08BF40F080407047130C06BFC1
:1012F00012044FF0100C4FF0000C130E04BF12023A
:101300000CF1080C130F04BF12010CF1040C930F25
:1013100004BF92000CF1020CD30F04BF52000CF179
:10132000010C11464FF00002A0F11F00A0EB0C00D1
:10133000704711F0004F08BF704731F000413FF493
:10134000D5AF0B0C06BF09044FF0100C4FF0000C8A
:101350000B0E04BF09020CF1080C0B0F04BF0901AE
:101360000CF1040C8B0F04BF89000CF1020CCB0FA5
:1013700004BF49000CF1010CCCF12003A0EB0C00E0
:1013800022FA03F302FA0CF241EA030100F1010030
:10139000704720F07F4C80EA030023F07F47ACEBDE
:1013A000070303F57C5300F0004003F1FF032DE930
:1013B00080494FEA154B09B44FEA144325EA0B4E16
:1013C00024EA03480FF2042606EB132749083E7867
:1013D0005FEA320203FB0667C7F5000707FB06F664
:1013E0004FEA54374FEAD64606F1020607FB066C71
:1013F000CCF1005C4FEA1C472CEA074C07FB06F4D3
:101400000CFB06F504EB15464FEA961634BF002098
:101410004FF000404FEAD13706FB07FC4FEA1C4C67
:101420000CFB0BF7D21B03FB0CF761EB07010CFB6A
:101430000EF7B0EB074072EB17420CFB08F734BF16
:10144000A2EB0742B2EB074261EB17414FEA0C44B3
:101450004FEA910706FB07FC4FEA1C4C0CFB0BF70D
:10146000B0EBC74072EB573203FB0CF734BFA2EB73
:10147000C742B2EBC74261EB57310CFB0EF7B0EB42
:10148000C70072EB57720CFB08F734BFA2EBC70220
:10149000B2EBC70261EB5771039F4FEA816141EAEA
:1014A000921104EBCC044FEAD1374FEA826206FB7B
:1014B00007FC42EA90124FEA80604FEA1C4C0CFB9A
:1014C0000BF7D21B03FB0CF761EB07010CFB0EF7CC
:1014D000B0EB074072EB17420CFB08F734BFA2EBEE
:1014E0000742B2EB074261EB17414FEA8C554FEAD6
:1014F000910704EB9C2406FB07FC4FEA1C4C0CFBF9
:101500000BF7B0EBC74072EB573203FB0CF734BF5D
:10151000A2EBC742B2EBC74261EB57310CFB0EF7AF
:10152000B0EBC70072EB57720CFB08F734BFA2EBAD
:10153000C702B2EBC70261EB577115EB4C254FEABE
:10154000816141EA92114FEA82624FEAD13742EA61
:10155000901206FB07FC44F100044FEA80604FEA5A
:101560001C4C0CFB0BF7D21B03FB0CF761EB0701C8
:101570000CFB0EF7B0EB074072EB17420CFB08F7C1
:1015800034BFA2EB0742B2EB074261EB174115EB08
:101590001C154FEA813141EA92414FEA823242EA18
:1015A00090424FEA80304FEA0C7644F1000448EA5A
:1015B00003434EEA0B484FF0000EB2EB080C71EB00
:1015C000030724BF624639464EEB0E0E4FF0000B68
:1015D0000018524149414BEB0B0BB2EB080C71EB7D
:1015E00003077BF1000B24BF624639464EEB0E0E1B
:1015F0004FF0000B0018524149414BEB0B0BB2EB83
:10160000080C71EB03077BF1000B24BF62463946DF
:101610004EEB0E0E51EA020718BF46F0010616EB1C
:101620000E7655F1000254F1000103D5BDE88901A1
:10163000BDE80088BDE88901BDE80048B6195241FF
:1016400041EB0101A3F10103704780807F7E7D7C27
:101650007B7A7978777676757473727171706F6E44
:101660006E6D6C6C6B6A6A696868676666656464EF
:10167000636362616160605F5F5E5E5D5D5C5C5B79
:101680005B5A5A59595858575756565555555454E8
:10169000535352525251515050504F4F4F4E4E4D46
:1016A0004D4D4C4C4C4B4B4B4A4A4A494949484892
:1016B00048474747474646464545454444444443D2
:1016C00043434342424242414141002B26D47700EA
:1016D00021D01CB54FEA370703B44FF010004FF08C
:1016E00010014FF000000FBCBDE810400BF1010BE2
:1016F000BBF1010F08BF5FEA170722BF12F1010219
:1017000011F101014FF0004143F1000300F00040EE
:1017100043EA00007047F9D35708DAE746EA06467D
:1017200013F1400F4FEA16461FDD13F1200FDFBF04
:1017300016430A46002120335B42C8D0C3F120077C
:1017400046EA064602FA07F74FEA164646EA070651
:10175000C3F1200722FA03F201FA07F721FA03F195
:101760004FF0000342EA0702B1E746EA020646EA02
:1017700006464FEA164646EA0106BCBF46EA06465A
:10178000360C4FF000034FF000024FF000019EE7CF
:101790002DE9C048934630B491E8380007C831EAD3
:1017A000400C48BF34EA430C03D5FFF7F2FDFFF7C6
:1017B0008CFFF0BCBDE800882DE9C048934630B4EA
:1017C00091E8380007C810F0804F08BF13F0804F31
:1017D00003D100F005F8FFF778FFF0BCBDE8008802
:1017E00020F07F4780EA030023F07F4C07EB0C03D7
:1017F000A3F57C5300F00040A3F1FE0392F0000F2C
:1018000000F0B38095F0000F00F077802DE90149DA
:101810004FEA11404FEA144621EA004800FB06FC5B
:1018200024EA064708FB06F607FB08F800FB07F763
:1018300018EB06484CEB164C4FEA124B18EB0748D6
:101840004FEA15464CEB174022EA0B4E0BFB06FC09
:1018500025EA06470EFB06F607FB0EFE0BFB07F715
:101860001EEB064E4CEB164C4FF000061EEB074EDF
:101870004CEB174B18EB0B0840F1000018EB0E0B6C
:1018800058EB000840F100008F1A4FF000013CBFF8
:10189000C943661B14BFB5EB040C00213CBFC94310
:1018A000F61B4FEA17444EEA8E0E27EA04454FEA2C
:1018B0001C4704FB07622CEA074C05FB07F70CFBEF
:1018C00005F604FB0CFC16EB074642EB174216EB41
:1018D0000C4642EB1C421BEB060658EB0202414150
:1018E00046EA9E0601D5BDE80189B619524141EB91
:1018F0000101A3F10103BDE801894FEA14454FEA54
:10190000114724EA054621EA074C05FB07F406FBCC
:1019100007F70CFB06F105FB0CFC11EB074144EB50
:1019200017444FEA124711EB0C4144EB1C4422EAE6
:10193000074C05FB07F206FB07F70CFB06F605FB59
:101940000CFC16EB074642EB174216EB0C4642EB3B
:101950001C456A1854F1000148BF7047B61952413E
:1019600041EB0101A3F10103704795F0000F37D05F
:101970004FEA11424FEA144721EA024624EA074C93
:1019800002FB07F106FB07F70CFB06F402FB0CFC5D
:1019900014EB074441EB17414FEA154714EB0C4495
:1019A00041EB1C4125EA074C02FB07F506FB07F754
:1019B0000CFB06F602FB0CFC16EB074645EB174545
:1019C00016EB0C4645EB1C42121951F1000148BFC1
:1019D0007047B619524141EB0101A3F10103704771
:1019E0004FEA14454FEA114724EA054621EA074C1D
:1019F00005FB07F106FB07F70CFB06F24FF00006AC
:101A000005FB0CFC12EB074241EB174112EB0C42B9
:101A100051EB1C4148BF7047921841EB0101A3F103
:101A20000103704710B50A2006F016F90F48006848
:101A3000012816D10E490FA0FEF776FC0B48A03006
:101A4000006808B9012000E000200849A0310860C2
:101A50000948D0F8880108B9012000E000200749B2
:101A6000086001200649086010BD00000001214205
:101A7000DAAD000825730A000080224288812242E4
:101A80001404014010B50A2006F0E6F80948006881
:101A900058B9094909A0FEF747FC0948006808B988
:101AA000012000E00020064908604FF4004005498D
:101AB000086010BD3C012142FEAD000825730A00FC
:101AC000888122421404014010B50A2006F0C4F8AF
:101AD0000948006858B9094909A0FEF725FC0948DA
:101AE000006808B9012000E00020064908602020B5
:101AF0000549086010BD000014012242EBAD00084A
:101B000025730A00A00121421404014010B500F021
:101B1000A9F801220521022000F01EF801220F2160
:101B2000002000F019F802220021084600F014F805
:101B3000022317220121184605F0D6FA0223282293
:101B40000021184605F0D0FA02230622002118468B
:101B500005F0CAFA10BD000070B504460B46CE175A
:101B600001EB9676C6F38700CE1701EB9676B6109A
:101B7000A1EB8606B606350E1C4B9B6943F00103AC
:101B80001A4EB3614FEAB63353F820300F26AE40F9
:101B9000B343174E46F82030334653F8203004FA4A
:101BA00005F61E43124B43F82060124B1B680126BA
:101BB0008E4033430F4E336002F0010343B10D4BAF
:101BC0000C331B6801268E4033430A4E0C363360BB
:101BD00002F0020343B1074B08331E6801238B4018
:101BE0001E43044B08331E6070BD0000001002400D
:101BF00008000140000401400146CA1701EB92723F
:101C00009210A1EB820292B9642091FBF0F200FBEA
:101C1000121050B94FF4C87091FBF0F200FB121093
:101C200008B9012070470020FCE70120FAE70020F6
:101C3000F8E7000001464906084A926942F00102AD
:101C4000064B9A61064A526822F0E062044B5A60E1
:101C50001A4652680A435A6070470000001002405A
:101C60000000014010B51948806940F00400174990
:101C700088610846806940F0100088610120FFF704
:101C8000D9FF1348006820F07040114908600846E9
:101C9000006840F0004008600D480830006840F4DB
:101CA00000400B49083108600A48006820F47000C1
:101CB000084908600846006840F4000008600846CB
:101CC000C06840F02000C86010BD00000010024055
:101CD000040801400010014030B5014601F01F0426
:101CE000C1F34513CA0AE50205EB43151544A8B232
:101CF00030BD000070B5044600261D4805884088A8
:101D000045431B48808846F60401884216D118488E
:101D10008079012812D10020154988712A20488134
:101D20002B2088810021084604F0DAFD01201049AB
:101D300088712B2048812A20888103E000210846F1
:101D400004F0CEFD05F044F900260DE04FF480705C
:101D500008490861400048610748046080204861E4
:101D6000086180000861761CAE42EFD370BD0000B0
:101D700074020020001001400C0C014010B5044614
:101D8000002C66D16C498871F02008804FF4A07057
:101D900048800846808849F2413188420BD0664825
:101DA000808846F60401884205D06348808845F261
:101DB000103188421AD12C205F4908812A2048819D
:101DC0002B2088810846808846F60401884205D089
:101DD0005948808845F21031884206D14FF4A070EE
:101DE000554908804FF4F0704880A1E0524880883F
:101DF00045F21051884210D14FF430504E490881BD
:101E00004FF4285048814FF42C5088814FF4F070E3
:101E100008804FF4487048808AE04748808841F63F
:101E2000631188420DD12C20434908812B20488121
:101E30002A2088814FF4F07008804FF44870488061
:101E400076E022203C490881202048812120888199
:101E50006EE00120384988714FF4A0700880F020AE
:101E600048800846808849F24131884205D032488E
:101E7000808845F21031884207D12C202E490881F4
:101E80002A2048812B2088813FE02B48808846F615
:101E90000401884207D12C20274908812B20488142
:101EA0002A20888131E02448808845F210518842F8
:101EB00010D14FF43050204908814FF42850488108
:101EC0004FF42C5088814FF4487008804FF4F07024
:101ED00048801AE01848808841F6631188420DD185
:101EE0002C20154908812A2048812B2088814FF415
:101EF000487008804FF4F070488006E022200E49B8
:101F0000088121204881202088810B48808846F65E
:101F10000401884205D00848808845F21031884283
:101F200006D14FF4F070044908804FF4A070488047
:101F3000002004F0A9FA10BD740200202DE9FF4F23
:101F400084B081468A460020039002900698A0EB58
:101F500009050798A0EB0A06CDF80490CDF800A07B
:101F6000002D01DD012705E00DB9002702E04FF04B
:101F7000FF376D42002E02DD4FF0010806E016B972
:101F80004FF0000802E04FF0FF387642B54201DD25
:101F90002C4600E034464FF0000B21E0009A91B24D
:101FA000019A90B200F022F8039828440390029816
:101FB000304402900398A04205DD0398001B039073
:101FC0000198384401900298A04205DD0298001B58
:101FD00002900098404400900BF101001FFA80FB32
:101FE000601C8345DADD08B0BDE8F08F30B50446EB
:101FF0000D462946204604F073FC04F0E9FF4FF437
:102000008070074908614000486106480088064919
:10201000086080200249486108618000086130BD85
:10202000001001400A0000200C0C0140F0B50446ED
:102030000D4616461F462B46324629462046FFF7D8
:102040007DFF3B46224629462046FFF777FF3B4669
:10205000324639462046FFF771FF3B463246294655
:102060003046FFF76BFFF0BD2DE9F04306460F4603
:102070009046002445460320A0EB48093CE07A1B2B
:1020800091B2321990B2FFF7B1FF3A1B91B27219B7
:1020900090B2FFF7ABFF3A1991B2721990B2FFF705
:1020A000A5FF7A1991B2321990B2FFF79FFF7A1902
:1020B00091B2321B90B2FFF799FF3A1991B2721B9D
:1020C00090B2FFF793FF7A1B91B2321B90B2FFF7E9
:1020D0008DFF3A1B91B2721B90B2FFF787FF641C11
:1020E000B9F1000F03DAA000801D814404E0601BF9
:1020F00080000A3081446D1EAC42C0DDBDE8F08333
:1021000070B504460D461646D348808849F24131E1
:10211000884205D0D048808845F21031884240D1AD
:10212000CD49488904F042FF4FF48070CB490861E3
:10213000400048612012CA4908608020C7494861B0
:102140000861800008614010086140004861E0B209
:10215000C34908608020C149486108618000086166
:10216000BD49888904F022FF4FF48070BB490861A3
:10217000400048612812BA4908608020B749486188
:102180000861800008614010086140004861E8B2C1
:10219000B34908608020B149486108618000086146
:1021A0003DE1AD48808845F21051884250D1AA499E
:1021B000488904F0FBFE4FF48070A8490861400094
:1021C00048612012A64908608020A449486108613E
:1021D00080000861A0494989491C88B204F0E6FEE4
:1021E0004FF480709D49086140004861E0B29C490D
:1021F000086080209949486108618000086196491B
:10220000888904F0D3FE4FF480709449086140003F
:10221000486128129249086080209049486108610D
:10222000800008618C498989491C88B204F0BEFE8F
:102230004FF480708949086140004861E8B28849DC
:102240000860802085494861086180000861E6E0F7
:102250008148808841F6631188427DD17E4880792B
:1022600020B97D480088401E001B84B27A49488905
:1022700004F09CFE4FF4807078490861400048618A
:102280002012774908608020744948610861800005
:1022900008614010086140004861E0B27049086080
:1022A00080206E4948610861800008614010086123
:1022B0004000486120126A490860802067494861EF
:1022C0000861800008614010086140004861E0B288
:1022D00063490860802061494861086180000861A5
:1022E0005D49888904F062FE4FF480705B490861A3
:1022F0004000486128125A490860802057494861C7
:102300000861800008614010086140004861E8B23F
:102310005349086080205149486108618000086184
:10232000401008614000486128124D490860802033
:102330004A49486108618000086140100861400016
:102340004861E8B246490860802044494861086114
:102350008000086163E0FFE73F48808846F604019B
:10236000884249D13C488079012804D13A48008804
:10237000401E001B84B23849488904F017FE4FF410
:102380008070364908614000486120123449086075
:10239000802032494861086180000861401008616E
:1023A00040004861E0B22E49086080202B49486116
:1023B0000861800008612849888904F0F7FD4FF41E
:1023C000807026490861400048612812244908604D
:1023D000802022494861086180000861401008613E
:1023E00040004861E8B21E49086080201B494861EE
:1023F00008618000086112E017488079012804D143
:1024000015480088401E001B84B2134948892146A4
:1024100004F0E6FD10498889294604F0E1FD4FF4F7
:1024200080700E494861400048610B4800890C49A2
:1024300008608020094948610861800008614010F7
:1024400008614000486106480660802048610861D4
:102450008000086170BD000074020020001001407F
:102460000C0C01402DE9FC4F05460E4617469846D8
:10247000DDF82C90002001902C48808846F604015D
:10248000884229D129488079012825D1AB46354693
:1024900026480088C01B401E86B247462348008855
:1024A000A0EB0B00401E1FFA80F800201F49887126
:1024B0002A2048812B20888143463A4631462846C7
:1024C000CDF80090FFF7CEFF0120184988712B202E
:1024D00048812A20888127E0781B401C80B2019027
:1024E00034461FE02146284604F0FAF904F070FD56
:1024F0004FF0000A11E04FF480700D490861400070
:1025000048610C48C0F80090802048610861800054
:1025100008610AF101001FFA80FA01988245EADB9E
:10252000601C84B24445DDDDBDE8FC8F74020020F0
:10253000001001400C0C014010B5FE48806940F0CD
:102540000800FC4988610846806940F010008861F5
:102550000846806940F0010088610120FFF76AFBAE
:10256000F54840686FF30B00F3494860084640683F
:1025700040F233310843F04948600846006820F0D3
:102580007F4008600846006840F04C5008600846EC
:10259000C06840F4F860C8604FF03330E749086025
:1025A000091F08604FF6FF70E449083108603220C7
:1025B00005F052FB0121002004F012FD322005F04D
:1025C0004BFB002003F0EEFEDD4988800846808842
:1025D000FF280ADB084680884FF6FF71884204D046
:1025E000D7488088B0F5134F7ED1D32004F0DEFCAD
:1025F00003F09CFD03F09AFD03F098FDD04988801C
:10260000084680884FF6FF7101EA0020CC49888097
:1026100003F08CFDCA4989880843C9498880084667
:10262000808849F2413188425ED0BF2004F0BEFC70
:1026300003F07CFD03F07AFD03F078FD03F076FDF6
:10264000BF498880084680884FF6FF7101EA002064
:10265000BB49888003F06AFDB94989880843B849B5
:1026600088800846808846F60401884274D0D420C9
:1026700004F09CFC03F05AFD03F058FD03F056FDF6
:10268000AF498880084680884FF6FF7101EA002034
:10269000AB49888003F04AFDA94989880843A849C5
:1026A00088800846808845F21031884254D04FF423
:1026B0005A4004F07BFC03F039FD4FF45B4004F01A
:1026C00075FC03F033FD9E498880084680884FF6EC
:1026D000FF7101EA00209A4988804FF45C4004F0C1
:1026E00065FC03F023FD00E036E095498988084346
:1026F0009349888008468088B0F5004F02D145F2A2
:10270000105088808E48808845F21051884223D02E
:10271000A12004F04BFC03F009FD8949888003F0F7
:1027200005FD87498880084680884FF6FF7101EAD9
:1027300000208349888003F0F9FC81498988084397
:102740007F4988800846808845F26171884203D1BC
:1027500041F663107A4988807948818879A0FDF72D
:10276000E3FD7748808849F2413188427ED1CF200D
:1027700004F01CFC002004F007FCC12004F004FC61
:10278000302004F001FCED2004F010FC642004F083
:10279000FBFB032004F0F8FB122004F0F5FB812082
:1027A00004F0F2FBE82004F001FC852004F0ECFBCF
:1027B000102004F0E9FB7A2004F0E6FBCB2004F0C3
:1027C000F5FB392004F0E0FB2C2004F0DDFB0020B9
:1027D00004F0DAFB342004F0D7FB022004F0D4FB31
:1027E000F72004F0E3FB202004F0CEFBEA2004F005
:1027F000DDFB002004F0C8FB002004F0C5FBC02076
:1028000004F0D4FB1B2004F0BFFBC12004F0CEFB7E
:10281000012004F0B9FBC52004F0C8FB302004F00F
:10282000B3FB302004F0B0FBC72004F0BFFBB7209F
:1028300004F0AAFB362004F0B9FB482004F0A4FB06
:102840003A2004F0B3FB552004F09EFBB12004F0C5
:10285000ADFB002004F098FB1A2004F095FBB62095
:1028600004F0A4FB0A2004F08FFB00E0A7E0A22004
:1028700004F08AFBF22004F099FB002004F084FBB2
:10288000262004F093FB012004F07EFBE02004F0FE
:102890008DFB0F2004F078FB2A2004F075FB282024
:1028A00004F072FB082004F06FFB0E2004F06CFBB8
:1028B000082004F069FB542004F066FBA92004F012
:1028C00063FB432004F060FB0A2004F05DFB0F2053
:1028D00004F05AFB002004F057FB002004F054FBE6
:1028E000002004F051FB002004F04EFBE12004F036
:1028F0005DFB002004F048FB152004F045FB172089
:1029000004F042FB072004F03FFB112004F03CFBE5
:10291000062004F039FB2B2004F036FB562004F08F
:1029200033FB3C2004F030FB052004F02DFB10208D
:102930000EE000000010024000100140040C0140B5
:10294000740200204C43442049443A25780D0A0083
:1029500004F01AFB0F2004F017FB3F2004F014FBD7
:102960003F2004F011FB0F2004F00EFB2B2004F09D
:102970001DFB002004F008FB002004F005FB0120F3
:1029800004F002FB3F2004F0FFFA2A2004F00EFBC3
:10299000002004F0F9FA002004F0F6FA002004F018
:1029A000F3FAEF2004F0F0FA112004F0FFFA782097
:1029B00005F052F9292004F0F9FA03F09ABBFE4819
:1029C000808846F6040188427ED1112004F0EEFA98
:1029D000142005F041F9D02004F0E8FA072004F0B3
:1029E000D3FA422004F0D0FA1D2004F0CDFAD12011
:1029F00004F0DCFA002004F0C7FA1A2004F0C4FA4C
:102A0000092004F0C1FAD22004F0D0FA012004F029
:102A1000BBFA222004F0B8FAC02004F0C7FA102054
:102A200004F0B2FA3B2004F0AFFA002004F0ACFA54
:102A3000022004F0A9FA112004F0A6FAC52004F03F
:102A4000B5FA032004F0A0FAC82004F0AFFA002081
:102A500004F09AFA252004F097FA212004F094FA61
:102A6000052004F091FA002004F08EFA0A2004F008
:102A70008BFA652004F088FA252004F085FA772087
:102A800004F082FA502004F07FFA0F2004F07CFA60
:102A9000002004F079FAF82004F088FA012004F00C
:102AA00073FAFE2004F082FA002004F06DFA02208E
:102AB00004F06AFA202004F079FA362004F076FA5D
:102AC000082004F061FA00E02AE03A2004F06EFAEF
:102AD000552004F059FA2B2004F068FA002004F085
:102AE00053FA002004F050FA012004F04DFA3F2080
:102AF00004F04AFA2A2004F059FA002004F044FABB
:102B0000002004F041FA012004F03EFADF2004F036
:102B10003BFA782005F0A0F8292004F047FA4CE7AA
:102B2000A548808845F21031884240F07C87ED202E
:102B300004F03CFA012004F027FAFE2004F024FA05
:102B4000EE2004F033FADE2004F01EFA212004F017
:102B50001BFAF12004F02AFA012004F015FADF2014
:102B600004F024FA102004F00FFAC42004F01EFA36
:102B70008F2004F009FAC62004F018FA002004F0AF
:102B800003FAE22004F000FAE22004F0FDF9E2206A
:102B900004F0FAF9BF2004F009FAAA2004F0F4F9CD
:102BA000B02004F003FA0D2004F0EEF9002004F048
:102BB000EBF90D2004F0E8F9002004F0E5F911200C
:102BC00004F0E2F9002004F0DFF9192004F0DCF948
:102BD000002004F0D9F9212004F0D6F9002004F0F7
:102BE000D3F92D2004F0D0F9002004F0CDF93D20D8
:102BF00004F0CAF9002004F0C7F95D2004F0C4F91C
:102C0000002004F0C1F95D2004F0BEF9002004F0BA
:102C1000BBF9B12004F0CAF9802004F0B5F9002016
:102C200004F0B2F98B2004F0AFF9002004F0ACF905
:102C3000962004F0A9F9002004F0A6F9B22004F0CF
:102C4000B5F9002004F0A0F9002004F09DF902205D
:102C500004F09AF9002004F097F9032004F094F9A5
:102C6000002004F091F9B32004F0A0F9002004F052
:102C70008BF9002004F088F9002004F085F9002089
:102C800004F082F9002004F07FF9002004F07CF9C0
:102C9000002004F079F9002004F076F9002004F017
:102CA00073F9002004F070F9002004F06DF90020A1
:102CB00004F06AF9002004F067F9002004F064F9D8
:102CC000002004F061F9002004F05EF9002004F017
:102CD0005BF9002004F058F9002004F055F90020B9
:102CE00004F052F9002004F04FF9002004F04CF9F0
:102CF000002004F049F9002004F046F9B42004F063
:102D000055F98B2004F040F9002004F03DF996209D
:102D100004F03AF9002004F037F9A12004F034F966
:102D2000002004F031F9B52004F040F9022004F04D
:102D30002BF9002004F028F9032004F025F90020E5
:102D400004F022F9042004F01FF9002004F01CF91B
:102D5000B62004F02BF9002004F016F9002004F04E
:102D600013F9B72004F022F9002004F00DF9002037
:102D700004F00AF93F2004F007F9002004F004F9F8
:102D80005E2004F001F9002004F0FEF8642004F055
:102D9000FBF8002004F0F8F88C2004F0F5F800208F
:102DA00004F0F2F8AC2004F0EFF8002004F0ECF8A6
:102DB000DC2004F0E9F801E074020020002004F0B7
:102DC000E3F8702004F0E0F8002004F0DDF8902033
:102DD00004F0DAF8002004F0D7F8EB2004F0D4F87F
:102DE000002004F0D1F8DC2004F0CEF8002004F03C
:102DF000CBF8B82004F0DAF8002004F0C5F8002081
:102E000004F0C2F8002004F0BFF8002004F0BCF881
:102E1000002004F0B9F8002004F0B6F8002004F017
:102E2000B3F8002004F0B0F8BA2004F0BFF8242072
:102E300004F0AAF8002004F0A7F8002004F0A4F899
:102E4000002004F0A1F8C12004F0B0F8202004F024
:102E50009BF8002004F098F8542004F095F8002026
:102E600004F092F8FF2004F08FF8002004F08CF8B2
:102E7000C22004F09BF80A2004F086F8002004F039
:102E800083F8042004F080F8002004F07DF8C320CB
:102E900004F08CF83C2004F077F8002004F074F87B
:102EA0003A2004F071F8002004F06EF8392004F0A4
:102EB0006BF8002004F068F8372004F065F8002073
:102EC00004F062F83C2004F05FF8002004F05CF8A5
:102ED000362004F059F8002004F056F8322004F0AF
:102EE00053F8002004F050F82F2004F04DF8002093
:102EF00004F04AF82C2004F047F8002004F044F8CD
:102F0000292004F041F8002004F03EF8262004F0C7
:102F10003BF8002004F038F8242004F035F80020B5
:102F200004F032F8242004F02FF8002004F02CF8EC
:102F3000232004F029F8002004F026F83C2004F0B7
:102F400023F8002004F020F8362004F01DF80020BB
:102F500004F01AF8322004F017F8002004F014F8F6
:102F60002F2004F011F8002004F00EF82C2004F0BB
:102F70000BF8002004F008F8292004F005F80020E0
:102F800004F002F8262003F0FFFF002003F0FCFF0E
:102F9000242003F0F9FF002003F0F6FF242003F0C3
:102FA000F3FF002003F0F0FF232003F0EDFF0020EB
:102FB00003F0EAFFC42003F0F9FF622003F0E4FF0E
:102FC000002003F0E1FF052003F0DEFF002003F006
:102FD000DBFF842003F0D8FF002003F0D5FFF020B2
:102FE00003F0D2FF002003F0CFFF182003F0CCFF46
:102FF000002003F0C9FFA42003F0C6FF002003F067
:10300000C3FF182003F0C0FF002003F0BDFF5020D5
:1030100003F0BAFF002003F0B7FF0C2003F0B4FF69
:10302000002003F0B1FF172003F0AEFF002003F0F3
:10303000ABFF952003F0A8FF002003F0A5FFF320CD
:1030400003F0A2FF002003F09FFFE62003F09CFFA7
:10305000002003F099FFC52003F0A8FF322003F001
:1030600093FF002003F090FF442003F08DFF002029
:1030700003F08AFF652003F087FF002003F084FF40
:10308000762003F081FF002003F07EFF882003F00C
:103090007BFF002003F078FFC62003F087FF20208D
:1030A00003F072FF002003F06FFF172003F06CFFA6
:1030B000002003F069FF012003F066FF002003F009
:1030C00063FFC72003F072FF002003F05DFF0020C4
:1030D00003F05AFF002003F057FF002003F054FFD5
:1030E000C82003F063FF002003F04EFF002003F030
:1030F0004BFF002003F048FF002003F045FFC920EC
:1031000003F054FF002003F03FFF002003F03CFFDA
:10311000002003F039FF002003F036FF002003F009
:1031200033FF002003F030FF002003F02DFF0020CC
:1031300003F02AFF002003F027FF002003F024FF04
:10314000002003F021FF002003F01EFF002003F009
:103150001BFF002003F018FF002003F015FF0020E4
:1031600003F012FFE02003F021FF162003F00CFF14
:10317000002003F009FF1C2003F006FF002003F0ED
:1031800003FF212003F000FF002003F0FDFE3620A6
:1031900003F0FAFE002003F0F7FE462003F0F4FEF1
:1031A000002003F0F1FE522003F0EEFE002003F0B9
:1031B000EBFE642003F0E8FE002003F0E5FE7A2039
:1031C00003F0E2FE002003F0DFFE8B2003F0DCFEC4
:1031D000002003F0D9FE992003F0D6FE002003F072
:1031E000D3FEA82003F0D0FE002003F0CDFEB920CE
:1031F00003F0CAFE002003F0C7FEC42003F0C4FEA3
:10320000002003F0C1FECA2003F0BEFE002003F040
:10321000BBFED22003F0B8FE002003F0B5FED9209B
:1032200003F0B2FE002003F0AFFEE02003F0ACFE9E
:10323000002003F0A9FEF32003F0A6FE002003F017
:10324000A3FEE12003F0B2FE162003F09DFE002055
:1032500003F09AFE1C2003F097FE002003F094FE7A
:10326000222003F091FE002003F08EFE362003F0B2
:103270008BFE002003F088FE452003F085FE002031
:1032800003F082FE522003F07FFE002003F07CFE5C
:10329000642003F079FE002003F076FE7A2003F02C
:1032A00073FE002003F070FE8B2003F06DFE002003
:1032B00003F06AFE992003F067FE002003F064FE2D
:1032C000A82003F061FE002003F05EFEB92003F0A9
:1032D0005BFE002003F058FEC42003F055FE0020E2
:1032E00003F052FECA2003F04FFE002003F04CFE14
:1032F000D22003F049FE002003F046FED82003F060
:1033000043FE002003F040FEE02003F03DFE0020DD
:1033100003F03AFEF32003F037FE002003F034FE02
:10332000E22003F043FE052003F02EFE002003F010
:103330002BFE0B2003F028FE002003F025FE1B20AF
:1033400003F022FE002003F01FFE342003F01CFED9
:10335000002003F019FE442003F016FE002003F0C5
:1033600013FE4F2003F010FE002003F00DFE61203D
:1033700003F00AFE002003F007FE792003F004FEAC
:10338000002003F001FE882003F0FEFD002003F082
:10339000FBFD972003F0F8FD002003F0F5FDA620CB
:1033A00003F0F2FD002003F0EFFDB72003F0ECFD89
:1033B000002003F0E9FDC22003F0E6FD002003F049
:1033C000E3FDC72003F0E0FD002003F0DDFDD12088
:1033D00003F0DAFD002003F0D7FDD62003F0D4FD82
:1033E000002003F0D1FDDD2003F0CEFD002003F02E
:1033F000CBFDF32003F0C8FD002003F0C5FDE32062
:1034000003F0D4FD052003F0BFFD002003F0BCFD58
:103410000A2003F0B9FD002003F0B6FD1C2003F0E4
:10342000B3FD002003F0B0FD332003F0ADFD00201C
:1034300003F0AAFD442003F0A7FD002003F0A4FD43
:10344000502003F0A1FD002003F09EFD622003F058
:103450009BFD002003F098FD782003F095FD0020EF
:1034600003F092FD882003F08FFD002003F08CFD17
:10347000972003F089FD002003F086FDA62003F0CD
:1034800083FD002003F080FDB72003F07DFD0020C8
:1034900003F07AFDC22003F077FD002003F074FDF5
:1034A000C72003F071FD002003F06EFDD12003F072
:1034B0006BFD002003F068FDD52003F065FD0020C2
:1034C00003F062FDDD2003F05FFD002003F05CFDF2
:1034D000F32003F059FD002003F056FDE42003F033
:1034E00065FD012003F050FD002003F04DFD01209B
:1034F00003F04AFD002003F047FD022003F044FDE5
:10350000002003F041FD2A2003F03EFD002003F0DF
:103510003BFD3C2003F038FD002003F035FD4B203F
:1035200003F032FD002003F02FFD5D2003F02CFDA1
:10353000002003F029FD742003F026FD002003F095
:1035400023FD842003F020FD002003F01DFD9320C7
:1035500003F01AFD002003F017FDA22003F014FD74
:10356000002003F011FDB32003F00EFD002003F056
:103570000BFDBE2003F008FD002003F005FDC42074
:1035800003F002FD002003F0FFFCCD2003F0FCFC63
:10359000002003F0F9FCD32003F0F6FC002003F038
:1035A000F3FCDD2003F0F0FC002003F0EDFCF32041
:1035B00003F0EAFC002003F0E7FCE52003F0F6FC52
:1035C000002003F0E1FC002003F0DEFC002003F00B
:1035D000DBFC002003F0D8FC022003F0D5FC002027
:1035E00003F0D2FC292003F0CFFC002003F0CCFC38
:1035F0003C2003F0C9FC002003F0C6FC4B2003F084
:10360000C3FC002003F0C0FC5D2003F0BDFC0020E3
:1036100003F0BAFC742003F0B7FC002003F0B4FC04
:10362000842003F0B1FC002003F0AEFC932003F0F3
:10363000ABFC002003F0A8FCA22003F0A5FC0020B6
:1036400003F0A2FCB32003F09FFC002003F09CFCDD
:10365000BE2003F099FC002003F096FCC42003F088
:1036600093FC002003F090FCCD2003F08DFC0020A3
:1036700003F08AFCD32003F087FC002003F084FCD5
:10368000DC2003F081FC002003F07EFCF32003F03B
:103690007BFC002003F078FCE62003F087FC11207F
:1036A00003F072FC002003F06FFC342003F06CFC8C
:1036B000002003F069FC562003F066FC002003F0B4
:1036C00063FC762003F060FC002003F05DFC7720B3
:1036D00003F05AFC002003F057FC662003F054FC72
:1036E000002003F051FC882003F04EFC002003F082
:1036F0004BFC992003F048FC002003F045FCBB2064
:1037000003F042FC002003F03FFC992003F03CFC56
:10371000002003F039FC662003F036FC002003F0A3
:1037200033FC552003F030FC002003F02DFC552025
:1037300003F02AFC002003F027FC452003F024FCC2
:10374000002003F021FC432003F01EFC002003F0C6
:103750001BFC442003F018FC002003F015FCE720BC
:1037600003F024FC322003F00FFC002003F00CFCDB
:10377000552003F009FC002003F006FC762003F03E
:1037800003FC002003F000FC662003F0FDFB00209A
:1037900003F0FAFB672003F0F7FB002003F0F4FBD3
:1037A000672003F0F1FB002003F0EEFB872003F01D
:1037B000EBFB002003F0E8FB992003F0E5FB002081
:1037C00003F0E2FBBB2003F0DFFB002003F0DCFB97
:1037D000992003F0D9FB002003F0D6FB772003F0FB
:1037E000D3FB002003F0D0FB442003F0CDFB0020EE
:1037F00003F0CAFB562003F0C7FB002003F0C4FB14
:10380000232003F0C1FB002003F0BEFB332003F0B4
:10381000BBFB002003F0B8FB452003F0B5FB002004
:1038200003F0B2FBE82003F0C1FB002003F0ACFB87
:10383000002003F0A9FB992003F0A6FB002003F071
:10384000A3FB872003F0A0FB002003F09DFB882052
:1038500003F09AFB002003F097FB772003F094FB22
:10386000002003F091FB662003F08EFB002003F0A4
:103870008BFB882003F088FB002003F085FBAA2047
:1038800003F082FB002003F07FFBBB2003F07CFBF6
:10389000002003F079FB992003F076FB002003F071
:1038A00073FB662003F070FB002003F06DFB5520D6
:1038B00003F06AFB002003F067FB552003F064FB74
:1038C000002003F061FB442003F05EFB002003F0C6
:1038D0005BFB442003F058FB002003F055FB552010
:1038E00003F052FB002003F04FFBE92003F05EFBE6
:1038F000AA2003F049FB002003F046FB002003F060
:1039000043FB002003F040FB002003F04FFBAA2004
:1039100003F03AFBCF2003F049FB002003F034FB17
:10392000002003F031FB002003F02EFB002003F009
:103930002BFB002003F028FB002003F025FB0020D8
:1039400003F022FB002003F01FFB002003F01CFB10
:10395000002003F019FB002003F016FB002003F009
:1039600013FB002003F010FB002003F00DFB0020F0
:1039700003F00AFB002003F007FB002003F004FB28
:10398000F02003F013FB002003F0FEFA502003F0B8
:10399000FBFA002003F0F8FA002003F0F5FA00200B
:1039A00003F0F2FAF32003F001FB002003F0ECFA3D
:1039B000F92003F0FBFA062003F0E6FA102003F0EA
:1039C000E3FA292003F0E0FA002003F0DDFA3A20C0
:1039D00003F0ECFA552003F0D7FA112003F0E6FAD1
:1039E000642004F039F9292003F0E0FA352003F0CF
:1039F000DDFA002003F0C8FA512003F0D7FAFF20C7
:103A000003F0C2FA532003F0D1FA2C2003F0BCFAE1
:103A1000552003F0CBFA822003F0B6FA2C2003F0F5
:103A2000C5FA02F066BBFE48808845F21051884214
:103A30007ED155214FF4704003F0D2FAAA214FF203
:103A4000010003F0CDFA52214FF2020003F0C8FA50
:103A500008214FF2030003F0C3FA01214FF20400E2
:103A600003F0BEFA0D214FF4304003F0B9FA0D21F6
:103A70004BF2010003F0B4FA0D214BF2020003F007
:103A8000AFFA34214FF4364003F0AAFA34214BF256
:103A9000016003F0A5FA34214BF2026003F0A0FAB2
:103AA0000D214FF4314003F09BFA0D214BF2011030
:103AB00003F096FA0D214BF2021003F091FA342133
:103AC0004FF4374003F08CFA34214BF2017003F0CD
:103AD00087FA34214BF2027003F082FA00214FF48E
:103AE000324003F07DFA00214BF2012003F078FA16
:103AF00000214BF2022003F073FA24214FF43840E6
:103B000003F06EFA24214BF6010003F069FA242138
:103B10004BF6020003F064FA01214FF43F4003F03A
:103B20005FFA0F214FF4334003F05AFA0F2100E0FF
:103B3000FEE34BF2013003F053FA0F214BF2023057
:103B400003F04EFA34214FF4394003F049FA34219E
:103B50004BF6011003F044FA34214BF6021003F047
:103B60003FFA08214FF4354003F03AFA08214BF2AE
:103B7000015003F035FA08214BF2025003F030FAFD
:103B800003214FF4424003F02BFA24214FF43A4032
:103B900003F026FA24214BF6012003F021FA242118
:103BA0004BF6022003F01CFA00214FF43C4003F0D6
:103BB00017FA78214BF6014003F012FA00214BF678
:103BC000024003F00DFA00214FF43D4003F008FAE3
:103BD00078214BF6015003F003FA00214BF6025016
:103BE00003F0FEF900214FF43E4003F0F9F964219F
:103BF0004BF6016003F0F4F900214FF4514003F05B
:103C0000EFF933214DF2011003F0EAF900214DF2F2
:103C1000021003F0E5F934214DF2031003F0E0F94E
:103C200000214DF2041003F0DBF93A214DF20510AA
:103C300003F0D6F900214DF2061003F0D1F94A2124
:103C40004DF2071003F0CCF900214DF2081003F0FB
:103C5000C7F95C214DF2091003F0C2F900214DF2C1
:103C60000A1003F0BDF981214DF20B1003F0B8F9F1
:103C700000214DF20C1003F0B3F9A6214DF20D1006
:103C800003F0AEF900214DF20E1003F0A9F9E52181
:103C90004DF20F1003F0A4F901214DF2101003F0C2
:103CA0009FF913214DF2111003F09AF901214DF201
:103CB000121003F095F954214DF2131003F090F90E
:103CC00001214DF2141003F08BF982214DF21510F1
:103CD00003F086F901214DF2161003F081F9CA2193
:103CE0004DF2171003F07CF902214DF2181003F089
:103CF00077F900214DF2191003F072F902214DF20B
:103D00001A1003F06DF901214DF21B1003F068F950
:103D100002214DF21C1003F063F934214DF21D1005
:103D200003F05EF902214DF21E1003F059F96721EC
:103D30004DF21F1003F054F902214DF2201003F050
:103D40004FF984214DF2211003F04AF902214DF27E
:103D5000221003F045F9A4214DF2231003F040F99D
:103D600002214DF2241003F03BF9B7214DF225104A
:103D700003F036F902214DF2261003F031F9CF217C
:103D80004DF2271003F02CF902214DF2281003F018
:103D900027F9DE214DF2291003F022F902214DF21C
:103DA0002A1003F01DF9F2214DF22B1003F018F93F
:103DB00002214DF22C1003F013F9FE214DF22D10CB
:103DC00003F00EF903214DF22E1003F009F9102132
:103DD0004DF22F1003F004F903214DF2301003F0DF
:103DE000FFF833214DF2311003F0FAF803214DF2C0
:103DF000321003F0F5F86D214DF2331003F0F0F8B6
:103E000000214FF4524003F0EBF833214DF2012032
:103E100003F0E6F800214DF2022003F0E1F801E0A2
:103E20007402002034214DF2032003F0D9F8002160
:103E30004DF2042003F0D4F83A214DF2052003F0AE
:103E4000CFF800214DF2062003F0CAF84A214DF2C6
:103E5000072003F0C5F800214DF2082003F0C0F858
:103E60005C214DF2092003F0BBF800214DF20A203D
:103E700003F0B6F881214DF20B2003F0B1F80021D8
:103E80004DF20C2003F0ACF8A6214DF20D2003F00A
:103E9000A7F800214DF20E2003F0A2F8E5214DF223
:103EA0000F2003F09DF801214DF2102003F098F847
:103EB00013214DF2112003F093F801214DF212204D
:103EC00003F08EF854214DF2132003F089F80121FC
:103ED0004DF2142003F084F882214DF2152003F0F6
:103EE0007FF801214DF2162003F07AF8CA214DF235
:103EF000172003F075F802214DF2182003F070F836
:103F000000214DF2192003F06BF802214DF21A2026
:103F100003F066F801214DF21B2003F061F8022145
:103F20004DF21C2003F05CF834214DF21D2003F00B
:103F300057F802214DF21E2003F052F867214DF28E
:103F40001F2003F04DF802214DF2202003F048F825
:103F500084214DF2212003F043F802214DF222206A
:103F600003F03EF8A4214DF2232003F039F802219A
:103F70004DF2242003F034F8B7214DF2252003F050
:103F80002FF802214DF2262003F02AF8CF214DF21E
:103F9000272003F025F802214DF2282003F020F815
:103FA000DE214DF2292003F01BF802214DF22A20D8
:103FB00003F016F8F2214DF22B2003F011F8022144
:103FC0004DF22C2003F00CF8FE214DF22D2003F0D1
:103FD00007F803214DF22E2003F002F810214DF2D4
:103FE0002F2002F0FDFF03214DF2302002F0F8FFF8
:103FF00033214DF2312002F0F3FF03214DF2322044
:1040000002F0EEFF6D214DF2332002F0E9FF0021B6
:104010004FF4534002F0E4FF33214DF2013002F03F
:10402000DFFF00214DF2023002F0DAFF34214DF2C1
:10403000033002F0D5FF00214DF2043002F0D0FF32
:104040003A214DF2053002F0CBFF00214DF206304F
:1040500002F0C6FF4A214DF2073002F0C1FF0021F5
:104060004DF2083002F0BCFF5C214DF2093002F045
:10407000B7FF00214DF20A3002F0B2FF81214DF26C
:104080000B3002F0ADFF00214DF20C3002F0A8FF22
:10409000A6214DF20D3002F0A3FF00214DF20E30AB
:1040A00002F09EFFE5214DF20F3002F099FF012151
:1040B0004DF2103002F094FF13214DF2113002F056
:1040C0008FFF01214DF2123002F08AFF54214DF290
:1040D000133002F085FF01214DF2143002F080FF11
:1040E00082214DF2153002F07BFF01214DF2163096
:1040F00002F076FFCA214DF2173002F071FF022163
:104100004DF2183002F06CFF00214DF2193002F030
:1041100067FF02214DF21A3002F062FF01214DF2D9
:104120001B3002F05DFF02214DF21C3002F058FFFF
:1041300034214DF21D3002F053FF02214DF21E30AA
:1041400002F04EFF67214DF21F3002F049FF0221BD
:104150004DF2203002F044FF84214DF2213002F074
:104160003FFF02214DF2223002F03AFFA4214DF22E
:10417000233002F035FF02214DF2243002F030FFEF
:10418000B7214DF2253002F02BFF02214DF22630EF
:1041900002F026FFCF214DF2273002F021FF02214D
:1041A0004DF2283002F01CFFDE214DF2293002F0E2
:1041B00017FF02214DF22A3002F012FFF2214DF2D8
:1041C0002B3002F00DFF02214DF22C3002F008FFDF
:1041D000FE214DF22D3002F003FF03214DF22E306F
:1041E00002F0FEFE10214DF22F3002F0F9FE032105
:1041F0004DF2303002F0F4FE33214DF2313002F056
:10420000EFFE03214DF2323002F0EAFE6D214DF255
:10421000333002F0E5FE00214FF4544002F0E0FE9E
:1042200033214DF2014002F0DBFE00214DF202404D
:1042300002F0D6FE34214DF2034002F0D1FE0021FF
:104240004DF2044002F0CCFE3A214DF2054002F05E
:10425000C7FE00214DF2064002F0C2FE4A214DF297
:10426000074002F0BDFE00214DF2084002F0B8FE0A
:104270005C214DF2094002F0B3FE00214DF20A40EC
:1042800002F0AEFE81214DF20B4002F0A9FE0021AA
:104290004DF20C4002F0A4FEA6214DF20D4002F0BA
:1042A0009FFE00214DF20E4002F09AFEE5214DF2F4
:1042B0000F4002F095FE01214DF2104002F090FEF9
:1042C00013214DF2114002F08BFE01214DF21240FC
:1042D00002F086FE54214DF2134002F081FE0121CE
:1042E0004DF2144002F07CFE82214DF2154002F0A6
:1042F00077FE01214DF2164002F072FECA214DF206
:10430000174002F06DFE02214DF2184002F068FEE7
:1043100000214DF2194002F063FE02214DF21A40D5
:1043200002F05EFE01214DF21B4002F059FE00E05A
:1043300004E302214DF21C4002F052FE34214DF202
:104340001D4002F04DFE02214DF21E4002F048FEDB
:1043500067214DF21F4002F043FE02214DF2204042
:1043600002F03EFE84214DF2214002F039FE02218E
:104370004DF2224002F034FEA4214DF2234002F01F
:104380002FFE02214DF2244002F02AFEB7214DF209
:10439000254002F025FE02214DF2264002F020FECB
:1043A000CF214DF2274002F01BFE02214DF22840A2
:1043B00002F016FEDE214DF2294002F011FE02212C
:1043C0004DF22A4002F00CFEF2214DF22B4002F099
:1043D00007FE02214DF22C4002F002FEFE214DF2BA
:1043E0002D4002F0FDFD03214DF22E4002F0F8FDBC
:1043F00010214DF22F4002F0F3FD03214DF2304029
:1044000002F0EEFD33214DF2314002F0E9FD0321CF
:104410004DF2324002F0E4FD6D214DF2334002F0E6
:10442000DFFD00214FF4554002F0DAFD33214DF25B
:10443000015002F0D5FD00214DF2025002F0D0FDF6
:1044400034214DF2035002F0CBFD00214DF2045017
:1044500002F0C6FD3A214DF2055002F0C1FD0021E7
:104460004DF2065002F0BCFD4A214DF2075002F019
:10447000B7FD00214DF2085002F0B2FD5C214DF273
:10448000095002F0ADFD00214DF20A5002F0A8FDE6
:1044900081214DF20B5002F0A3FD00214DF20C5092
:1044A00002F09EFDA6214DF20D5002F099FD002173
:1044B0004DF20E5002F094FDE5214DF20F5002F046
:1044C0008FFD01214DF2105002F08AFD13214DF2B3
:1044D000115002F085FD01214DF2125002F080FDD5
:1044E00054214DF2135002F07BFD01214DF2145086
:1044F00002F076FD82214DF2155002F071FD01218E
:104500004DF2165002F06CFDCA214DF2175002F028
:1045100067FD02214DF2185002F062FD00214DF2BC
:10452000195002F05DFD02214DF21A5002F058FDC3
:1045300001214DF21B5002F053FD02214DF21C509F
:1045400002F04EFD34214DF21D5002F049FD0221D2
:104550004DF21E5002F044FD67214DF21F5002F053
:104560003FFD02214DF2205002F03AFD84214DF230
:10457000215002F035FD02214DF2225002F030FDB3
:10458000A4214DF2235002F02BFD02214DF22450C4
:1045900002F026FDB7214DF2255002F021FD022147
:1045A0004DF2265002F01CFDCF214DF2275002F0B3
:1045B00017FD02214DF2285002F012FDDE214DF2CE
:1045C000295002F00DFD02214DF22A5002F008FDA3
:1045D000F2214DF22B5002F003FD02214DF22C503E
:1045E00002F0FEFCFE214DF22D5002F0F9FC0321F9
:1045F0004DF22E5002F0F4FC10214DF22F5002F03B
:10460000EFFC03214DF2305002F0EAFC33214DF271
:10461000315002F0E5FC03214DF2325002F0E0FC93
:104620006D214DF2335002F0DBFC00214FF4564077
:1046300002F0D6FC33214DF2016002F0D1FC0021E2
:104640004DF2026002F0CCFC34214DF2036002F026
:10465000C7FC00214DF2046002F0C2FC3A214DF289
:10466000056002F0BDFC00214DF2066002F0B8FCCE
:104670004A214DF2076002F0B3FC00214DF20860C0
:1046800002F0AEFC5C214DF2096002F0A9FC0021B1
:104690004DF20A6002F0A4FC81214DF20B6002F0A1
:1046A0009FFC00214DF20C6002F09AFCA6214DF215
:1046B0000D6002F095FC00214DF20E6002F090FCBE
:1046C000E5214DF20F6002F08BFC01214DF21060EC
:1046D00002F086FC13214DF2116002F081FC0121F1
:1046E0004DF2126002F07CFC54214DF2136002F096
:1046F00077FC01214DF2146002F072FC82214DF230
:10470000156002F06DFC01214DF2166002F068FCAC
:10471000CA214DF2176002F063FC02214DF21860CD
:1047200002F05EFC00214DF2196002F059FC0221FA
:104730004DF21A6002F054FC01214DF21B6002F0B0
:104740004FFC02214DF21C6002F04AFC34214DF274
:104750001D6002F045FC02214DF21E6002F040FC9B
:1047600067214DF21F6002F03BFC02214DF22060F8
:1047700002F036FC84214DF2216002F031FC02216E
:104780004DF2226002F02CFCA4214DF2236002F0D5
:1047900027FC02214DF2246002F022FCB7214DF2E9
:1047A000256002F01DFC02214DF2266002F018FC8B
:1047B000CF214DF2276002F013FC02214DF2286058
:1047C00002F00EFCDE214DF2296002F009FC02210C
:1047D0004DF22A6002F004FCF2214DF22B6002F04F
:1047E000FFFB02214DF22C6002F0FAFBFE214DF29C
:1047F0002D6002F0F5FB03214DF22E6002F0F0FB7C
:1048000010214DF22F6002F0EBFB03214DF23060DE
:1048100002F0E6FB33214DF2316002F0E1FB0321AF
:104820004DF2326002F0DCFB6D214DF2336002F09C
:10483000D7FB55214FF4704002F0D2FBAA214FF272
:10484000010002F0CDFB52214FF2020002F0C8FB42
:1048500008214FF2030002F0C3FB00214FF20400D5
:1048600002F0BEFBCC214FF4314002F0B9FB002135
:104870004BF2011002F0B4FB05214FF4364002F078
:10488000AFFB70214FF4374002F0AAFB70214BF2CE
:10489000017002F0A5FB01214FF4384002F0A0FBAB
:1048A00003214BF6010002F09BFB03214BF60200B3
:1048B00002F096FB03214BF6030002F091FB02216C
:1048C0004FF43C4002F08CFB00214BF6014002F01B
:1048D00087FB00214BF6024002F082FBD0214FF40F
:1048E000494002F07DFB02214CF6011002F078FBFA
:1048F00050214CF6021002F073FB50214CF60310CD
:1049000002F06EFB50214CF6041002F069FB00210E
:104910004FF4545002F064FB55214FF4685002F0FC
:104920005FFB4FF4885002F041FB782003F0B2F9AE
:104930004FF4245002F03AFB01F0DBBBFE488088C4
:1049400049F2253188427DD147F6F001E52002F099
:1049500047FB4FF48071012002F042FB4FF4E0610D
:10496000022002F03DFB41F23001032002F038FB4F
:104970000021042002F034FB40F20221082002F062
:104980002FFB0021092002F02BFB00210A2002F05E
:1049900027FB00210C2002F023FB00210D2002F058
:1049A0001FFB00210F2002F01BFB0021102002F052
:1049B00017FB0721112002F013FB0021122002F047
:1049C0000FFB0021132002F00BFB0021072002F057
:1049D00007FB41F29061102002F002FB40F2272118
:1049E000112002F0FDFA9D21122002F0F9FA4FF495
:1049F000C851132002F0F4FA2521292002F0F0FA20
:104A00000D212B2002F0ECFA0721302002F0E8FA09
:104A100040F20331312002F0E3FA0321322002F0A8
:104A2000DFFA40F20621352002F0DAFA08213620BA
:104A300002F0D6FA40F20641372002F0D1FA4FF4E4
:104A4000417100E058E0382002F0CAFA072139200D
:104A500002F0C6FA40F202613C2002F0C1FA0821DD
:104A60003D2002F0BDFA0021502002F0B9FAEF21FA
:104A7000512002F0B5FA0021522002F0B1FA40F2C2
:104A80003F11532002F0ACFA4FF42741602002F0AE
:104A9000A7FA0121612002F0A3FA00216A2002F0A6
:104AA0009FFA0021802002F09BFA0021812002F071
:104AB00097FA0021822002F093FA0021832002F06D
:104AC0008FFA0021842002F08BFA0021852002F069
:104AD00087FA1021902002F083FA4FF4C0619220EF
:104AE00002F07EFA40F23311072002F079FA222117
:104AF000002002F075FA1FE78F48808849F22831BC
:104B000088427DD141F28F01EC2002F069FA41F236
:104B10003421EF2002F064FA4FF48071012002F09A
:104B20005FFA4FF4E061022002F05AFA41F23001DC
:104B3000032002F055FA0021042002F051FA40F25D
:104B40000221082002F04CFA0021092002F048FA64
:104B500000210A2002F044FA01210C2002F040FA60
:104B600000210D2002F03CFA00210F2002F038FA5B
:104B70000021102002F034FA0721112002F030FA4F
:104B80000021122002F02CFA0021132002F028FA52
:104B90000121072002F024FA322003F05DF841F2EF
:104BA0009041102002F01CFA40F22721112002F05F
:104BB00017FA322003F050F88A21122002F010FA7E
:104BC000322003F049F84FF4D051132002F008FAD4
:104BD0000621292002F004FA0D212B2002F000FA10
:104BE000322003F039F80021202002F0F9F90021E9
:104BF000212002F0F5F9322003F02EF8002100E028
:104C000075E0302002F0ECF940F20461312002F04E
:104C1000E7F940F20531322002F0E2F900213520B7
:104C200002F0DEF940F60941362002F0D9F94FF4DE
:104C30000171372002F0D4F940F20131382002F03E
:104C4000CFF940F20771392002F0CAF900213C2067
:104C500002F0C6F940F60A213D2002F0C1F93220E7
:104C600002F0FAFF0021502002F0BAF9EF215120A2
:104C700002F0B6F90021522002F0B2F940F23F11E1
:104C8000532002F0ADF94FF42741602002F0A8F95B
:104C90000121612002F0A4F900216A2002F0A0F9AC
:104CA0000021802002F09CF90021812002F098F977
:104CB0000021822002F094F90021832002F090F973
:104CC0000021842002F08CF90021852002F088F96F
:104CD0001021902002F084F94FF4C061922002F07C
:104CE0007FF940F23311072002F07AF924E61248E6
:104CF000808849F2203188427ED10021084602F0A6
:104D00006FF94FF48071012002F06AF94FF4E0610D
:104D1000022002F065F941F23001032002F060F94F
:104D20000021042002F05CF940F20221082002F088
:104D300057F90021092001E07402002002F050F927
:104D400000210A2002F04CF901210C2002F048F960
:104D500000210D2002F044F900210F2002F040F95B
:104D6000322002F079FF40F20111072002F038F9F9
:104D7000322002F071FF4FF48651102002F030F91A
:104D80000721112002F02CF94FF48871122002F053
:104D900027F94FF43061132002F022F90021292075
:104DA00002F01EF944F210012B2002F019F9002143
:104DB000502002F015F9EF21512002F011F90021E5
:104DC000522002F00DF940F23F11532002F008F991
:104DD0004FF41C51602002F003F90121612002F020
:104DE000FFF800216A2002F0FBF80021802002F089
:104DF000F7F80021812000E030E002F0F1F8002116
:104E0000822002F0EDF80021832002F0E9F8002171
:104E1000842002F0E5F80021852002F0E1F810215D
:104E2000902002F0DDF80021922002F0D9F8012153
:104E3000932002F0D5F84FF48871952002F0D0F855
:104E40000021972002F0CCF80021982002F0C8F849
:104E500040F27311072002F0C3F86DE5FE48808828
:104E600049F2313188427DD141F21401E72002F04C
:104E7000B7F84FF48071012002F0B2F84FF40071DE
:104E8000022002F0ADF841F23801032002F0A8F848
:104E900040F20221082002F0A3F80021092002F0CC
:104EA0009FF800210A2002F09BF800210C2002F05C
:104EB00097F800210D2002F093F800210F2002F056
:104EC0008FF80021102002F08BF80721112002F04A
:104ED00087F80021122002F083F80021132002F04D
:104EE0007FF8C82002F0B8FE41F29061102002F075
:104EF00077F840F22721112002F072F8322002F0F8
:104F0000ABFE0C21122002F06BF8322002F0A4FE5E
:104F10004FF40061132002F063F81121292002F000
:104F20005FF80B212B2002F05BF8322002F094FE98
:104F30000021202002F054F840F23F11212002F01D
:104F40004FF80021302002F04BF84FF483713120EC
:104F500002F046F80021322002F042F84FF40171CD
:104F6000352000E064E002F03BF841F20A613620AF
:104F700002F036F840F20771372002F031F84FF4B2
:104F80008371382002F02CF840F20771392002F0CA
:104F900027F840F202413C2002F022F840F60F418F
:104FA0003D2002F01DF80021502002F019F8EF21F9
:104FB000512002F015F80021522002F011F840F2C1
:104FC0003F11532002F00CF84FF41C51602002F006
:104FD00007F80121612002F003F800216A2001F0A6
:104FE000FFFF0021802001F0FBFF0021812001F064
:104FF000F7FF0021822001F0F3FF0021832001F060
:10500000EFFF0021842001F0EBFF0021852001F05B
:10501000E7FF1021902001F0E3FF4FF4C0619220E0
:1050200001F0DEFF40F23311072001F0D9FF83E4E5
:105030008948808845F2084188427DD14FF48071CB
:10504000012001F0CDFF4FF4E061022001F0C8FF24
:1050500041F23001032001F0C3FF0021042001F0E0
:10506000BFFF40F20721082001F0BAFF002109200C
:1050700001F0B6FF00210A2001F0B2FF00210C2050
:1050800001F0AEFF00210D2001F0AAFF00210F204A
:1050900001F0A6FF142002F0DFFD41F2B061102004
:1050A00001F09EFF0121112001F09AFF012117203C
:1050B00001F096FF4FF49C71122001F091FF4FF424
:1050C0000061132001F08CFF0921292001F088FFE5
:1050D00009212A2001F084FF0021A42001F080FF93
:1050E0000021502001F07CFFEF21512001F078FFDA
:1050F0000021522001F074FF40F23F11532001F0D3
:105100006FFF4FF41C51602001F06AFF0121612004
:1051100001F066FF00216A2001F062FF002180207B
:1051200001F05EFF0021812001F05AFF0021822062
:1051300001F056FF002100E024E0832001F050FF41
:105140000021842001F04CFF0021852001F048FF60
:105150001321902001F044FF0021922001F040FF34
:105160000321932001F03CFF4FF48871952001F05A
:1051700037FF40F27311072001F032FF322002F0B6
:105180006BFDB8E43448808841F2055188427DD1F6
:105190000021072001F024FF322002F05DFD4FF4D2
:1051A0008E71122001F01CFF0121A42001F018FFD4
:1051B0000F21082001F014FF08210A2001F010FF40
:1051C00008210D2001F00CFF40F20771302001F0A2
:1051D00007FF0721312001F003FF40F20361322075
:1051E00001F0FEFE4FF4E061332001F0F9FE40F2E1
:1051F0000221342001F0F4FE0221352001F0F0FEFE
:1052000041F60F71362001F0EBFE40F207713720B6
:1052100001F0E6FE0021382001F0E2FE00213920F5
:1052200001F0DEFE40F207713A2001F0D9FE0021C4
:105230003B2001F0D5FE07213C2001F0D1FE0021EA
:105240003D2001F0CDFE322002F006FD01210720B5
:1052500001F0C6FE012101E074020020172001F0D8
:10526000BFFE322002F0F8FC4FF4BD51102001F0D7
:10527000B7FE40F21721112001F0B2FE4FF48F71FA
:10528000122001F0ADFE4FF4706100E098E01320B1
:1052900001F0A6FE00212A2001F0A2FE0A21292009
:1052A00001F09EFE4FF49F71122001F099FE002143
:1052B000502001F095FEEF21512001F091FE0021D8
:1052C000522001F08DFE40F23F11532001F088FE84
:1052D0004FF41C51602001F083FE0121612001F098
:1052E0007FFE00216A2001F07BFE0021802001F07A
:1052F00077FE0021812001F073FE0021822001F061
:105300006FFE0021832001F06BFE0021842001F05C
:1053100067FE0021852001F063FE1321902001F03B
:105320005FFE4FF44071922001F05AFE0521932058
:1053300001F056FE0021952001F052FE0021972039
:1053400001F04EFE0021982001F04AFE4FF48071DA
:10535000012001F045FE4FF4E061022001F040FE23
:1053600041F23801032001F03BFE0021042001F04E
:1053700037FE00210C2001F033FE00210F2001F048
:105380002FFE0021202001F02BFE0021212001F022
:1053900027FE2121072001F023FE142002F05CFCEF
:1053A0006121072001F01CFE142002F055FC40F2A0
:1053B0007311072001F014FE142002F04DFC95E457
:1053C000FE4880884BF2055188427CD10021084676
:1053D00001F006FE0021084601F002FE0021084609
:1053E00001F0FEFD0021084601F0FAFD0121A42094
:1053F00001F0F6FD142002F02FFC4FF41C51602048
:1054000001F0EEFD40F20221082001F0E9FD4FF429
:105410000571302001F0E4FD43F21571312001F0F7
:10542000DFFD40F20461322001F0DAFD40F6166142
:10543000332001F0D5FD42F21121342001F0D0FDDE
:105440004FF4A851352001F0CBFD48F2075136202A
:1054500001F0C6FD41F20741372001F0C1FD41F2E4
:105460000341382001F0BCFD2021392001F0B8FDB6
:105470001A21902001F0B4FD0021102001F0B0FDB0
:105480000721112001F0ACFD0021122001F0A8FD40
:105490000021132001F0A4FD142002F0DDFB4FF4E5
:1054A000E661102001F09CFD40F23711112001F05F
:1054B00097FD142002F0D0FB4FF4DC71122001F0B4
:1054C0008FFD142000E085E002F0C6FB4FF4706110
:1054D000132001F085FD80212A2001F081FD482163
:1054E000292001F07DFD142002F0B6FB4FF48071FD
:1054F000012001F075FD4FF4E061022001F070FD24
:1055000041F23801032001F06BFD40F20221082036
:1055100001F066FD00210A2001F062FD00210C204F
:1055200001F05EFD00210D2001F05AFD30210E201A
:1055300001F056FD0021502001F052FDEF215120D5
:1055400001F04EFD0021522001F04AFD40F23F11D2
:10555000532001F045FD4FF41C51602001F040FD47
:105560000121612001F03CFD00216A2001F038FD9D
:105570001121902001F034FD4FF4C061922001F020
:105580002FFD40F20241932001F02AFD02219420D8
:1055900001F026FD142002F05FFB0121072001F03D
:1055A0001FFD142002F058FB6121072001F018FDB7
:1055B00040F27311072001F013FD0021202001F0BB
:1055C0000FFD0021212001F00BFD2221002001F020
:1055D00007FD42E4794880884CF2055188427CD12D
:1055E0000021084601F0FCFC0021084601F0F8FC0F
:1055F000142002F031FB0021084601F0F1FC0021EB
:10560000084601F0EDFC0021084601F0E9FC00210C
:10561000084601F0E5FC0121A42001F0E1FC142082
:1056200002F01AFB4FF41C51602001F0D9FC40F647
:105630000601082001F0D4FC40F20371302001F093
:10564000CFFC0121312001F0CBFC0421322001F0FC
:10565000C7FC4FF48171332001F0C2FC4FF440715C
:10566000342001F0BDFC40F20311352001F0B8FCFC
:105670001F21362001F0B4FC40F20371372001F005
:10568000AFFC0121382001F0ABFC0421392001F0EE
:10569000A7FC1521902001F0A3FC4FF4826110209B
:1056A00001F09EFC40F24721112001F099FC4FF4DB
:1056B000DE71122001F094FC4FF46061132001F0C0
:1056C0008FFC782002F0C8FA4FF48071012001F0BD
:1056D00087FC4FF40071022000E052E001F080FCF2
:1056E00041F23001032001F07BFC08210A2001F087
:1056F00077FC00210C2001F073FC20210E2001F02A
:105700006FFC00210F2001F06BFC0021202001F034
:1057100067FC0021212001F063FC3D212A2001F0DB
:105720005FFC142002F098FA2D21292001F058FC8A
:105730000021502001F054FC4DF2EF01512001F006
:105740004FFC0021522001F04BFC40F23F1153204E
:1057500001F046FC0021612001F042FC00216A209A
:1057600001F03EFC4FF44071922001F039FC05211C
:10577000932001F035FC4FF48071072001F030FCDC
:1057800055E40E48808848F6891188427ED101216F
:10579000002001F025FC4AF6A401032001F020FCC2
:1057A00000210C2001F01CFC40F60C010D2001F042
:1057B00017FC4FF42C510E2002E000007402002070
:1057C00001F00EFCB0211E2001F00AFC42F63F3130
:1057D000012001F005FC4FF4C061022001F000FC43
:1057E0000021102001F0FCFB46F27801112001F0AD
:1057F000F7FB0021052001F0F3FB0021062001F05A
:10580000EFFB4EF61C71162001F0EAFB0321172076
:1058100001F0E6FB40F23321072001F0E1FB00211B
:105820000B2001F0DDFB00210F2001F0D9FB00214E
:10583000412001F0D5FB0021422001F0D1FB0021E5
:10584000482001F0CDFB40F23F11492001F0C8FB98
:1058500000214A2001F0C4FB00214B2001F0C0FBD5
:105860004FF46F41442001F0BBFB0021452001F0C3
:10587000B7FB40F23F11462001F0B2FB40F2077146
:10588000302001F0ADFB4FF4017100E040E0312029
:1058900001F0A6FB4FF40171322001F0A1FB40F2B0
:1058A0000251332001F09CFB40F20751342001F0FB
:1058B00097FB4FF40171352001F092FB4FF4017119
:1058C000362001F08DFB40F20251372001F088FBB9
:1058D00040F202313A2001F083FB40F202313B20DA
:1058E00001F07EFB0021232001F07AFB002124201F
:1058F00001F076FB4FF40041252001F071FB0021FF
:105900004F2001F06DFB00214E2001F069FBF0E318
:10591000FE48808844F2315188427DD10121002027
:1059200001F05EFB0A2002F097F941F22861102095
:1059300001F056FB0E21122001F052FB40F63921F6
:10594000132001F04DFB0A2002F086F940211120BE
:1059500001F046FB5021152001F042FB0A2002F025
:105960007BF91E21122001F03BFB0A2002F074F9A2
:105970004FF4B151102001F033FB42F639211320CE
:1059800001F02EFB0A2002F067F94FF4807101202C
:1059900001F026FB4FF44071022001F021FB41F29F
:1059A0003801032001F01CFB40F20221082001F025
:1059B00017FB08210A2001F013FB0021302001F021
:1059C0000FFB40F20241312001F00AFB4FF48371DA
:1059D000322001F005FB40F20351332001F000FBBF
:1059E0004FF48271342001F0FBFA40F2013135208E
:1059F00001F0F6FA40F20771362001F0F1FA40F2B8
:105A00000531372001F0ECFA4FF40271382001F033
:105A1000E7FA40F60B7100E03CE0392001F0E0FAD3
:105A20000221412001F0DCFA4FF41C51602001F00A
:105A3000D7FA0121612001F0D3FA4FF404719020CC
:105A400001F0CEFA4FF48571922001F0C9FA0421D9
:105A5000932001F0C5FA4FF48071A02001F0C0FA44
:105A60000121072001F0BCFA2121072001F0B8FA3A
:105A70002321072001F0B4FA3321072001F0B0FA06
:105A800040F23311072001F0ABFA0021A02001F011
:105A9000A7FA2EE39D48808844F2355188427CD194
:105AA0003021152001F09CFA10219A2001F098FA7B
:105AB0002021112001F094FA43F22841102001F036
:105AC0008FFA0221122001F08BFA41F238011320E3
:105AD00001F086FA282002F0BFF81221084601F0F2
