:020000040800F2
:10000000D00800202D020008310200083302000849
:10001000350200083702000839020008000000001D
:100020000000000000000000000000003B0200088B
:100030003D020008000000003F02000841020008E5
:10004000C16100084302000843020008430200089F
:100050004302000843020008210700084302000889
:10006000430200084302000843020008430200085C
:10007000430200084302000843020008430200084C
:10008000430200084302000843020008430200083C
:10009000430200084302000843020008A5070008C5
:1000A000430200084302000843020008430200081C
:1000B0004302000831600008B160000843020008F4
:1000C00043020008430200084302000843020008FC
:1000D000430200083D610008430200084302000893
:1000E00071070008430200084302000843020008A9
:1000F00043020008430200084302000843020008CC
:1001000043020008430200084302000843020008BB
:1001100043020008430200084302000843020008AB
:10012000430200084302000843020008430200089B
:1001300000F002F800F06BF80AA090E8000C82448E
:100140008344AAF10107DA4501D100F060F8AFF26B
:10015000090EBAE80F0013F0010F18BFFB1A43F0A5
:100160000103184700970000209700000A444FF051
:10017000000C10F8013B13F0070408BF10F8014B06
:100180001D1108BF10F8015B641E05D010F8016B4B
:10019000641E01F8016BF9D113F0080F1EBF10F8AF
:1001A000014BAD1C0C1B09D16D1E58BF01F801CBD2
:1001B000FAD505E014F8016B01F8016B6D1EF9D555
:1001C0009142D6D37047000000230024002500266A
:1001D000103A28BF78C1FBD8520728BF30C148BFAA
:1001E0000B607047642900F09B80752900F09880AF
:1001F000782900F0D180632900F02582732900F06E
:100200002A82002070471FB51FBD10B510BD00F039
:1002100055FA1146FFF7F7FF06F066F800F073FA9B
:1002200003B4FFF7F2FF03BC05F0F1FF08480047F5
:10023000FEE7FEE7FEE7FEE7FEE7FEE7FEE7FEE796
:10024000FEE7FEE703480449044A054B70470000F7
:1002500031010008D0020020D0080020D004002086
:10026000D0040020704700000FB4044910B503AA61
:10027000029800F0F5F910BC5DF814FB04000020B2
:1002800070B5044685690068C10601D5302600E0D6
:100290002026C00707D070BDD4E901213046904721
:1002A000206A401C20626D1EF6D570BD70B50446F4
:1002B00085690078C00707D170BDD4E901212020ED
:1002C0009047206A401C20626D1EF6D570BD70B547
:1002D0000C460546012A05D02878800600D5EA6933
:1002E000002302E0012305E05B1C934202D2E05CA4
:1002F0000028F9D1A869E618C01AA861286A18442C
:1003000028622846FFF7BCFF04E0D5E9012114F874
:10031000010B9047B442F8D32846FFF7C7FF70BDE2
:100320002DE9F0410646002410687529314616A5CE
:1003300010D0AFF30080002802DA404213A507E096
:1003400031688A0701D512A502E0490704D511A535
:10035000012401E0AFF3008000210A2206F1240706
:1003600009E0B0FBF2FCB0FBF2F302FB1C00303002
:1003700078541846491C0028F3D123462A463046B3
:10038000BDE8F04100F0FCB8000000002D000000C6
:100390002B0000002000000070B504460D462146E9
:1003A0001068AFF300802188090502D50F4A7A440E
:1003B00002E00E4A7A440E32002104F1240305E0E3
:1003C00000F00F060009965D5E54491C0028F7D125
:1003D00020780023000704D5702D02D009B1022334
:1003E00011322046BDE8704000F0CAB8C491000048
:1003F0002DE9F05F894604464FF0000ADFF874B13A
:10040000FB44C0F820A02046E1688847002874D04B
:10041000252806D0D4E901219047206A401C20629B
:10042000F1E700265F462046E16888472028054618
:1004300007DB312D05D2781910F8200C08B10643DE
:10044000F1E7B00701D526F00406C4F81CA0002788
:10045000C4F818A02A2D09D0284605F0D1FE38B3DB
:1004600004EB8708303DC8F8185019E059F8041B10
:10047000204604EB87029161E1688847012F054619
:1004800018D1E069002820DA26F020061DE0D8F80F
:10049000180000EB800005EB40003038C8F8180069
:1004A0002046E1688847054605F0AAFE0028EED1FF
:1004B000012F0AD02E2D08D12046E16888477F1CE5
:1004C0000546022F46F02006C4DBA069002803DAA7
:1004D000404246F00106A061F00701D026F0100668
:1004E0006C2D0BD0682D09D04C2D39D06A2D35D00C
:1004F000742D35D07A2D33D016E038E0E1682F46E0
:1005000020468847B842054609D16C2F26D04FF4C3
:100510008060E168064320468847054604E06C2F6A
:100520001AD04FF4807006430DB3A5F1410019288D
:1005300002D8203546F400664A4629462046266001
:100540004E46FFF74FFE80B101280BD0F61D26F076
:10055000070000F1080956E74020E4E78020D8E7CB
:100560000020D6E706F104094DE7284652E7206A45
:10057000BDE8F09F9A910000704770477047704740
:100580002DE9F0470D4699469246044600F12408AD
:100590000168880604D5E06921F01001216000E0BF
:1005A0000120A84201DD471B00E00027A1697A195C
:1005B00002EB0900081AA0612078C00602D4204688
:1005C000FFF75EFE002608E0D4E901211AF80600D4
:1005D0009047206A401C761C20624E45F4DB207850
:1005E000C0060AD52046FFF74BFE06E0D4E90121FC
:1005F00030209047206A401C2062381EA7F1010776
:10060000F4DC07E0D4E9012118F805009047206ADE
:10061000401C2062281EA5F10105F3DC2046FFF7EF
:1006200045FE2078000602D50220BDE8F0870120B3
:10063000FBE710B5436913B1AFF3008001E0FFF7AA
:1006400046FE012010BD127800F124010A7000223C
:100650004A700122EDE711684FF0FF32E9E7000030
:10066000074B70B50D467B4400F011F80446284650
:1006700000F020F810B14FF0FF3070BD204670BD83
:10068000635C000001694A1C02610878704700B58C
:100690008FB0CDE901310021059105497944CDE9BB
:1006A000031011466846FFF7A3FE0FB000BD00001F
:1006B000E5FFFFFF007B00F080007047754600F00B
:1006C0002BF8AE4605006946534620F007008546E4
:1006D00018B020B5FFF7B6FDBDE820404FF000068A
:1006E0004FF000074FF000084FF0000B21F007011A
:1006F000AC46ACE8C009ACE8C009ACE8C009ACE85D
:10070000C0098D46704710B50446AFF300802046FF
:10071000BDE81040FFF784BD00487047700200201C
:1007200010B50A2005F096FD0D480068012812D189
:100730000B48A030006808B9012000E000200849FB
:10074000A03108600748D0F8880108B9012000E00E
:1007500000200549086001200449086010BD000020
:10076000000121420080224288812242140401407B
:1007700010B50A2005F06EFD0748006838B9074833
:10078000006808B9012000E00020044908604FF427
:1007900000400349086010BD3C012142888122428B
:1007A0001404014010B50A2005F054FD0848006803
:1007B00048B90848006808B9012000E00020054950
:1007C000086000F07FF820200349086010BD000099
:1007D00014012242A00121421404014010B501225B
:1007E0000521022000F01EF801220F21002000F058
:1007F00019F802220021084600F014F802231722FB
:100800000121184605F072FB022328220021184618
:1008100005F06CFB022306220021184605F066FB5A
:1008200010BD000070B504460B46CE1701EB96765E
:10083000C6F38700CE1701EB9676B610A1EB8606BD
:10084000B606350E1C4B9B6943F001031A4EB3618B
:100850004FEAB63353F820300F26AE40B343174E5D
:1008600046F82030334653F8203004FA05F61E438C
:10087000124B43F82060124B1B6801268E40334315
:100880000F4E336002F0010343B10D4B0C331B6874
:1008900001268E4033430A4E0C36336002F00203C9
:1008A00043B1074B08331E6801238B401E43044BA2
:1008B00008331E6070BD00000010024008000140B7
:1008C000000401404AF6AA20014908607047000070
:1008D0000030004001464906084A926942F0010290
:1008E000064B9A61064A526822F0E062044B5A6055
:1008F0001A4652680A435A607047000000100240CE
:100900000000014010B52248806940F004002049F1
:1009100088610846806940F0100088610120FFF777
:10092000D9FF1C48006820F00F001A4908600846EB
:10093000006840F00800086016480C30006815494F
:100940000C3108601348001D006820F07040114908
:10095000091D08600846006840F0004008600D4826
:100960000C30006840F400400A490C3108600A4825
:10097000006820F47000084908600846006840F4E8
:10098000000008600846C06840F02000C86010BD44
:1009900000100240000801400010014030B501463F
:1009A00001F01F04C1F34513CA0AE50205EB431524
:1009B0001544A8B230BD000070B5044600261D489D
:1009C0000588408845431B48808846F604018842D4
:1009D00016D118488079012812D100201549887154
:1009E0002A2048812B2088810021084604F0DCFD64
:1009F0000120104988712B2048812A20888103E03A
:100A00000021084604F0D0FD05F0E4F900260DE0D1
:100A10004FF480700849086140004861074804604D
:100A200080204861086180000861761CAE42EFD3E7
:100A300070BD000060020020001001400C0C01405D
:100A400010B50446002C66D16C498871F0200880EE
:100A50004FF4A07048800846808849F241318842AE
:100A60000BD06648808846F60401884205D063486A
:100A7000808845F2103188421AD12C205F490881C4
:100A80002A2048812B2088810846808846F6040168
:100A9000884205D05948808845F21031884206D1F5
:100AA0004FF4A070554908804FF4F0704880A1E0E1
:100AB0005248808845F21051884210D14FF430508E
:100AC0004E4908814FF4285048814FF42C508881BA
:100AD0004FF4F07008804FF4487048808AE047482F
:100AE000808841F6631188420DD12C20434908814A
:100AF0002B2048812A2088814FF4F07008804FF421
:100B00004870488076E022203C49088120204881B6
:100B1000212088816EE00120384988714FF4A0704F
:100B20000880F02048800846808849F24131884298
:100B300005D03248808845F21031884207D12C20F8
:100B40002E4908812A2048812B2088813FE02B48AC
:100B5000808846F60401884207D12C202749088165
:100B60002B2048812A20888131E02448808845F262
:100B70001051884210D14FF43050204908814FF471
:100B8000285048814FF42C5088814FF448700880D9
:100B90004FF4F07048801AE01848808841F66311DD
:100BA00088420DD12C20154908812A2048812B200C
:100BB00088814FF4487008804FF4F070488006E058
:100BC00022200E49088121204881202088810B485D
:100BD000808846F60401884205D00848808845F29E
:100BE0001031884206D14FF4F070044908804FF468
:100BF000A0704880002004F0ABFA10BD6002002015
:100C00002DE9FF4F84B081468A4600200390029070
:100C10000698A0EB09050798A0EB0A06CDF804900A
:100C2000CDF800A0002D01DD012705E00DB900275A
:100C300002E04FF0FF376D42002E02DD4FF0010859
:100C400006E016B94FF0000802E04FF0FF38764298
:100C5000B54201DD2C4600E034464FF0000B21E0A8
:100C6000009A91B2019A90B200F022F803982844B9
:100C700003900298304402900398A04205DD039847
:100C8000001B03900198384401900298A04205DDB2
:100C90000298001B02900098404400900BF1010064
:100CA0001FFA80FB601C8345DADD08B0BDE8F08FD9
:100CB00030B504460D462946204604F075FC05F083
:100CC00089F84FF480700749086140004861064880
:100CD0000088064908608020024948610861800058
:100CE000086130BD001001400A0000200C0C0140DA
:100CF000F0B504460D4616461F462B463246294699
:100D00002046FFF77DFF3B46224629462046FFF757
:100D100077FF3B46324639462046FFF771FF3B4698
:100D2000324629463046FFF76BFFF0BD2DE9F04310
:100D300006460F469046002445460320A0EB48098E
:100D40003CE07A1B91B2321990B2FFF7B1FF3A1B27
:100D500091B2721990B2FFF7ABFF3A1991B27219C2
:100D600090B2FFF7A5FF7A1991B2321990B2FFF74E
:100D70009FFF7A1991B2321B90B2FFF799FF3A198F
:100D800091B2721B90B2FFF793FF7A1B91B2321BA4
:100D900090B2FFF78DFF3A1B91B2721B90B2FFF732
:100DA00087FF641CB9F1000F03DAA000801D8144A5
:100DB00004E0601B80000A3081446D1EAC42C0DD3F
:100DC000BDE8F08370B504460D461646D3488088CA
:100DD00049F24131884205D0D048808845F210312F
:100DE000884240D1CD49488904F0E2FF4FF4807039
:100DF000CB490861400048612012CA490860802040
:100E0000C7494861086180000861401008614000DE
:100E10004861E0B2C34908608020C1494861086167
:100E200080000861BD49888904F0C2FF4FF48070DA
:100E3000BB490861400048612812BA490860802017
:100E4000B7494861086180000861401008614000AE
:100E50004861E8B2B34908608020B149486108613F
:100E6000800008613DE1AD48808845F2105188421C
:100E700050D1AA49488904F09BFF4FF48070A849DB
:100E80000861400048612012A64908608020A449FA
:100E90004861086180000861A0494989491C88B2FD
:100EA00004F086FF4FF480709D490861400048615E
:100EB000E0B29C490860802099494861086180003F
:100EC00008619649888904F073FF4FF48070944953
:100ED00008614000486128129249086080209049CA
:100EE00048610861800008618C498989491C88B281
:100EF00004F05EFF4FF4807089490861400048614A
:100F0000E8B288490860802085494861086180000E
:100F10000861E6E08148808841F6631188427DD10E
:100F20007E48807920B97D480088401E001B84B22D
:100F30007A49488904F03CFF4FF480707849086191
:100F40004000486120127749086080207449486158
:100F50000861800008614010086140004861E0B20B
:100F60007049086080206E4948610861800008610E
:100F7000401008614000486120126A4908608020E2
:100F800067494861086180000861401008614000BD
:100F90004861E0B2634908608020614948610861A6
:100FA000800008615D49888904F002FF4FF4807079
:100FB0005B4908614000486128125A490860802056
:100FC000574948610861800008614010086140008D
:100FD0004861E8B25349086080205149486108617E
:100FE00080000861401008614000486128124D49A6
:100FF000086080204A49486108618000086140100B
:10100000086140004861E8B24649086080204449D0
:10101000486108618000086163E0FFE73F4880881D
:1010200046F60401884249D13C488079012804D120
:101030003A480088401E001B84B23849488904F0B1
:10104000B7FE4FF4807036490861400048612012B5
:101050003449086080203249486108618000086195
:101060004010086140004861E0B22E4908608020CD
:101070002B4948610861800008612849888904F08B
:1010800097FE4FF48070264908614000486128129D
:101090002449086080202249486108618000086175
:1010A0004010086140004861E8B21E490860802095
:1010B0001B49486108618000086112E01748807987
:1010C000012804D115480088401E001B84B2134932
:1010D0004889214604F086FE10498889294604F093
:1010E00081FE4FF480700E494861400048610B4812
:1010F00000890C4908608020094948610861800026
:101100000861401008614000486106480660802080
:10111000486108618000086170BD00006002002025
:10112000001001400C0C01402DE9FC4F05460E4615
:1011300017469846DDF82C90002001902C488088B6
:1011400046F60401884229D129488079012825D111
:10115000AB46354626480088C01B401E86B247462F
:1011600023480088A0EB0B00401E1FFA80F80020E7
:101170001F4988712A2048812B20888143463A469E
:1011800031462846CDF80090FFF7CEFF01201849E0
:1011900088712B2048812A20888127E0781B401CF9
:1011A00080B2019034461FE02146284604F0FCF945
:1011B00004F010FE4FF0000A11E04FF480700D496A
:1011C0000861400048610C48C0F8009080204861E8
:1011D0000861800008610AF101001FFA80FA019895
:1011E0008245EADB601C84B24445DDDDBDE8FC8F4E
:1011F00060020020001001400C0C014010B5FE48B8
:10120000806940F00800FC4988610846806940F028
:10121000100088610846806940F001008861012063
:10122000FFF758FBF54840686FF30B00F34948603F
:101230000846406840F233310843F04948600846A8
:10124000006820F07F4008600846006840F04C507D
:1012500008600846C06840F4F860C8604FF033305A
:10126000E7490860091F08604FF6FF70E44908313C
:101270000860322004F0EEFF0121002004F0B2FDEE
:10128000322004F0E7FF002003F0F0FEDD49888003
:1012900008468088FF280ADB084680884FF6FF71E1
:1012A000884204D0D7488088B0F5134F7ED1D32030
:1012B00004F07EFD03F09EFD03F09CFD03F09AFD1B
:1012C000D0498880084680884FF6FF7101EA0020E7
:1012D000CC49888003F08EFDCA4989880843C949F2
:1012E00088800846808849F2413188425ED0BF201C
:1012F00004F05EFD03F07EFD03F07CFD03F07AFD5B
:1013000003F078FDBF498880084680884FF6FF715A
:1013100001EA0020BB49888003F06CFDB949898847
:101320000843B84988800846808846F60401884208
:1013300074D0D42004F03CFD03F05CFD03F05AFDB2
:1013400003F058FDAF498880084680884FF6FF714A
:1013500001EA0020AB49888003F04CFDA949898847
:101360000843A84988800846808845F210318842A1
:1013700054D04FF45A4004F01BFD03F03BFD4FF4F2
:101380005B4004F015FD03F035FD9E49888008465A
:1013900080884FF6FF7101EA00209A4988804FF457
:1013A0005C4004F005FD03F025FD00E036E09549C2
:1013B000898808439349888008468088B0F5004FA3
:1013C00002D145F2105088808E48808845F2105135
:1013D000884223D0A12004F0EBFC03F00BFD8949E7
:1013E000888003F007FD87498880084680884FF68B
:1013F000FF7101EA00208349888003F0FBFC8149EA
:10140000898808437F4988800846808845F2617151
:10141000884203D141F663107A49888079488188EF
:1014200079A0FEF721FF7748808849F24131884250
:101430007ED1CF2004F0BCFC002004F0A7FCC1202A
:1014400004F0A4FC302004F0A1FCED2004F0B0FC7A
:10145000642004F09BFC032004F098FC122004F0AC
:1014600095FC812004F092FCE82004F0A1FC85208A
:1014700004F08CFC102004F089FC7A2004F086FC37
:10148000CB2004F095FC392004F080FC2C2004F0E3
:101490007DFC002004F07AFC342004F077FC02206C
:1014A00004F074FCF72004F083FC202004F06EFCB0
:1014B000EA2004F07DFC002004F068FC002004F029
:1014C00065FCC02004F074FC1B2004F05FFCC1200C
:1014D00004F06EFC012004F059FCC52004F068FC07
:1014E000302004F053FC302004F050FCC72004F0FE
:1014F0005FFCB72004F04AFC362004F059FC482079
:1015000004F044FC3A2004F053FC552004F03EFC67
:10151000B12004F04DFC002004F038FC1A2004F047
:1015200035FCB62004F044FC0A2004F02FFC00E057
:10153000A9E0A22004F02AFCF22004F039FC0020EB
:1015400004F024FC262004F033FC012004F01EFCEF
:10155000E02004F02DFC0F2004F018FC2A2004F0F9
:1015600015FC282004F012FC082004F00FFC0E20CB
:1015700004F00CFC082004F009FC542004F006FCE4
:10158000A92004F003FC432004F000FC0A2004F02E
:10159000FDFB0F2004F0FAFB002004F0F7FB002015
:1015A00004F0F4FB002004F0F1FB002004F0EEFB5B
:1015B000E12004F0FDFB002004F0E8FB152004F01E
:1015C000E5FB172004F0E2FB072004F0DFFB11200D
:1015D00004F0DCFB062004F0D9FB2B2004F0D6FB42
:1015E000562004F0D3FB3C2004F0D0FB052004F08F
:1015F000CDFB102010E00000001002400010014060
:10160000040C014060020020204C43442049443A2D
:1016100025780D0A0000000004F0B8FB0F2004F04C
:10162000B5FB3F2004F0B2FB3F2004F0AFFB0F20DE
:1016300004F0ACFB2B2004F0BBFB002004F0A6FB65
:10164000002004F0A3FB012004F0A0FB3F2004F0E5
:101650009DFB2A2004F0ACFB002004F097FB002047
:1016600004F094FB002004F091FBEF2004F08EFBCB
:10167000112004F09DFB782004F0ECFD292004F0FB
:1016800097FB03F09ABBFE48808846F60401884227
:101690007ED1112004F08CFB142004F0DBFDD0205F
:1016A00004F086FB072004F071FB422004F06EFB7F
:1016B0001D2004F06BFBD12004F07AFB002004F025
:1016C00065FB1A2004F062FB092004F05FFBD220C6
:1016D00004F06EFB012004F059FB222004F056FBBD
:1016E000C02004F065FB102004F050FB3B2004F008
:1016F0004DFB002004F04AFB022004F047FB1120C0
:1017000004F044FBC52004F053FB032004F03EFB2F
:10171000C82004F04DFB002004F038FB252004F025
:1017200035FB212004F032FB052004F02FFB0020C4
:1017300004F02CFB0A2004F029FB652004F026FBB2
:10174000252004F023FB772004F020FB502004F038
:101750001DFB0F2004F01AFB002004F017FBF820FB
:1017600004F026FB012004F011FBFE2004F020FB16
:10177000002004F00BFB022004F008FB202004F002
:1017800017FB362004F014FB082004F0FFFA00E0F9
:101790002AE03A2004F00CFB552004F0F7FA2B2045
:1017A00004F006FB002004F0F1FA002004F0EEFA49
:1017B000012004F0EBFA3F2004F0E8FA2A2004F0BC
:1017C000F7FA002004F0E2FA002004F0DFFA01202A
:1017D00004F0DCFADF2004F0D9FA782004F03AFDB6
:1017E000292004F0E5FA4CE7A548808845F210313D
:1017F000884240F07C87ED2004F0DAFA012004F002
:10180000C5FAFE2004F0C2FAEE2004F0D1FADE2080
:1018100004F0BCFA212004F0B9FAF12004F0C8FA6F
:10182000012004F0B3FADF2004F0C2FA102004F023
:10183000ADFAC42004F0BCFA8F2004F0A7FAC62049
:1018400004F0B6FA002004F0A1FAE22004F09EFAB7
:10185000E22004F09BFAE22004F098FABF2004F0A2
:10186000A7FAAA2004F092FAB02004F0A1FA0D2001
:1018700004F08CFA002004F089FA0D2004F086FAB6
:10188000002004F083FA112004F080FA002004F014
:101890007DFA192004F07AFA002004F077FA21206A
:1018A00004F074FA002004F071FA2D2004F06EFAAE
:1018B000002004F06BFA3D2004F068FA002004F0E8
:1018C00065FA5D2004F062FA002004F05FFA5D2002
:1018D00004F05CFA002004F059FAB12004F068FA30
:1018E000802004F053FA002004F050FA8B2004F01A
:1018F0004DFA002004F04AFA962004F047FA00203E
:1019000004F044FAB22004F053FA002004F03EFA46
:10191000002004F03BFA022004F038FA002004F022
:1019200035FA032004F032FA002004F02FFAB32035
:1019300004F03EFA002004F029FA002004F026FA10
:10194000002004F023FA002004F020FA002004F024
:101950001DFA002004F01AFA002004F017FA002003
:1019600004F014FA002004F011FA002004F00EFA3A
:10197000002004F00BFA002004F008FA002004F024
:1019800005FA002004F002FA002004F0FFF900201C
:1019900004F0FCF9002004F0F9F9002004F0F6F955
:1019A000002004F0F3F9002004F0F0F9002004F026
:1019B000EDF9002004F0EAF9002004F0E7F9002036
:1019C00004F0E4F9B42004F0F3F98B2004F0DEF91C
:1019D000002004F0DBF9962004F0D8F9002004F090
:1019E000D5F9A12004F0D2F9002004F0CFF9B520F8
:1019F00004F0DEF9022004F0C9F9002004F0C6F971
:101A0000032004F0C3F9002004F0C0F9042004F01E
:101A1000BDF9002004F0BAF9B62004F0C9F900209D
:101A200004F0B4F9002004F0B1F9B72004F0C0F9D3
:101A3000002004F0ABF9002004F0A8F93F2004F0E6
:101A4000A5F9002004F0A2F95E2004F09FF900201F
:101A500004F09CF9642004F099F9002004F096F950
:101A60008C2004F093F9002004F090F9AC2004F0ED
:101A70008DF9002004F08AF9DC2004F087F901E0F8
:101A800060020020002004F081F9702004F07EF94B
:101A9000002004F07BF9902004F078F9002004F095
:101AA00075F9EB2004F072F9002004F06FF9DC20E6
:101AB00004F06CF9002004F069F9B82004F078F91A
:101AC000002004F063F9002004F060F9002004F025
:101AD0005DF9002004F05AF9002004F057F90020C5
:101AE00004F054F9002004F051F9002004F04EF9FC
:101AF000BA2004F05DF9242004F048F9002004F035
:101B000045F9002004F042F9002004F03FF9C1201B
:101B100004F04EF9202004F039F9002004F036F9E1
:101B2000542004F033F9002004F030F9FF2004F0D1
:101B30002DF9002004F02AF9C22004F039F90A2016
:101B400004F024F9002004F021F9042004F01EF927
:101B5000002004F01BF9C32004F02AF93C2004F013
:101B600015F9002004F012F93A2004F00FF90020D2
:101B700004F00CF9392004F009F9002004F006F90A
:101B8000372004F003F9002004F000F93C2004F0B1
:101B9000FDF8002004F0FAF8362004F0F7F80020F1
:101BA00004F0F4F8322004F0F1F8002004F0EEF82C
:101BB0002F2004F0EBF8002004F0E8F82C2004F0CB
:101BC000E5F8002004F0E2F8292004F0DFF8002016
:101BD00004F0DCF8262004F0D9F8002004F0D6F850
:101BE000242004F0D3F8002004F0D0F8242004F0DE
:101BF000CDF8002004F0CAF8232004F0C7F8002034
:101C000004F0C4F83C2004F0C1F8002004F0BEF851
:101C1000362004F0BBF8002004F0B8F8322004F0BD
:101C2000B5F8002004F0B2F82F2004F0AFF800203F
:101C300004F0ACF82C2004F0A9F8002004F0A6F879
:101C4000292004F0A3F8002004F0A0F8262004F0D6
:101C50009DF8002004F09AF8242004F097F8002062
:101C600004F094F8242004F091F8002004F08EF899
:101C7000232004F08BF8002004F088F8C42004F03E
:101C800097F8622004F082F8002004F07FF8052025
:101C900004F07CF8002004F079F8842004F076F851
:101CA000002004F073F8F02004F070F8002004F035
:101CB0006DF8182004F06AF8002004F067F8A420FA
:101CC00004F064F8002004F061F8182004F05EF8D5
:101CD000002004F05BF8502004F058F8002004F0D5
:101CE00055F80C2004F052F8002004F04FF81720AB
:101CF00004F04CF8002004F049F8952004F046F870
:101D0000002004F043F8F32004F040F8002004F031
:101D10003DF8E62004F03AF8002004F037F8C5203A
:101D200004F046F8322004F031F8002004F02EF8D8
:101D3000442004F02BF8002004F028F8652004F07B
:101D400025F8002004F022F8762004F01FF8002087
:101D500004F01CF8882004F019F8002004F016F8AC
:101D6000C62004F025F8202004F010F8002004F02C
:101D70000DF8172004F00AF8002004F007F80120FD
:101D800004F004F8002004F001F8C72004F010F873
:101D9000002003F0FBFF002003F0F8FF002003F019
:101DA000F5FF002003F0F2FFC82004F001F8002046
:101DB00003F0ECFF002003F0E9FF002003F0E6FF52
:101DC000002003F0E3FFC92003F0F2FF002003F03E
:101DD000DDFF002003F0DAFF002003F0D7FF002032
:101DE00003F0D4FF002003F0D1FF002003F0CEFF6A
:101DF000002003F0CBFF002003F0C8FF002003F019
:101E0000C5FF002003F0C2FF002003F0BFFF002049
:101E100003F0BCFF002003F0B9FF002003F0B6FF81
:101E2000002003F0B3FF002003F0B0FFE02003F038
:101E3000BFFF162003F0AAFF002003F0A7FF1C201D
:101E400003F0A4FF002003F0A1FF212003F09EFF78
:101E5000002003F09BFF362003F098FF002003F0E2
:101E600095FF462003F092FF002003F08FFF5220E1
:101E700003F08CFF002003F089FF642003F086FF4D
:101E8000002003F083FF7A2003F080FF002003F09E
:101E90007DFF8B2003F07AFF002003F077FF99206D
:101EA00003F074FF002003F071FFA82003F06EFF21
:101EB000002003F06BFFB92003F068FF002003F05F
:101EC00065FFC42003F062FF002003F05FFFCA201B
:101ED00003F05CFF002003F059FFD22003F056FF0F
:101EE000002003F053FFD92003F050FF002003F03F
:101EF0004DFFE02003F04AFF002003F047FFF320EE
:101F000003F044FF002003F041FFE12003F050FF05
:101F1000162003F03BFF002003F038FF1C2003F0E5
:101F200035FF002003F032FF222003F02FFF0020B6
:101F300003F02CFF362003F029FF002003F026FFDA
:101F4000452003F023FF002003F020FF522003F080
:101F50001DFF002003F01AFF642003F017FF00208C
:101F600003F014FF7A2003F011FF002003F00EFFAE
:101F70008B2003F00BFF002003F008FF992003F0F3
:101F800005FF002003F002FFA82003F0FFFE002061
:101F900003F0FCFEB92003F0F9FE002003F0F6FE8A
:101FA000C42003F0F3FE002003F0F0FECA2003F08B
:101FB000EDFE002003F0EAFED22003F0E7FE002051
:101FC00003F0E4FED82003F0E1FE002003F0DEFE83
:101FD000E02003F0DBFE002003F0D8FEF32003F046
:101FE000D5FE002003F0D2FEE22003F0E1FE052042
:101FF00003F0CCFE002003F0C9FE0B2003F0C6FE68
:10200000002003F0C3FE1B2003F0C0FE002003F0FD
:10201000BDFE342003F0BAFE002003F0B7FE4420DA
:1020200003F0B4FE002003F0B1FE4F2003F0AEFE3B
:10203000002003F0ABFE612003F0A8FE002003F0B7
:10204000A5FE792003F0A2FE002003F09FFE882069
:1020500003F09CFE002003F099FE972003F096FE0B
:10206000002003F093FEA62003F090FE002003F072
:102070008DFEB72003F08AFE002003F087FEC22009
:1020800003F084FE002003F081FEC72003F07EFEF3
:10209000002003F07BFED12003F078FE002003F047
:1020A00075FED62003F072FE002003F06FFEDD20E7
:1020B00003F06CFE002003F069FEF32003F066FEDF
:1020C000002003F063FEE32003F072FE052003F01E
:1020D0005DFE002003F05AFE0A2003F057FE0020A8
:1020E00003F054FE1C2003F051FE002003F04EFECE
:1020F000332003F04BFE002003F048FE442003F0A1
:1021000045FE002003F042FE502003F03FFE002079
:1021100003F03CFE622003F039FE002003F036FE9F
:10212000782003F033FE002003F030FE882003F017
:102130002DFE002003F02AFE972003F027FE00204A
:1021400003F024FEA62003F021FE002003F01EFE73
:10215000B72003F01BFE002003F018FEC22003F09E
:1021600015FE002003F012FEC72003F00FFE002032
:1021700003F00CFED12003F009FE002003F006FE60
:10218000D52003F003FE002003F000FEDD2003F065
:10219000FDFD002003F0FAFDF32003F0F7FD002021
:1021A00003F0F4FDE42003F003FE012003F0EEFD54
:1021B000002003F0EBFD012003F0E8FD002003F018
:1021C000E5FD022003F0E2FD002003F0DFFD2A2000
:1021D00003F0DCFD002003F0D9FD3C2003F0D6FD28
:1021E000002003F0D3FD4B2003F0D0FD002003F0CE
:1021F000CDFD5D2003F0CAFD002003F0C7FD742073
:1022000003F0C4FD002003F0C1FD842003F0BEFDF7
:10221000002003F0BBFD932003F0B8FD002003F085
:10222000B5FDA22003F0B2FD002003F0AFFDB32006
:1022300003F0ACFD002003F0A9FDBE2003F0A6FDD5
:10224000002003F0A3FDC42003F0A0FD002003F054
:102250009DFDCD2003F09AFD002003F097FDD320D3
:1022600003F094FD002003F091FDDD2003F08EFDCE
:10227000002003F08BFDF32003F088FD002003F025
:1022800085FDE52003F094FD002003F07FFD002094
:1022900003F07CFD002003F079FD002003F076FDC3
:1022A000022003F073FD002003F070FD292003F0ED
:1022B0006DFD002003F06AFD3C2003F067FD002067
:1022C00003F064FD4B2003F061FD002003F05EFD90
:1022D0005D2003F05BFD002003F058FD742003F047
:1022E00055FD002003F052FD842003F04FFD002037
:1022F00003F04CFD932003F049FD002003F046FD60
:10230000A22003F043FD002003F040FDB32003F0C2
:102310003DFD002003F03AFDBE2003F037FD002014
:1023200003F034FDC42003F031FD002003F02EFD46
:10233000CD2003F02BFD002003F028FDD32003F077
:1023400025FD002003F022FDDC2003F01FFD00200E
:1023500003F01CFDF32003F019FD002003F016FD2F
:10236000E62003F025FD112003F010FD002003F00E
:102370000DFD342003F00AFD002003F007FD562078
:1023800003F004FD002003F001FD762003F0FEFCC5
:10239000002003F0FBFC772003F0F8FC002003F0A2
:1023A000F5FC662003F0F2FC002003F0EFFC88202F
:1023B00003F0ECFC002003F0E9FC992003F0E6FCBC
:1023C000002003F0E3FCBB2003F0E0FC002003F05E
:1023D000DDFC992003F0DAFC002003F0D7FC662036
:1023E00003F0D4FC002003F0D1FC552003F0CEFC18
:1023F000002003F0CBFC552003F0C8FC002003F0C4
:10240000C5FC452003F0C2FC002003F0BFFC4320C4
:1024100003F0BCFC002003F0B9FC442003F0B6FC40
:10242000002003F0B3FCE72003F0C2FC322003F0ED
:10243000ADFC002003F0AAFC552003F0A7FC00200F
:1024400003F0A4FC762003F0A1FC002003F09EFC26
:10245000662003F09BFC002003F098FC672003F04B
:1024600095FC002003F092FC672003F08FFC002015
:1024700003F08CFC872003F089FC002003F086FC2D
:10248000992003F083FC002003F080FCBB2003F0C4
:102490007DFC002003F07AFC992003F077FC0020FB
:1024A00003F074FC772003F071FC002003F06EFC55
:1024B000442003F06BFC002003F068FC562003F07E
:1024C00065FC002003F062FC232003F05FFC002089
:1024D00003F05CFC332003F059FC002003F056FCB1
:1024E000452003F053FC002003F050FCE82003F0EB
:1024F0005FFC002003F04AFC002003F047FC992019
:1025000003F044FC002003F041FC872003F03EFC74
:10251000002003F03BFC882003F038FC002003F08F
:1025200035FC772003F032FC002003F02FFC6620FE
:1025300003F02CFC002003F029FC882003F026FC8B
:10254000002003F023FCAA2003F020FC002003F06D
:102550001DFCBB2003F01AFC002003F017FC99209F
:1025600003F014FC002003F011FC662003F00EFCC5
:10257000002003F00BFC552003F008FC002003F0C2
:1025800005FC552003F002FC002003F0FFFB442073
:1025900003F0FCFB002003F0F9FB442003F0F6FB02
:1025A000002003F0F3FB552003F0F0FB002003F0C4
:1025B000EDFBE92003F0FCFBAA2003F0E7FB002081
:1025C00003F0E4FB002003F0E1FB002003F0DEFB5E
:1025D000002003F0EDFBAA2003F0D8FBCF2003F08E
:1025E000E7FB002003F0D2FB002003F0CFFB00202C
:1025F00003F0CCFB002003F0C9FB002003F0C6FB76
:10260000002003F0C3FB002003F0C0FB002003F018
:10261000BDFB002003F0BAFB002003F0B7FB002055
:1026200003F0B4FB002003F0B1FB002003F0AEFB8D
:10263000002003F0ABFB002003F0A8FB002003F018
:10264000A5FB002003F0A2FBF02003F0B1FB00206B
:1026500003F09CFB502003F099FB002003F096FB55
:10266000002003F093FB002003F090FBF32003F025
:102670009FFB002003F08AFBF92003F099FB062062
:1026800003F084FB102003F081FB292003F07EFB84
:10269000002003F07BFB3A2003F08AFB552003F077
:1026A00075FB112003F084FB642003F0D3FD292087
:1026B00003F07EFB352003F07BFB002003F066FB7C
:1026C000512003F075FBFF2003F060FB532003F063
:1026D0006FFB2C2003F05AFB552003F069FB82208E
:1026E00003F054FB2C2003F063FB02F066BBFE48B2
:1026F000808845F2105188427ED155214FF47040B8
:1027000003F070FBAA214FF2010003F06BFB522192
:102710004FF2020003F066FB08214FF2030003F0C2
:1027200061FB01214FF2040003F05CFB0D214FF42B
:10273000304003F057FB0D214BF2010003F052FB38
:102740000D214BF2020003F04DFB34214FF43640D3
:1027500003F048FB34214BF2016003F043FB3421CA
:102760004BF2026003F03EFB0D214FF4314003F0C9
:1027700039FB0D214BF2011003F034FB0D214BF21C
:10278000021003F02FFB34214FF4374003F02AFBF3
:1027900034214BF2017003F025FB34214BF202701F
:1027A00003F020FB00214FF4324003F01BFB00211B
:1027B0004BF2012003F016FB00214BF2022003F044
:1027C00011FB24214FF4384003F00CFB24214BF67D
:1027D000010003F007FB24214BF6020003F002FB8B
:1027E00001214FF43F4003F0FDFA0F214FF4334035
:1027F00003F0F8FA0F2100E0FEE34BF2013003F0A2
:10280000F1FA0F214BF2023003F0ECFA34214FF4CD
:10281000394003F0E7FA34214BF6011003F0E2FAF5
:1028200034214BF6021003F0DDFA08214FF4354055
:1028300003F0D8FA08214BF2015003F0D3FA082133
:102840004BF2025003F0CEFA03214FF4424003F062
:10285000C9FA24214FF43A4003F0C4FA24214BF67C
:10286000012003F0BFFA24214BF6022003F0BAFA4C
:1028700000214FF43C4003F0B5FA78214BF60140BB
:1028800003F0B0FA00214BF6024003F0ABFA00214E
:102890004FF43D4003F0A6FA78214BF6015003F0C7
:1028A000A1FA00214BF6025003F09CFA00214FF4EC
:1028B0003E4003F097FA64214BF6016003F092FA70
:1028C00000214FF4514003F08DFA33214DF20110F5
:1028D00003F088FA00214DF2021003F083FA34214C
:1028E0004DF2031003F07EFA00214DF2041003F0C4
:1028F00079FA3A214DF2051003F074FA00214DF2F5
:10290000061003F06FFA4A214DF2071003F06AFA3D
:1029100000214DF2081003F065FA5C214DF2091018
:1029200003F060FA00214DF20A1003F05BFA8121F6
:102930004DF20B1003F056FA00214DF20C1003F08B
:1029400051FAA6214DF20D1003F04CFA00214DF280
:102950000E1003F047FAE5214DF20F1003F042FA92
:1029600001214DF2101003F03DFA13214DF2111028
:1029700003F038FA01214DF2121003F033FA54211A
:102980004DF2131003F02EFA01214DF2141003F052
:1029900029FA82214DF2151003F024FA01214DF29B
:1029A000161003F01FFACA214DF2171003F01AFA9D
:1029B00002214DF2181003F015FA00214DF2191002
:1029C00003F010FA02214DF21A1003F00BFA012164
:1029D0004DF21B1003F006FA02214DF21C1003F019
:1029E00001FA34214DF21D1003F0FCF902214DF2E1
:1029F0001E1003F0F7F967214DF21F1003F0F2F9F2
:102A000002214DF2201003F0EDF984214DF2211046
:102A100003F0E8F902214DF2221003F0E3F9A421BA
:102A20004DF2231003F0DEF902214DF2241003F0E1
:102A3000D9F9B7214DF2251003F0D4F902214DF256
:102A4000261003F0CFF9CF214DF2271003F0CAF979
:102A500002214DF2281003F0C5F9DE214DF22910B4
:102A600003F0C0F902214DF22A1003F0BBF9F22164
:102A70004DF22B1003F0B6F902214DF22C1003F0A9
:102A8000B1F9FE214DF22D1003F0ACF903214DF206
:102A90002E1003F0A7F910214DF22F1003F0A2F928
:102AA00003214DF2301003F09DF933214DF2311026
:102AB00003F098F903214DF2321003F093F96D21E0
:102AC0004DF2331003F08EF900214FF4524003F021
:102AD00089F933214DF2012003F084F900214DF2F0
:102AE000022003F07FF901E06002002034214DF262
:102AF000032003F077F900214DF2042003F072F96E
:102B00003A214DF2052003F06DF900214DF2062027
:102B100003F068F94A214DF2072003F063F9002120
:102B20004DF2082003F05EF95C214DF2092003F01C
:102B300059F900214DF20A2003F054F981214DF298
:102B40000B2003F04FF900214DF20C2003F04AF95D
:102B5000A6214DF20D2003F045F900214DF20E2083
:102B600003F040F9E5214DF20F2003F03BF901217C
:102B70004DF2102003F036F913214DF2112003F02D
:102B800031F901214DF2122003F02CF954214DF2BC
:102B9000132003F027F901214DF2142003F022F94C
:102BA00082214DF2152003F01DF901214DF216206E
:102BB00003F018F9CA214DF2172003F013F902218E
:102BC0004DF2182003F00EF900214DF2192003F008
:102BD00009F902214DF21A2003F004F901214DF206
:102BE0001B2003F0FFF802214DF21C2003F0FAF83D
:102BF00034214DF21D2003F0F5F802214DF21E2084
:102C000003F0F0F867214DF21F2003F0EBF80221EA
:102C10004DF2202003F0E6F884214DF2212003F04C
:102C2000E1F802214DF2222003F0DCF8A4214DF25C
:102C3000232003F0D7F802214DF2242003F0D2F82C
:102C4000B7214DF2252003F0CDF802214DF22620C8
:102C500003F0C8F8CF214DF2272003F0C3F802217A
:102C60004DF2282003F0BEF8DE214DF2292003F0BA
:102C7000B9F802214DF22A2003F0B4F8F2214DF206
:102C80002B2003F0AFF802214DF22C2003F0AAF81C
:102C9000FE214DF22D2003F0A5F803214DF22E2048
:102CA00003F0A0F810214DF22F2003F09BF8032130
:102CB0004DF2302003F096F833214DF2312003F02D
:102CC00091F803214DF2322003F08CF86D214DF282
:102CD000332003F087F800214FF4534003F082F8CB
:102CE00033214DF2013003F07DF800214DF2023026
:102CF00003F078F834214DF2033003F073F800212B
:102D00004DF2043003F06EF83A214DF2053003F035
:102D100069F800214DF2063003F064F84A214DF2C3
:102D2000073003F05FF800214DF2083003F05AF845
:102D30005C214DF2093003F055F800214DF20A30C4
:102D400003F050F881214DF20B3003F04BF80021D5
:102D50004DF20C3003F046F8A6214DF20D3003F091
:102D600041F800214DF20E3003F03CF8E5214DF220
:102D70000F3003F037F801214DF2103003F032F834
:102D800013214DF2113003F02DF801214DF21230D4
:102D900003F028F854214DF2133003F023F80121F9
:102DA0004DF2143003F01EF882214DF2153003F07D
:102DB00019F801214DF2163003F014F8CA214DF232
:102DC000173003F00FF802214DF2183003F00AF823
:102DD00000214DF2193003F005F802214DF21A30AE
:102DE00003F000F801214DF21B3002F0FBFF02213D
:102DF0004DF21C3002F0F6FF34214DF21D3002F08E
:102E0000F1FF02214DF21E3002F0ECFF67214DF27E
:102E10001F3002F0E7FF02214DF2203002F0E2FF06
:102E200084214DF2213002F0DDFF02214DF22230EB
:102E300002F0D8FFA4214DF2233002F0D3FF02218B
:102E40004DF2243002F0CEFFB7214DF2253002F0D2
:102E5000C9FF02214DF2263002F0C4FFCF214DF20E
:102E6000273002F0BFFF02214DF2283002F0BAFFF6
:102E7000DE214DF2293002F0B5FF02214DF22A3059
:102E800002F0B0FFF2214DF22B3002F0ABFF022135
:102E90004DF22C3002F0A6FFFE214DF22D3002F053
:102EA000A1FF03214DF22E3002F09CFF10214DF2C4
:102EB0002F3002F097FF03214DF2303002F092FFE5
:102EC00033214DF2313002F08DFF03214DF23230CB
:102ED00002F088FF6D214DF2333002F083FF0021B4
:102EE0004FF4544002F07EFF33214DF2014002F0D6
:102EF00079FF00214DF2024002F074FF34214DF2BF
:102F0000034002F06FFF00214DF2044002F06AFF1F
:102F10003A214DF2054002F065FF00214DF20640D6
:102F200002F060FF4A214DF2074002F05BFF0021F2
:102F30004DF2084002F056FF5C214DF2094002F0CC
:102F400051FF00214DF20A4002F04CFF81214DF269
:102F50000B4002F047FF00214DF20C4002F042FF0F
:102F6000A6214DF20D4002F03DFF00214DF20E4032
:102F700002F038FFE5214DF20F4002F033FF01214E
:102F80004DF2104002F02EFF13214DF2114002F0DD
:102F900029FF01214DF2124002F024FF54214DF28D
:102FA000134002F01FFF01214DF2144002F01AFFFE
:102FB00082214DF2154002F015FF01214DF216401D
:102FC00002F010FFCA214DF2174002F00BFF022160
:102FD0004DF2184002F006FF00214DF2194002F0B8
:102FE00001FF02214DF21A4002F0FCFE01214DF2D8
:102FF0001B4002F0F7FE00E004E302214DF21C400A
:1030000002F0F0FE34214DF21D4002F0EBFE0221F1
:103010004DF21E4002F0E6FE67214DF21F4002F025
:10302000E1FE02214DF2204002F0DCFE84214DF24F
:10303000214002F0D7FE02214DF2224002F0D2FEE2
:10304000A4214DF2234002F0CDFE02214DF2244096
:1030500002F0C8FEB7214DF2254002F0C3FE022166
:103060004DF2264002F0BEFECF214DF2274002F085
:10307000B9FE02214DF2284002F0B4FEDE214DF2ED
:10308000294002F0AFFE02214DF22A4002F0AAFED2
:10309000F2214DF22B4002F0A5FE02214DF22C4010
:1030A00002F0A0FEFE214DF22D4002F09BFE032116
:1030B0004DF22E4002F096FE10214DF22F4002F00C
:1030C00091FE03214DF2304002F08CFE33214DF28F
:1030D000314002F087FE03214DF2324002F082FEC1
:1030E0006D214DF2334002F07DFE00214FF455403A
:1030F00002F078FE33214DF2015002F073FE002100
:103100004DF2025002F06EFE34214DF2035002F0F7
:1031100069FE00214DF2045002F064FE3A214DF2A6
:10312000055002F05FFE00214DF2065002F05AFEFB
:103130004A214DF2075002F055FE00214DF2085091
:1031400002F050FE5C214DF2095002F04BFE0021CE
:103150004DF20A5002F046FE81214DF20B5002F072
:1031600041FE00214DF20C5002F03CFEA6214DF232
:103170000D5002F037FE00214DF20E5002F032FEEB
:10318000E5214DF20F5002F02DFE01214DF21050BD
:1031900002F028FE13214DF2115002F023FE01210E
:1031A0004DF2125002F01EFE54214DF2135002F067
:1031B00019FE01214DF2145002F014FE82214DF24D
:1031C000155002F00FFE01214DF2165002F00AFEDA
:1031D000CA214DF2175002F005FE02214DF218509F
:1031E00002F000FE00214DF2195002F0FBFD022119
:1031F0004DF21A5002F0F6FD01214DF21B5002F083
:10320000F1FD02214DF21C5002F0ECFD34214DF293
:103210001D5002F0E7FD02214DF21E5002F0E2FDCA
:1032200067214DF21F5002F0DDFD02214DF22050CA
:1032300002F0D8FD84214DF2215002F0D3FD02218D
:103240004DF2225002F0CEFDA4214DF2235002F0A7
:10325000C9FD02214DF2245002F0C4FDB7214DF208
:10326000255002F0BFFD02214DF2265002F0BAFDBA
:10327000CF214DF2275002F0B5FD02214DF228502A
:1032800002F0B0FDDE214DF2295002F0ABFD02212B
:103290004DF22A5002F0A6FDF2214DF22B5002F021
:1032A000A1FD02214DF22C5002F09CFDFE214DF2B9
:1032B0002D5002F097FD03214DF22E5002F092FDA9
:1032C00010214DF22F5002F08DFD03214DF23050B0
:1032D00002F088FD33214DF2315002F083FD0321CD
:1032E0004DF2325002F07EFD6D214DF2335002F06E
:1032F00079FD00214FF4564002F074FD33214DF268
:10330000016002F06FFD00214DF2026002F06AFDE3
:1033100034214DF2036002F065FD00214DF204609E
:1033200002F060FD3A214DF2056002F05BFD0021E4
:103330004DF2066002F056FD4A214DF2076002F0A0
:1033400051FD00214DF2086002F04CFD5C214DF270
:10335000096002F047FD00214DF20A6002F042FDD3
:1033600081214DF20B6002F03DFD00214DF20C6019
:1033700002F038FDA6214DF20D6002F033FD002170
:103380004DF20E6002F02EFDE5214DF20F6002F0CD
:1033900029FD01214DF2106002F024FD13214DF2B0
:1033A000116002F01FFD01214DF2126002F01AFDC2
:1033B00054214DF2136002F015FD01214DF214600D
:1033C00002F010FD82214DF2156002F00BFD01218B
:1033D0004DF2166002F006FDCA214DF2176002F0B0
:1033E00001FD02214DF2186002F0FCFC00214DF2BB
:1033F000196002F0F7FC02214DF21A6002F0F2FCB3
:1034000001214DF21B6002F0EDFC02214DF21C6027
:1034100002F0E8FC34214DF21D6002F0E3FC0221D1
:103420004DF21E6002F0DEFC67214DF21F6002F0DB
:10343000D9FC02214DF2206002F0D4FC84214DF22F
:10344000216002F0CFFC02214DF2226002F0CAFCA2
:10345000A4214DF2236002F0C5FC02214DF224604C
:1034600002F0C0FCB7214DF2256002F0BBFC022146
:103470004DF2266002F0B6FCCF214DF2276002F03B
:10348000B1FC02214DF2286002F0ACFCDE214DF2CD
:10349000296002F0A7FC02214DF22A6002F0A2FC92
:1034A000F2214DF22B6002F09DFC02214DF22C60C6
:1034B00002F098FCFE214DF22D6002F093FC0321F6
:1034C0004DF22E6002F08EFC10214DF22F6002F0C2
:1034D00089FC03214DF2306002F084FC33214DF26F
:1034E000316002F07FFC03214DF2326002F07AFC81
:1034F0006D214DF2336002F075FC55214FF47040A0
:1035000002F070FCAA214FF2010002F06BFC522184
:103510004FF2020002F066FC08214FF2030002F0B5
:1035200061FC00214FF2040002F05CFCCC214FF45E
:10353000314002F057FC00214BF2011002F052FC26
:1035400005214FF4364002F04DFC70214FF4374016
:1035500002F048FC70214BF2017002F043FC0121A3
:103560004FF4384002F03EFC03214BF6010002F01C
:1035700039FC03214BF6020002F034FC03214BF628
:10358000030002F02FFC02214FF43C4002F02AFC21
:1035900000214BF6014002F025FC00214BF60240D1
:1035A00002F020FCD0214FF4494002F01BFC022124
:1035B0004CF6011002F016FC50214CF6021002F0FD
:1035C00011FC50214CF6031002F00CFC50214CF67B
:1035D000041002F007FC00214FF4545002F002FCEA
:1035E00055214FF4685002F0FDFB4FF4885002F073
:1035F000DFFB782002F04CFE4FF4245002F0D8FBA1
:1036000001F0DBBBFE48808849F2253188427DD13C
:1036100047F6F001E52002F0E5FB4FF48071012050
:1036200002F0E0FB4FF4E061022002F0DBFB41F22C
:103630003001032002F0D6FB0021042002F0D2FB6F
:1036400040F20221082002F0CDFB0021092002F007
:10365000C9FB00210A2002F0C5FB00210C2002F06A
:10366000C1FB00210D2002F0BDFB00210F2002F064
:10367000B9FB0021102002F0B5FB0721112002F058
:10368000B1FB0021122002F0ADFB0021132002F05B
:10369000A9FB0021072002F0A5FB41F29061102058
:1036A00002F0A0FB40F22721112002F09BFB9D219C
:1036B000122002F097FB4FF4C851132002F092FB46
:1036C0002521292002F08EFB0D212B2002F08AFB00
:1036D0000721302002F086FB40F20331312002F056
:1036E00081FB0321322002F07DFB40F206213520D0
:1036F00002F078FB0821362002F074FB40F206410C
:10370000372002F06FFB4FF4417100E058E03820A1
:1037100002F068FB0721392002F064FB40F20261ED
:103720003C2002F05FFB08213D2002F05BFB002102
:10373000502002F057FBEF21512002F053FB0021F3
:10374000522002F04FFB40F23F11532002F04AFB9F
:103750004FF42741602002F045FB0121612002F077
:1037600041FB00216A2002F03DFB0021802002F095
:1037700039FB0021812002F035FB0021822002F07C
:1037800031FB0021832002F02DFB0021842002F078
:1037900029FB0021852002F025FB1021902002F05A
:1037A00021FB4FF4C061922002F01CFB40F2331168
:1037B000072002F017FB2221002002F013FB1FE775
:1037C0008F48808849F2283188427DD141F28F01AB
:1037D000EC2002F007FB41F23421EF2002F002FB63
:1037E0004FF48071012002F0FDFA4FF4E0610220F5
:1037F00002F0F8FA41F23001032002F0F3FA00215E
:10380000042002F0EFFA40F20221082002F0EAFA66
:103810000021092002F0E6FA00210A2002F0E2FA73
:1038200001210C2002F0DEFA00210D2002F0DAFA6C
:1038300000210F2002F0D6FA0021102002F0D2FA67
:103840000721112002F0CEFA0021122002F0CAFA5C
:103850000021132002F0C6FA0121072002F0C2FA6B
:10386000322002F0F7FC41F29041102002F0BAFA47
:1038700040F22721112002F0B5FA322002F0EAFCD2
:103880008A21122002F0AEFA322002F0E3FC4FF45B
:10389000D051132002F0A6FA0621292002F0A2FA44
:1038A0000D212B2002F09EFA322002F0D3FC0021E1
:1038B000202002F097FA0021212002F093FA322012
:1038C00002F0C8FC002100E075E0302002F08AFA26
:1038D00040F20461312002F085FA40F205313220D5
:1038E00002F080FA0021352002F07CFA40F609410E
:1038F000362002F077FA4FF40171372002F072FAA5
:1039000040F20131382002F06DFA40F2077139209F
:1039100002F068FA00213C2002F064FA40F60A2125
:103920003D2002F05FFA322002F094FC002150208A
:1039300002F058FAEF21512002F054FA00215220EF
:1039400002F050FA40F23F11532002F04BFA4FF4CC
:103950002741602002F046FA0121612002F042FA7C
:1039600000216A2002F03EFA0021802002F03AFA9B
:103970000021812002F036FA0021822002F032FA82
:103980000021832002F02EFA0021842002F02AFA7E
:103990000021852002F026FA1021902002F022FA60
:1039A0004FF4C061922002F01DFA40F2331107205B
:1039B00002F018FA24E61248808849F22031884241
:1039C0007ED10021084602F00DFA4FF480710120EB
:1039D00002F008FA4FF4E061022002F003FA41F22B
:1039E0003001032002F0FEF90021042002F0FAF970
:1039F00040F20221082002F0F5F90021092001E03F
:103A00006002002002F0EEF900210A2002F0EAF93B
:103A100001210C2002F0E6F900210D2002F0E2F96C
:103A200000210F2002F0DEF9322002F013FC40F2F8
:103A30000111072002F0D6F9322002F00BFC4FF4FE
:103A40008651102002F0CEF90721112002F0CAF9A8
:103A50004FF48871122002F0C5F94FF43061132041
:103A600002F0C0F90021292002F0BCF944F2100153
:103A70002B2002F0B7F90021502002F0B3F9EF211A
:103A8000512002F0AFF90021522002F0ABF940F2D0
:103A90003F11532002F0A6F94FF41C51602002F0B0
:103AA000A1F90121612002F09DF900216A2002F0B4
:103AB00099F90021802002F095F90021812000E091
:103AC00030E002F08FF90021822002F08BF9002112
:103AD000832002F087F90021842002F083F900217D
:103AE000852002F07FF91021902002F07BF900215F
:103AF000922002F077F90121932002F073F94FF43C
:103B00008871952002F06EF90021972002F06AF981
:103B10000021982002F066F940F27311072002F0AC
:103B200061F96DE5FE48808849F2313188427DD1E6
:103B300041F21401E72002F055F94FF480710120A1
:103B400002F050F94FF40071022002F04BF941F2FB
:103B50003801032002F046F940F20221082002F069
:103B600041F90021092002F03DF900210A2002F06C
:103B700039F900210C2002F035F900210D2002F066
:103B800031F900210F2002F02DF90021102002F060
:103B900029F90721112002F025F90021122002F055
:103BA00021F90021132002F01DF9C82002F052FB78
:103BB00041F29061102002F015F940F22721112006
:103BC00002F010F9322002F045FB0C21122002F025
:103BD00009F9322002F03EFB4FF40061132002F09D
:103BE00001F91121292002F0FDF80B212B2002F010
:103BF000F9F8322002F02EFB0021202002F0F2F82A
:103C000040F23F11212002F0EDF80021302002F0B7
:103C1000E9F84FF48371312002F0E4F800213220FA
:103C200002F0E0F84FF40171352000E064E002F0AA
:103C3000D9F841F20A61362002F0D4F840F2077157
:103C4000372002F0CFF84FF48371382002F0CAF821
:103C500040F20771392002F0C5F840F202413C20E1
:103C600002F0C0F840F60F413D2002F0BBF8002101
:103C7000502002F0B7F8EF21512002F0B3F80021F4
:103C8000522002F0AFF840F23F11532002F0AAF8A0
:103C90004FF41C51602002F0A5F80121612002F0D0
:103CA000A1F800216A2002F09DF80021802002F096
:103CB00099F80021812002F095F80021822002F07D
:103CC00091F80021832002F08DF80021842002F079
:103CD00089F80021852002F085F81021902002F05B
:103CE00081F84FF4C061922002F07CF840F2331169
:103CF000072002F077F883E48948808845F208417C
:103D000088427DD14FF48071012002F06BF84FF4AE
:103D1000E061022002F066F841F23001032002F077
:103D200061F80021042002F05DF840F2072108202C
:103D300002F058F80021092002F054F800210A206E
:103D400002F050F800210C2002F04CF800210D2068
:103D500002F048F800210F2002F044F8142002F08D
:103D600079FA41F2B061102002F03CF801211120F3
:103D700002F038F80121172002F034F84FF49C715A
:103D8000122002F02FF84FF40061132002F02AF8FD
:103D90000921292002F026F809212A2002F022F820
:103DA0000021A42002F01EF80021502002F01AF891
:103DB000EF21512002F016F80021522002F012F8F3
:103DC00040F23F11532002F00DF84FF41C516020D7
:103DD00002F008F80121612002F004F800216A20B5
:103DE00002F000F80021802001F0FCFF002181207A
:103DF00001F0F8FF0021822001F0F4FF002100E033
:103E000024E0832001F0EEFF0021842001F0EAFF8E
:103E10000021852001F0E6FF1321902001F0E2FF50
:103E20000021922001F0DEFF0321932001F0DAFF50
:103E30004FF48871952001F0D5FF40F273110720EF
:103E400001F0D0FF322002F005FAB8E4344880884F
:103E500041F2055188427DD10021072001F0C2FFC7
:103E6000322002F0F7F94FF48E71122001F0BAFF00
:103E70000121A42001F0B6FF0F21082001F0B2FFBC
:103E800008210A2001F0AEFF08210D2001F0AAFF51
:103E900040F20771302001F0A5FF0721312001F029
:103EA000A1FF40F20361322001F09CFF4FF4E0617A
:103EB000332001F097FF40F20221342001F092FFFD
:103EC0000221352001F08EFF41F60F71362001F0FE
:103ED00089FF40F20771372001F084FF002138206C
:103EE00001F080FF0021392001F07CFF40F20771D2
:103EF0003A2001F077FF00213B2001F073FF0721FA
:103F00003C2001F06FFF00213D2001F06BFF3220CB
:103F100002F0A0F90121072001F064FF012101E076
:103F200060020020172001F05DFF322002F092F9BC
:103F30004FF4BD51102001F055FF40F21721112020
:103F400001F050FF4FF48F71122001F04BFF4FF43E
:103F5000706100E098E0132001F044FF00212A2066
:103F600001F040FF0A21292001F03CFF4FF49F712E
:103F7000122001F037FF0021502001F033FFEF2124
:103F8000512001F02FFF0021522001F02BFF40F2C1
:103F90003F11532001F026FF4FF41C51602001F027
:103FA00021FF0121612001F01DFF00216A2001F0A5
:103FB00019FF0021802001F015FF0021812001F070
:103FC00011FF0021822001F00DFF0021832001F06C
:103FD00009FF0021842001F005FF0021852001F068
:103FE00001FF1321902001F0FDFE4FF4407192205B
:103FF00001F0F8FE0521932001F0F4FE0021952048
:1040000001F0F0FE0021972001F0ECFE0021982045
:1040100001F0E8FE4FF48071012001F0E3FE4FF45F
:10402000E061022001F0DEFE41F23801032001F0E0
:10403000D9FE0021042001F0D5FE00210C2001F062
:10404000D1FE00210F2001F0CDFE0021202001F043
:10405000C9FE0021212001F0C5FE2121072001F029
:10406000C1FE142002F0F6F86121072001F0BAFE2B
:10407000142002F0EFF840F27311072001F0B2FEB5
:10408000142002F0E7F895E4FE4880884BF20551D1
:1040900088427CD10021084601F0A4FE0021084698
:1040A00001F0A0FE0021084601F09CFE0021084618
:1040B00001F098FE0121A42001F094FE142002F0EA
:1040C000C9F84FF41C51602001F08CFE40F202212F
:1040D000082001F087FE4FF40571302001F082FEC8
:1040E00043F21571312001F07DFE40F2046132206F
:1040F00001F078FE40F61661332001F073FE42F2C3
:104100001121342001F06EFE4FF4A851352001F04A
:1041100069FE48F20751362001F064FE41F2074182
:10412000372001F05FFE41F20341382001F05AFED2
:104130002021392001F056FE1A21902001F052FE74
:104140000021102001F04EFE0721112001F04AFE4F
:104150000021122001F046FE0021132001F042FE52
:10416000142002F077F84FF4E661102001F03AFED7
:1041700040F23711112001F035FE142002F06AF8E8
:104180004FF4DC71122001F02DFE142000E085E0D8
:1041900002F060F84FF47061132001F023FE8021DB
:1041A0002A2001F01FFE4821292001F01BFE1420C7
:1041B00002F050F84FF48071012001F013FE4FF42B
:1041C000E061022001F00EFE41F23801032001F00F
:1041D00009FE40F20221082001F004FE00210A201D
:1041E00001F000FE00210C2001F0FCFD00210D205B
:1041F00001F0F8FD30210E2001F0F4FD00215020E7
:1042000001F0F0FDEF21512001F0ECFD00215220E2
:1042100001F0E8FD40F23F11532001F0E3FD4FF4BF
:104220001C51602001F0DEFD0121612001F0DAFD6A
:1042300000216A2001F0D6FD1121902001F0D2FD6D
:104240004FF4C061922001F0CDFD40F20241932075
:1042500001F0C8FD0221942001F0C4FD142001F0FA
:10426000F9FF0121072001F0BDFD142001F0F2FF4C
:104270006121072001F0B6FD40F27311072001F023
:10428000B1FD0021202001F0ADFD0021212001F031
:10429000A9FD2221002001F0A5FD42E47948808893
:1042A0004CF2055188427CD10021084601F09AFD6C
:1042B0000021084601F096FD142001F0CBFF0021FB
:1042C000084601F08FFD0021084601F08BFD00211A
:1042D000084601F087FD0021084601F083FD012119
:1042E000A42001F07FFD142001F0B4FF4FF41C5115
:1042F000602001F077FD40F60601082001F072FD14
:1043000040F20371302001F06DFD0121312001F0F8
:1043100069FD0421322001F065FD4FF481713320E5
:1043200001F060FD4FF44071342001F05BFD40F27C
:104330000311352001F056FD1F21362001F052FDFA
:1043400040F20371372001F04DFD0121382001F0CA
:1043500049FD0421392001F045FD1521902001F08F
:1043600041FD4FF48261102001F03CFD40F24721F5
:10437000112001F037FD4FF4DE71122001F032FD03
:104380004FF46061132001F02DFD782001F062FFF1
:104390004FF48071012001F025FD4FF400710220DF
:1043A00000E052E001F01EFD41F23001032001F077
:1043B00019FD08210A2001F015FD00210C2001F053
:1043C00011FD20210E2001F00DFD00210F2001F034
:1043D00009FD0021202001F005FD0021212001F030
:1043E00001FD3D212A2001F0FDFC142001F032FFE7
:1043F0002D21292001F0F6FC0021502001F0F2FCD3
:104400004DF2EF01512001F0EDFC0021522001F0AE
:10441000E9FC40F23F11532001F0E4FC002161204F
:1044200001F0E0FC00216A2001F0DCFC4FF4407157
:10443000922001F0D7FC0521932001F0D3FC4FF42A
:104440008071072001F0CEFC55E40E48808848F6C4
:10445000891188427ED10121002001F0C3FC4AF677
:10446000A401032001F0BEFC00210C2001F0BAFCE5
:1044700040F60C010D2001F0B5FC4FF42C510E203C
:1044800002E000006002002001F0ACFCB0211E2020
:1044900001F0A8FC42F63F31012001F0A3FC4FF4EB
:1044A000C061022001F09EFC0021102001F09AFC66
:1044B00046F27801112001F095FC0021052001F061
:1044C00091FC0021062001F08DFC4EF61C71162097
:1044D00001F088FC0321172001F084FC40F2332115
:1044E000072001F07FFC00210B2001F07BFC002164
:1044F0000F2001F077FC0021412001F073FC002126
:10450000422001F06FFC0021482001F06BFC40F2DA
:104510003F11492001F066FC00214A2001F062FCB5
:1045200000214B2001F05EFC4FF46F41442001F06C
:1045300059FC0021452001F055FC40F23F11462076
:1045400001F050FC40F20771302001F04BFC4FF4B9
:10455000017100E040E0312001F044FC4FF40171B2
:10456000322001F03FFC40F20251332001F03AFCCE
:1045700040F20751342001F035FC4FF40171352031
:1045800001F030FC4FF40171362001F02BFC40F2B9
:104590000251372001F026FC40F202313A2001F0AE
:1045A00021FC40F202313B2001F01CFC00212320C1
:1045B00001F018FC0021242001F014FC4FF400410C
:1045C000252001F00FFC00214F2001F00BFC002101
:1045D0004E2001F007FCF0E3FE48808844F23151A0
:1045E00088427DD10121002001F0FCFB0A2001F06E
:1045F00031FE41F22861102001F0F4FB0E2112205F
:1046000001F0F0FB40F63921132001F0EBFB0A200A
:1046100001F020FE4021112001F0E4FB5021152083
:1046200001F0E0FB0A2001F015FE1E21122001F02E
:10463000D9FB0A2001F00EFE4FF4B151102001F019
:10464000D1FB42F63921132001F0CCFB0A2001F006
:1046500001FE4FF48071012001F0C4FB4FF4407162
:10466000022001F0BFFB41F23801032001F0BAFB48
:1046700040F20221082001F0B5FB08210A2001F0D8
:10468000B1FB0021302001F0ADFB40F202413120AE
:1046900001F0A8FB4FF48371322001F0A3FB40F23C
:1046A0000351332001F09EFB4FF48271342001F05E
:1046B00099FB40F20131352001F094FB40F2077183
:1046C000362001F08FFB40F20531372001F08AFBE4
:1046D0004FF40271382001F085FB40F60B7100E0C9
:1046E0003CE0392001F07EFB0221412001F07AFB01
:1046F0004FF41C51602001F075FB0121612001F095
:1047000071FB4FF40471902001F06CFB4FF4857144
:10471000922001F067FB0421932001F063FB4FF42A
:104720008071A02001F05EFB0121072001F05AFBFF
:104730002121072001F056FB2321072001F052FB25
:104740003321072001F04EFB40F23311072001F026
:1047500049FB0021A02001F045FB2EE39D48808805
:1047600044F2355188427CD13021152001F03AFBCA
:1047700010219A2001F036FB2021112001F032FB9C
:1047800043F22841102001F02DFB0221122001F0FC
:1047900029FB41F23801132001F024FB282001F00D
:1047A00059FD1221084601F01DFB282001F052FDA1
:1047B00043F22041102001F015FB43F23801132091
:1047C00001F010FB462001F045FD0021302001F0F2
:1047D00009FB40F20241312001F004FB40F20731B5
:1047E000322001F0FFFA4FF44171332001F0FAFA60
:1047F0000421342001F0F6FA40F20141352001F0A5
:10480000F1FA40F20771362001F0ECFA40F205317E
:10481000372001F0E7FA4FF4C261382001F0E2FAE4
:104820004FF4C261392001F0DDFA4FF480710120AC
:1048300001F0D8FA4FF44071022001F0D3FA41F2AE
:104840003001032001F0CEFA40F60801082001F003
:10485000C9FA08210A2001F0C5FA4FF41C51602062
:1048600000E033E001F0BEFA0121612001F0BAFA64
:104870004FF49F71902001F0B5FA4FF480719220AF
:1048800001F0B0FA4FF48071932001F0ABFA4FF4CD
:104890004051A02001F0A6FA1021A32001F0A2FAB5
:1048A0000121072001F09EFA2121072001F09AFA48
:1048B0002321072001F096FA3321072001F092FA14
:1048C00040F23311072001F08DFA76E241488088EA
:1048D00041F663118842F8D1E22001F069FA4FF401
:1048E00080703D490861400048611D203B490860D7
:1048F00080203949486108618000086140100861E2
:1049000040004861022035490860802032494861F2
:10491000086180000861401008614000486104207F
:104920002E49086080202C49486108618000086198
:10493000642001F0ADFCE02001F03AFA4FF4807001
:104940002549086140004861012024490860802011
:10495000214948610861800008610A2001F07AFC61
:10496000E02001F025FA4FF480701B4908614000F7
:10497000486103201949086080201749486108618F
:10498000800008610C2001F065FC012001F010FAA4
:104990000A2001F05FFCE62001F00AFA4FF4807073
:1049A0000D490861400048612F200C4908608020B3
:1049B00009494861086180000861401008614000B1
:1049C0004861FF200549086080200349486108616B
:1049D000800005E060020020001001400C0C014046
:1049E00008614010086140004861FF20F8490860F4
:1049F0008020F8494861086180000861B02001F01A
:104A0000D7F94FF48070F3490861400048612020D5
:104A1000EF4908608020EF49486108618000086123
:104A200040100861400048610020E949086080208A
:104A3000E849486108618000086140100861400051
:104A400048610320E24908608020E249486108612A
:104A500080000861401008614000486140F21F304A
:104A6000DB4908608020DB494861086180000861FB
:104A700040100861400048610120D549086080204D
:104A8000D449486108618000086140100861400015
:104A9000486140F2DF10CE4908608020CD4948616E
:104AA00008618000086140100861400048610020F2
:104AB000C74908608020C7494861086180000861D3
:104AC000B42001F075F94FF48070C24908614000CC
:104AD00048610420BE4908608020BE4948610861E1
:104AE00080000861401008614000486140F21F40AA
:104AF000B74908608020B7494861086180000861B3
:104B000040100861400048610020B14908608020E1
:104B1000B0494861086180000861401008614000A8
:104B200048612E20AA4908608020AA49486108618E
:104B30008000086140100861400048610020A449DD
:104B400008608020A3494861086180000861401026
:104B500008614000486100209D49086080209D490F
:104B600048610861800008614010086140004861A8
:104B700000209749086080209649486108618000BC
:104B800008614010086140004861002090490860B9
:104B9000802090494861086180000861B62001F0DA
:104BA00007F94FF480708B4908614000486102208A
:104BB0008749086080208749486108618000086152
:104BC00040100861400048614FF40370804908605C
:104BD00080208049486108618000086140100861B8
:104BE0004000486100207A49086080207949486186
:104BF000086180000861401008614000486117208A
:104C00007349086080207349486108618000086129
:104C1000401008614000486115206D4908608020FF
:104C20006C494861086180000861401008614000DB
:104C30004861002066490860802066494861086133
:104C40008000086140100861400048610020604910
:104C5000086080205F494861086180000861F02099
:104C600001F0A6F84FF480705A490861400048618D
:104C70000320574908608020564948610861800038
:104C80000861292001F094F8D02001F091F84FF448
:104C90008070504908614000486100204C4908601C
:104CA00080204C494861086180000861BE2001F005
:104CB0007FF84FF480704749086140004861052043
:104CC00043490860802043494861086180000861C9
:104CD0004010086140004861FE203D490860802086
:104CE0003C4948610861800008614010086140004B
:104CF00048610120364908608020364948610861D2
:104D0000800008614010086140004861002030497F
:104D1000086080202F4948610861800008614010C8
:104D20000861400048610020294908608020294925
:104D300048610861800008614010086140004861D6
:104D400000202349086080202249486108618000D2
:104D50000861B82001F02CF84FF480701D490861FB
:104D60004000486103201A490860802019494861C1
:104D7000086180000861401008614000486101201E
:104D80001349086080201349486108618000086168
:104D9000BA2001F00DF84FF480700E490861400010
:104DA000486101200A49086080200A494861086179
:104DB00080000861642000F061F90020FBF740FEEC
:104DC0000120054908604FF6FF70FBF7F5FD10BDA7
:104DD0000C0C014000100140A801224210B502460F
:104DE000012000E050430B1EA1F10104E1B2F9D112
:104DF00010BD000010B54FF0883017490860091D3C
:104E00000860002014490C310860881513490861B6
:104E100040004861402048611148808848F6891167
:104E2000884202D1022001F033FA0B4808300068B2
:104E300084B2402009490861C00008614FF0333056
:104E400005490860091D08604FF6FF7002490C31E2
:104E50000860204610BD0000000C01400010014019
:104E6000600200202DE9F04105460E467C4800888E
:104E7000A84203DD7A484088B04202DC0020BDE849
:104E8000F0813146284600F08FFB7548808849F252
:104E90004131884211D07248808846F60401884228
:104EA0000BD06F48808845F21031884205D06C489D
:104EB000808841F66311884203D12E2000F078FFEC
:104EC0000DE06748808845F21051884204D14FF4C4
:104ED000385000F06DFF02E0222000F069FF4FF033
:104EE000883060490860091D08604FF6FF705D4911
:104EF0000C31086088155C49086140004861402019
:104F00004861022001F026FA56480830006884B251
:104F10004020554908615248808841F66311884213
:104F200010D14FF40070504908614FF033304D49B3
:104F30000860091D08604FF6FF704A490C3108608F
:104F400020469CE7402048494861022001F002FACF
:104F500044480830006884B2402043490861404812
:104F6000808849F2413188420BD03D48808845F223
:104F70001031884205D03A48808845F21051884265
:104F800013D1402038494861022001F0E3F9354847
:104F9000083000681FFA80F8402033490861E7B202
:104FA0004FF6FF7000EA07270DE02D48808846F68F
:104FB0000401884207D140202B49486108612948F3
:104FC0000830006884B24FF40070274908614FF040
:104FD000333024490860091D08604FF6FF702149ED
:104FE0000C3108601E48808849F22531884216D06D
:104FF0001B48808844F23551884210D01848808878
:10500000091F88420BD01648808848F689118842CB
:1050100005D0134880884BF20551884201D12046C3
:105020002DE70F48808849F2413188420BD00C4867
:10503000808845F21031884205D00948808845F2C1
:105040001051884207D1E012C002B91240EA411063
:1050500040EAE82013E72046FBF7A0FC0FE700003A
:1050600060020020000C01400010014010B5044611
:10507000204600F09DFEFFF7BDFE10BD2DE9F0417A
:105080000446BE2000F094FE4FF480702D49086164
:105090004000486105202C4908608020294948616A
:1050A00008618000086140100861400048612046A6
:1050B00002F0CDFA05464FF06632244B02F0DAFAE0
:1050C000074602F097FA2049086080201D49486190
:1050D00008618000086140100861400048610120BB
:1050E00019490860802017494861086180000861FB
:1050F0004010086140004861FF201349086080208B
:105100001049486108618000086140100861400052
:10511000486100200C49086080200A494861086104
:105120008000086140100861400048610020064985
:105130000860802003494861086180000861BDE87B
:10514000F0810000001001400C0C01406666044034
:10515000F0B5054600240027FC48807901280BD1D2
:10516000FA48808846F60401884205D0F7488088CE
:1051700041F66311884208D1F4488079F0B9F348C8
:10518000808841F66311884218D1082D15D2DFE8D6
:1051900005F00406080A0C0E101206250DE007257E
:1051A0000BE0042509E0052507E0012505E00025C1
:1051B00003E0032501E0022500BF00BFE34880882B
:1051C00049F24131884217D0E048808846F6040110
:1051D000884211D0DD48808845F2103188420BD0DA
:1051E000DA48808845F21051884205D0D748808837
:1051F00041F6631188427DD1082D1CD2DFE805F00D
:105200000406090C0F12151800BF14E044F08004C6
:1052100011E044F040040EE044F0C0040BE044F020
:10522000200408E044F0600405E044F0A00402E03B
:1052300044F0E00400BF00BFC448808845F210512C
:10524000884202D14FF4585700E03627BF48808883
:1052500045F2103188420DD0BC48808845F210518B
:10526000884207D0B948808841F66311884201D04E
:1052700044F00804B548808846F60401884201D10C
:1052800044F002042146384600F0ACFDAF48808867
:1052900041F6631188421DD004F0200068B1AB488C
:1052A0000088AA494988884214DAA84806884088B4
:1052B000A6490880084646800CE0A4480088A34917
:1052C0004988884206DDA148068840889F490880B1
:1052D000084646809D48808845F2105188427DD11D
:1052E0009A49488900F064FD4FF48070984908613C
:1052F000400000E030E148610020964908608020CD
:105300009349486108618000086190494989491CB6
:1053100088B200F04DFD4FF480708D490861400067
:10532000486100208B4908608020894948610861F4
:105330008000086185494989891C88B200F038FDE0
:105340004FF4807082490861400048617F480088BE
:10535000401E00127F49086080207D494861086135
:105360008000086179494989C91C88B200F020FD94
:105370004FF48070764908614000486173480078B6
:10538000401EC0B2734908608020714948610861BD
:10539000800008616D49888900F00AFD4FF4807033
:1053A0006B4908614000486100206A49086080201C
:1053B0006749486108618000086164498989491C1E
:1053C00088B200F0F5FC4FF480706149086140003C
:1053D000486100205F490860802000E035E05C49BA
:1053E000486108618000086158498989891C88B230
:1053F00000F0DEFC4FF480705549086140004861C0
:1054000052484088401E001252490860802050498E
:1054100048610861800008614C498989C91C88B2CB
:1054200000F0C6FC4FF480704949086140004861B3
:1054300046488078401EC0B24649086080204449F2
:105440004861086180000861ADE04049488900F08A
:10545000AFFC4FF480703E49086140004861002075
:105460003C49086080203A49486108618000086131
:1054700040100861400048610020364908608020E3
:1054800033494861086180000861401008614000AC
:1054900048612E480088401E00122E490860802076
:1054A0002B49486108618000086140100861400094
:1054B000486126480078401EC0B226490860802016
:1054C000234948610861800008612049888900F00B
:1054D0006FFC4FF480701E49086140004861002055
:1054E0001C49086080201A494861086180000861F1
:1054F0004010086140004861002016490860802083
:10550000134948610861800008614010086140004B
:1055100048610E484088401E00120E4908608020F5
:105520000B49486108618000086140100861400033
:10553000486106488078401EC0B206490860802055
:10554000034948610861800008612CE06002002086
:10555000001001400C0C0140082D1CD2DFE805F0C2
:1055600004070A0D0F12151844F0300413E044F03C
:10557000100410E044F020040DE000BF0BE044F004
:10558000380408E044F0280405E044F0180402E080
:1055900044F0080400BF00BF032744F480542146B0
:1055A000384600F01FFCF0BD30B504460D46EA4811
:1055B000808849F24131884205D0E748808845F229
:1055C0001031884240D1E449488900F0F1FB4FF4A2
:1055D0008070E2490861400048612012E04908609B
:1055E0008020DE4948610861800008614010086140
:1055F00040004861E0B2DA4908608020D74948613C
:10560000086180000861D449888900F0D1FB4FF41B
:105610008070D2490861400048612812D049086072
:105620008020CE494861086180000861401008610F
:1056300040004861E8B2CA4908608020C749486113
:1056400008618000086186E1C348808846F604014D
:10565000884249D1C0488079012804D1BE480088D9
:10566000401E001B84B2BC49488900F0A1FB4FF4E6
:105670008070BA490861400048612012B84908604A
:105680008020B649486108618000086140100861C7
:1056900040004861E0B2B24908608020AF494861EB
:1056A000086180000861AC49888900F081FB4FF4F3
:1056B0008070AA490861400048612812A849086022
:1056C0008020A64948610861800008614010086197
:1056D00040004861E8B2A249086080209F494861C3
:1056E00008618000086136E19B48808841F66311BB
:1056F00088427DD19848807900283FD1964800881B
:10570000401E001B84B29449488900F051FB4FF4BD
:10571000807092490861400048610020904908600B
:1057200080208E494861086180000861401008614E
:105730004000486100208A4908608020874948610C
:105740000861800008614010086140004861201233
:1057500083490860802081494861086180000861B0
:105760004010086140004861E0B27D490860802037
:105770007A49486108618000086141E076494889BA
:1057800000F016FB4FF480707449086140004861D6
:1057900020127349086080207049486108618000C8
:1057A00008614010086140004861E0B26C4908603F
:1057B00080206A49486108618000086140100861E2
:1057C0004000486164480088401E00126449086037
:1057D00080206249486108618000086140100861CA
:1057E000400048615C480078401EC0B25C4900E05F
:1057F00047E00860802059494861086180000861DD
:105800005549888900F0D4FA4FF4807053490861F3
:105810004000486128125249086080204F49486181
:105820000861800008614010086140004861E8B2EA
:105830004B4908608020494948610861800008613F
:10584000401008614000486143484088401E0012F3
:10585000434908608020414948610861800008612F
:1058600040100861400048613B488078401EC0B24B
:105870003B4908608020394948610861800008611F
:1058800069E03548808845F21051884250D132494C
:10589000488900F08DFA4FF480703049086140006B
:1058A000486120122E49086080202C494861086117
:1058B0008000086128494989491C88B200F078FABB
:1058C0004FF480702549086140004861E0B22449E6
:1058D00008608020214948610861800008611E49F4
:1058E000888900F065FA4FF480701C490861400017
:1058F000486128121A4908608020184948610861E7
:105900008000086114498989491C88B200F050FA66
:105910004FF480701149086140004861E8B21049B5
:10592000086080200D49486108618000086112E02C
:1059300009488079012804D107480088401E001BCF
:1059400084B205494889214600F04CFA0249888909
:10595000294600F047FA30BD6002002000100140E7
:105960000C0C01402DE9F84F80460E4617461C46A8
:10597000B3462046E31704EB5373DB1021464FEA8E
:10598000E47C04EB5C7C4FEAEC0CA4EBCC0CBCF1AB
:10599000000F02D04FF0010C01E04FF0000C634407
:1059A000224604EBD27C4FEA6C0C03FB0CF3DBB217
:1059B0000093A7F12000C7B2002556E00C2C07D1B8
:1059C00007EB47002B4901EB800010F8059013E02E
:1059D000102C05D1284800EB071010F805900BE0BB
:1059E000182C07D107EBC700244901EB800010F801
:1059F000059001E0BDE8F88F4FF0000A2FE009F0B4
:105A0000800030B11E48028831464046FBF7DAF983
:105A100007E00A9828B91B48028831464046FBF740
:105A2000D1F94FEA49604FEA1069701C86B21648F6
:105A30004088B04200DCDDE7A6EB0B00A0420AD1B3
:105A40005E4608F101001FFA80F80F4800884045C3
:105A500000DCCFE706E00AF1010000F0FF0ABAF12E
:105A6000080FCCDB00BF681CC5B200988542A5DBDF
:105A700000BFBFE7B67D00082A8200081A88000828
:105A80000A0000200C000020600200202DE9FF4FDA
:105A900081B0074691461E460E9D4FF0000A002435
:105AA00039E0301B401EC1B20A20FFF797F9B9FB5D
:105AB000F0F00A21B0FBF1F201FB1208BAF1000F7D
:105AC00016D1701EA04213DDB8F1000F0ED10020D8
:105AD000AB4605EBDB71491001FB0471009088B205
