:020000040800F2
:1000000048070020D5010008D9010008DB010008DD
:10001000DD010008DF010008E10100080000000028
:10002000000000000000000000000000E3010008E4
:10003000E501000800000000E7010008E9010008F0
:1000400055580008EB010008EB010008EB0100081F
:10005000EB010008EB01000865040008EB01000853
:10006000EB010008EB010008EB010008EB010008C0
:10007000EB010008EB010008EB010008EB010008B0
:10008000EB010008EB010008EB010008EB010008A0
:10009000EB010008EB010008EB010008E90400088F
:1000A000EB010008EB010008EB010008EB01000880
:1000B000EB01000851570008EB010008EB010008B4
:1000C000EB010008EB010008EB010008EB01000860
:1000D000EB010008D1570008EB010008EB01000814
:1000E000B5040008EB010008EB010008EB01000873
:1000F000EB010008EB010008EB010008EB01000830
:10010000EB010008EB010008EB010008EB0100081F
:10011000EB010008EB010008EB010008EB0100080F
:10012000EB010008EB010008EB010008EB010008FF
:1001300000F002F800F03FF80AA090E8000C8244BA
:100140008344AAF10107DA4501D100F034F8AFF297
:10015000090EBAE80F0013F0010F18BFFB1A43F0A5
:1001600001031847AC790000CC790000103A24BF95
:1001700078C878C1FAD8520724BF30C830C144BF0C
:1001800004680C607047000000230024002500264E
:10019000103A28BF78C1FBD8520728BF30C148BFEA
:1001A0000B607047782900F07380002070471FB5FE
:1001B0001FBD10B510BD00F023F91146FFF7F7FF82
:1001C00005F0D6FB00F041F903B4FFF7F2FF03BCE2
:1001D00005F060FB08480047FEE7FEE7FEE7FEE7A4
:1001E000FEE7FEE7FEE7FEE7FEE7FEE70348044919
:1001F000044A054B70470000310100084801002007
:1002000048070020480300204803002070470000F2
:100210000FB4044910B503AA029800F0C3F810BC4B
:100220005DF814FB040000202DE9F0410E46044661
:10023000002020622046E168884730B3252805D099
:10024000D4E901219047206A401CF2E7E16820468A
:1002500000278847050018D0A5F14100192802D8C9
:1002600020354FF400673246294620462760FFF7C5
:1002700099FF40B1012804D0F61D26F00706083684
:10028000D8E7361DD6E72846DAE7206ABDE8F081D0
:1002900070B504460D4621461068AFF300802188F2
:1002A000090502D50F4A7A4402E00E4A7A440E321A
:1002B000002104F1240305E000F00F060009965D1B
:1002C0005E54491C0028F7D120780023000704D58C
:1002D000702D02D009B1022311322046BDE87040D2
:1002E00000F006B83C7800007047704770477047D0
:1002F0002DE9F0470D4699469246044600F1240840
:100300000168880604D5E06921F01001216000E051
:100310000120A84201DD471B00E00027A1697A19EE
:1003200002EB0900081AA0612078C00602D420461A
:10033000AFF30080002608E0D4E901211AF8060096
:100340009047206A401C761C20624E45F4DB2078E2
:10035000C0060AD52046AFF3008006E0D4E90121AB
:1003600030209047206A401C2062381EA7F1010708
:10037000F4DC07E0D4E9012118F805009047206A71
:10038000401C2062281EA5F10105F3DC2046AFF3D6
:1003900000802078000602D50220BDE8F087012009
:1003A000FBE70000074B70B50D467B4400F011F8E9
:1003B0000446284600F020F810B14FF0FF3070BD21
:1003C000204670BDA755000001694A1C02610878EB
:1003D000704700B58FB0CDE9013100210591054985
:1003E0007944CDE9031011466846FFF71DFF0FB0B1
:1003F00000BD0000E5FFFFFF007B00F080007047BC
:10040000754600F02BF8AE4605006946534620F0CD
:100410000700854618B020B5FFF7E8FEBDE820408C
:100420004FF000064FF000074FF000084FF0000BB0
:1004300021F00701AC46ACE8C009ACE8C009ACE863
:10044000C009ACE8C0098D46704710B50446AFF34B
:1004500000802046BDE81040FFF7B6BE0048704758
:10046000E800002010B50A2005F038FA0D480068B1
:10047000012812D10B48A030006808B9012000E023
:1004800000200849A03108600748D0F8880108B961
:10049000012000E0002005490860012004490860AF
:1004A00010BD0000000121420080224288812242CA
:1004B0001404014010B50A2005F010FA074800683E
:1004C00038B90748006808B9012000E00020044955
:1004D00008604FF400400349086010BD3C01214210
:1004E000888122421404014010B50A2005F0F6F973
:1004F0000848006848B90848006808B9012000E0C9
:1005000000200549086000F07FF8202003490860BA
:1005100010BD000014012242A00121421404014038
:1005200010B501220521022000F01EF801220F2142
:10053000002000F019F802220021084600F014F80B
:10054000022317220121184605F060F80223282211
:100550000021184605F05AF8022306220021184609
:1005600005F054F810BD000070B504460B46CE17D8
:1005700001EB9676C6F38700CE1701EB9676B610A0
:10058000A1EB8606B606350E1C4B9B6943F00103B2
:100590001A4EB3614FEAB63353F820300F26AE40FF
:1005A000B343174E46F82030334653F8203004FA50
:1005B00005F61E43124B43F82060124B1B680126C0
:1005C0008E4033430F4E336002F0010343B10D4BB5
:1005D0000C331B6801268E4033430A4E0C363360C1
:1005E00002F0020343B1074B08331E6801238B401E
:1005F0001E43044B08331E6070BD00000010024013
:1006000008000140000401404AF6AA2001490860A0
:10061000704700000030004001464906084A9269D0
:1006200042F00102064B9A61064A526822F0E062EB
:10063000044B5A601A4652680A435A6070470000D9
:10064000001002400000014010B52248806940F0CF
:100650000400204988610846806940F010008861E4
:100660000120FFF7D9FF1C48006820F00F001A494D
:1006700008600846006840F00800086016480C3022
:10068000006815490C3108601348001D006820F00F
:1006900070401149091D08600846006840F000409C
:1006A00008600D480C30006840F400400A490C31E5
:1006B00008600A48006820F470000849086008468D
:1006C000006840F4000008600846C06840F0200060
:1006D000C86010BD00100240000801400010014039
:1006E00070B5044600261D480588408845431B48D0
:1006F000808846F60401884216D11848807901287E
:1007000012D10020154988712A2048812B20888128
:100710000021084604F080FB0120104988712B203D
:1007200048812A20888103E00021084604F074FBF8
:1007300004F0E0FE00260DE04FF4807008490861E7
:1007400040004861074804608020486108618000DB
:100750000861761CAE42EFD370BD0000D8000020C7
:10076000001001400C0C014010B50446002C66D16D
:100770006C498871F02008804FF4A07048800846CA
:10078000808849F2413188420BD06648808846F61D
:100790000401884205D06348808845F210318842C0
:1007A0001AD12C205F4908812A2048812B2088817A
:1007B0000846808846F60401884205D0594880885A
:1007C00045F21031884206D14FF4A0705549088097
:1007D0004FF4F0704880A1E05248808845F21051F3
:1007E000884210D14FF430504E4908814FF42850C0
:1007F00048814FF42C5088814FF4F07008804FF4FA
:10080000487048808AE04748808841F663118842F2
:100810000DD12C20434908812B2048812A20888132
:100820004FF4F07008804FF44870488076E0222042
:100830003C49088120204881212088816EE00120E8
:10084000384988714FF4A0700880F020488008462D
:10085000808849F24131884205D03248808845F28B
:100860001031884207D12C202E4908812A20488146
:100870002B2088813FE02B48808846F6040188427F
:1008800007D12C20274908812B2048812A208881E4
:1008900031E02448808845F21051884210D14FF44D
:1008A0003050204908814FF4285048814FF42C5093
:1008B00088814FF4487008804FF4F07048801AE047
:1008C0001848808841F6631188420DD12C201549C3
:1008D00008812A2048812B2088814FF448700880A5
:1008E0004FF4F070488006E022200E490881212054
:1008F0004881202088810B48808846F60401884280
:1009000005D00848808845F21031884206D14FF45E
:10091000F070044908804FF4A0704880002004F073
:100920004FF810BDD800002070B504460D4616469D
:10093000D348808849F24131884205D0D048808828
:1009400045F21031884240D1CD49488904F0C0FDBC
:100950004FF48070CB490861400048612012CA49B9
:1009600008608020C7494861086180000861401024
:10097000086140004861E0B2C34908608020C14975
:100980004861086180000861BD49888904F0A0FDC4
:100990004FF48070BB490861400048612812BA4991
:1009A00008608020B74948610861800008614010F4
:1009B000086140004861E8B2B34908608020B1494D
:1009C00048610861800008613DE1AD48808845F2DA
:1009D0001051884250D1AA49488904F079FD4FF45A
:1009E0008070A8490861400048612012A64908604B
:1009F0008020A4494861086180000861A0494989B4
:100A0000491C88B204F064FD4FF480709D49086170
:100A100040004861E0B29C490860802099494861E3
:100A20000861800008619649888904F051FD4FF4FF
:100A3000807094490861400048612812924908601A
:100A40008020904948610861800008618C4989894B
:100A5000491C88B204F03CFD4FF48070894908615C
:100A600040004861E8B288490860802085494861B3
:100A7000086180000861E6E08148808841F66311E2
:100A800088427DD17E48807920B97D480088401E0B
:100A9000001B84B27A49488904F01AFD4FF4807033
:100AA0007849086140004861201277490860802039
:100AB0007449486108618000086140100861400085
:100AC0004861E0B27049086080206E494861086161
:100AD00080000861401008614000486120126A49A6
:100AE0000860802067494861086180000861401003
:100AF000086140004861E0B26349086080206149B4
:100B000048610861800008615D49888904F0E0FC63
:100B10004FF480705B4908614000486128125A49CF
:100B200008608020574948610861800008614010D2
:100B3000086140004861E8B253490860802051498B
:100B40004861086180000861401008614000486108
:100B500028124D49086080204A4948610861800098
:100B600008614010086140004861E8B246490860E9
:100B700080204449486108618000086163E0FFE724
:100B80003F48808846F60401884249D13C48807934
:100B9000012804D13A480088401E001B84B238491D
:100BA000488904F095FC4FF4807036490861400094
:100BB0004861201234490860802032494861086148
:100BC000800008614010086140004861E0B22E4991
:100BD000086080202B49486108618000086128492D
:100BE000888904F075FC4FF4807026490861400044
:100BF0004861281224490860802022494861086120
:100C0000800008614010086140004861E8B21E4958
:100C1000086080201B49486108618000086112E07B
:100C200017488079012804D115480088401E001B10
:100C300084B213494889214604F064FC104988892C
:100C4000294604F05FFC4FF480700E494861400073
:100C500048610B4800890C490860802009494861B7
:100C60000861800008614010086140004861064842
:100C700006608020486108618000086170BD000046
:100C8000D8000020001001400C0C014010B5FE48B7
:100C9000806940F00800FC4988610846806940F09E
:100CA000100088610846806940F0010088610120D9
:100CB000FFF7B2FCF54840686FF30B00F34948605A
:100CC0000846406840F233310843F049486008461E
:100CD000006820F07F4008600846006840F04C50F3
:100CE00008600846C06840F4F860C8604FF03330D0
:100CF000E7490860091F08604FF6FF70E4490831B2
:100D00000860322004F0EAFD0121002004F0FAFB23
:100D1000322004F0E3FD002003F0E0FDDD4988808F
:100D200008468088FF280ADB084680884FF6FF7156
:100D3000884204D0D7488088B0F5134F7ED1D320A5
:100D400004F0C6FB03F092FD03F090FD03F08EFD6E
:100D5000D0498880084680884FF6FF7101EA00205C
:100D6000CC49888003F082FDCA4989880843C94973
:100D700088800846808849F2413188425ED0BF2091
:100D800004F0A6FB03F072FD03F070FD03F06EFDAE
:100D900003F06CFDBF498880084680884FF6FF71DC
:100DA00001EA0020BB49888003F060FDB9498988C9
:100DB0000843B84988800846808846F6040188427E
:100DC00074D0D42004F084FB03F050FD03F04EFDFA
:100DD00003F04CFDAF498880084680884FF6FF71CC
:100DE00001EA0020AB49888003F040FDA9498988C9
:100DF0000843A84988800846808845F21031884217
:100E000054D04FF45A4004F063FB03F02FFD4FF42D
:100E10005B4004F05DFB03F029FD9E498880084695
:100E200080884FF6FF7101EA00209A4988804FF4CC
:100E30005C4004F04DFB03F019FD00E036E09549FD
:100E4000898808439349888008468088B0F5004F18
:100E500002D145F2105088808E48808845F21051AA
:100E6000884223D0A12004F033FB03F0FFFC894922
:100E7000888003F0FBFC87498880084680884FF60D
:100E8000FF7101EA00208349888003F0EFFC81496B
:100E9000898808437F4988800846808845F26171C7
:100EA000884203D141F663107A4988807948818865
:100EB00079A0FFF7ADF97748808849F2413188423F
:100EC0007ED1CF2004F004FB002004F0EFFAC12013
:100ED00004F0ECFA302004F0E9FAED2004F0F8FA1E
:100EE000642004F0E3FA032004F0E0FA122004F096
:100EF000DDFA812004F0DAFAE82004F0E9FA85202E
:100F000004F0D4FA102004F0D1FA7A2004F0CEFADA
:100F1000CB2004F0DDFA392004F0C8FA2C2004F0CC
:100F2000C5FA002004F0C2FA342004F0BFFA02200F
:100F300004F0BCFAF72004F0CBFA202004F0B6FA53
:100F4000EA2004F0C5FA002004F0B0FA002004F012
:100F5000ADFAC02004F0BCFA1B2004F0A7FAC120AF
:100F600004F0B6FA012004F0A1FAC52004F0B0FAAA
:100F7000302004F09BFA302004F098FAC72004F0E7
:100F8000A7FAB72004F092FA362004F0A1FA48201C
:100F900004F08CFA3A2004F09BFA552004F086FA0B
:100FA000B12004F095FA002004F080FA1A2004F031
:100FB0007DFAB62004F08CFA0A2004F077FA00E0FB
:100FC000A9E0A22004F072FAF22004F081FA0020D5
:100FD00004F06CFA262004F07BFA012004F066FA93
:100FE000E02004F075FA0F2004F060FA2A2004F0E3
:100FF0005DFA282004F05AFA082004F057FA0E206F
:1010000004F054FA082004F051FA542004F04EFA87
:10101000A92004F04BFA432004F048FA0A2004F017
:1010200045FA0F2004F042FA002004F03FFA0020B5
:1010300004F03CFA002004F039FA002004F036FAFB
:10104000E12004F045FA002004F030FA152004F005
:101050002DFA172004F02AFA072004F027FA1120AD
:1010600004F024FA062004F021FA2B2004F01EFAE2
:10107000562004F01BFA3C2004F018FA052004F076
:1010800015FA102010E0000000100240001001408E
:10109000040C0140D8000020204C43442049443A2D
:1010A00025780D0A0000000004F000FA0F2004F07B
:1010B000FDF93F2004F0FAF93F2004F0F7F90F2082
:1010C00004F0F4F92B2004F003FA002004F0EEF908
:1010D000002004F0EBF9012004F0E8F93F2004F0CF
:1010E000E5F92A2004F0F4F9002004F0DFF90020EB
:1010F00004F0DCF9002004F0D9F9EF2004F0D6F96F
:10110000112004F0E5F9782004F0E8FB292004F030
:10111000DFF903F09ABBFE48808846F60401884256
:101120007ED1112004F0D4F9142004F0D7FBD02094
:1011300004F0CEF9072004F0B9F9422004F0B6F922
:101140001D2004F0B3F9D12004F0C2F9002004F00E
:10115000ADF91A2004F0AAF9092004F0A7F9D22069
:1011600004F0B6F9012004F0A1F9222004F09EF960
:10117000C02004F0ADF9102004F098F93B2004F0F1
:1011800095F9002004F092F9022004F08FF9112063
:1011900004F08CF9C52004F09BF9032004F086F9D3
:1011A000C82004F095F9002004F080F9252004F00F
:1011B0007DF9212004F07AF9052004F077F9002068
:1011C00004F074F90A2004F071F9652004F06EF956
:1011D000252004F06BF9772004F068F9502004F022
:1011E00065F90F2004F062F9002004F05FF9F8209F
:1011F00004F06EF9012004F059F9FE2004F068F9BA
:10120000002004F053F9022004F050F9202004F0EB
:101210005FF9362004F05CF9082004F047F900E09B
:101220002AE03A2004F054F9552004F03FF92B202D
:1012300004F04EF9002004F039F9002004F036F9EA
:10124000012004F033F93F2004F030F92A2004F0A3
:101250003FF9002004F02AF9002004F027F90120CA
:1012600004F024F9DF2004F021F9782004F036FBA3
:10127000292004F02DF94CE7A548808845F210316B
:10128000884240F07C87ED2004F022F9012004F030
:101290000DF9FE2004F00AF9EE2004F019F9DE2021
:1012A00004F004F9212004F001F9F12004F010F910
:1012B000012004F0FBF8DF2004F00AF9102004F00C
:1012C000F5F8C42004F004F98F2004F0EFF8C620EC
:1012D00004F0FEF8002004F0E9F8E22004F0E6F85B
:1012E000E22004F0E3F8E22004F0E0F8BF2004F08C
:1012F000EFF8AA2004F0DAF8B02004F0E9F80D20A5
:1013000004F0D4F8002004F0D1F80D2004F0CEF859
:10131000002004F0CBF8112004F0C8F8002004F0FD
:10132000C5F8192004F0C2F8002004F0BFF821200D
:1013300004F0BCF8002004F0B9F82D2004F0B6F851
:10134000002004F0B3F83D2004F0B0F8002004F0D1
:10135000ADF85D2004F0AAF8002004F0A7F85D20A5
:1013600004F0A4F8002004F0A1F8B12004F0B0F8D3
:10137000802004F09BF8002004F098F88B2004F003
:1013800095F8002004F092F8962004F08FF80020E1
:1013900004F08CF8B22004F09BF8002004F086F8EA
:1013A000002004F083F8022004F080F8002004F00C
:1013B0007DF8032004F07AF8002004F077F8B320D9
:1013C00004F086F8002004F071F8002004F06EF8B4
:1013D000002004F06BF8002004F068F8002004F00E
:1013E00065F8002004F062F8002004F05FF80020A7
:1013F00004F05CF8002004F059F8002004F056F8DE
:10140000002004F053F8002004F050F8002004F00D
:101410004DF8002004F04AF8002004F047F80020BE
:1014200004F044F8002004F041F8002004F03EF8F5
:10143000002004F03BF8002004F038F8002004F00D
:1014400035F8002004F032F8002004F02FF80020D6
:1014500004F02CF8B42004F03BF88B2004F026F8BC
:10146000002004F023F8962004F020F8002004F077
:101470001DF8A12004F01AF8002004F017F8B52098
:1014800004F026F8022004F011F8002004F00EF811
:10149000032004F00BF8002004F008F8042004F006
:1014A00005F8002004F002F8B62004F011F800203E
:1014B00003F0FCFF002003F0F9FFB72004F008F868
:1014C000002003F0F3FF002003F0F0FF3F2003F0C3
:1014D000EDFF002003F0EAFF5E2003F0E7FF0020AD
:1014E00003F0E4FF642003F0E1FF002003F0DEFFDF
:1014F0008C2003F0DBFF002003F0D8FFAC2003F0CA
:10150000D5FF002003F0D2FFDC2003F0CFFF01E085
:10151000D8000020002003F0C9FF702003F0C6FFB0
:10152000002003F0C3FF902003F0C0FF002003F071
:10153000BDFFEB2003F0BAFF002003F0B7FFDC2073
:1015400003F0B4FF002003F0B1FFB82003F0C0FFA8
:10155000002003F0ABFF002003F0A8FF002003F001
:10156000A5FF002003F0A2FF002003F09FFF002052
:1015700003F09CFF002003F099FF002003F096FF8A
:10158000BA2003F0A5FF242003F090FF002003F011
:101590008DFF002003F08AFF002003F087FFC120A9
:1015A00003F096FF202003F081FF002003F07EFF70
:1015B000542003F07BFF002003F078FFFF2003F0AE
:1015C00075FF002003F072FFC22003F081FF0A20A4
:1015D00003F06CFF002003F069FF042003F066FFB6
:1015E000002003F063FFC32003F072FF3C2003F0F0
:1015F0005DFF002003F05AFF3A2003F057FF002060
:1016000003F054FF392003F051FF002003F04EFF98
:10161000372003F04BFF002003F048FF3C2003F08D
:1016200045FF002003F042FF362003F03FFF00207B
:1016300003F03CFF322003F039FF002003F036FFB7
:101640002F2003F033FF002003F030FF2C2003F0A5
:101650002DFF002003F02AFF292003F027FF0020A0
:1016600003F024FF262003F021FF002003F01EFFDB
:10167000242003F01BFF002003F018FF242003F0B8
:1016800015FF002003F012FF232003F00FFF0020BE
:1016900003F00CFF3C2003F009FF002003F006FFDD
:1016A000362003F003FF002003F000FF322003F098
:1016B000FDFE002003F0FAFE2F2003F0F7FE0020CD
:1016C00003F0F4FE2C2003F0F1FE002003F0EEFE08
:1016D000292003F0EBFE002003F0E8FE262003F0B3
:1016E000E5FE002003F0E2FE242003F0DFFE0020F0
:1016F00003F0DCFE242003F0D9FE002003F0D6FE28
:10170000232003F0D3FE002003F0D0FEC42003F01A
:10171000DFFE622003F0CAFE002003F0C7FE0520B2
:1017200003F0C4FE002003F0C1FE842003F0BEFEDF
:10173000002003F0BBFEF02003F0B8FE002003F011
:10174000B5FE182003F0B2FE002003F0AFFEA42087
:1017500003F0ACFE002003F0A9FE182003F0A6FE63
:10176000002003F0A3FE502003F0A0FE002003F0B1
:101770009DFE0C2003F09AFE002003F097FE172038
:1017800003F094FE002003F091FE952003F08EFEFE
:10179000002003F08BFEF32003F088FE002003F00E
:1017A00085FEE62003F082FE002003F07FFEC520C8
:1017B00003F08EFE322003F079FE002003F076FE67
:1017C000442003F073FE002003F070FE652003F058
:1017D0006DFE002003F06AFE762003F067FE002015
:1017E00003F064FE882003F061FE002003F05EFE3B
:1017F000C62003F06DFE202003F058FE002003F009
:1018000055FE172003F052FE002003F04FFE01208A
:1018100003F04CFE002003F049FEC72003F058FE01
:10182000002003F043FE002003F040FE002003F000
:101830003DFE002003F03AFEC82003F049FE0020E0
:1018400003F034FE002003F031FE002003F02EFEF2
:10185000002003F02BFEC92003F03AFE002003F025
:1018600025FE002003F022FE002003F01FFE0020D2
:1018700003F01CFE002003F019FE002003F016FE0A
:10188000002003F013FE002003F010FE002003F000
:101890000DFE002003F00AFE002003F007FE0020EA
:1018A00003F004FE002003F001FE002003F0FEFD23
:1018B000002003F0FBFD002003F0F8FDE02003F022
:1018C00007FE162003F0F2FD002003F0EFFD1C20C0
:1018D00003F0ECFD002003F0E9FD212003F0E6FD1C
:1018E000002003F0E3FD362003F0E0FD002003F0CC
:1018F000DDFD462003F0DAFD002003F0D7FD522085
:1019000003F0D4FD002003F0D1FD642003F0CEFDF0
:10191000002003F0CBFD7A2003F0C8FD002003F087
:10192000C5FD8B2003F0C2FD002003F0BFFD992010
:1019300003F0BCFD002003F0B9FDA82003F0B6FDC4
:10194000002003F0B3FDB92003F0B0FD002003F048
:10195000ADFDC42003F0AAFD002003F0A7FDCA20BE
:1019600003F0A4FD002003F0A1FDD22003F09EFDB2
:10197000002003F09BFDD92003F098FD002003F028
:1019800095FDE02003F092FD002003F08FFDF32091
:1019900003F08CFD002003F089FDE12003F098FDA9
:1019A000162003F083FD002003F080FD1C2003F0CF
:1019B0007DFD002003F07AFD222003F077FD00205A
:1019C00003F074FD362003F071FD002003F06EFD7E
:1019D000452003F06BFD002003F068FD522003F06A
:1019E00065FD002003F062FD642003F05FFD002030
:1019F00003F05CFD7A2003F059FD002003F056FD52
:101A00008B2003F053FD002003F050FD992003F0DC
:101A10004DFD002003F04AFDA82003F047FD002003
:101A200003F044FDB92003F041FD002003F03EFD2A
:101A3000C42003F03BFD002003F038FDCA2003F072
:101A400035FD002003F032FDD22003F02FFD0020F1
:101A500003F02CFDD82003F029FD002003F026FD23
:101A6000E02003F023FD002003F020FDF32003F02D
:101A70001DFD002003F01AFDE22003F029FD0520E2
:101A800003F014FD002003F011FD0B2003F00EFD08
:101A9000002003F00BFD1B2003F008FD002003F0E5
:101AA00005FD342003F002FD002003F0FFFC44207C
:101AB00003F0FCFC002003F0F9FC4F2003F0F6FCDF
:101AC000002003F0F3FC612003F0F0FC002003F0A1
:101AD000EDFC792003F0EAFC002003F0E7FC88200D
:101AE00003F0E4FC002003F0E1FC972003F0DEFCAF
:101AF000002003F0DBFCA62003F0D8FC002003F05C
:101B0000D5FCB72003F0D2FC002003F0CFFCC220AC
:101B100003F0CCFC002003F0C9FCC72003F0C6FC96
:101B2000002003F0C3FCD12003F0C0FC002003F030
:101B3000BDFCD62003F0BAFC002003F0B7FCDD208A
:101B400003F0B4FC002003F0B1FCF32003F0AEFC82
:101B5000002003F0ABFCE32003F0BAFC052003F007
:101B6000A5FC002003F0A2FC0A2003F09FFC00204B
:101B700003F09CFC1C2003F099FC002003F096FC71
:101B8000332003F093FC002003F090FC442003F08A
:101B90008DFC002003F08AFC502003F087FC00201D
:101BA00003F084FC622003F081FC002003F07EFC43
:101BB000782003F07BFC002003F078FC882003F001
:101BC00075FC002003F072FC972003F06FFC0020EE
:101BD00003F06CFCA62003F069FC002003F066FC17
:101BE000B72003F063FC002003F060FCC22003F088
:101BF0005DFC002003F05AFCC72003F057FC0020D6
:101C000003F054FCD12003F051FC002003F04EFC03
:101C1000D52003F04BFC002003F048FCDD2003F04E
:101C200045FC002003F042FCF32003F03FFC0020C1
:101C300003F03CFCE42003F04BFC012003F036FCF5
:101C4000002003F033FC012003F030FC002003F0FF
:101C50002DFC022003F02AFC002003F027FC2A20A0
:101C600003F024FC002003F021FC3C2003F01EFCC8
:101C7000002003F01BFC4B2003F018FC002003F0B5
:101C800015FC5D2003F012FC002003F00FFC742013
:101C900003F00CFC002003F009FC842003F006FC98
:101CA000002003F003FC932003F000FC002003F06D
:101CB000FDFBA22003F0FAFB002003F0F7FBB320AA
:101CC00003F0F4FB002003F0F1FBBE2003F0EEFB79
:101CD000002003F0EBFBC42003F0E8FB002003F03E
:101CE000E5FBCD2003F0E2FB002003F0DFFBD32077
:101CF00003F0DCFB002003F0D9FBDD2003F0D6FB72
:101D0000002003F0D3FBF32003F0D0FB002003F00E
:101D1000CDFBE52003F0DCFB002003F0C7FB002037
:101D200003F0C4FB002003F0C1FB002003F0BEFB66
:101D3000022003F0BBFB002003F0B8FB292003F0D6
:101D4000B5FB002003F0B2FB3C2003F0AFFB00200A
:101D500003F0ACFB4B2003F0A9FB002003F0A6FB33
:101D60005D2003F0A3FB002003F0A0FB742003F030
:101D70009DFB002003F09AFB842003F097FB0020DA
:101D800003F094FB932003F091FB002003F08EFB03
:101D9000A22003F08BFB002003F088FBB32003F0AC
:101DA00085FB002003F082FBBE2003F07FFB0020B8
:101DB00003F07CFBC42003F079FB002003F076FBEA
:101DC000CD2003F073FB002003F070FBD32003F061
:101DD0006DFB002003F06AFBDC2003F067FB0020B2
:101DE00003F064FBF32003F061FB002003F05EFBD3
:101DF000E62003F06DFB112003F058FB002003F0F8
:101E000055FB342003F052FB002003F04FFB56201B
:101E100003F04CFB002003F049FB762003F046FB67
:101E2000002003F043FB772003F040FB002003F089
:101E30003DFB662003F03AFB002003F037FB8820CF
:101E400003F034FB002003F031FB992003F02EFB5C
:101E5000002003F02BFBBB2003F028FB002003F045
:101E600025FB992003F022FB002003F01FFB6620D6
:101E700003F01CFB002003F019FB552003F016FBB8
:101E8000002003F013FB552003F010FB002003F0AB
:101E90000DFB452003F00AFB002003F007FB432065
:101EA00003F004FB002003F001FB442003F0FEFAE2
:101EB000002003F0FBFAE72003F00AFB322003F0D6
:101EC000F5FA002003F0F2FA552003F0EFFA0020B3
:101ED00003F0ECFA762003F0E9FA002003F0E6FACA
:101EE000662003F0E3FA002003F0E0FA672003F035
:101EF000DDFA002003F0DAFA672003F0D7FA0020B9
:101F000003F0D4FA872003F0D1FA002003F0CEFAD0
:101F1000992003F0CBFA002003F0C8FABB2003F0AD
:101F2000C5FA002003F0C2FA992003F0BFFA00209E
:101F300003F0BCFA772003F0B9FA002003F0B6FAF8
:101F4000442003F0B3FA002003F0B0FA562003F067
:101F5000ADFA002003F0AAFA232003F0A7FA00202C
:101F600003F0A4FA332003F0A1FA002003F09EFA54
:101F7000452003F09BFA002003F098FAE82003F0D4
:101F8000A7FA002003F092FA002003F08FFA9920BC
:101F900003F08CFA002003F089FA872003F086FA18
:101FA000002003F083FA882003F080FA002003F079
:101FB0007DFA772003F07AFA002003F077FA6620A2
:101FC00003F074FA002003F071FA882003F06EFA2F
:101FD000002003F06BFAAA2003F068FA002003F057
:101FE00065FABB2003F062FA002003F05FFA992043
:101FF00003F05CFA002003F059FA662003F056FA69
:10200000002003F053FA552003F050FA002003F0AB
:102010004DFA552003F04AFA002003F047FA442015
:1020200003F044FA002003F041FA442003F03EFAA2
:10203000002003F03BFA552003F038FA002003F0AB
:1020400035FAE92003F044FAAA2003F02FFA002021
:1020500003F02CFA002003F029FA002003F026FAFE
:10206000002003F035FAAA2003F020FACF2003F075
:102070002FFA002003F01AFA002003F017FA0020CC
:1020800003F014FA002003F011FA002003F00EFA16
:10209000002003F00BFA002003F008FA002003F000
:1020A00005FA002003F002FA002003F0FFF90020F7
:1020B00003F0FCF9002003F0F9F9002003F0F6F931
:1020C000002003F0F3F9002003F0F0F9002003F002
:1020D000EDF9002003F0EAF9F02003F0F9F900200F
:1020E00003F0E4F9502003F0E1F9002003F0DEF9F9
:1020F000002003F0DBF9002003F0D8F9F32003F00F
:10210000E7F9002003F0D2F9F92003F0E1F9062005
:1021100003F0CCF9102003F0C9F9292003F0C6F927
:10212000002003F0C3F93A2003F0D2F9552003F060
:10213000BDF9112003F0CCF9642003F0CFFB292076
:1021400003F0C6F9352003F0C3F9002003F0AEF91F
:10215000512003F0BDF9FF2003F0A8F9532003F04C
:10216000B7F92C2003F0A2F9552003F0B1F9822031
:1021700003F09CF92C2003F0ABF902F066BBFE489B
:10218000808845F2105188427ED155214FF470402D
:1021900003F0B8F9AA214FF2010003F0B3F952217C
:1021A0004FF2020003F0AEF908214FF2030003F0F2
:1021B000A9F901214FF2040003F0A4F90D214FF415
:1021C000304003F09FF90D214BF2010003F09AF922
:1021D0000D214BF2020003F095F934214FF4364003
:1021E00003F090F934214BF2016003F08BF93421B4
:1021F0004BF2026003F086F90D214FF4314003F0F9
:1022000081F90D214BF2011003F07CF90D214BF205
:10221000021003F077F934214FF4374003F072F9DC
:1022200034214BF2017003F06DF934214BF202704E
:1022300003F068F900214FF4324003F063F9002104
:102240004BF2012003F05EF900214BF2022003F073
:1022500059F924214FF4384003F054F924214BF666
:10226000010003F04FF924214BF6020003F04AF974
:1022700001214FF43F4003F045F90F214FF4334063
:1022800003F040F90F2100E0FEE34BF2013003F0D0
:1022900039F90F214BF2023003F034F934214FF4B5
:1022A000394003F02FF934214BF6011003F02AF9DD
:1022B00034214BF6021003F025F908214FF4354084
:1022C00003F020F908214BF2015003F01BF908211B
:1022D0004BF2025003F016F903214FF4424003F091
:1022E00011F924214FF43A4003F00CF924214BF664
:1022F000012003F007F924214BF6022003F002F934
:1023000000214FF43C4003F0FDF878214BF60140EA
:1023100003F0F8F800214BF6024003F0F3F8002137
:102320004FF43D4003F0EEF878214BF6015003F0F6
:10233000E9F800214BF6025003F0E4F800214FF4D5
:102340003E4003F0DFF864214BF6016003F0DAF859
:1023500000214FF4514003F0D5F833214DF2011024
:1023600003F0D0F800214DF2021003F0CBF8342135
:102370004DF2031003F0C6F800214DF2041003F0F3
:10238000C1F83A214DF2051003F0BCF800214DF2DE
:10239000061003F0B7F84A214DF2071003F0B2F827
:1023A00000214DF2081003F0ADF85C214DF2091048
:1023B00003F0A8F800214DF20A1003F0A3F88121E0
:1023C0004DF20B1003F09EF800214DF20C1003F0BB
:1023D00099F8A6214DF20D1003F094F800214DF26A
:1023E0000E1003F08FF8E5214DF20F1003F08AF87C
:1023F00001214DF2101003F085F813214DF2111058
:1024000003F080F801214DF2121003F07BF8542103
:102410004DF2131003F076F801214DF2141003F081
:1024200071F882214DF2151003F06CF801214DF284
:10243000161003F067F8CA214DF2171003F062F886
:1024400002214DF2181003F05DF800214DF2191031
:1024500003F058F802214DF21A1003F053F801214D
:102460004DF21B1003F04EF802214DF21C1003F048
:1024700049F834214DF21D1003F044F802214DF2C9
:102480001E1003F03FF867214DF21F1003F03AF8D9
:1024900002214DF2201003F035F884214DF2211075
:1024A00003F030F802214DF2221003F02BF8A421A2
:1024B0004DF2231003F026F802214DF2241003F010
:1024C00021F8B7214DF2251003F01CF802214DF23E
:1024D000261003F017F8CF214DF2271003F012F861
:1024E00002214DF2281003F00DF8DE214DF22910E3
:1024F00003F008F802214DF22A1003F003F8F2214C
:102500004DF22B1002F0FEFF02214DF22C1002F0D2
:10251000F9FFFE214DF22D1002F0F4FF03214DF2E0
:102520002E1002F0EFFF10214DF22F1002F0EAFF03
:1025300003214DF2301002F0E5FF33214DF231104E
:1025400002F0E0FF03214DF2321002F0DBFF6D21BB
:102550004DF2331002F0D6FF00214FF4524002F04A
:10256000D1FF33214DF2012002F0CCFF00214DF2CA
:10257000022002F0C7FF01E0D800002034214DF214
:10258000032002F0BFFF00214DF2042002F0BAFF49
:102590003A214DF2052002F0B5FF00214DF2062050
:1025A00002F0B0FF4A214DF2072002F0ABFF0021FC
:1025B0004DF2082002F0A6FF5C214DF2092002F046
:1025C000A1FF00214DF20A2002F09CFF81214DF273
:1025D0000B2002F097FF00214DF20C2002F092FF39
:1025E000A6214DF20D2002F08DFF00214DF20E20AC
:1025F00002F088FFE5214DF20F2002F083FF012158
:102600004DF2102002F07EFF13214DF2112002F056
:1026100079FF01214DF2122002F074FF54214DF296
:10262000132002F06FFF01214DF2142002F06AFF27
:1026300082214DF2152002F065FF01214DF2162096
:1026400002F060FFCA214DF2172002F05BFF022169
:102650004DF2182002F056FF00214DF2192002F031
:1026600051FF02214DF21A2002F04CFF01214DF2E0
:102670001B2002F047FF02214DF21C2002F042FF16
:1026800034214DF21D2002F03DFF02214DF21E20AB
:1026900002F038FF67214DF21F2002F033FF0221C4
:1026A0004DF2202002F02EFF84214DF2212002F075
:1026B00029FF02214DF2222002F024FFA4214DF235
:1026C000232002F01FFF02214DF2242002F01AFF06
:1026D000B7214DF2252002F015FF02214DF22620F0
:1026E00002F010FFCF214DF2272002F00BFF022154
:1026F0004DF2282002F006FFDE214DF2292002F0E3
:1027000001FF02214DF22A2002F0FCFEF2214DF2DF
:102710002B2002F0F7FE02214DF22C2002F0F2FEF7
:10272000FE214DF22D2002F0EDFE03214DF22E2070
:1027300002F0E8FE10214DF22F2002F0E3FE03210B
:102740004DF2302002F0DEFE33214DF2312002F056
:10275000D9FE03214DF2322002F0D4FE6D214DF25C
:10276000332002F0CFFE00214FF4534002F0CAFEA6
:1027700033214DF2013002F0C5FE00214DF202304E
:1027800002F0C0FE34214DF2033002F0BBFE002106
:102790004DF2043002F0B6FE3A214DF2053002F05F
:1027A000B1FE00214DF2063002F0ACFE4A214DF29E
:1027B000073002F0A7FE00214DF2083002F0A2FE21
:1027C0005C214DF2093002F09DFE00214DF20A30ED
:1027D00002F098FE81214DF20B3002F093FE0021B1
:1027E0004DF20C3002F08EFEA6214DF20D3002F0BB
:1027F00089FE00214DF20E3002F084FEE5214DF2FB
:102800000F3002F07FFE01214DF2103002F07AFE0F
:1028100013214DF2113002F075FE01214DF21230FC
:1028200002F070FE54214DF2133002F06BFE0121D4
:102830004DF2143002F066FE82214DF2153002F0A6
:1028400061FE01214DF2163002F05CFECA214DF20C
:10285000173002F057FE02214DF2183002F052FEFE
:1028600000214DF2193002F04DFE02214DF21A30D6
:1028700002F048FE01214DF21B3002F043FE02211E
:102880004DF21C3002F03EFE34214DF21D3002F0BC
:1028900039FE02214DF21E3002F034FE67214DF266
:1028A0001F3002F02FFE02214DF2203002F02AFEEE
:1028B00084214DF2213002F025FE02214DF222301A
:1028C00002F020FEA4214DF2233002F01BFE022173
:1028D0004DF2243002F016FEB7214DF2253002F001
:1028E00011FE02214DF2263002F00CFECF214DF2F6
:1028F000273002F007FE02214DF2283002F002FEDE
:10290000DE214DF2293002F0FDFD02214DF22A3088
:1029100002F0F8FDF2214DF22B3002F0F3FD02211E
:102920004DF22C3002F0EEFDFE214DF22D3002F082
:10293000E9FD03214DF22E3002F0E4FD10214DF2AD
:102940002F3002F0DFFD03214DF2303002F0DAFDCE
:1029500033214DF2313002F0D5FD03214DF23230FA
:1029600002F0D0FD6D214DF2333002F0CBFD00219D
:102970004FF4544002F0C6FD33214DF2014002F005
:10298000C1FD00214DF2024002F0BCFD34214DF2A8
:10299000034002F0B7FD00214DF2044002F0B2FD09
:1029A0003A214DF2054002F0ADFD00214DF2064006
:1029B00002F0A8FD4A214DF2074002F0A3FD0021DC
:1029C0004DF2084002F09EFD5C214DF2094002F0FC
:1029D00099FD00214DF20A4002F094FD81214DF253
:1029E0000B4002F08FFD00214DF20C4002F08AFDF9
:1029F000A6214DF20D4002F085FD00214DF20E4062
:102A000002F080FDE5214DF20F4002F07BFD012137
:102A10004DF2104002F076FD13214DF2114002F00C
:102A200071FD01214DF2124002F06CFD54214DF276
:102A3000134002F067FD01214DF2144002F062FDE7
:102A400082214DF2154002F05DFD01214DF216404C
:102A500002F058FDCA214DF2174002F053FD022149
:102A60004DF2184002F04EFD00214DF2194002F0E7
:102A700049FD02214DF21A4002F044FD01214DF2C0
:102A80001B4002F03FFD00E004E302214DF21C4038
:102A900002F038FD34214DF21D4002F033FD0221D9
:102AA0004DF21E4002F02EFD67214DF21F4002F054
:102AB00029FD02214DF2204002F024FD84214DF237
:102AC000214002F01FFD02214DF2224002F01AFDCA
:102AD000A4214DF2234002F015FD02214DF22440C5
:102AE00002F010FDB7214DF2254002F00BFD02214E
:102AF0004DF2264002F006FDCF214DF2274002F0B4
:102B000001FD02214DF2284002F0FCFCDE214DF2D5
:102B1000294002F0F7FC02214DF22A4002F0F2FCBB
:102B2000F2214DF22B4002F0EDFC02214DF22C403F
:102B300002F0E8FCFE214DF22D4002F0E3FC0321FF
:102B40004DF22E4002F0DEFC10214DF22F4002F03B
:102B5000D9FC03214DF2304002F0D4FC33214DF278
:102B6000314002F0CFFC03214DF2324002F0CAFCAA
:102B70006D214DF2334002F0C5FC00214FF4554069
:102B800002F0C0FC33214DF2015002F0BBFC0021E9
:102B90004DF2025002F0B6FC34214DF2035002F027
:102BA000B1FC00214DF2045002F0ACFC3A214DF290
:102BB000055002F0A7FC00214DF2065002F0A2FCE5
:102BC0004A214DF2075002F09DFC00214DF20850C1
:102BD00002F098FC5C214DF2095002F093FC0021B8
:102BE0004DF20A5002F08EFC81214DF20B5002F0A2
:102BF00089FC00214DF20C5002F084FCA6214DF21C
:102C00000D5002F07FFC00214DF20E5002F07AFCD4
:102C1000E5214DF20F5002F075FC01214DF21050EC
:102C200002F070FC13214DF2115002F06BFC0121F7
:102C30004DF2125002F066FC54214DF2135002F096
:102C400061FC01214DF2145002F05CFC82214DF236
:102C5000155002F057FC01214DF2165002F052FCC3
:102C6000CA214DF2175002F04DFC02214DF21850CE
:102C700002F048FC00214DF2195002F043FC022101
:102C80004DF21A5002F03EFC01214DF21B5002F0B1
:102C900039FC02214DF21C5002F034FC34214DF27B
:102CA0001D5002F02FFC02214DF21E5002F02AFCB2
:102CB00067214DF21F5002F025FC02214DF22050F9
:102CC00002F020FC84214DF2215002F01BFC022175
:102CD0004DF2225002F016FCA4214DF2235002F0D6
:102CE00011FC02214DF2245002F00CFCB7214DF2F0
:102CF000255002F007FC02214DF2265002F002FCA2
:102D0000CF214DF2275002F0FDFB02214DF2285059
:102D100002F0F8FBDE214DF2295002F0F3FB022114
:102D20004DF22A5002F0EEFBF2214DF22B5002F050
:102D3000E9FB02214DF22C5002F0E4FBFE214DF2A2
:102D40002D5002F0DFFB03214DF22E5002F0DAFB92
:102D500010214DF22F5002F0D5FB03214DF23050DF
:102D600002F0D0FB33214DF2315002F0CBFB0321B6
:102D70004DF2325002F0C6FB6D214DF2335002F09D
:102D8000C1FB00214FF4564002F0BCFB33214DF251
:102D9000016002F0B7FB00214DF2026002F0B2FBCD
:102DA00034214DF2036002F0ADFB00214DF20460CE
:102DB00002F0A8FB3A214DF2056002F0A3FB0021CE
:102DC0004DF2066002F09EFB4A214DF2076002F0D0
:102DD00099FB00214DF2086002F094FB5C214DF25A
:102DE000096002F08FFB00214DF20A6002F08AFBBD
:102DF00081214DF20B6002F085FB00214DF20C6049
:102E000002F080FBA6214DF20D6002F07BFB002159
:102E10004DF20E6002F076FBE5214DF20F6002F0FC
:102E200071FB01214DF2106002F06CFB13214DF299
:102E3000116002F067FB01214DF2126002F062FBAB
:102E400054214DF2136002F05DFB01214DF214603C
:102E500002F058FB82214DF2156002F053FB012174
:102E60004DF2166002F04EFBCA214DF2176002F0DF
:102E700049FB02214DF2186002F044FB00214DF2A3
:102E8000196002F03FFB02214DF21A6002F03AFB9A
:102E900001214DF21B6002F035FB02214DF21C6056
:102EA00002F030FB34214DF21D6002F02BFB0221B9
:102EB0004DF21E6002F026FB67214DF21F6002F00A
:102EC00021FB02214DF2206002F01CFB84214DF217
:102ED000216002F017FB02214DF2226002F012FB8A
:102EE000A4214DF2236002F00DFB02214DF224607B
:102EF00002F008FBB7214DF2256002F003FB02212E
:102F00004DF2266002F0FEFACF214DF2276002F06A
:102F1000F9FA02214DF2286002F0F4FADE214DF2B6
:102F2000296002F0EFFA02214DF22A6002F0EAFA7B
:102F3000F2214DF22B6002F0E5FA02214DF22C60F5
:102F400002F0E0FAFE214DF22D6002F0DBFA0321DF
:102F50004DF22E6002F0D6FA10214DF22F6002F0F1
:102F6000D1FA03214DF2306002F0CCFA33214DF258
:102F7000316002F0C7FA03214DF2326002F0C2FA6A
:102F80006D214DF2336002F0BDFA55214FF47040CF
:102F900002F0B8FAAA214FF2010002F0B3FA52216E
:102FA0004FF2020002F0AEFA08214FF2030002F0E5
:102FB000A9FA00214FF2040002F0A4FACC214FF448
:102FC000314002F09FFA00214BF2011002F09AFA10
:102FD00005214FF4364002F095FA70214FF4374046
:102FE00002F090FA70214BF2017002F08BFA01218D
:102FF0004FF4384002F086FA03214BF6010002F04C
:1030000081FA03214BF6020002F07CFA03214BF611
:10301000030002F077FA02214FF43C4002F072FA0A
:1030200000214BF6014002F06DFA00214BF6024000
:1030300002F068FAD0214FF4494002F063FA02210D
:103040004CF6011002F05EFA50214CF6021002F02C
:1030500059FA50214CF6031002F054FA50214CF664
:10306000041002F04FFA00214FF4545002F04AFAD3
:1030700055214FF4685002F045FA4FF4885002F0A1
:1030800027FA782002F048FC4FF4245002F020FA8E
:1030900001F0DBBBFE48808849F2253188427DD1B2
:1030A00047F6F001E52002F02DFA4FF4807101207F
:1030B00002F028FA4FF4E061022002F023FA41F214
:1030C0003001032002F01EFA0021042002F01AFA57
:1030D00040F20221082002F015FA0021092002F036
:1030E00011FA00210A2002F00DFA00210C2002F052
:1030F00009FA00210D2002F005FA00210F2002F04C
:1031000001FA0021102002F0FDF90721112002F040
:10311000F9F90021122002F0F5F90021132002F044
:10312000F1F90021072002F0EDF941F29061102041
:1031300002F0E8F940F22721112002F0E3F99D2185
:10314000122002F0DFF94FF4C851132002F0DAF92F
:103150002521292002F0D6F90D212B2002F0D2F9E9
:103160000721302002F0CEF940F20331312002F085
:10317000C9F90321322002F0C5F940F206213520B9
:1031800002F0C0F90821362002F0BCF940F20641F5
:10319000372002F0B7F94FF4417100E058E03820D1
:1031A00002F0B0F90721392002F0ACF940F20261D7
:1031B0003C2002F0A7F908213D2002F0A3F90021EC
:1031C000502002F09FF9EF21512002F09BF90021DD
:1031D000522002F097F940F23F11532002F092F989
:1031E0004FF42741602002F08DF90121612002F0A7
:1031F00089F900216A2002F085F90021802002F07F
:1032000081F90021812002F07DF90021822002F065
:1032100079F90021832002F075F90021842002F061
:1032200071F90021852002F06DF91021902002F043
:1032300069F94FF4C061922002F064F940F2331151
:10324000072002F05FF92221002002F05BF91FE75E
:103250008F48808849F2283188427DD141F28F0120
:10326000EC2002F04FF941F23421EF2002F04AF94C
:103270004FF48071012002F045F94FF4E061022023
:1032800002F040F941F23001032002F03BF9002145
:10329000042002F037F940F20221082002F032F94E
:1032A0000021092002F02EF900210A2002F02AF95B
:1032B00001210C2002F026F900210D2002F022F954
:1032C00000210F2002F01EF90021102002F01AF94F
:1032D0000721112002F016F90021122002F012F944
:1032E0000021132002F00EF90121072002F00AF953
:1032F000322002F0F3FA41F29041102002F002F97C
:1033000040F22721112002F0FDF8322002F0E6FA07
:103310008A21122002F0F6F8322002F0DFFA4FF490
:10332000D051132002F0EEF80621292002F0EAF82D
:103330000D212B2002F0E6F8322002F0CFFA002116
:10334000202002F0DFF80021212002F0DBF83220FB
:1033500002F0C4FA002100E075E0302002F0D2F85B
:1033600040F20461312002F0CDF840F20531322004
:1033700002F0C8F80021352002F0C4F840F60941F7
:10338000362002F0BFF84FF40171372002F0BAF88E
:1033900040F20131382002F0B5F840F207713920CF
:1033A00002F0B0F800213C2002F0ACF840F60A210F
:1033B0003D2002F0A7F8322002F090FA00215020C0
:1033C00002F0A0F8EF21512002F09CF800215220D9
:1033D00002F098F840F23F11532002F093F84FF4B6
:1033E0002741602002F08EF80121612002F08AF866
:1033F00000216A2002F086F80021802002F082F885
:103400000021812002F07EF80021822002F07AF86B
:103410000021832002F076F80021842002F072F867
:103420000021852002F06EF81021902002F06AF849
:103430004FF4C061922002F065F840F2331107208A
:1034400002F060F824E61248808849F22031884270
:103450007ED10021084602F055F84FF4807101201A
:1034600002F050F84FF4E061022002F04BF841F214
:103470003001032002F046F80021042002F042F857
:1034800040F20221082002F03DF80021092001E06D
:10349000D800002002F036F800210A2002F032F8AD
:1034A00001210C2002F02EF800210D2002F02AF854
:1034B00000210F2002F026F8322002F00FFA40F22D
:1034C0000111072002F01EF8322002F007FA4FF433
:1034D0008651102002F016F80721112002F012F890
:1034E0004FF48871122002F00DF84FF43061132070
:1034F00002F008F80021292002F004F844F210013B
:103500002B2001F0FFFF0021502001F0FBFFEF21F5
:10351000512001F0F7FF0021522001F0F3FF40F2AB
:103520003F11532001F0EEFF4FF41C51602001F0D9
:10353000E9FF0121612001F0E5FF00216A2001F08F
:10354000E1FF0021802001F0DDFF0021812000E06B
:1035500030E001F0D7FF0021822001F0D3FF0021ED
:10356000832001F0CFFF0021842001F0CBFF002158
:10357000852001F0C7FF1021902001F0C3FF00213A
:10358000922001F0BFFF0121932001F0BBFF4FF417
:103590008871952001F0B6FF0021972001F0B2FF5D
:1035A0000021982001F0AEFF40F27311072001F0D6
:1035B000A9FF6DE5FE48808849F2313188427DD10E
:1035C00041F21401E72001F09DFF4FF480710120CA
:1035D00001F098FF4FF40071022001F093FF41F2D7
:1035E0003801032001F08EFF40F20221082001F093
:1035F00089FF0021092001F085FF00210A2001F048
:1036000081FF00210C2001F07DFF00210D2001F041
:1036100079FF00210F2001F075FF0021102001F03B
:1036200071FF0721112001F06DFF0021122001F030
:1036300069FF0021132001F065FFC82002F04EF958
:1036400041F29061102001F05DFF40F2272111202E
:1036500001F058FF322002F041F90C21122001F054
:1036600051FF322002F03AF94FF40061132001F0CB
:1036700049FF1121292001F045FF0B212B2001F0EA
:1036800041FF322002F02AF90021202001F03AFF08
:1036900040F23F11212001F035FF0021302001F0E0
:1036A00031FF4FF48371312001F02CFF00213220D3
:1036B00001F028FF4FF40171352000E064E001F0D3
:1036C00021FF41F20A61362001F01CFF40F2077130
:1036D000372001F017FF4FF48371382001F012FFFB
:1036E00040F20771392001F00DFF40F202413C2009
:1036F00001F008FF40F60F413D2001F003FF0021DB
:10370000502001F0FFFEEF21512001F0FBFE0021CF
:10371000522001F0F7FE40F23F11532001F0F2FE7B
:103720004FF41C51602001F0EDFE0121612001F0F9
:10373000E9FE00216A2001F0E5FE0021802001F071
:10374000E1FE0021812001F0DDFE0021822001F058
:10375000D9FE0021832001F0D5FE0021842001F054
:10376000D1FE0021852001F0CDFE1021902001F036
:10377000C9FE4FF4C061922001F0C4FE40F2331143
:10378000072001F0BFFE83E48948808845F20841A4
:1037900088427DD14FF48071012001F0B3FE4FF4D7
:1037A000E061022001F0AEFE41F23001032001F0A1
:1037B000A9FE0021042001F0A5FE40F20721082007
:1037C00001F0A0FE0021092001F09CFE00210A204A
:1037D00001F098FE00210C2001F094FE00210D2044
:1037E00001F090FE00210F2001F08CFE142002F069
:1037F00075F841F2B061102001F084FE0121112022
:1038000001F080FE0121172001F07CFE4FF49C7135
:10381000122001F077FE4FF40061132001F072FED8
:103820000921292001F06EFE09212A2001F06AFEFB
:103830000021A42001F066FE0021502001F062FE6C
:10384000EF21512001F05EFE0021522001F05AFECE
:1038500040F23F11532001F055FE4FF41C516020FF
:1038600001F050FE0121612001F04CFE00216A2090
:1038700001F048FE0021802001F044FE002181205B
:1038800001F040FE0021822001F03CFE002100E01A
:1038900024E0832001F036FE0021842001F032FE76
:1038A0000021852001F02EFE1321902001F02AFE38
:1038B0000021922001F026FE0321932001F022FE38
:1038C0004FF48871952001F01DFE40F2731107201E
:1038D00001F018FE322002F001F8B8E43448808884
:1038E00041F2055188427DD10021072001F00AFEF6
:1038F000322001F0F3FF4FF48E71122001F002FE2E
:103900000121A42001F0FEFD0F21082001F0FAFDA5
:1039100008210A2001F0F6FD08210D2001F0F2FD3A
:1039200040F20771302001F0EDFD0721312001F058
:10393000E9FD40F20361322001F0E4FD4FF4E06163
:10394000332001F0DFFD40F20221342001F0DAFDE6
:103950000221352001F0D6FD41F60F71362001F02D
:10396000D1FD40F20771372001F0CCFD0021382055
:1039700001F0C8FD0021392001F0C4FD40F20771BB
:103980003A2001F0BFFD00213B2001F0BBFD0721E3
:103990003C2001F0B7FD00213D2001F0B3FD3220B5
:1039A00001F09CFF0121072001F0ACFD012101E0A5
:1039B000D8000020172001F0A5FD322001F08EFF75
:1039C0004FF4BD51102001F09DFD40F21721112050
:1039D00001F098FD4FF48F71122001F093FD4FF428
:1039E000706100E098E0132001F08CFD00212A2096
:1039F00001F088FD0A21292001F084FD4FF49F7118
:103A0000122001F07FFD0021502001F07BFDEF210D
:103A1000512001F077FD0021522001F073FD40F2AA
:103A20003F11532001F06EFD4FF41C51602001F056
:103A300069FD0121612001F065FD00216A2001F08E
:103A400061FD0021802001F05DFD0021812001F059
:103A500059FD0021822001F055FD0021832001F055
:103A600051FD0021842001F04DFD0021852001F051
:103A700049FD1321902001F045FD4FF44071922043
:103A800001F040FD0521932001F03CFD002195202F
:103A900001F038FD0021972001F034FD002198202D
:103AA00001F030FD4FF48071012001F02BFD4FF447
:103AB000E061022001F026FD41F23801032001F00F
:103AC00021FD0021042001F01DFD00210C2001F04A
:103AD00019FD00210F2001F015FD0021202001F02B
:103AE00011FD0021212001F00DFD2121072001F011
:103AF00009FD142001F0F2FE6121072001F002FD12
:103B0000142001F0EBFE40F27311072001F0FAFCE3
:103B1000142001F0E3FE95E4FE4880884BF2055145
:103B200088427CD10021084601F0ECFC00210846C7
:103B300001F0E8FC0021084601F0E4FC0021084601
:103B400001F0E0FC0121A42001F0DCFC142001F0D4
:103B5000C5FE4FF41C51602001F0D4FC40F202215C
:103B6000082001F0CFFC4FF40571302001F0CAFCB1
:103B700043F21571312001F0C5FC40F2046132209E
:103B800001F0C0FC40F61661332001F0BBFC42F2AC
:103B90001121342001F0B6FC4FF4A851352001F07A
:103BA000B1FC48F20751362001F0ACFC41F207416C
:103BB000372001F0A7FC41F20341382001F0A2FCBC
:103BC0002021392001F09EFC1A21902001F09AFC5E
:103BD0000021102001F096FC0721112001F092FC39
:103BE0000021122001F08EFC0021132001F08AFC3C
:103BF000142001F073FE4FF4E661102001F082FC06
:103C000040F23711112001F07DFC142001F066FE16
:103C10004FF4DC71122001F075FC142000E085E007
:103C200001F05CFE4FF47061132001F06BFC802109
:103C30002A2001F067FC4821292001F063FC1420B0
:103C400001F04CFE4FF48071012001F05BFC4FF459
:103C5000E061022001F056FC41F23801032001F03E
:103C600051FC40F20221082001F04CFC00210A2006
:103C700001F048FC00210C2001F044FC00210D2043
:103C800001F040FC30210E2001F03CFC00215020CE
:103C900001F038FCEF21512001F034FC00215220CA
:103CA00001F030FC40F23F11532001F02BFC4FF4A7
:103CB0001C51602001F026FC0121612001F022FC52
:103CC00000216A2001F01EFC1121902001F01AFC55
:103CD0004FF4C061922001F015FC40F202419320A4
:103CE00001F010FC0221942001F00CFC142001F0E2
:103CF000F5FD0121072001F005FC142001F0EEFD87
:103D00006121072001F0FEFB40F27311072001F052
:103D1000F9FB0021202001F0F5FB0021212001F01A
:103D2000F1FB2221002001F0EDFB42E4794880887C
:103D30004CF2055188427CD10021084601F0E2FB9B
:103D40000021084601F0DEFB142001F0C7FD002130
:103D5000084601F0D7FB0021084601F0D3FB002103
:103D6000084601F0CFFB0021084601F0CBFB012102
:103D7000A42001F0C7FB142001F0B0FD4FF41C514A
:103D8000602001F0BFFB40F60601082001F0BAFBFD
:103D900040F20371302001F0B5FB0121312001F028
:103DA000B1FB0421322001F0ADFB4FF481713320CF
:103DB00001F0A8FB4FF44071342001F0A3FB40F266
:103DC0000311352001F09EFB1F21362001F09AFBE4
:103DD00040F20371372001F095FB0121382001F0FA
:103DE00091FB0421392001F08DFB1521902001F079
:103DF00089FB4FF48261102001F084FB40F24721DF
:103E0000112001F07FFB4FF4DE71122001F07AFBEC
:103E10004FF46061132001F075FB782001F05EFD26
:103E20004FF48071012001F06DFB4FF4007102200E
:103E300000E052E001F066FB41F23001032001F0A6
:103E400061FB08210A2001F05DFB00210C2001F03C
:103E500059FB20210E2001F055FB00210F2001F01D
:103E600051FB0021202001F04DFB0021212001F019
:103E700049FB3D212A2001F045FB142001F02EFDD5
:103E80002D21292001F03EFB0021502001F03AFBBA
:103E90004DF2EF01512001F035FB0021522001F0DD
:103EA00031FB40F23F11532001F02CFB0021612037
:103EB00001F028FB00216A2001F024FB4FF440713F
:103EC000922001F01FFB0521932001F01BFB4FF412
:103ED0008071072001F016FB55E40E48808848F6F3
:103EE000891188427ED10121002001F00BFB4AF6A6
:103EF000A401032001F006FB00210C2001F002FBCD
:103F000040F60C010D2001F0FDFA4FF42C510E206B
:103F100002E00000D800002001F0F4FAB0211E20D9
:103F200001F0F0FA42F63F31012001F0EBFA4FF4D4
:103F3000C061022001F0E6FA0021102001F0E2FA4F
:103F400046F27801112001F0DDFA0021052001F090
:103F5000D9FA0021062001F0D5FA4EF61C71162080
:103F600001F0D0FA0321172001F0CCFA40F23321FE
:103F7000072001F0C7FA00210B2001F0C3FA00214D
:103F80000F2001F0BFFA0021412001F0BBFA00210F
:103F9000422001F0B7FA0021482001F0B3FA40F2C4
:103FA0003F11492001F0AEFA00214A2001F0AAFA9F
:103FB00000214B2001F0A6FA4FF46F41442001F09C
:103FC000A1FA0021452001F09DFA40F23F11462060
:103FD00001F098FA40F20771302001F093FA4FF4A3
:103FE000017100E040E0312001F08CFA4FF40171E2
:103FF000322001F087FA40F20251332001F082FAB8
:1040000040F20751342001F07DFA4FF40171352060
:1040100001F078FA4FF40171362001F073FA40F2A2
:104020000251372001F06EFA40F202313A2001F0DD
:1040300069FA40F202313B2001F064FA00212320AA
:1040400001F060FA0021242001F05CFA4FF40041F5
:10405000252001F057FA00214F2001F053FA0021EA
:104060004E2001F04FFAF0E3FE48808844F23151CF
:1040700088427DD10121002001F044FA0A2001F09C
:104080002DFC41F22861102001F03CFA0E21122093
:1040900001F038FA40F63921132001F033FA0A20F2
:1040A00001F01CFC4021112001F02CFA50211520B8
:1040B00001F028FA0A2001F011FC1E21122001F063
:1040C00021FA0A2001F00AFC4FF4B151102001F04E
:1040D00019FA42F63921132001F014FA0A2001F0EE
:1040E000FDFB4FF48071012001F00CFA4FF4407198
:1040F000022001F007FA41F23801032001F002FA30
:1041000040F20221082001F0FDF908210A2001F007
:10411000F9F90021302001F0F5F940F20241312097
:1041200001F0F0F94FF48371322001F0EBF940F225
:104130000351332001F0E6F94FF48271342001F08D
:10414000E1F940F20131352001F0DCF940F207716C
:10415000362001F0D7F940F20531372001F0D2F9CD
:104160004FF40271382001F0CDF940F60B7100E0F8
:104170003CE0392001F0C6F90221412001F0C2F9EA
:104180004FF41C51602001F0BDF90121612001F0C4
:10419000B9F94FF40471902001F0B4F94FF485712E
:1041A000922001F0AFF90421932001F0ABF94FF414
:1041B0008071A02001F0A6F90121072001F0A2F9E9
:1041C0002121072001F09EF92321072001F09AF90F
:1041D0003321072001F096F940F23311072001F056
:1041E00091F90021A02001F08DF92EE39D488088EF
:1041F00044F2355188427CD13021152001F082F9FA
:1042000010219A2001F07EF92021112001F07AF985
:1042100043F22841102001F075F90221122001F02B
:1042200071F941F23801132001F06CF9282001F0F6
:1042300055FB1221084601F065F9282001F04EFBDC
:1042400043F22041102001F05DF943F238011320C0
:1042500001F058F9462001F041FB0021302001F027
:1042600051F940F20241312001F04CF940F207319E
:10427000322001F047F94FF44171332001F042F947
:104280000421342001F03EF940F20141352001F0D3
:1042900039F940F20771362001F034F940F2053166
:1042A000372001F02FF94FF4C261382001F02AF9CC
:1042B0004FF4C261392001F025F94FF480710120DB
:1042C00001F020F94FF44071022001F01BF941F296
:1042D0003001032001F016F940F60801082001F032
:1042E00011F908210A2001F00DF94FF41C5160204A
:1042F00000E033E001F006F90121612001F002F94C
:104300004FF49F71902001F0FDF84FF480719220DE
:1043100001F0F8F84FF48071932001F0F3F84FF4B6
:104320004051A02001F0EEF81021A32001F0EAF89E
:104330000121072001F0E6F82121072001F0E2F831
:104340002321072001F0DEF83321072001F0DAF8FD
:1043500040F23311072001F0D5F876E24148808819
:1043600041F663118842F8D1E22001F0B1F84FF430
:1043700080703D490861400048611D203B4908604C
:104380008020394948610861800008614010086157
:104390004000486102203549086080203249486168
:1043A00008618000086140100861400048610420F5
:1043B0002E49086080202C4948610861800008610E
:1043C000642001F0A9FAE02001F082F84FF4807037
:1043D0002549086140004861012024490860802087
:1043E000214948610861800008610A2001F076FADD
:1043F000E02001F06DF84FF480701B490861400027
:104400004861032019490860802017494861086104
:10441000800008610C2001F061FA012001F058F8D9
:104420000A2001F05BFAE62001F052F84FF48070A8
:104430000D490861400048612F200C490860802028
:104440000949486108618000086140100861400026
:104450004861FF20054908608020034948610861E0
:10446000800005E0D8000020001001400C0C014045
:1044700008614010086140004861FF20F849086069
:104480008020F8494861086180000861B02001F08F
:104490001FF84FF48070F349086140004861202004
:1044A000EF4908608020EF49486108618000086199
:1044B00040100861400048610020E9490860802000
:1044C000E8494861086180000861401008614000C7
:1044D00048610320E24908608020E24948610861A0
:1044E00080000861401008614000486140F21F30C0
:1044F000DB4908608020DB49486108618000086171
:1045000040100861400048610120D54908608020C2
:10451000D44948610861800008614010086140008A
:10452000486140F2DF10CE4908608020CD494861E3
:104530000861800008614010086140004861002067
:10454000C74908608020C749486108618000086148
:10455000B42000F0BDFF4FF48070C24908614000F4
:1045600048610420BE4908608020BE494861086156
:1045700080000861401008614000486140F21F401F
:10458000B74908608020B749486108618000086128
:1045900040100861400048610020B1490860802057
:1045A000B04948610861800008614010086140001E
:1045B00048612E20AA4908608020AA494861086104
:1045C0008000086140100861400048610020A44953
:1045D00008608020A349486108618000086140109C
:1045E00008614000486100209D49086080209D4985
:1045F000486108618000086140100861400048611E
:104600000020974908608020964948610861800031
:10461000086140100861400048610020904908602E
:10462000802090494861086180000861B62000F050
:104630004FFF4FF480708B490861400048610220B1
:1046400087490860802087494861086180000861C7
:1046500040100861400048614FF4037080490860D1
:10466000802080494861086180000861401008612D
:104670004000486100207A490860802079494861FB
:1046800008618000086140100861400048611720FF
:10469000734908608020734948610861800008619F
:1046A000401008614000486115206D490860802075
:1046B0006C49486108618000086140100861400051
:1046C00048610020664908608020664948610861A9
:1046D0008000086140100861400048610020604986
:1046E000086080205F494861086180000861F0200F
:1046F00000F0EEFE4FF480705A49086140004861B6
:1047000003205749086080205649486108618000AD
:104710000861292000F0DCFED02000F0D9FE4FF423
:104720008070504908614000486100204C49086091
:1047300080204C494861086180000861BE2000F07B
:10474000C7FE4FF48070474908614000486105206A
:10475000434908608020434948610861800008613E
:104760004010086140004861FE203D4908608020FB
:104770003C494861086180000861401008614000C0
:104780004861012036490860802036494861086147
:1047900080000861401008614000486100203049F5
:1047A000086080202F49486108618000086140103E
:1047B000086140004861002029490860802029499B
:1047C000486108618000086140100861400048614C
:1047D0000020234908608020224948610861800048
:1047E0000861B82000F074FE4FF480701D49086124
:1047F0004000486103201A49086080201949486137
:104800000861800008614010086140004861012093
:1048100013490860802013494861086180000861DD
:10482000BA2000F055FE4FF480700E490861400038
:10483000486101200A49086080200A4948610861EE
:1048400080000861642000F051F80020FBF78CFF25
:104850000120054908604FF6FF70FBF741FF10BDCE
:104860000C0C014000100140A801224210B54FF08D
:10487000883017490860091D0860002014490C3170
:10488000086088151349086140004861402048616C
:104890001148808848F68911884202D1022001F02F
:1048A0003BF80B480830006884B240200949086191
:1048B000C00008614FF0333005490860091D0860E9
:1048C0004FF6FF7002490C310860204610BD000011
:1048D000000C014000100140D800002010B5044633
:1048E000204600F0F5FDFFF7C1FF10BD2DE9F041B6
:1048F0000446BE2000F0ECFD4FF480702D490861A5
:104900004000486105202C49086080202949486101
:10491000086180000861401008614000486120463D
:1049200001F04DF905464FF06632244B01F05AF97B
:10493000074601F017F92049086080201D494861A9
:104940000861800008614010086140004861012052
:104950001949086080201749486108618000086192
:104960004010086140004861FF2013490860802022
:1049700010494861086180000861401008614000EA
:10498000486100200C49086080200A49486108619C
:10499000800008614010086140004861002006491D
:1049A0000860802003494861086180000861BDE813
:1049B000F0810000001001400C0C014066660440CC
:1049C000F0B5054600240027FC48807901280BD16A
:1049D000FA48808846F60401884205D0F748808866
:1049E00041F66311884208D1F4488079F0B9F34860
:1049F000808841F66311884218D1082D15D2DFE86E
:104A000005F00406080A0C0E101206250DE0072515
:104A10000BE0042509E0052507E0012505E0002558
:104A200003E0032501E0022500BF00BFE3488088C2
:104A300049F24131884217D0E048808846F60401A7
:104A4000884211D0DD48808845F2103188420BD071
:104A5000DA48808845F21051884205D0D7488088CE
:104A600041F6631188427DD1082D1CD2DFE805F0A4
:104A70000406090C0F12151800BF14E044F080045E
:104A800011E044F040040EE044F0C0040BE044F0B8
:104A9000200408E044F0600405E044F0A00402E0D3
:104AA00044F0E00400BF00BFC448808845F21051C4
:104AB000884202D14FF4585700E03627BF4880881B
:104AC00045F2103188420DD0BC48808845F2105123
:104AD000884207D0B948808841F66311884201D0E6
:104AE00044F00804B548808846F60401884201D1A4
:104AF00044F002042146384600F004FDAF488088A7
:104B000041F6631188421DD004F0200068B1AB4823
:104B10000088AA494988884214DAA848068840884B
:104B2000A6490880084646800CE0A4480088A349AE
:104B30004988884206DDA148068840889F49088048
:104B4000084646809D48808845F2105188427DD1B4
:104B50009A49488900F0BCFC4FF48070984908617C
:104B6000400000E030E14861002096490860802064
:104B70009349486108618000086190494989491C4E
:104B800088B200F0A5FC4FF480708D4908614000A8
:104B9000486100208B49086080208949486108618C
:104BA0008000086185494989891C88B200F090FC21
:104BB0004FF4807082490861400048617F48008856
:104BC000401E00127F49086080207D4948610861CD
:104BD0008000086179494989C91C88B200F078FCD5
:104BE0004FF480707649086140004861734800784E
:104BF000401EC0B273490860802071494861086155
:104C0000800008616D49888900F062FC4FF4807073
:104C10006B4908614000486100206A4908608020B3
:104C20006749486108618000086164498989491CB5
:104C300088B200F04DFC4FF480706149086140007B
:104C4000486100205F490860802000E035E05C4951
:104C5000486108618000086158498989891C88B2C7
:104C600000F036FC4FF480705549086140004861FF
:104C700052484088401E0012524908608020504926
:104C800048610861800008614C498989C91C88B263
:104C900000F01EFC4FF480704949086140004861F3
:104CA00046488078401EC0B246490860802044498A
:104CB0004861086180000861ADE04049488900F022
:104CC00007FC4FF480703E490861400048610020B5
:104CD0003C49086080203A494861086180000861C9
:104CE000401008614000486100203649086080207B
:104CF0003349486108618000086140100861400044
:104D000048612E480088401E00122E49086080200D
:104D10002B4948610861800008614010086140002B
:104D2000486126480078401EC0B2264908608020AD
:104D3000234948610861800008612049888900F0A2
:104D4000C7FB4FF480701E49086140004861002095
:104D50001C49086080201A49486108618000086188
:104D6000401008614000486100201649086080201A
:104D700013494861086180000861401008614000E3
:104D800048610E484088401E00120E49086080208D
:104D90000B494861086180000861401008614000CB
:104DA000486106488078401EC0B2064908608020ED
:104DB000034948610861800008612CE0D8000020A8
:104DC000001001400C0C0140082D1CD2DFE805F05A
:104DD00004070A0D0F12151844F0300413E044F0D4
:104DE000100410E044F020040DE000BF0BE044F09C
:104DF000380408E044F0280405E044F0180402E018
:104E000044F0080400BF00BF032744F48054214647
:104E1000384600F077FBF0BD30B504460D46EA4851
:104E2000808849F24131884205D0E748808845F2C0
:104E30001031884240D1E449488900F049FB4FF4E1
:104E40008070E2490861400048612012E049086032
:104E50008020DE49486108618000086140100861D7
:104E600040004861E0B2DA4908608020D7494861D3
:104E7000086180000861D449888900F029FB4FF45B
:104E80008070D2490861400048612812D04908600A
:104E90008020CE49486108618000086140100861A7
:104EA00040004861E8B2CA4908608020C7494861AB
:104EB00008618000086186E1C348808846F60401E5
:104EC000884249D1C0488079012804D1BE48008871
:104ED000401E001B84B2BC49488900F0F9FA4FF427
:104EE0008070BA490861400048612012B8490860E2
:104EF0008020B6494861086180000861401008615F
:104F000040004861E0B2B24908608020AF49486182
:104F1000086180000861AC49888900F0D9FA4FF433
:104F20008070AA490861400048612812A8490860B9
:104F30008020A6494861086180000861401008612E
:104F400040004861E8B2A249086080209F4948615A
:104F500008618000086136E19B48808841F6631152
:104F600088427DD19848807900283FD196480088B2
:104F7000401E001B84B29449488900F0A9FA4FF4FE
:104F800080709249086140004861002090490860A3
:104F900080208E49486108618000086140100861E6
:104FA0004000486100208A490860802087494861A4
:104FB00008618000086140100861400048612012CB
:104FC0008349086080208149486108618000086148
:104FD0004010086140004861E0B27D4908608020CF
:104FE0007A49486108618000086141E07649488952
:104FF00000F06EFA4FF48070744908614000486117
:10500000201273490860802070494861086180005F
:1050100008614010086140004861E0B26C490860D6
:1050200080206A4948610861800008614010086179
:105030004000486164480088401E001264490860CE
:105040008020624948610861800008614010086161
:10505000400048615C480078401EC0B25C4900E0F6
:1050600047E0086080205949486108618000086174
:105070005549888900F02CFA4FF480705349086133
:105080004000486128125249086080204F49486119
:105090000861800008614010086140004861E8B282
:1050A0004B490860802049494861086180000861D7
:1050B000401008614000486143484088401E00128B
:1050C00043490860802041494861086180000861C7
:1050D00040100861400048613B488078401EC0B2E3
:1050E0003B490860802039494861086180000861B7
:1050F00069E03548808845F21051884250D13249E4
:10510000488900F0E5F94FF48070304908614000AB
:10511000486120122E49086080202C4948610861AE
:105120008000086128494989491C88B200F0D0F9FB
:105130004FF480702549086140004861E0B224497D
:1051400008608020214948610861800008611E498B
:10515000888900F0BDF94FF480701C490861400057
:10516000486128121A49086080201849486108617E
:105170008000086114498989491C88B200F0A8F9A7
:105180004FF480701149086140004861E8B210494D
:10519000086080200D49486108618000086112E0C4
:1051A00009488079012804D107480088401E001B67
:1051B00084B205494889214600F0A4F9024988894A
:1051C000294600F09FF930BDD800002000100140B2
:1051D0000C0C01402DE9F84F80460E4617461C4640
:1051E000B3462046E31704EB5373DB1021464FEA26
:1051F000E47C04EB5C7C4FEAEC0CA4EBCC0CBCF143
:10520000000F02D04FF0010C01E04FF0000C63449E
:10521000224604EBD27C4FEA6C0C03FB0CF3DBB2AE
:105220000093A7F12000C7B2002556E00C2C07D14F
:1052300007EB47002B4901EB800010F8059013E0C5
:10524000102C05D1284800EB071010F805900BE052
:10525000182C07D107EBC700244901EB800010F898
:10526000059001E0BDE8F88F4FF0000A2FE009F04B
:10527000800030B11E48028831464046FBF754FB9F
:1052800007E00A9828B91B48028831464046FBF7D8
:105290004BFB4FEA49604FEA1069701C86B2164812
:1052A0004088B04200DCDDE7A6EB0B00A0420AD14B
:1052B0005E4608F101001FFA80F80F48008840455B
:1052C00000DCCFE706E00AF1010000F0FF0ABAF1C6
:1052D000080FCCDB00BF681CC5B200988542A5DB77
:1052E00000BFBFE7266300089A6700088A6D0008C0
:1052F0000A0000200C000020D80000202DE9F8470B
:1053000004460D4690469946DDE9096704F0FF0A18
:1053100008EB04001FFA80F809EB05001FFA80F97A
:1053200016E0444502DB5446A81985B24D4500DB22
:1053300014E0002000903A78334629462046FFF7D3
:1053400049FF304606EBD07104EB61018CB27F1C43
:1053500038787E2802DC38782028E2DA00BFBDE801
:10536000F88700001CB5044620780C2841D2DFE8FD
:1053700000F0060B0F13181D22272C31363B4FF679
:10538000FF70FBF7ADF935E00020FBF7A9F931E03C
:105390001F20FBF7A5F92DE04FF47840FBF7A0F9AB
:1053A00028E04FF61F00FBF79BF923E04FF4FC6069
:1053B000FBF796F91EE047F6FF70FBF791F919E04D
:1053C0004FF6E070FBF78CF914E04FF60740FBF75F
:1053D00087F90FE048F23040FBF782F90AE04CF21F
:1053E0001860FBF77DF905E04BF64040FBF778F9D4
:1053F00000E000BF00BF4FF478401B4908801BA0AD
:1054000018210B46C822CDE9001000210846FFF7FD
:1054100075FF1AA010210B46C822CDE900102821E3
:105420000020FFF76BFF19A010210B46C822CDE921
:10543000001050210020FFF761FF18A010210B463B
:10544000C822CDE9001078210020FFF757FF20780F
:10545000401C207020780C2801D1002020704FF4CF
:105460007A7000F03BFA1CBD0A00002048656C6CA5
:105470006F2C20776F726C642E0000004369747982
:105480003A59696E436875616E0000007765617412
:105490006865723A53756E6E7900000044617465F8
:1054A0003A323032322D30332D3133004FF48071A7
:1054B000054A116149005161044908608021516128
:1054C0001161890011617047001001400C0C01400E
:1054D0004FF48071054A51614900516104490860E7
:1054E00080215161116189001161704700100140F4
:1054F0000C0C014000B502490889FFF7E9FF00BD27
:10550000D800002010B504460B462046FFF7E0FF08
:105510004FF4807005490861400048610448036009
:105520008020486108618000086110BD00100140C2
:105530000C0C01401848806940F00400164988614D
:105540000846806940F0200088611448006820F017
:105550000F00124908600846006840F00300086028
:105560000E480830006840F480700C49083108602B
:105570000B48006820F4706009490860084600681C
:1055800040F44070086006480C30006840F00400A9
:1055900003490C31086070470010024004080140C4
:1055A0000014014000B5002015490861C8601420AE
:1055B000486100208861C8610846006840F0010029
:1055C0000860084640680F4908400D494860084691
:1055D00000680D4908400A4908600846006820F440
:1055E000802008600846406820F4FE0048600020E3
:1055F000886000214FF0006000F058F800BD000006
:10560000001002400000FFF8FFFFF6FE2DE9F04118
:105610000746884614461D46284600F033F8C5F173
:10562000040007FA00F60F20284100EA08000643AC
:1056300006F00F06E21704EBD2625211920002F15B
:10564000E022D2F800212146E31704EBD3635B117B
:10565000A4EB431C012303FA0CF31A432046E3177F
:1056600004EBD3635B119B0003F1E023C3F800213B
:105670000348005D40EA061001490855BDE8F08185
:1056800000E400E00146072323EA01021202054B71
:1056900018684FF6FF031840034B18431043014BA3
:1056A000186070470CED00E00000FA05024A0A405D
:1056B0000243024B1A60704780FFFF1F08ED00E0B5
:1056C00030B504460025FFF76DFF1F48006840F421
:1056D00080301D49086000BF1B480068400C00284E
:1056E000FAD04FF4806018494860A01EC4B2084642
:1056F000406840EA844048600846406840F4803092
:1057000048601248006840F03200104908600E48B6
:10571000006840F080700C49086000BF0A480068CB
:10572000400E0028FAD00848406840F002000649C0
:10573000486005E004484068C0F3870505F00305AC
:10574000022DF7D130BD00000010024000200240C1
:105750000948008800F0010038B10848006808B91D
:10576000012000E00020054908600348008820F07F
:1057700001000149088070471004004088812242DE
:1057800070B505460C461048C06940F002000E494D
:10579000C8610E480580001F04800C48203800882E
:1057A00040F0010009492039088008482C38008859
:1057B00040F0010005492C39088002231D220321F5
:1057C0000120FFF723FF70BD001002402C040040B1
:1057D0001D49098801F0200111B31B49091D0988E1
:1057E000C8B21A49098801F40041C9B917490988A2
:1057F00001F4804161B10A2803D00021134A1180CD
:1058000020E01249098841F40041104A118019E052
:105810000D2806D10D49098841F480410B4A1180B9
:1058200010E00A490988C1F30D01094A505407499B
:105830000988491C054A118011460988C72901DDDC
:10584000002111807047000000380140080000204E
:105850001000002000B50848007800F013F8002080
:10586000064908600648006808B9012000E00020E9
:105870000349086000BD00000E000020082C004015
:105880008881224200F07F01014A116070470000C8
:10589000002C0040014600BF704700004FF0E0219F
:1058A000096921F004014FF0E02211610849B0FBC1
:1058B000F1F1084A11701146097801EB4102C2EB7F
:1058C000C1114FF6FF7202EAC101034A118070470D
:1058D00000127A00000000200200002001460D4A5C
:1058E00012884A434FF0E0235A6100229A61012254
:1058F0001A6100BF4FF0E022106900F001021AB1F6
:1059000000F48032002AF5D000224FF0E0231A6123
:105910009A6170470200002001460D4A12784A43FE
:105920004FF0E0235A6100229A6101221A6100BF00
:105930004FF0E022106900F001021AB100F4803249
:10594000002AF5D000224FF0E0231A619A617047D7
:105950000000002000BF054A128802F04002002A21
:10596000F9D0C2B2014B1B1D1A80704700380140AC
:1059700008B5002000900920FFF7A2FE1048FFF7AD
:105980008DFF4FF416510E4800F082F8FFF7D2FD5C
:10599000FAF75AFEFAF7C4FDFBF778F909A0FAF70F
:1059A00037FC41F61F4142F20F70FFF7E9FE05E0B8
:1059B000002000F00DF86846FFF7D4FCF8E700007F
:1059C00000A24A04696E7469616C697A65642E008C
:1059D0002DE9F041074600251C48008800F40040EE
:1059E000E8B11A4806781AA0FAF712FC00240DE074
:1059F0001C48005D1C49088000BF1B48001F008830
:105A000000F040000028F8D0601CC4B2B442EFDBC4
:105A100016A0FAF7FDFB00200C49088014E0681C72
:105A200085B24FF4967095FBF0F100FB115010B960
:105A300010A0FAF7EDFB1E2095FBF0F100FB1150D2
:105A400010B90A20FFF74AFFBDE8F08108000020E6
:105A50000D0AC4FAB7A2CBCDB5C4CFFBCFA2CEAA54
:105A60003A0D0A0010000020043801400D0A0D0A0A
:105A700000000000C7EBCAE4C8EBCAFDBEDD2CD2B3
:105A8000D4BBD8B3B5BCFCBDE1CAF80D0A00000018
:105A90002DE9F05F07460D46280100F0E5FA814642
:105AA000384600F0E1FA8246494600F0FBF9064626
:105AB000304600F0B9FA84B2204600F0D5FA8346A9
:105AC000314600F0B1FB82464FF0834100F0E0FA2E
:105AD000814600F0A9FA1FFA80F84FF6FF7000EA3D
