:020000040800F2
:10000000D00800202D020008310200083302000849
:10001000350200083702000839020008000000001D
:100020000000000000000000000000003B0200088B
:100030003D020008000000003F02000841020008E5
:10004000B5220008430200084302000843020008EA
:100050004302000843020008210700084302000889
:10006000430200084302000843020008430200085C
:10007000430200084302000843020008430200084C
:10008000430200084302000843020008430200083C
:10009000430200084302000843020008C5070008A5
:1000A000430200084302000843020008430200081C
:1000B0004302000875210008A5210008430200083A
:1000C00043020008430200084302000843020008FC
:1000D00043020008312200084302000843020008DE
:1000E0008107000843020008430200084302000899
:1000F00043020008430200084302000843020008CC
:1001000043020008430200084302000843020008BB
:1001100043020008430200084302000843020008AB
:10012000430200084302000843020008430200089B
:1001300000F002F800F06BF80AA090E8000C82448E
:100140008344AAF10107DA4501D100F060F8AFF26B
:10015000090EBAE80F0013F0010F18BFFB1A43F0A5
:1001600001031847CC540000EC5400000A444FF03F
:10017000000C10F8013B13F0070408BF10F8014B06
:100180001D1108BF10F8015B641E05D010F8016B4B
:10019000641E01F8016BF9D113F0080F1EBF10F8AF
:1001A000014BAD1C0C1B09D16D1E58BF01F801CBD2
:1001B000FAD505E014F8016B01F8016B6D1EF9D555
:1001C0009142D6D37047000000230024002500266A
:1001D000103A28BF78C1FBD8520728BF30C148BFAA
:1001E0000B607047642900F09B80752900F09880AF
:1001F000782900F0D180632900F02582732900F06E
:100200002A82002070471FB51FBD10B510BD00F039
:1002100055FA1146FFF7F7FF02F0F4F800F073FA11
:1002200003B4FFF7F2FF03BC02F06BF80848004785
:10023000FEE7FEE7FEE7FEE7FEE7FEE7FEE7FEE796
:10024000FEE7FEE703480449044A054B70470000F7
:1002500031010008D0020020D0080020D004002086
:10026000D0040020704700000FB4044910B503AA61
:10027000029800F0F5F910BC5DF814FB04000020B2
:1002800070B5044685690068C10601D5302600E0D6
:100290002026C00707D070BDD4E901213046904721
:1002A000206A401C20626D1EF6D570BD70B50446F4
:1002B00085690078C00707D170BDD4E901212020ED
:1002C0009047206A401C20626D1EF6D570BD70B547
:1002D0000C460546012A05D02878800600D5EA6933
:1002E000002302E0012305E05B1C934202D2E05CA4
:1002F0000028F9D1A869E618C01AA861286A18442C
:1003000028622846FFF7BCFF04E0D5E9012114F874
:10031000010B9047B442F8D32846FFF7C7FF70BDE2
:100320002DE9F0410646002410687529314616A5CE
:1003300010D0AFF30080002802DA404213A507E096
:1003400031688A0701D512A502E0490704D511A535
:10035000012401E0AFF3008000210A2206F1240706
:1003600009E0B0FBF2FCB0FBF2F302FB1C00303002
:1003700078541846491C0028F3D123462A463046B3
:10038000BDE8F04100F0FCB8000000002D000000C6
:100390002B0000002000000070B504460D462146E9
:1003A0001068AFF300802188090502D50F4A7A440E
:1003B00002E00E4A7A440E32002104F1240305E0E3
:1003C00000F00F060009965D5E54491C0028F7D125
:1003D00020780023000704D5702D02D009B1022334
:1003E00011322046BDE8704000F0CAB8914F0000BD
:1003F0002DE9F05F894604464FF0000ADFF874B13A
:10040000FB44C0F820A02046E1688847002874D04B
:10041000252806D0D4E901219047206A401C20629B
:10042000F1E700265F462046E16888472028054618
:1004300007DB312D05D2781910F8200C08B10643DE
:10044000F1E7B00701D526F00406C4F81CA0002788
:10045000C4F818A02A2D09D0284601F04BFF38B364
:1004600004EB8708303DC8F8185019E059F8041B10
:10047000204604EB87029161E1688847012F054619
:1004800018D1E069002820DA26F020061DE0D8F80F
:10049000180000EB800005EB40003038C8F8180069
:1004A0002046E1688847054601F024FF0028EED188
:1004B000012F0AD02E2D08D12046E16888477F1CE5
:1004C0000546022F46F02006C4DBA069002803DAA7
:1004D000404246F00106A061F00701D026F0100668
:1004E0006C2D0BD0682D09D04C2D39D06A2D35D00C
:1004F000742D35D07A2D33D016E038E0E1682F46E0
:1005000020468847B842054609D16C2F26D04FF4C3
:100510008060E168064320468847054604E06C2F6A
:100520001AD04FF4807006430DB3A5F1410019288D
:1005300002D8203546F400664A4629462046266001
:100540004E46FFF74FFE80B101280BD0F61D26F076
:10055000070000F1080956E74020E4E78020D8E7CB
:100560000020D6E706F104094DE7284652E7206A45
:10057000BDE8F09F674F00007047704770477047B5
:100580002DE9F0470D4699469246044600F12408AD
:100590000168880604D5E06921F01001216000E0BF
:1005A0000120A84201DD471B00E00027A1697A195C
:1005B00002EB0900081AA0612078C00602D4204688
:1005C000FFF75EFE002608E0D4E901211AF80600D4
:1005D0009047206A401C761C20624E45F4DB207850
:1005E000C0060AD52046FFF74BFE06E0D4E90121FC
:1005F00030209047206A401C2062381EA7F1010776
:10060000F4DC07E0D4E9012118F805009047206ADE
:10061000401C2062281EA5F10105F3DC2046FFF7EF
:1006200045FE2078000602D50220BDE8F0870120B3
:10063000FBE710B5436913B1AFF3008001E0FFF7AA
:1006400046FE012010BD127800F124010A7000223C
:100650004A700122EDE711684FF0FF32E9E7000030
:10066000074B70B50D467B4400F011F80446284650
:1006700000F020F810B14FF0FF3070BD204670BD83
:100680007F1D000001694A1C02610878704700B5AF
:100690008FB0CDE901310021059105497944CDE9BB
:1006A000031011466846FFF7A3FE0FB000BD00001F
:1006B000E5FFFFFF007B00F080007047754600F00B
:1006C0002BF8AE4605006946534620F007008546E4
:1006D00018B020B5FFF7B6FDBDE820404FF000068A
:1006E0004FF000074FF000084FF0000B21F007011A
:1006F000AC46ACE8C009ACE8C009ACE8C009ACE85D
:10070000C0098D46704710B50446AFF300802046FF
:10071000BDE81040FFF784BD00487047700200201C
:1007200010B50A2001F024FE0F480068012816D1F8
:100730000E490FA0FFF798FD0B48A030006808B9DC
:10074000012000E000200849A03108600948D0F8E5
:10075000880108B9012000E0002007490860012055
:100760000649086010BD0000000121420A5300083C
:1007700025730A000080224288812242140401402D
:1007800010B50A2001F0F4FD0948006858B909497C
:1007900009A0FFF769FD0948006808B9012000E0D9
:1007A0000020064908604FF400400549086010BD6C
:1007B0003C0121422E53000825730A008881224201
:1007C0001404014010B50A2001F0D2FD0948006868
:1007D00058B9094909A0FFF747FD0948006808B959
:1007E000012000E00020064908602020054908603B
:1007F00010BD0000140122421B53000825730A009B
:10080000A00121421404014010B500F07FF801223C
:100810000521022000F012F801220F21002000F033
:100820000DF8022317220121184601F001FC0223D2
:1008300028220021184601F0FBFB10BD70B50446CC
:100840000B46CE1701EB9676C6F38700CE1701EB69
:100850009676B610A1EB8606B606350E1C4B9B6944
:1008600043F001031A4EB3614FEAB63353F8203018
:100870000F26AE40B343174E46F82030334653F8A8
:10088000203004FA05F61E43124B43F82060124B49
:100890001B6801268E4033430F4E336002F0010384
:1008A00043B10D4B0C331B6801268E4033430A4E77
:1008B0000C36336002F0020343B1074B08331E6865
:1008C00001238B401E43044B08331E6070BD0000A3
:1008D00000100240080001400004014001464906A2
:1008E000084A926942F00102064B9A61064A526830
:1008F00022F0E062044B5A601A4652680A435A607A
:1009000070470000001002400000014010B5194877
:10091000806940F00400174988610846806940F00A
:10092000100088610120FFF7D9FF1348006820F00C
:100930007040114908600846006840F000400860B7
:100940000D480830006840F400400B490831086049
:100950000A48006820F470000849086008460068EA
:1009600040F4000008600846C06840F02000C860FD
:1009700010BD0000001002400408014000100140BA
:1009800030B5014601F01F04C1F34513CA0AE50260
:1009900005EB43151544A8B230BD000070B5044600
:1009A00000261D480588408845431B48808846F638
:1009B0000401884216D118488079012812D10020FC
:1009C000154988712A2048812B20888100210846FA
:1009D00000F042FF0120104988712B2048812A2015
:1009E000888103E00021084600F036FF01F094FA08
:1009F00000260DE04FF4807008490861400048610E
:100A00000748046080204861086180000861761C06
:100A1000AE42EFD370BD0000600200200010014024
:100A20000C0C014010B50446002C66D16C4988714D
:100A3000F02008804FF4A07048800846808849F272
:100A4000413188420BD06648808846F604018842CE
:100A500005D06348808845F2103188421AD12C2095
:100A60005F4908812A2048812B2088810846808898
:100A700046F60401884205D05948808845F2103175
:100A8000884206D14FF4A070554908804FF4F070A9
:100A90004880A1E05248808845F21051884210D128
:100AA0004FF430504E4908814FF4285048814FF49C
:100AB0002C5088814FF4F07008804FF448704880C3
:100AC0008AE04748808841F6631188420DD12C2086
:100AD000434908812B2048812A2088814FF4F070F7
:100AE00008804FF44870488076E022203C49088115
:100AF00020204881212088816EE0012038498871BA
:100B00004FF4A0700880F02048800846808849F2A1
:100B10004131884205D03248808845F21031884200
:100B200007D12C202E4908812A2048812B2088813A
:100B30003FE02B48808846F60401884207D12C20EC
:100B4000274908812B2048812A20888131E02448C8
:100B5000808845F21051884210D14FF4305020491E
:100B600008814FF4285048814FF42C5088814FF46D
:100B7000487008804FF4F07048801AE01848808868
:100B800041F6631188420DD12C20154908812A2095
:100B900048812B2088814FF4487008804FF4F07012
:100BA000488006E022200E4908812120488120202B
:100BB00088810B48808846F60401884205D00848A1
:100BC000808845F21031884206D14FF4F070044914
:100BD00008804FF4A0704880002000F011FC10BD88
:100BE000600200202DE9FF4F84B081468A46002034
:100BF000039002900698A0EB09050798A0EB0A065F
:100C0000CDF80490CDF800A0002D01DD012705E00E
:100C10000DB9002702E04FF0FF376D42002E02DDD4
:100C20004FF0010806E016B94FF0000802E04FF05F
:100C3000FF387642B54201DD2C4600E034464FF0E5
:100C4000000B21E0009A91B2019A90B200F022F8D4
:100C50000398284403900298304402900398A042DD
:100C600005DD0398001B0390019838440190029819
:100C7000A04205DD0298001B0290009840440090BD
:100C80000BF101001FFA80FB601C8345DADD08B020
:100C9000BDE8F08F30B504460D462946204600F0E9
:100CA000DBFD01F039F94FF480700749086140001D
:100CB000486106480088064908608020024948616A
:100CC00008618000086130BD001001400A0000206A
:100CD0000C0C0140F0B504460D4616461F462B4647
:100CE000324629462046FFF77DFF3B4622462946ED
:100CF0002046FFF777FF3B46324639462046FFF74E
:100D000071FF3B46324629463046FFF76BFFF0BD88
:100D10002DE9F04306460F46904600244546032041
:100D2000A0EB48093CE07A1B91B2321990B2FFF770
:100D3000B1FF3A1B91B2721990B2FFF7ABFF3A19AB
:100D400091B2721990B2FFF7A5FF7A1991B23219D8
:100D500090B2FFF79FFF7A1991B2321B90B2FFF762
:100D600099FF3A1991B2721B90B2FFF793FF7A1B69
:100D700091B2321B90B2FFF78DFF3A1B91B2721BFA
:100D800090B2FFF787FF641CB9F1000F03DAA000EF
:100D9000801D814404E0601B80000A3081446D1E88
:100DA000AC42C0DDBDE8F08370B504460D46164682
:100DB000D348808849F24131884205D0D0488088A4
:100DC00045F21031884240D1CD49488901F092F86E
:100DD0004FF48070CB490861400048612012CA4935
:100DE00008608020C74948610861800008614010A0
:100DF000086140004861E0B2C34908608020C149F1
:100E00004861086180000861BD49888901F072F875
:100E10004FF48070BB490861400048612812BA490C
:100E200008608020B749486108618000086140106F
:100E3000086140004861E8B2B34908608020B149C8
:100E400048610861800008613DE1AD48808845F255
:100E50001051884250D1AA49488901F04BF84FF40B
:100E60008070A8490861400048612012A6490860C6
:100E70008020A4494861086180000861A04949892F
:100E8000491C88B201F036F84FF480709D49086122
:100E900040004861E0B29C4908608020994948615F
:100EA0000861800008619649888901F023F84FF4B1
:100EB0008070944908614000486128129249086096
:100EC0008020904948610861800008618C498989C7
:100ED000491C88B201F00EF84FF48070894908610E
:100EE00040004861E8B2884908608020854948612F
:100EF000086180000861E6E08148808841F663115E
:100F000088427DD17E48807920B97D480088401E86
:100F1000001B84B27A49488900F0ECFF4FF48070DE
:100F200078490861400048612012774908608020B4
:100F30007449486108618000086140100861400000
:100F40004861E0B27049086080206E4948610861DC
:100F500080000861401008614000486120126A4921
:100F6000086080206749486108618000086140107E
:100F7000086140004861E0B263490860802061492F
:100F800048610861800008615D49888900F0B2FF0E
:100F90004FF480705B4908614000486128125A494B
:100FA000086080205749486108618000086140104E
:100FB000086140004861E8B2534908608020514907
:100FC0004861086180000861401008614000486184
:100FD00028124D49086080204A4948610861800014
:100FE00008614010086140004861E8B24649086065
:100FF00080204449486108618000086163E0FFE7A0
:101000003F48808846F60401884249D13C488079AF
:10101000012804D13A480088401E001B84B2384998
:10102000488900F067FF4FF480703649086140003E
:1010300048612012344908608020324948610861C3
:10104000800008614010086140004861E0B22E490C
:10105000086080202B4948610861800008612849A8
:10106000888900F047FF4FF48070264908614000EE
:10107000486128122449086080202249486108619B
:10108000800008614010086140004861E8B21E49D4
:10109000086080201B49486108618000086112E0F7
:1010A00017488079012804D115480088401E001B8C
:1010B00084B213494889214600F036FF10498889D7
:1010C000294600F031FF4FF480700E49486140001E
:1010D00048610B4800890C49086080200949486133
:1010E00008618000086140100861400048610648BE
:1010F00006608020486108618000086170BD0000C2
:1011000060020020001001400C0C01402DE9FC4F52
:1011100005460E4617469846DDF82C9000200190B3
:101120002C48808846F60401884229D129488079D4
:10113000012825D1AB46354626480088C01B401EF5
:1011400086B2474623480088A0EB0B00401E1FFADA
:1011500080F800201F4988712A2048812B2088812F
:1011600043463A4631462846CDF80090FFF7CEFF79
:101170000120184988712B2048812A20888127E086
:10118000781B401C80B2019034461FE0214628465F
:1011900000F062FB00F0C0FE4FF0000A11E04FF4D7
:1011A00080700D490861400048610C48C0F800900B
:1011B000802048610861800008610AF101001FFA7F
:1011C00080FA01988245EADB601C84B24445DDDD8B
:1011D000BDE8FC8F60020020001001400C0C0140B3
:1011E00010B50246012000E050430B1EA1F101049E
:1011F000E1B2F9D110BD00002DE9F04105460E46DF
:101200007C480088A84203DD7A484088B04202DC6E
:101210000020BDE8F0813146284600F01DFB7548EE
:10122000808849F24131884211D07248808846F660
:10123000040188420BD06F48808845F21031884203
:1012400005D06C48808841F66311884203D12E2076
:1012500000F050FE0DE06748808845F2105188424A
:1012600004D14FF4385000F045FE02E0222000F097
:1012700041FE4FF0883060490860091D08604FF654
:10128000FF705D490C31086088155C4908614000B9
:10129000486140204861022001F0C4F856480830F7
:1012A000006884B24020554908615248808841F660
:1012B0006311884210D14FF40070504908614FF01B
:1012C00033304D490860091D08604FF6FF704A49E8
:1012D0000C31086020469CE74020484948610220C4
:1012E00001F0A0F844480830006884B24020434927
:1012F00008614048808849F2413188420BD03D481E
:10130000808845F21031884205D03A48808845F2FD
:101310001051884213D1402038494861022001F021
:1013200081F83548083000681FFA80F840203349BA
:101330000861E7B24FF6FF7000EA07270DE02D487D
:10134000808846F60401884207D140202B49486135
:10135000086129480830006884B24FF400702749BA
:1013600008614FF0333024490860091D08604FF6CA
:10137000FF7021490C3108601E48808849F22531F0
:10138000884216D01B48808844F23551884210D0DC
:1013900018488088091F88420BD01648808848F674
:1013A0008911884205D0134880884BF20551884244
:1013B00001D120462DE70F48808849F2413188420B
:1013C0000BD00C48808845F21031884205D009487E
:1013D000808845F21051884207D1E012C002B9124C
:1013E00040EA411040EAE82013E72046FFF7C8FA38
:1013F0000FE7000060020020000C014000100140D7
:10140000F0B5054600240027FC48807901280BD15F
:10141000FA48808846F60401884205D0F74880885B
:1014200041F66311884208D1F4488079F0B9F34855
:10143000808841F66311884218D1082D15D2DFE863
:1014400005F00406080A0C0E101206250DE007250B
:101450000BE0042509E0052507E0012505E000254E
:1014600003E0032501E0022500BF00BFE3488088B8
:1014700049F24131884217D0E048808846F604019D
:10148000884211D0DD48808845F2103188420BD067
:10149000DA48808845F21051884205D0D7488088C4
:1014A00041F6631188427DD1082D1CD2DFE805F09A
:1014B0000406090C0F12151800BF14E044F0800454
:1014C00011E044F040040EE044F0C0040BE044F0AE
:1014D000200408E044F0600405E044F0A00402E0C9
:1014E00044F0E00400BF00BFC448808845F21051BA
:1014F000884202D14FF4585700E03627BF48808811
:1015000045F2103188420DD0BC48808845F2105118
:10151000884207D0B948808841F66311884201D0DB
:1015200044F00804B548808846F60401884201D199
:1015300044F002042146384600F0F6FCAF488088AB
:1015400041F6631188421DD004F0200068B1AB4819
:101550000088AA494988884214DAA8480688408841
:10156000A6490880084646800CE0A4480088A349A4
:101570004988884206DDA148068840889F4908803E
:10158000084646809D48808845F2105188427DD1AA
:101590009A49488900F0AEFC4FF480709849086180
:1015A000400000E030E1486100209649086080205A
:1015B0009349486108618000086190494989491C44
:1015C00088B200F097FC4FF480708D4908614000AC
:1015D000486100208B490860802089494861086182
:1015E0008000086185494989891C88B200F082FC25
:1015F0004FF4807082490861400048617F4800884C
:10160000401E00127F49086080207D4948610861C2
:101610008000086179494989C91C88B200F06AFCD8
:101620004FF4807076490861400048617348007843
:10163000401EC0B27349086080207149486108614A
:10164000800008616D49888900F054FC4FF4807077
:101650006B4908614000486100206A4908608020A9
:101660006749486108618000086164498989491CAB
:1016700088B200F03FFC4FF480706149086140007F
:10168000486100205F490860802000E035E05C4947
:10169000486108618000086158498989891C88B2BD
:1016A00000F028FC4FF48070554908614000486103
:1016B00052484088401E001252490860802050491C
:1016C00048610861800008614C498989C91C88B259
:1016D00000F010FC4FF480704949086140004861F7
:1016E00046488078401EC0B2464908608020444980
:1016F0004861086180000861ADE04049488900F018
:10170000F9FB4FF480703E490861400048610020B9
:101710003C49086080203A494861086180000861BE
:101720004010086140004861002036490860802070
:101730003349486108618000086140100861400039
:1017400048612E480088401E00122E490860802003
:101750002B49486108618000086140100861400021
:10176000486126480078401EC0B2264908608020A3
:10177000234948610861800008612049888900F098
:10178000B9FB4FF480701E49086140004861002099
:101790001C49086080201A4948610861800008617E
:1017A0004010086140004861002016490860802010
:1017B00013494861086180000861401008614000D9
:1017C00048610E484088401E00120E490860802083
:1017D0000B494861086180000861401008614000C1
:1017E000486106488078401EC0B2064908608020E3
:1017F000034948610861800008612CE06002002014
:10180000001001400C0C0140082D1CD2DFE805F04F
:1018100004070A0D0F12151844F0300413E044F0C9
:10182000100410E044F020040DE000BF0BE044F091
:10183000380408E044F0280405E044F0180402E00D
:1018400044F0080400BF00BF032744F4805421463D
:10185000384600F069FBF0BD30B504460D46EA4855
:10186000808849F24131884205D0E748808845F2B6
:101870001031884240D1E449488900F03BFB4FF4E5
:101880008070E2490861400048612012E049086028
:101890008020DE49486108618000086140100861CD
:1018A00040004861E0B2DA4908608020D7494861C9
:1018B000086180000861D449888900F01BFB4FF45F
:1018C0008070D2490861400048612812D049086000
:1018D0008020CE494861086180000861401008619D
:1018E00040004861E8B2CA4908608020C7494861A1
:1018F00008618000086186E1C348808846F60401DB
:10190000884249D1C0488079012804D1BE48008866
:10191000401E001B84B2BC49488900F0EBFA4FF42A
:101920008070BA490861400048612012B8490860D7
:101930008020B64948610861800008614010086154
:1019400040004861E0B2B24908608020AF49486178
:10195000086180000861AC49888900F0CBFA4FF437
:101960008070AA490861400048612812A8490860AF
:101970008020A64948610861800008614010086124
:1019800040004861E8B2A249086080209F49486150
:1019900008618000086136E19B48808841F6631148
:1019A00088427DD19848807900283FD196480088A8
:1019B000401E001B84B29449488900F09BFA4FF402
:1019C0008070924908614000486100209049086099
:1019D00080208E49486108618000086140100861DC
:1019E0004000486100208A4908608020874948619A
:1019F00008618000086140100861400048612012C1
:101A0000834908608020814948610861800008613D
:101A10004010086140004861E0B27D4908608020C4
:101A20007A49486108618000086141E07649488947
:101A300000F060FA4FF4807074490861400048611A
:101A40002012734908608020704948610861800055
:101A500008614010086140004861E0B26C490860CC
:101A600080206A494861086180000861401008616F
:101A70004000486164480088401E001264490860C4
:101A80008020624948610861800008614010086157
:101A9000400048615C480078401EC0B25C4900E0EC
:101AA00047E008608020594948610861800008616A
:101AB0005549888900F01EFA4FF480705349086137
:101AC0004000486128125249086080204F4948610F
:101AD0000861800008614010086140004861E8B278
:101AE0004B490860802049494861086180000861CD
:101AF000401008614000486143484088401E001281
:101B000043490860802041494861086180000861BC
:101B100040100861400048613B488078401EC0B2D8
:101B20003B490860802039494861086180000861AC
:101B300069E03548808845F21051884250D13249D9
:101B4000488900F0D7F94FF48070304908614000AF
:101B5000486120122E49086080202C4948610861A4
:101B60008000086128494989491C88B200F0C2F9FF
:101B70004FF480702549086140004861E0B2244973
:101B800008608020214948610861800008611E4981
:101B9000888900F0AFF94FF480701C49086140005B
:101BA000486128121A490860802018494861086174
:101BB0008000086114498989491C88B200F09AF9AB
:101BC0004FF480701149086140004861E8B2104943
:101BD000086080200D49486108618000086112E0BA
:101BE00009488079012804D107480088401E001B5D
:101BF00084B205494889214600F096F9024988894E
:101C0000294600F091F930BD60020020001001402B
:101C10000C0C01402DE9F84F80460E4617461C4635
:101C2000B3462046E31704EB5373DB1021464FEA1B
:101C3000E47C04EB5C7C4FEAEC0CA4EBCC0CBCF138
:101C4000000F02D04FF0010C01E04FF0000C634494
:101C5000224604EBD27C4FEA6C0C03FB0CF3DBB2A4
:101C60000093A7F12000C7B2002556E00C2C07D145
:101C700007EB47002B4901EB800010F8059013E0BB
:101C8000102C05D1284800EB071010F805900BE048
:101C9000182C07D107EBC700244901EB800010F88E
:101CA000059001E0BDE8F88F4FF0000A2FE009F041
:101CB000800030B11E48028831464046FFF774F874
:101CC00007E00A9828B91B48028831464046FFF7CA
:101CD0006BF84FEA49604FEA1069701C86B21648EB
:101CE0004088B04200DCDDE7A6EB0B00A0420AD141
:101CF0005E4608F101001FFA80F80F480088404551
:101D000000DCCFE706E00AF1010000F0FF0ABAF1BB
:101D1000080FCCDB00BF681CC5B200988542A5DB6C
:101D200000BFBFE74A3B0008BE3F0008AE450008C1
:101D30000A0000200C000020600200202DE9FF4F67
:101D400081B0074691461E460E9D4FF0000A0024C2
:101D500039E0301B401EC1B20A20FFF741FAB9FB3F
:101D6000F0F00A21B0FBF1F201FB1208BAF1000F0A
:101D700016D1701EA04213DDB8F1000F0ED1002065
:101D8000AB4605EBDB71491001FB0471009088B292
:101D90002B4620220299FFF73DFF12E04FF0010A87
:101DA0000020AB4605EBDB71491001FB047100908C
:101DB00088B208F13001CAB22B460299FFF72AFF18
:101DC00000BF601CC4B2B442C3DB05B0BDE8F08FF5
:101DD0002DE9F84704460D4690469946DDE9096726
:101DE00004F0FF0A08EB04001FFA80F809EB050075
:101DF0001FFA80F916E0444502DB5446A81985B263
:101E00004D4500DB14E0002000903A783346294627
:101E10002046FFF7FFFE304606EBD07104EB610170
:101E20008CB27F1C38787E2802DC38782028E2DAF1
:101E300000BFBDE8F8872DE9FF4F82B00646924605
:101E40001F46DDE90F480020019000254DE0781B7A
:101E5000401EC1B20A20FFF7C3F9BAFBF0F00A2115
:101E6000B0FBF1F201FB1209019850BB781EA842A9
:101E700027DDB9F1000F22D108F0800078B108F019
:101E80000100A34604EBDB71491001FB05610090E2
:101E900088B2234630220399FFF7BCFE0EE008F01B
:101EA0000100A34604EBDB71491001FB05610090C2
:101EB00088B2234620220399FFF7ACFE13E00120ED
:101EC000019008F00100A34604EBDB71491001FB0F
:101ED0000561009088B209F13001CAB22346039926
:101EE000FFF798FE00BF681CC5B2BD42AFDB06B06D
:101EF000BDE8F08F4FF48071054A5161490051618E
:101F000004490860802151611161890011617047A5
:101F1000001001400C0C014000B502490889FFF790
:101F2000E9FF00BD6002002010B504460B462046C4
:101F3000FFF7E0FF4FF480700549086140004861F9
:101F4000044803608020486108618000086110BD7A
:101F5000001001400C0C01401848806940F004005A
:101F6000164988610846806940F02000886114485D
:101F7000006820F00F00124908600846006840F031
:101F8000030008600E480830006840F480700C4977
:101F9000083108600B48006820F470600949086047
:101FA0000846006840F44070086006480C3000683D
:101FB00040F0040003490C310860704700100240F3
:101FC000040801400014014000B5002015490861D3
:101FD000C8601420486100208861C8610846006814
:101FE00040F001000860084640680F4908400D496C
:101FF0004860084600680D4908400A4908600846DC
:10200000006820F4802008600846406820F4FE0044
:1020100048600020886000214FF0006000F058F810
:1020200000BD0000001002400000FFF8FFFFF6FEB8
:102030002DE9F0410746884614461D46284600F023
:1020400033F8C5F1040007FA00F60F20284100EA32
:102050000800064306F00F06E21704EBD2625211A5
:10206000920002F1E022D2F800212146E31704EBAE
:10207000D3635B11A4EB431C012303FA0CF31A4353
:102080002046E31704EBD3635B119B0003F1E023CD
:10209000C3F800210348005D40EA061001490855D5
:1020A000BDE8F08100E400E00146072323EA0102D5
:1020B0001202054B18684FF6FF031840034B1843F4
:1020C0001043014B186070470CED00E00000FA056A
:1020D000024A0A400243024B1A60704780FFFF1F0A
:1020E00008ED00E030B504460025FFF76DFF1F48FE
:1020F000006840F480301D49086000BF1B4800683C
:10210000400C0028FAD04FF4806018494860A01EA7
:10211000C4B20846406840EA8440486008464068C7
:1021200040F4803048601248006840F032001049A6
:1021300008600E48006840F080700C49086000BFDD
:102140000A480068400E0028FAD00848406840F06D
:1021500002000649486005E004484068C0F387056E
:1021600005F00305022DF7D130BD0000001002403C
:10217000002002400948008800F0010038B10848FA
:10218000006808B9012000E0002005490860034804
:10219000008820F0010001490880704710040040C9
:1021A0008881224210B50C48008800F0010058B127
:1021B0000A490869804700200749143108804FF414
:1021C0007A7005491C3108800348008820F001001E
:1021D0000149088010BD0000100800408800002060
:1021E00070B505460C461048C06940F004000E4921
:1021F000C8610E480580001F04800C482038008804
:1022000040F0010009492039088008482C3800882E
:1022100040F0010005492C39088002231E220321C9
:102220000846FFF705FF70BD001002402C08004073
:102230001D49098801F0200111B31B49091D0988B6
:10224000C8B21A49098801F40041C9B91749098877
:1022500001F4804161B10A2803D00021134A1180A2
:1022600021E01249098841F40041104A11801AE026
:102270000D2806D10D49098841F480410B4A11808F
:1022800011E00A4A1288C2F30D01094A5054074A64
:102290001288521C054B1A801A461288C72A01DD83
:1022A00000221A8000BF704700380140080000205B
:1022B0009801002000B50848007800F013F80020CD
:1022C000064908600648006808B9012000E00020BF
:1022D0000349086000BD00000E000020082C0040EB
:1022E0008881224200F07F01014A1160704700009E
:1022F000002C004030380A2801D20120704700200D
:102300007047014600BF704710B50920FFF7EAFE8D
:10231000064800F00DF84FF41651044800F08CF810
:10232000FFF71AFEFEF770FA10BD000000A24A0483
:102330004FF0E021096921F004014FF0E022116122
:102340000849B0FBF1F1084A11701146097801EB18
:102350004102C2EBC1114FF6FF7202EAC101034A0A
:102360001180704700127A00000000200200002057
:1023700001460D4A12884A434FF0E0235A61002279
:102380009A6101221A6100BF4FF0E022106900F04B
:1023900001021AB100F48032002AF5D000224FF079
:1023A000E0231A619A6170470200002001460D4A3D
:1023B00012784A434FF0E0235A6100229A610122C9
:1023C0001A6100BF4FF0E022106900F001021AB15B
:1023D00000F48032002AF5D000224FF0E0231A6189
:1023E0009A6170470000002000BF054A128802F081
:1023F0004002002AF9D0C2B2014B1B1D1A8070475F
:1024000000380140FFF780FF02A0FDF72DFF00BF5D
:10241000FEE70000696E7469616C697A65642E0D6F
:102420000A00000000BF011EA0F10102D0B2FAD1E3
:1024300070470146086870472DE9F05F07460D4672
:10244000280101F023FA8146384601F01FFA82463E
:10245000494601F039F90646304601F0F7F984B2F1
:10246000204601F013FA8346314601F0EFFA824626
:102470004FF0834101F01EFA814601F0E7F91FFA9F
:1024800080F84FF6FF7000EA041404EB080084B2F1
:102490001B48806940F0040019498861084680693A
:1024A00040F4804088611748006820F47F60154937
:1024B00008600846006840F40B6008601048C06877
:1024C00040F480400E49C8600846C06820F480404F
:1024D000C8600D480480001D008842F20C010843CA
:1024E0000949091D08800846008840F0200008803E
:1024F0000223252203210846FFF79AFDBDE8F09F3D
:1025000000100240040801400838014030B595B081
:10251000054613AB12AA09A9284600F03BFA044667
:1025200014B1204615B030BD0020149026E0224999
:1025300009689DF8502001EBC20113AB11AA48684D
:1025400001A900F027FA04460CB12046EAE709A9E0
:1025500001A800F0BBFC60B99DF844009DF848104C
:10256000884201DD0220DDE79DF8500012498875A0
:102570000AE09DF85000401CC0B214900E48007D47
:102580009DF850108842D2DC00BF0B48007D9DF8BA
:102590005010884201D10420C4E714A9284600F055
:1025A000D9FA04460CB12046BCE79DF85000024918
:1025B00048750020B6E70000880000202DE9F041B2
:1025C0009AB000269C48847D007DA04202DC1AB0AF
:1025D000BDE8F0819849096801EBC40106AB07AA80
:1025E000486808A900F0D6F908A994A0FDF73CFEB8
:1025F000002544E09048008B0121A9400840D8B153
:10260000222190A0FDF730FE284600F029FB8A49E0
:102610002431471839468CA0FDF726FE222189A0D7
:10262000FDF722FE284600F01BFB834924310844B5
:1026300010A941F8250018E0284600F011FB7E495A
:102640002431085810A941F825007B48C07D30B9D5
:1026500010A850F825107DA0FDF706FE05E010A893
:1026600050F825107AA0FDF7FFFD9DF81C00401ED4
:10267000A84202D078A0FDF7F7FD681CC5B29DF80E
:102680001C008542B6DB75A0FDF7EEFD00F038FBBF
:102690006948407D0B280DD2DFE800F0060D151EBD
:1026A00027323F4E5F7287006349096851F8340052
:1026B0008047064690E0604A126852F8341010983D
:1026C0008847064688E05C4B1B6853F83420DDE9F8
:1026D0001001904706467FE0574F3F6857F8343067
:1026E00010A807C89847064676E0DFF84CC1DCF82A
:1026F00000C05CF8347010A80FC8B84706466BE0FD
:102700001498DFF834C10090DCF800C05CF8347035
:1027100010A80FC8B84706465EE0DDE91401DFF8EF
:1027200018C1CDE90001DCF800C05CF8347010A8D5
:102730000FC8B84706464FE0DDE914121698DFF8D7
:10274000F8C0CDE900120290DCF800C05CF83470EB
:1027500010A80FC8B84706463EE0DDE91423DDE9BE
:102760001610DFF8D4C0CDE90023CDE90210DCF863
:1027700000C05CF8347010A80FC8B84706462BE0BC
:10278000DDE9163218991598CDE9023204910190CD
:102790001498DFF8A4C00090DCF800C05CF8347036
:1027A00010A80FC8B847064616E0DDE91623DDE994
:1027B0001810CDE90223CDE90410DDE91401DFF89A
:1027C00078C0CDE90001DCF800C05CF8347010A8D6
:1027D0000FC8B847064600BF00BF00F051FA9DF889
:1027E000180001280CD11448C07D20B931461CA026
:1027F000FDF73AFD07E031461BA0FDF735FD02E08D
:1028000018A0FDF731FD0C4890F8EC0088B10A489B
:10281000D0F8F0000A21B0FBF1F201FB12070648E4
:10282000D0F8F000B0FBF1F83A46414611A0FDF7B0
:102830001BFD00BFCBE60000880000200D0A2573B9
:10284000280000002563000025730000256C75003A
:1028500030582558000000002C000000290000001E
:102860003D256C753B0D0A003D305825583B0D0A3F
:102870000000000046756E6374696F6E2052756EBD
:102880002054696D653A25642E2531646D730D0AF7
:1028900000000000F0B50346154600200022002687
:1028A000002455E01F782C2F01D104B901221F7894
:1028B000292F01D01F780FB904B94AE0002E34D176
:1028C0001F78302F02DB1F78392F11DD1F78612F21
:1028D00002DB1F78662F0BDD1F78412F02DB1F788C
:1028E000462F05DD1F78582F02D01F78782F0CD186
:1028F00002B12EE01F78612F03DB1F78203F0F709D
:1029000001E01F780F70491C1FE01F78222F04D1AF
:1029100002B11EE00126012417E01F78202F14D0F9
:102920001F782C2F11D0FF2613E01F78222F00D103
:10293000002402B10DE044B11F785C2F02D15B1C72
:10294000471CF8B21F780F70491C471CF8B25B1C7B
:10295000A8E700BF00270F702E70F0BD10B5044629
:10296000002010700BE020780870641C491C10785F
:10297000401C10701078984201DB012010BD2078B7
:10298000202802D020780028EDD10020087000BF58
:10299000F4E700002DE9FF4F85B080468946002707
:1029A000002004900390012002904FF0000B0025BE
:1029B00044461DE02078202816D005F07F00052829
:1029C00012DA0DB945F0800505F07F00042803D127
:1029D00020782A2800D00EE0207805F07F010DF83D
:1029E0000100681CC5B202E0852D00D103E0641C23
:1029F00020780028DED100BF8DB1002005F07F01D6
:102A00000DF8010051A1684600F060FA18B90021E4
:102A10000898017002E001210898017000254FF02C
:102A2000000A444614E0641C0AF1010000F0FF0AA9
:102A30002078202802D020782A2809D1204600F0CA
:102A4000D5F90646282E03D02A2E01D0CDF810A0A5
:102A50002078282802D020780028E4D14446049821
:102A600010B10498401C04444FF0000A002654E0C2
:102A7000207810B94FF0010A50E02078282803D1BF
:102A800016B9781CC7B213E02078292808D13EB9BE
:102A900017B1781EC7B201E04FF0010A47B93DE017
:102AA0002078222804D10EB9012000E0002006463B
:102AB00047B9207820282FD0207889F8000009F124
:102AC000010929E020782C2804D101200290681CFB
:102AD000C5B214E02078202811D0207828280ED004
:102AE0004DB9BBF1050F06DA20780DF80B000BF19C
:102AF000010000F0FF0B0298401CC0B20290012FB1
:102B00000AD10298022807D10298401CC0B2029054
:102B10000398401CC0B20390641CA9E700BF03984F
:102B2000012809D100200DF80B0008A1684600F02B
:102B3000CDF908B900200390079903980870002088
:102B400089F80000504609B0BDE8F08F766F6964DF
:102B5000000000002DE9F043B5B005460F46002403
:102B6000002604E000213D488155701CC6B20A2EA3
:102B7000F8DB06E06D1C287818B9012035B0BDE8F7
:102B8000F08328782828F5D16D1C61E034AA6946C5
:102B90002846FFF77FFE064635449DF8D00020B159
:102BA000012827D0FF284CD149E09DF8000000B350
:102BB00033A9684600F025F906460EB10220DDE78C
:102BC000204600F04DF825490A31339A0A50A1F108
:102BD0002400008B0121A140884320491A39088331
:102BE00004211E480155601CC4B20A2C01DD0320DB
:102BF000C4E726E0684600F085F9401C00F0FF08B5
:102C0000204600F02DF815490A3100EB010949462C
:102C1000684600F06CF911481A38018B0120A04079
:102C2000014388B20D491A3908830C4800F8048022
:102C3000601CC4B20A2C01DD03209FE701E00220E2
:102C40009CE700BF2878292801D0287800B900E047
:102C50009CE700BF3C70002090E70000A20000202D
:102C600002460020002105E0044B5B5C0344D8B21F
:102C70004B1CD9B29142F7DB70470000A200002044
:102C80000D48008800F0010040B10C48D0F8F00079
:102C90004FF6FF7108440949C1F8F0000748D0F821
:102CA000F00005491431098808440449C1F8F000CE
:102CB0000846D0F8F0007047100800408800002057
:102CC00010B5044604EBC40000EB04100122C2EB73
:102CD000800081B24FF47A70FFF782FA0120014937
:102CE000C87510BD8800002010B50246012000E024
:102CF00050430B1EA1F10104E1B2F9D110BD000057
:102D00000948008820F00100074908804FF6FF704D
:102D100005491C310880002003491431088003490B
:102D2000C1F8F00070470000100800408800002043
:102D300070B51D48008800F40040002833D01A48C0
:102D4000057800201949485519488168174888476F
:102D500004461CB91649C868804721E0134800F0B2
:102D6000DDF80546012D00D02C46CCB1012C06D053
:102D7000022C08D0032C0AD0042C10D10BE00DA09B
:102D8000FDF772FA0BE00EA0FDF76EFA07E00FA058
:102D9000FDF76AFA03E010A0FDF766FA00BF00BF76
:102DA00000200149088070BD080000209801002023
:102DB00088000020BAAFCAFDB4EDCEF3210D0A00A1
:102DC000B2CECAFDB4EDCEF3210D0A00B2CECAFDDB
:102DD000CCABB6E0210D0A00CEB4D5D2B5BDC6A5A8
:102DE000C5E4B5C4BAAFCAFD210D0A000146491CAD
:102DF00000E0491C0878202801D10029F9D1087881
:102E000070472DE9F04307460E4600254FF00A08AB
:102E10003C46002030601FE02078392802DC207812
:102E200030280ADA2078462802DC2078412804DAA3
:102E30002078582809D1012D07D12078412801DBBD
:102E40004FF01008681CC5B205E0207800B904E016
:102E50000120BDE8F083641CDEE700BF3C46B8F10A
:102E6000100F0FD1032D01DA0220F2E7207830286D
:102E700006D16078582803D1A41CA81EC5B204E06E
:102E80000320E6E70DB90420E3E71BE00DB1681E5F
:102E9000C5B22078392806DC2078302803DB20787A
:102EA000A0F1300902E02078A0F137092946404618
:102EB000FFF71AFF316809FB00103060641C2078AE
:102EC00000B900E0E2E700BF0020C2E702460AE0E6
:102ED00010780B78984201D001207047107800B923
:102EE00002E0521C491CF3E700BF0020F5E706E0B2
:102EF00002780A70027802B902E0401C491CF7E728
:102F000000BF70470146002005E00A7802B903E0DF
:102F1000421CD0B2491CF8E700BF704710B58CB016
:102F200004461E230BAA03A92046FFF717FD0090B5
:102F3000009810B101200CB010BD9DF82C00044485
:102F400000200B900EE040489DF82C2050F82210F5
:102F500003A8FFF7BBFF00B908E09DF82C00401C58
:102F6000C0B20B909DF82C000728ECD300BF9DF851
:102F70002C00072863D2DFE800F004053C5E65649E
:102F8000630000BF31A0FDF76FF931A0FDF76CF9C8
:102F90003FA0FDF769F94EA0FDF766F95CA0FDF7CB
:102FA00063F96BA0FDF760F979A0FDF75DF986A0E4
:102FB000FDF75AF98BA0FDF757F990A0FDF754F9EA
:102FC00094A0FDF751F999A0FDF74EF99EA0FDF7E9
:102FD0004BF9A4A0FDF748F9B0A0FDF745F9BDA055
:102FE000FDF742F9C8A0FDF73FF9D4A0FDF73CF981
:102FF0009AE216A0FDF738F9E0A0FDF735F90020B8
:103000000B900EE0ED4800689DF82C2000EBC2000C
:103010004168EBA0FDF728F99DF82C00401CC0B2D8
:103020000B90E648007D9DF82C108842EADC07A052
:10303000FDF71AF978E205A0FDF716F9C4E171E28F
:1030400045E219E2ECE100007C0100200D0A0000DD
:103050002D2D2D2D2D2D2D2D2D2D2D2D2D2D2D2DA0
:103060002D2D2D2D2D2D2D2D55534D4152542056A6
:10307000332E312D2D2D2D2D2D2D2D2D2D2D2D2D75
:103080002D2D2D2D2D2D2D2D2D2D2D200D0A00001A
:103090002020202055534D415254CAC7D3C9414C1A
:1030A00049454E54454BBFAAB7A2B5C4D2BBB8F6EA
:1030B000C1E9C7C9B5C4B4AEBFDAB5F7CAD4BBA5B8
:1030C000BDBBD7E9BCFE2CCDA8B9FD200D0A000080
:1030D000CBFC2CC4E3BFC9D2D4CDA8B9FDB4AEBFDC
:1030E000DAD6FACAD6B5F7D3C3B3CCD0F2C0EFC3A1
:1030F000E6B5C4C8CEBACEBAAFCAFD2CB2A2D6B419
:10310000D0D02ED2F2B4CB2CC4E3BFC90D0A00003C
:10311000D2D4CBE6D2E2B8FCB8C4BAAFCAFDB5C4CB
:10312000CAE4C8EBB2CECAFD28D6A7B3D6CAFDD72B
:10313000D62831302F3136BDF8D6C629A1A2D7D630
:10314000B7FBB4AEA1A2BAAFCAFDC8EB0D0A00002E
:10315000BFDAB5D8D6B7B5C8D7F7CEAAB2CECAFDB2
:10316000292CB5A5B8F6BAAFCAFDD7EEB6E0D6A7FA
:10317000B3D63130B8F6CAE4C8EBB2CECAFD2CB231
:10318000A2D6A7B3D6BAAFCAFDB7B5200D0A0000C4
:10319000BBD8D6B5CFD4CABE2ED0C2D4F6B2CECA12
:1031A000FDCFD4CABEBDF8D6C6C9E8D6C3B9A6C439
:1031B000DC2CD0C2D4F6BDF8D6C6D7AABBBBB9A604
:1031C000C4DC2E0D0A000000BCBCCAF5D6A7B3D6DD
:1031D0003A7777772E6F70656E6564762E636F6DC4
:1031E0000D0A000055534D415254D3D037B8F6CF95
:1031F000B5CDB3C3FCC1EE3A0D0A00003F3A202022
:1032000020202020BBF1C8A1B0EFD6FAD0C5CFA2B4
:103210000D0A000068656C703A202020BBF1C8A13F
:10322000B0EFD6FAD0C5CFA20D0A00006C69737456
:103230003A202020BFC9D3C3B5C4BAAFCAFDC1D09C
:10324000B1ED0D0A0A00000069643A202020202018
:10325000BFC9D3C3BAAFCAFDB5C44944C1D0B1EDEB
:103260000D0A0A006865783A20202020B2CECAFDF7
:103270003136BDF8D6C6CFD4CABE2CBAF3B8FABF21
:10328000D5B8F12BCAFDD7D6BCB4D6B4D0D0BDF8D2
:10329000D6C6D7AABBBB0D0A0A0000006465633A14
:1032A00020202020B2CECAFD3130BDF8D6C6CFD402
:1032B000CABE2CBAF3B8FABFD5B8F12BCAFDD7D61F
:1032C000BCB4D6B4D0D0BDF8D6C6D7AABBBB0D0A05
:1032D0000A00000072756E74696D653A312CBFAAE0
:1032E000C6F4BAAFCAFDD4CBD0D0BCC6CAB13B304D
:1032F0002CB9D8B1D5BAAFCAFDD4CBD0D0BCC6CAD0
:10330000B13B0D0A0A000000C7EBB0B4D5D5B3CC71
:10331000D0F2B1E0D0B4B8F1CABDCAE4C8EBBAAFDC
:10332000CAFDC3FBBCB0B2CECAFDB2A2D2D4BBD8D8
:10333000B3B5BCFCBDE1CAF82E0D0A002D2D2D2D14
:103340002D2D2D2D2D2D2D2D2D2D2D2D2D2D2D2DAD
:103350002D2D2D2D2D2D414C49454E54454B2D2DB8
:103360002D2D2D2D2D2D2D2D2D2D2D2D2D2D2D2D8D
:103370002D2D2D2D2D2D2D200D0A00002D2D2D2D27
:103380002D2D2D2D2D2D2D2D2D2D2D2D2D2D2D2D6D
:103390002D2D2D2D2DBAAFCAFDC7E5B5A52D2D2D8F
:1033A0002D2D2D2D2D2D2D2D2D2D2D2D2D2D2D2D4D
:1033B0002D2D2D2D2D2D2D2D200D0A0088000020C6
:1033C00025730D0A0000000059A0FCF74DFF0020F6
:1033D0000B901AE0664909689DF82C2001EBC201A8
:1033E00001AB02AA486803A9FFF7D4FA6048006855
:1033F0009DF82C1050F8312003A95EA0FCF734FF93
:103400009DF82C00401CC0B20B905948007D9DF8DF
:103410002C108842DEDCAFF2CC30FCF725FF83E0D5
:10342000AFF2D830FCF720FF0BAA03A92046FFF724
:1034300031FA9DF82C00C8B9694603A8FFF7E1FCF2
:103440000B909DF82C0020B94FA00099FCF70CFFC1
:103450000EE09DF82C00042801D002206BE54DA061
:10346000FCF702FF01204249C87501E0022062E535
:1034700047A0FCF7F9FE57E045A0FCF7F5FE0BAAC4
:1034800003A92046FFF706FA9DF82C00C8B9694643
:1034900003A8FFF7B6FC0B909DF82C0020B942A0C2
:1034A0000099FCF7E1FE0EE09DF82C00042801D005
:1034B000022040E53FA0FCF7D7FE00202C49C8754C
:1034C00001E0022037E532A0FCF7CEFE2CE030A070
:1034D000FCF7CAFE0BAA03A92046FFF7DBF99DF80B
:1034E0002C00C8B9694603A8FFF78BFC0B909DF828
:1034F0002C0078B91E49009881F8EC00084690F835
:10350000EC0018B130A0FCF7AFFE07E035A0FCF7E7
:10351000ABFE03E002200EE502200CE51CA0FCF748
:10352000A3FE01E0012006E500BF002003E5000046
:103530002D2D2D2D2D2D2D2D2D2D2D2D2D2D2D2DBB
:103540002D2D2D2D2D2D2D2D2DBAAFCAFD20494409
:10355000202D2D2D2D2D2D2D2D2D2D2D2D2D2D2DA8
:103560002D2D2D2D2D2D2D2D2D2D2D2D200D0A0008
:103570008800002025732069642069733A0D0A30A1
:1035800058253038580D0A004845583A30582558C3
:103590000D0A00003136BDF8D6C6B2CECAFDCFD472
:1035A000CABE210D0A0000004445433A256C750D42
:1035B0000A0000003130BDF8D6C6B2CECAFDCFD465
:1035C000CABE210D0A00000052756E2054696D6557
:1035D0002043616C63756C6174696F6E204F4E0D92
:1035E0000A00000052756E2054696D652043616CBD
:1035F00063756C6174696F6E204F46460D0A00005A
:103600000160704790EA010F48BF81F0004100F16E
:103610002E82421A3CBF801A89184FEAD0524FF0CE
:103620007F4C1CEA410FA2EBD15318BF9CEA026FFA
:1036300000F03B804FF0004C4CEA00204CEA0121A6
:1036400021FA03FC10EB0C0C1ED202F1FF325FEAF0
:103650001C2040EBC25038BF70471CF07F0F4FEA70
:10366000400C18BFBCF17F4F38BF7047C3F1200337
:10367000994008BF20F00100BCF17F4F38BF704770
:10368000A0F1C04000F0DDB94FEA3C00000A40EB79
:10369000C25028BF1CF0FF0F4FEA400CE6D018BF05
:1036A000BCF17F4F38BF7047EAE79CEA026F05D054
:1036B00010EA5C0F08BF00F00040704710B500F042
:1036C0007AF900BF64FBBE3E4FF47F0C1CEAD012B7
:1036D0001EBF1CEAD11392EA0C0F93EA0C0F00F004
:1036E000858090EA010F48BF42F4807240F4000CDC
:1036F00041F400002CF07F4120F07F4000B5814272
:10370000A2EB03020FF2081CACEB504EC0F100001C
:103710009EF800E04FEA4E0E00FB0EFC38BF490059
:103720004FEA2C1C02F5FA020CFB0EF34FEACE1EF8
:103730004FEA112C4FEAC1210EEB635E42EB2242AD
:103740000EFB0CFC4FEA1C5300FB03114FEA112C3B
:103750004FEA01310EFB0CFC4FEADC4C00FB0C1174
:10376000C14228BF09184CEB03335DF804EB10EBA2
:10377000410143EBC250B2F57C0F38BF704729D5E9
:1037800012F0F00F1CBF00F1C04000F00040704785
:10379000008182838485868788898B8C8D8E8F912A
:1037A0009293959697999A9C9D9FA0A2A3A5A7A84E
:1037B000AAACAEB0B2B3B5B7B9BCBEC0C2C5C7C97A
:1037C000CCCED1D4D7D9DCDFE2E6E9ECF0F3F7FADE
:1037D000FE0000004FEA400C0CF1807CBCF17E4FF3
:1037E00028BF7047B0F1C04000F02BB990EA010F3C
:1037F0000CEAD11348BF42F48072624538BF63457A
:1038000007D213F47F0F16D080EA010000F00040C9
:10381000704710B500F0CFF8097EFC3E00F005B807
:1038200080EA010000F00040704780EA010000F0EB
:10383000004000F006B912F47F0F04BF0248704741
:1038400080EA010000F0FDB80000C07FC10DD1F199
:103850009E0206DB4FEA002343F0004323FA02F006
:103860007047004207D54FEA4001B1F1FE4F02D246
:103870004FF00000704710B500F09DF84992248089
:10388000002070476FEA200070470000B0FA80F314
:1038900010FA03F2C3F19D030AD0D90501EB1220FF
:1038A000530638BF704700F1010008BF20F0010047
:1038B000704700004FF47F0C1CEAD0121EBF1CEAB8
:1038C000D11392EA0C0F93EA0C0F00F0478090EAB4
:1038D000010F48BF42F480724FF0004C4CEA0020C8
:1038E0004CEA012102EB0302A0FB0113A2F5000246
:1038F000002918BF43F001035B0028BF4FEA3303E0
:1039000042EB22425FEA132C4CEBC2502EBFBCEBC1
:10391000436FB2F57C0F70474FEA036CBCF1004F68
:1039200008BF20F00100B2F57C0F38BF70470BD5FF
:1039300082F0FF0212F5803FC8BF704700F1C0401F
:10394000D8BF00F00040704700F5000C5FEA4C0C57
:1039500048BF7047B0F1C04000F073B890EA010F63
:103960000CEAD11348BF42F48072624538BF634508
:1039700004D280EA010000F00040704710B500F06A
:103980001AF800BF8900013E00F007B800F009B83E
:103990005FEA410C5FEA1C6C08D080EA010000F08D
:1039A00050B85FEA400C5FEA1C6CF6D14FF0004063
:1039B000A0F5800070470EF1020E2EF0030E5EF8A7
:1039C000044B244204D44FEA4102B2F17F4F11D894
:1039D0004FEA4003B3F17F4F0CD80ED14FEAD07CB1
:1039E000B2F17F4F0CEB4C0C0CF1020C08BF4CEB0E
:1039F000D17C04E04FF0080C01E04FEAD17C0CEBE5
:103A00004C0324FA03F404F00704B4F1040C06D2C6
:103A10000EEB840CBDE810404CF0010C6047DFE871
:103A20000CF0070802024FF00040A0F5800010BD26
:103A30000846420018BFD2F1807288BF00F00040F3
:103A400010BDFF2141EAD050C005704780F0004012
:103A500090EA010F7FF5DDAD81F0004100F007B87D
:103A600090EA010F48BF81F000413FF5D2AD421A04
:103A700004D882F00042A0EB020011444FEAD05279
:103A80004FF07F4C1CEA410FA2EBD15318BF9CEAC8
:103A9000026F4AD04FF0004C4CEA00204CEA012162
:103AA00021FA03FCB0EB0C0C0FD412F0FE0F36D051
:103AB0005FEA4C001DD5001240EBC25038BF704782
:103AC0001CF03F0F18BF70470BE0A2F101025FEA44
:103AD0001C2040EBC25038BF70471CF07F0F18BF4E
:103AE0007047C3F12003994014BF401E20F001002D
:103AF000704780084FEA122308BF7047B0FA80FC75
:103B0000A2EB0C02CCF1280C60FA0CF093EA122F15
:103B100004BF00EBC25070474FEAC3707047130AEE
:103B20005FEADC1008BF7047F6E79CEA026F04D03A
:103B300010EA5C0F08BF0020704710B5FFF73BFF8D
:103B400040DFF63E81F000407047000000000000BA
:103B5000000000000000000000003F4000000000E6
:103B6000000000003000400030004000000009006C
:103B70000BC03D000BC03D00090018C024407FE091
:103B8000224031800000180024C01B000D8032400C
:103B9000018003801C4027401C800740004010002B
:103BA00060000000000000000000000000000000B5
:103BB0001F80204040200000402020401F80000047
:103BC0000000090006001F80060009000000040034
:103BD00004003F80040004000000001000600000AA
:103BE00000000000000004000400040004000400C1
:103BF0000000000000400000000000000000002065
:103C000001C006003800400000001F802040204016
:103C100020401F800000000010403FC00040000016
:103C2000000018C0214022402440184000001080AD
:103C30002040244024401B80000002000D001100A1
:103C40003FC0014000003C802440244024402380A9
:103C500000001F80244024403440038000003000D6
:103C6000200027C03800200000001B802440244092
:103C700024401B8000001C0022C0224022401F80E4
:103C800000000000000008400000000000000000EC
:103C900000000460000000000000000004000A00B2
:103CA00011002080404009000900090009000900B6
:103CB000000000004040208011000A0004001800AD
:103CC000200023402400180000001F8020402740CF
:103CD00029401F400000004007C039000F0001C00C
:103CE000004020403FC0244024401B8000001F8033
:103CF0002040204020403080000020403FC0204035
:103D000020401F80000020403FC024402E4030C093
:103D1000000020403FC024402E00300000000F0073
:103D20001080204022403380020020403FC0040029
:103D300004003FC02040204020403FC020402040A1
:103D400000000060202020203FC0200020002040F4
:103D50003FC024400B0030C0204020403FC02040E6
:103D60000040004000C03FC03C0003C03C003FC0DA
:103D7000000020403FC00C4023003FC020001F80B7
:103D80002040204020401F80000020403FC02440B1
:103D90002400180000001F802140214020E01FA0C7
:103DA000000020403FC02440260019C0004018C039
:103DB00024402440224031800000300020403FC099
:103DC00020403000000020003F80004000403F8045
:103DD000200020003E0001C007003800200038000D
:103DE00007C03C0007C038000000204039C0060072
:103DF00039C0204000002000384007C03840200073
:103E00000000304021C02640384020C000000000A3
:103E100000007FE0402040200000000070000C0007
:103E20000380004000000000402040207FE00000B0
:103E300000000000200040002000000000000010F2
:103E400000100010001000100010000000004000E2
:103E5000000000000000000002800540054003C093
:103E6000004020003FC004400440038000000000E8
:103E7000038004400440064000000000038004402A
:103E800024403FC00040000003800540054003403F
:103E90000000000004401FC0244024402000000017
:103EA00002E0055005500650042020403FC0044069
:103EB000040003C000400000044027C00040000090
:103EC000000000100010041027E000000000204057
:103ED0003FC00140070004C00440204020403FC0D4
:103EE00000400040000007C0040007C0040003C0F9
:103EF0000000044007C00440040003C0004000006C
:103F000003800440044003800000041007F00450C4
:103F1000044003800000000003800440045007F0C8
:103F20000010044007C0024004000400000000002C
:103F300006400540054004C00000000004001F804A
:103F4000044000400000040007800040044007C017
:103F500000400400070004C00180060004000600C1
:103F600001C0070001C006000000044006C00100B7
:103F700006C0044000000410071004E001800600A1
:103F800004000000044005C006400440000000009A
:103F9000000004007BE04020000000000000000062
:103FA000FFF000000000000040207BE00400000063
:103FB0000000400080004000200020004000000081
:103FC00000000000000000000000000000000000F1
:103FD000000000001FCC000C0000000000000000EA
:103FE000080030006000080030006000000002207F
:103FF00003FC1E20022003FC1E2002200000000003
:104000000E1811043FFF10840C78000000000F0010
:1040100010840F3800C007781884007800000078FA
:104020000F8410C411240E9800E4008400080800D6
:1040300068007000000000000000000000000000A8
:104040000000000007E018182004400200000000F3
:1040500040022004181807E00000000000000240A1
:10406000024001800FF00180024002400000008009
:10407000008000800FF800800080008000000001B8
:10408000000D000E00000000000000000000000015
:1040900000800080008000800080008000800000A0
:1040A000000C000C000000000000000000000000F8
:1040B00000060018006001800600180020000000C3
:1040C00007F0080810041004080807F000000000BA
:1040D000080408041FFC00040004000000000000A5
:1040E0000E0C10141024104411840E0C000000005B
:1040F0000C1810041104110412880C700000000048
:1041000000E00320042408241FFC00240000000019
:104110001F98108411041104108810700000000012
:1041200007F00888110411041888007000000000CE
:104130001C00100010FC13001C0010000000000008
:104140000E3811441084108411440E380000000011
:104150000700088C10441044088807F00000000095
:1041600000000000030C030C000000000000000031
:104170000000000101060000000000000000000037
:1041800000800140022004100808100400000220F2
:104190000220022002200220022002200000000053
:1041A00010040808041002200140008000000000F4
:1041B0000E001200100C106C10800F00000003E0C5
:1041C0000C1813E4142417C4082807D000000004B6
:1041D000003C03C41C40074000E4001C0004100421
:1041E0001FFC1104110411040E880070000003E08C
:1041F0000C1810041004100410081C100000100407
:104200001FFC100410041004080807F0000010043C
:104210001FFC1104110417C4100408180000100436
:104220001FFC1104110017C010000800000003E07B
:104230000C181004100410441C78004000001004F6
:104240001FFC10840080008010841FFC10040000FC
:10425000100410041FFC10041004000000000003F0
:104260000001100110011FFE1000100000001004DA
:104270001FFC110403801464181C100400001004B7
:104280001FFC1004000400040004000C00001004D3
:104290001FFC1F0000FC1F001FFC10040000100486
:1042A0001FFC0C04030000E010181FFC100007F0B6
:1042B0000808100410041004080807F00000100497
:1042C0001FFC10841080108010800F00000007F089
:1042D000081810241024101C080A07F2000010040B
:1042E0001FFC1104110011C011300E0C000400005D
:1042F0000E1C11041084108410441C380000180097
:10430000100010041FFC1004100018000000100022
:104310001FF810040004000410041FF8100010001F
:104320001E0011E0001C007013801C0010001FC054
:10433000103C00E01F0000E0103C1FC00000100413
:10434000180C163401C001C01634180C10041000EB
:104350001C00130400FC13041C00100000000804DF
:10436000101C1064108413041C04101800000000BA
:10437000000000007FFE40024002400200000000FA
:1043800030000C0003800060001C000300000000EF
:104390004002400240027FFE0000000000000000DA
:1043A000000020004000400040002000000000010C
:1043B00000010001000100010001000100010000F6
:1043C000400040002000000000000000000000004D
:1043D0000098012401440144014400FC0004100041
:1043E0001FFC008801040104008800700000000028
:1043F000007000880104010401040088000000002E
:10440000007000880104010411081FFC0004000072
:1044100000F8014401440144014400C800000000C8
:10442000010401040FFC1104110411001800000024
:1044300000D601290129012901C901060000100443
:104440001FFC008401000100010400FC00040000C6
:104450000104190419FC000400040000000000001D
:10446000000300010101190119FE00000000100401
:104470001FFC0024004001B4010C010400000000F6
:10448000100410041FFC00040004000000000104DC
:1044900001FC0104010001FC0104010000FC010415
:1044A00001FC008401000100010400FC0004000084
:1044B00000F8010401040104010400F800000101F6
:1044C00001FF008501040104008800700000000065
:1044D0000070008801040104010501FF00010104CE
:1044E000010401FC008401040100018000000000BF
:1044F00000CC0124012401240124019800000000C3
:104500000100010007F8010401040000000001009F
:1045100001F8000400040004010801FC000401008B
:1045200001800170000C001001600180010001F0A9
:10453000010C003001C00030010C01F0010000004E
:104540000104018C00740170018C01040000010160
:1045500001810171000E001801600180010000005E
:104560000184010C013401440184010C00000000AD
:1045700000000000000001003EFC4002400200007C
:10458000000000000000FFFF00000000000000002D
:10459000400240023EFC010000000000000000005C
:1045A00060008000800040004000200020000000EB
:1045B00000000000000000000000000000000000FB
:1045C00000000000000000000000000000000000EB
:1045D00000000000000000000000000000000000DB
:1045E000000F80380FFE380F8038000000000000F8
:1045F00000000000000000000000000001000006B4
:1046000000000C00003800003100000600000C0023
:104610000038000030000000000000000000618051
:104620000067F807F9800061800061800061800008
:1046300061800067F807F9800061800000000000D9
:104640000000000001C0E003E0F006300804180894
:104650001FFFFE040E080787F00381E00000000042
:10466000000001F000060C00040408060C7001F9BB
:10467000C0000E00003BE000EC18070808040C180E
:104680000003E00000000001E00007F003F8180458
:104690001C0804170807E1D003C0E00023B0003C69
:1046A00008002008000010000000000000010000C9
:1046B0003100003200001C0000000000000000007B
:1046C00000000000000000000000000000000000EA
:1046D00000000000000000000000000000007F005B
:1046E00001FFC00780F00C00181000042000020039
:1046F00000000000002000021000040C00180780D9
:10470000F001FFC0007F000000000000000000007A
:1047100000000000000000000000420000660000F1
:104720006600003C0000180003FFC0001800003CB9
:104730000000660000660000420000000000080063
:1047400000080000080000080000080001FFC00089
:104750000800000800000800000800000800000031
:104760000000000100003100003200001C000000C9
:104770000000000000000000000000000000000039
:104780000000000000000800000800000800000809
:1047900000000800000800000800000800000800F1
:1047A00000080000000000000000000000003800C9
:1047B0000038000038000000000000000000000089
:1047C00000000000000000000000000000000006E3
:1047D00000001C000070000180000E000038000086
:1047E000C0000700001C00003000000000000000B6
:1047F00000007F8001FFE0038070060018040008BD
:1048000004000806001803807001FFE0007F8000AC
:104810000000000000000000010008010008010085
:104820000803FFF807FFF800000800000800000870
:1048300000000000000000000001C03802C0580461
:104840000098040118040218040418061C1803F840
:104850001801E0F800000000000000000001C0E0C6
:1048600003C0F00400080408080408080618080338
:10487000F41801E7F00001E0000000000000000073
:1048800000000300000D000011000061000081081D
:1048900003010807FFF80FFFF800010800010800F6
:1048A00000000000000000E007FCD0060808061029
:1048B00008061008061008061838060FF00607C08C
:1048C000000000000000000000003F8001FFE00346
:1048D000843002081804100804100804100807188F
:1048E00010030FF00007C0000000000000000000EF
:1048F00003C0000700000600000600F80607F806DF
:10490000180006E00007000006000000000000009C
:104910000001E1E003F7F006341004180804180859
:10492000040C08040C0806161803F3F001C1E0009B
:10493000000000000000F80003FC30030638040209
:10494000080402080402080404100308F001FFC070
:10495000007F0000000000000000000000000000D8
:10496000000000000000703800703800703800004F
:104970000000000000000000000000000000000037
:1049800000000000000000000000301A00301C0091
:104990000000000000000000000000000000000017
:1049A0000000000000080000140000220000410088
:1049B0000080800100400200200400100800080070
:1049C0000000000000002100002100002100002163
:1049D0000000210000210000210000210000210032
:1049E0000021000000000000000000000800080492
:1049F00000100200200100400080800041000022E1
:104A00000000140000080000000000000003C000C7
:104A100004C000040000080038080F3808083808EF
:104A200010000C300007E00003C000000000000090
:104A300000003F8000FFE0038070020F10067088C6
:104A400004C088048308047F8802C090030120000A
:104A5000FE400000080000180001F8003E0801C2F6
:104A60000007020007E20000FE00001FC80001F876
:104A700000003800000804000807FFF807FFF804EA
:104A8000080804080804080804080806180803F4BD
:104A90001801E7F00001E0000000000000003F8086
:104AA00001FFE003807002001804000804000804FD
:104AB00000080400100600200780C0000000040069
:104AC0000807FFF807FFF8040008040008040008BE
:104AD00004001802001003807001FFE0007F8000D6
:104AE000000004000807FFF807FFF804080804089E
:104AF00008040808040808043E0804000806001812
:104B000001006000000004000807FFF807FFF80438
:104B10000808040800040800040800043E00060019
:104B200000060000018000000000000000003F803F
:104B300001FFE00380700600180400080402080466
:104B400002080203F00783F00002000002000400E4
:104B50000807FFF807FFF80408080008000008002D
:104B600000080000080004080807FFF807FFF80421
:104B70000008000000000000040008040008040011
:104B80000807FFF807FFF8040008040008040008FD
:104B90000000000000000000000000060000070008
:104BA000000104000104000104000307FFFE07FFE9
:104BB000FC04000004000004000004000807FFF8E3
:104BC00007FFF8040C08001800003E0004C7800529
:104BD00003C80600F80400380400180000080400A8
:104BE0000807FFF807FFF8040008000008000008A5
:104BF0000000080000080000080000180000600025
:104C0000000004000807FFF807800807FC00007F89
:104C1000C00003F80007C000780007800807FFF80D
:104C200007FFF804000804000807FFF8070008035E
:104C3000C00000E000003800001E00000700000176
:104C4000C00400F007FFF8040000000000007F80AF
:104C500001FFE00380700600180400080400080645
:104C6000001803003001FFE0007F80000000040016
:104C70000807FFF807FFF804040804040004040010
:104C8000040400040400060C0003F80001F0000016
:104C90000000000000007F8001FFE003807006003C
:104CA000880400880400C806003C03003E01FFE6BB
:104CB000007F8400000004000807FFF807FFF804E5
:104CC0000808040800040C00040F00040BC00610C0
:104CD000F003F03801E00800000800000001E0F8EF
:104CE00003F030063010041808041808040C0804F7
:104CF0000C080206180207F00781E000000001809E
:104D00000006000004000004000004000807FFF88B
:104D100007FFF8040008040000040000060000017A
:104D2000800004000007FFE007FFF0040018000007
:104D30000800000800000800000800000804001037
:104D400007FFE004000004000006000007E0000781
:104D5000FE00041FE00001F80000380001E0043EFE
:104D60000007C00006000004000004000007E00087
:104D700007FFC0041FF80007C007F80007FF800402
:104D80003FF80007C004F80007000004000000001E
:104D90000004000806001807C07805F1C8003E00AE
:104DA000001F800463E80780F8060018040008006C
:104DB000000004000006000007800007E008047CF3
:104DC00008001FF80007F800180804E008070000B2
:104DD000060000040000000000010008060038047E
:104DE00000F80403E8040F08047C0805F00807C075
:104DF0000807001804006000000000000000000028
:104E00000000000000000000003FFFFE2000022024
:104E1000000220000220000220000200000000002A
:104E20000000000008000007000000C0000038007B
:104E30000006000001C000003000000E000001006C
:104E400000000000000000002000022000022000FE
:104E5000022000022000023FFFFE000000000000D0
:104E6000000000000000000000000000000000083A
:104E70000000100000300000200000300000100092
:104E80000008000000000000000000000100000118
:104E9000000001000001000001000001000001000D
:104EA00000010000010000010000010000010000FD
:104EB00000000000000000200000200000100000A2
:104EC00010000000000000000000000000000000D2
:104ED00000000000000000F00019F8001B1800227C
:104EE00008002608002408002410003FF8001FF8DE
:104EF00000000800001800000004000007FFF80F81
:104F0000FFF00018180010080020080020080030EA
:104F100018001FF0000FC00000000000000007C0D4
:104F2000001FF000183000200800200800200800B2
:104F30003C08001C100000600000000000000000A1
:104F4000000007C0001FF0003818002008002008EB
:104F500000200804101007FFF80FFFF000001000F9
:104F600000000000000000000007C0001FF0001259
:104F700030002218002208002208003208001E100B
:104F8000000E2000000000000000200000200800AB
:104F9000200801FFF803FFF8062008042008042079
:104FA0000807200003000000000000000000000EC1
:104FB000000E6E001FF30031B10020B10020B100DF
:104FC0003191001F13002E1E00200E003000000043
:104FD0000004000807FFF80FFFF800100800200089
:104FE000002000002008003FF8001FF80000080023
:104FF0000000000000000000002008002008002041
:1050000008063FF8063FF800000800000800000806
:10501000000000000000000000000000000003008D
:105020000003002001002001002003063FFE063F90
:10503000FC00000000000000000000000004000868
:1050400007FFF80FFFF8000188000300002FC000E1
:1050500038F8002038002008000008000000000098
:105060000000000004000804000804000807FFF81E
:105070000FFFF80000080000080000080000000012
:105080000000002008003FF8003FF8001008002052
:1050900000003FF8003FF8001008002000003FF833
:1050A000003FF8000008000000002008003FF80062
:1050B0003FF8001008001000002000002008003F0A
:1050C000F8001FF80000080000000000000007C002
:1050D000000FF00018300030080020080020080001
:1050E0003008001830000FF00007C000000000007A
:1050F00000002001003FFF003FFF001011002009C9
:10510000002008002008003038001FF0000FC00009
:1051100000000000000007C0001FF0003818002049
:1051200008002008002009001011001FFF003FFFA9
:1051300000000100000000200800200800200800F6
:105140003FF8003FF8000808001008002008002081
:1051500000003000003000000000000000000000EF
:10516000000C78001E1800330800230800210800F6
:1051700021880021980030F0003860000000000015
:105180000000200000200000200000FFF003FFF8D6
:105190000020080020080020080000300000000067
:1051A0000000000000002000003FF0007FF8000039
:1051B00018000008000008002010003FF8007FF0F1
:1051C000000010000000000000002000003000007F
:1051D0003C00003F800023F00000780000700023B6
:1051E00080003C00003000002000002000003C0057
:1051F000003FE00023F80000E0002700003E000030
:105200003FE00021F80001E0003E00002000000027
:1052100000002008002008003838003E6800278081
:105220000003C8002CF800383800201800200800BF
:105230000000000000002000003003003C01003F9F
:10524000830023EC000070002380003C000020005D
:1052500000200000000000000000000000380800EE
:1052600020380020F80023E8002F88003E0800388E
:10527000080020180000700000000000000000007E
:105280000000000000000000000008000014001FE3
:10529000F7FC3000062000020000000000000000C3
:1052A00000000000000000000000000000000000FE
:1052B000FFFFFF00000000000000000000000000F1
:1052C00000000000000000002000023000061FF770
:1052D000FC001400000800000000000000000000B6
:1052E0000000000000000000001800006000004006
:1052F0000000400000200000100000080000040032
:10530000000400000C000010000045585449305FB4
:1053100049525148616E646C657200455854493970
:105320005F355F49525148616E646C657200455843
:10533000544931355F31305F49525148616E646C78
:1053400065720030313233343536373839414243B3
:1053500044454640305800303132333435363738E2
:1053600039616263646566403078000400000800BB
:10537000000000000000020001000010766F696468
:10538000204C43445F4472617752656374616E6779
:105390006C65287531362078312C207531362079AE
:1053A000312C207531362078322C20753136207919
:1053B00032290000766F6964204C43445F44726177
:1053C000774C696E65287531362078312C2075311F
:1053D000362079312C207531362078322C207531E9
:1053E0003620793229000000766F6964204C4344EE
:1053F0005F53686F77784E756D2875313620782C3D
:1054000075313620792C753332206E756D2C7538D8
:10541000206C656E2C75382073697A652C75382080
:105420006D6F646529000000766F6964204C434409
:105430005F53686F774E756D2875313620782C75FF
:10544000313620792C753332206E756D2C753820ED
:105450006C656E2C75382073697A65290000000030
:10546000766F69642077726974655F61646472281D
:1054700075333220616464722C7533322076616C2E
:1054800029000000766F6964204C43445F53686FC5
:1054900077537472696E672875313620782C7531B0
:1054A0003620792C7531362077696474682C753113
:1054B00036206865696768742C75382073697A6569
:1054C0002C7538202A702900766F6964204C43447B
:1054D0005F447261775F436972636C65287531362A
:1054E0002078302C7531362079302C75382072298F
:1054F0000000000075333220726561645F6164648E
:10550000722875333220616464722900766F696491
:10551000204C43445F446973706C61795F446972E5
:10552000287538206469722900000000766F69646C
:10553000204C43445F436C656172287531362043CB
:105540006F6C6F7229000000766F6964204C4344D1
:105550005F46696C6C2875313620787374612C75E0
:10556000313620797374612C7531362078656E641C
:105570002C7531362079656E642C75313620636F59
:105580006C6F722900000000766F6964204C434400
:105590005F466173745F44726177506F696E7428FF
:1055A00075313620782C75313620792C75313620BE
:1055B000636F6C6F72290000766F69642064656C9C
:1055C00061795F6D7328753136206E6D7329000027
:1055D000766F69642064656C61795F7573287533D3
:1055E00032206E7573290000753136204C43445FBC
:1055F00052656164506F696E742875313620782C5D
:1056000075313620792900003F0000006465630091
:105610006964000072756E74696D650068656C7010
:10562000000000006C697374000000006865780079
:105630005056000800000020980100006C0100088E
:10564000E85600089801002038070000C80100084B
:10565000C114FFFF7F1333241408F45414080136D7
:105660001B0860081371231408B8551B08AD081AED
:10567000D008139D091B082C08130D111B0848089E
:1056800013E50B1408B4531408D50C1B087C08133D
:10569000110D1B08C838133D1D1B0828081AD10816
:1056A0001A84081AA9181A88301AF9381AE808133F
:1056B000250A1B080C081B371E10193822101C2045
:1056C000C12C5812251B08BD0413312D23080F02CD
:1056D000DC011308561B081C041A24041A10041AAF
:0856E0002C041A0C041A140436
:0400000508000131BD
:00000001FF
