:020000040800F2
:100000002088002045010008490100084B01000834
:100010004D0100084F0100085101000800000000D8
:100020000000000000000000000000005301000874
:1000300055010008000000005701000859010008A0
:10004000413000085B0100085B010008FD19000851
:100050005B0100085B0100088D0F00085B010008D0
:100060005B0100085B0100085B0100085B01000800
:100070005B0100085B0100085B0100085B010008F0
:100080005B0100085B0100085B0100085B010008E0
:100090005B0100085B0100085B010008D10F00084C
:1000A0005B0100085B0100085B0100085B010008C0
:1000B000B52C0008752D00088D2D00085B01000887
:1000C0005B0100085B0100085B0100085B010008A0
:1000D0005B010008B92F00085B0100085B01000804
:1000E000B10F00085B0100085B0100085B0100081C
:1000F0005B0100085B0100085B0100085B01000870
:100100005B0100085B010008C92D00085B010008C5
:100110005B0100085B0100085B0100085B0100084F
:100120005B0100085B0100085B0100085B0100083F
:10013000DFF80CD000F07CFC004800472974000870
:100140002088002005480047FEE7FEE7FEE7FEE7BF
:10015000FEE7FEE7FEE7FEE7FEE7FEE73101000807
:100160002DE9F05F0546002092469B4688460646EC
:10017000814640241BE0284641464746224600F07F
:1001800038FB53465A46C01A914110D311461846BF
:10019000224600F01FFB2D1A67EB01084F4622464E
:1001A0000120002100F016FB17EB00094E41201E34
:1001B000A4F10104DFDC484631462A464346BDE847
:1001C000F09F40EA01039B0703D009E008C9121F12
:1001D00008C0042AFAD203E011F8013B00F8013B01
:1001E000521EF9D27047D2B201E000F8012B491E2D
:1001F000FBD270470022F6E710B513460A460446C4
:100200001946FFF7F0FF204610BD10B5044604E084
:100210000B7800F8013B03B1491C521EF8D220466E
:1002200010BD421C10F8011B0029FBD1801A704739
:1002300010B5002200E0521C835C8C5CA34201D10B
:10024000002BF8D1D8B2E1B2401A10BD30B5044647
:100250000020034600E05B1C934203D2E05CCD5CCF
:10026000401BF8D030BD034611F8012B00F8012BDC
:10027000002AF9D11846704770B50F4D00B92868AB
:10028000002412E00A4602E09E4203D0521C13787A
:10029000002BF9D1DAB2224305D02BB124B10021D1
:1002A00000F8011B04E00446401C0678002EE9D14A
:1002B0002860204670BD0000E40A002070B50646A4
:1002C00002F028FF046805460A220021304600F0AB
:1002D000B2FA2C6070BDF0B480EA0102D40F420083
:1002E000B2EB410F02D20246084611464A0042D004
:1002F000C30DDDB2C1F3C752AD1A202D35DAC1F3FB
:10030000160141F4000204B15242C5F1200602FA7E
:1003100006F12A411044B3EBD05F23D0C4B1012DC4
:10032000A0EBC35009DCF0BC4FF0004202EAC3521C
:10033000DBB200F5000000F0BFBA400000F18070B1
:1003400000EBC350A0F1807040EAD170490009E091
:10035000490841EAC071A0EBC35000F50000400815
:1003600000EBC350F0BC00F09EBA6142012202EBE8
:100370004101001BF6E7F0BC704781F00041AAE79D
:1003800080F00040A7E780EA010210B502F00043C8
:10039000400022D04A001FD0010E01EB1261C0F3D1
:1003A0005600C2F3560240F4000042F40002A0FBE3
:1003B000022000047F39140400D0401C50EA12408F
:1003C00001D44000491EC2B20C0604EBD010401C00
:1003D0004008802A02D003E0002010BD20F0010078
:1003E000002900DA0020184310BD30B480EA010271
:1003F00002F0004530F0004221F0004013D090B1EF
:10040000C30DD40DC2F31601C0F31600E41A41F473
:10041000000140F400027D34914201D3641C00E0ED
:100420004900002C02DA30BC002070474FF4000075
:100430000023914201D3891A034340084FEA410146
:10044000F7D151B1914202D14FF0004105E002D203
:100450004FF0010101E06FF0010103EBC4502844AB
:1004600030BC00F020BA2DE9FE4F804681EA03003F
:10047000C00F0C46009021F0004123F00045B8EB7E
:100480000200A94105D24046214690461C460B4633
:10049000024623F00040104347D0270DC7F30A005F
:1004A000C3F30A510290401A019040286BDAC3F35B
:1004B000130040F4801B0098924620B10023D2EB39
:1004C000030A63EB0B0B01985946C0F140025046FA
:1004D00000F080F906460D4650465946019A00F054
:1004E00098F910EB08006141002487EA115284EA70
:1004F000E7731A4340D0009A62B3019A012A4FEA87
:10050000075215DC001B61EB02014FF0004202EACA
:100510000752CDE90042001C41F5801132462B46BE
:1005200000F007FA03B0BDE8F08F40462146F9E736
:10053000001B61EB0201001C41F5801300185B41B8
:100540002018A2F5001747EB030140EAD570B61951
:100550006D4111E06D084FEA360645EAC0754FEA75
:100560000752001B61EB0201001C41F58011490894
:100570004FEA30000019514132462B4603B0BDE826
:10058000F04F00F0C7B90098012240000023D0EBE3
:10059000020263EBE073009821464FEAE074B8EB87
:1005A000000061EB0401E9E783F000435BE781F0C1
:1005B000004158E72DE9FE4F81EA030404F00044AE
:1005C00021F0004100944FF0000B23F0004350EA6B
:1005D00001045ED052EA03045BD0C3F30A54C1F3B2
:1005E0000A552C44A4F2F3340194A0FB0254C1F345
:1005F000130141F48011C3F3130343F4801301FB8F
:10060000024400FB034E840A970A44EA815447EAF5
:100610008357A4FB076802958D0A05FB07854FEAFF
:10062000932C04FB0C542705029D4FEA065847EA19
:100630001637B5EB08056EEB070C870E920E47EAEE
:10064000811742EA8312A7FB0201B6EB0B0164EBB0
:1006500000042B0D43EA0C335E1844EB1C50DA46C1
:100660005146E7FB0201C5F313044FEA0B3343EA9B
:1006700014534FEA0432019C43EA0603A4F10C042C
:100680000294009CCDE900B400F053F903B0BDE83A
:10069000F08F00200146F9E72DE9F04D81EA0304CF
:1006A00004F0004B21F0004514464FF0000A23F0FF
:1006B000004150EA050220D054EA01021DD0C5F3E2
:1006C0000A570246C5F31303C1F31300C1F30A56D8
:1006D00040F4801543F48013A7EB0608101BD646A0
:1006E00008F2FD3873EB050002D308F1010801E0C0
:1006F00092185B41B8F1000F03DA00200146BDE813
:10070000F08D00204FF48011064684460EE0171B42
:1007100073EB050705D3121B63EB050306434CEA95
:10072000010C49084FEA300092185B4150EA01077A
:10073000EDD152EA030012D082EA040083EA0501F7
:10074000084305D0101BAB4106D20122002306E06E
:1007500000224FF0004302E06FF0010253101AEB49
:1007600006004CEB085110EB0A0041EB0B01BDE811
:10077000F04D00F0CFB896230022114600F09CB84F
:1007800020F00040C10DC0F3160040F400007F29A6
:1007900001DA00207047962903DCC1F19601C840B8
:1007A000704796398840704730B50B4601460020A7
:1007B0002022012409E021FA02F59D4205D303FA23
:1007C00002F5491B04FA02F52844151EA2F10102A4
:1007D000F1DC30BD202A04DB203A00FA02F10020CF
:1007E00070479140C2F1200320FA03F3194390406F
:1007F0007047202A04DB203A21FA02F000217047DA
:1008000021FA02F3D040C2F1200291400843194678
:100810007047202A06DBCB17203A41FA02F043EA60
:10082000E07306E041FA02F3D040C2F120029140A9
:100830000843194670472DE9F04791460F46804618
:100840000446002614F8015B2DB100F003F900689E
:10085000405DC007F6D12B2D02D02D2D18D0641E7F
:100860004A463946204600F0F9F827B13968A142D6
:1008700001D1C7F8008071054FF002040BD540424A
:10088000002803DD02F046FC0460A007BDE8F08705
:1008900046F48066E4E70028F8DA02F03BFC0460E6
:1008A0006FF00040F2E70029A8BF7047401C4900E4
:1008B00008BF20F00100704710B4B0FA80FC00FAC5
:1008C0000CF050EA010404BF10BC704749B1CCF1F0
:1008D000200421FA04F411FA0CF118BF012121437C
:1008E0000843A3EB0C01CB1D4FEA00614FEA102037
:1008F00042BF002010BC704700EBC35010440029D9
:10090000A4BF10BC7047401C490008BF20F0010084
:1009100010BC704710B5141E73F1000408DA401CB7
:1009200041F1000192185B411A4301D120F001000E
:1009300010BD2DE9F04D92469B4611B1B1FA81F2FE
:1009400002E0B0FA80F220329046FFF743FF0446FF
:100950000F4640EA0A0041EA0B0153465A46084353
:1009600013D0114653EA010019D0C8F14002504695
:10097000FFF73FFF05460E46504659464246FFF7F1
:1009800029FF084305D0012004E020463946BDE890
:10099000F08D0020054346EAE0762C4337430A9861
:1009A0006305E40AA0EB08000022FD0A44EA47546C
:1009B0000A3002D500200146E9E701051019694116
:1009C000DDE9084500196941BDE8F04DA2E7C1F332
:1009D0000A52C1F3130140F2FF3341F480119A42ED
:1009E00002DA00200146704740F233439A42A2F2F5
:1009F000334202DC5242FFF7FCBEFFF7EBBE0000C1
:100A000030B5041E71F1000404DB4FF00044404295
:100A100064EB0101141E73F1000405DB1C464FF06A
:100A20000043524263EB0403994208BF904230BD39
:100A3000064C074D06E0E06840F0010394E807002B
:100A400098471034AC42F6D3FFF776FBA8B0000805
:100A5000C8B000080048704730AB00082DE9F05FCF
:100A600082460078002715468B460AF10104B946F4
:100A7000302801D09DB113E014F8010B012778282C
:100A800003D0582801D045B10AE00DB1102D07D18F
:100A90000027102514F8010B02E0082500E00A25C4
:100AA0000026B0460EE005FB080005FB06F1012715
:100AB00001EB10461FFA80F8B6F5803F00D3B94627
:100AC00014F8010B294600F018F80028EBDABBF106
:100AD000000F05D00FB1641E00E05446CBF8004073
:100AE000B9F1000F06D002F015FB02210160C81E0B
:100AF000BDE8F09F48EA0640FAE73A2800D23038CD
:100B000020F02002412A01D3A2F13700884201D30C
:100B10004FF0FF30704770B58C1810F8015B15F07E
:100B2000070301D110F8013B2A1106D110F8012B5F
:100B300003E010F8016B01F8016B5B1EF9D12B0784
:100B400005D40023521E0DD401F8013BFAE710F83A
:100B5000013BCB1A921C03E013F8015B01F8015B27
:100B6000521EF9D5A142D8D3002070BD38B500245B
:100B7000FF2000F074F80446FF23CA220E490FA09C
:100B8000009402F07DFA552C01D1002038BD55218A
:100B9000FF2000F0A5F8FF2000F061F8044623468E
:100BA000D122054912A002F06BFA552C01D1002088
:100BB000ECE70120EAE70000219C00085B25733A7E
:100BC00025645D207265616420656570726F6D20BB
:100BD000666C616720616464726573733A252330C3
:100BE00038582076616C75653A25233038580A00EC
:100BF0005B25733A25645D207265616420646174CD
:100C00006120323A25640D0A0A00000010B500F098
:100C100029FA3522024903A002F032FA10BD000081
:100C2000149C00085B25733A25645D2045455052AD
:100C30004F4D20496E69740D0A0A000070B50646D2
:100C40000C46154608E03046721C96B200F007F8D4
:100C500004F8010B681E85B2002DF4D170BD2DE99A
:100C6000F04104460026002700F0BCFA2546E117B3
:100C700004EB11610912A02202EB4101C8B200F09D
:100C80007DFA00F0FBFAE11704EB11610912A4EB05
:100C90000121C8B200F072FA00F0F0FA00F0A2FAF6
:100CA000A12000F06BFA00F0E9FA002000F02EFA23
:100CB000064600F0BDFA3046BDE8F08170B5054645
:100CC0000C46164606E02178284600F009F8681C14
:100CD00085B2641C301EA6F101018EB2F3D170BD45
:100CE0002DE9F04104460E46002700F07BFA254628
:100CF000E11704EB11610912A02202EB4101C8B215
:100D000000F03CFA00F0BAFAE11704EB11610912A5
:100D1000A4EB0121C8B200F031FA00F0AFFA30467E
:100D200000F02CFA00F0AAFA00F082FA0A2003F090
:100D300093FDBDE8F081000030B58DB000252C2278
:100D4000384902A8FFF73DFA292340F21512364927
:100D500036A002F095F9292202A92846FFF7AEFF36
:100D600040F21712304939A002F08AF9292006F022
:100D700077FB04460CB90DB030BD29222146284628
:100D8000FFF75CFF40F21D12274936A002F078F908
:100D900023464FF48F72244936A002F071F904F112
:100DA0000A0340F21F1220493AA002F069F904F147
:100DB00014034FF490721C493CA002F061F904F155
:100DC0001E0340F2211218493FA002F059F914F80D
:100DD000280FC0F380002178C1F34001CDE9001055
:100DE00014F8280900F001034FF491720E493EA057
:100DF00002F046F92922214602A8FFF727FA30B966
:100E000040F22512084943A002F03AF905E040F209
:100E10002712054947A002F033F9204605F00CFEE1
:100E200000BFA8E7489C00082F9C00085B25733A88
:100E300025645D20626F6172645F636F6E666967CF
:100E40005F742073697A653A25640A005B25733AFA
:100E500025645D20777269746520737563636573BB
:100E6000730A00005B25733A25645D207265616436
:100E70003A0A00005B25733A25645D20626F6F7447
:100E80006C6F616465725F76657273696F6E3A2527
:100E9000730A00005B25733A25645D206170705F02
:100EA00076657273696F6E3A25730A005B25733A33
:100EB00025645D20666163746F72795F7665727315
:100EC000696F6E3A25730A005B25733A25645D20CD
:100ED00068617264776172655F76657273696F6E5F
:100EE0003A25730A000000005B25733A25645D20F3
:100EF000686176655F6E66633A2564206861766531
:100F00005F6770733A256420686176655F62743A42
:100F100025640A005B25733A25645D20656570725F
:100F20006F6D207465737420737563636573730AE2
:100F3000000000005B25733A25645D2065657072D2
:100F40006F6D2074657374206661696C65640A0056
:100F500010B5002400200C49086014E00A48A038AD
:100F6000006858B1601CC4B21E2003F075FC642CEC
:100F700009DB002004490860012010BD012002495E
:100F800008600020F9E7E9E7A001214210B501203F
:100F90000549086005480068012804D1FFF7D8FF1B
:100FA00008B101F037FE10BD1404014000012142D8
:100FB00010B50A2003F050FC034800684FF40040CD
:100FC0000249086010BD00003C01214214040140A8
:100FD00010B50A2003F040FC0248006820200249B6
:100FE000086010BD14012242140401400020704723
:100FF00070477047C26801238B409A43C36813400F
:10100000C3607047C26801238B401A43C36813430F
:10101000C360704710B500200F4908600F48406852
:1010200020F470400D4948600846406840F4405044
:10103000486000200A49C1F8AC01022003F02AFCF4
:10104000012005490860022003F024FC0020044927
:10105000C1F8B00110BD0000B001224200100140F3
:101060000000224210B50E4B242219460DA002F0BA
:1010700007F81048806940F010000E4988610E485A
:10108000406820F47F200C4948600846406840F4DE
:101090004C3048600846C06840F4C050C86010BD7D
:1010A000BAA400085B25733A25645D2025730A0AFB
:1010B00000000000001002400010014010B50020A8
:1010C0000F4908600F48406820F470400D4948609F
:1010D0000846406840F44050486001200A49C1F881
:1010E000AC01022003F0D6FB012005490860022074
:1010F00003F0D0FB00200449C1F8B00110BD00008E
:10110000B0012242001001400000224270B50546A5
:1011100000241748406820F470401549486008468C
:10112000406840F400404860002616E00020114965
:101130000860022003F0AEFB01200F49C1F8B001A6
:101140006006040E0B488438006808B1601CC4B205
:10115000012003F09FFB701CC6B2082EE6DB15B918
:10116000FFF7ACFF01E0FFF755FF204670BD000020
:1011700000100140B00122420000224270B5044636
:101180001548406820F4704013494860084640689C
:1011900040F440504860002010490860002517E0E6
:1011A000E0090E49091F08606006040E022003F0E2
:1011B00071FB01200A49C1F8B001022003F06AFB6B
:1011C000002006490860022003F064FB681CC5B2D9
:1011D000082DE5DB70BD000000100140B001224287
:1011E0000000224210B50F48406820F470400D49BD
:1011F00048600846406840F44050486001200A4971
:1012000008600A49C1F8B001042003F043FB002044
:1012100005490860042003F03DFB00200349C1F8A4
:10122000B00110BD00100140AC012242000022427A
:1012300010B50F48406820F470400D4948600846DA
:10124000406840F44050486000200A4908600A495C
:10125000C1F8AC01042003F01DFB01200549086022
:10126000042003F017FB01200349C1F8AC0110BDB5
:1012700000100140B00122420000224210B50024BB
:101280001448406820F4704012494860084640689D
:1012900040F40040486001200F49086003F0FAFA6A
:1012A00001200E49C1F8B00103F0F4FA07E0601C18
:1012B000C4B2FA2C03DDFFF7BBFF012010BD0648C6
:1012C000803800680028F2D10349091D086000BF7A
:1012D000F4E7000000100140AC012242000022426D
:1012E0000146CA1701EB92729210A1EB820292B9E9
:1012F000642091FBF0F200FB121050B94FF4C8705B
:1013000091FBF0F200FB121008B901207047002099
:10131000FCE70120FAE70020F8E7000010B51A48C2
:10132000806940F00400184988610846806940F0EF
:10133000200088611548006820F00F0013490860FC
:101340000846006840F00300086010480830006854
:1013500040F480700D49083108600D48006820F4A1
:1013600070600B4908600846006840F440700860EF
:1013700007480C30006840F0040005490C31086053
:1013800004A001F07DFE10BD0010024004080140E1
:10139000001401406C65642072656420616E6420F5
:1013A00079656C6C6F7720696E69740D0A000000B6
:1013B00000B5002015490861C8601420486100206C
:1013C0008861C8610846006840F00100086008466E
:1013D00040680F4908400D494860084600680D49BB
:1013E00008400A4908600846006820F48020086028
:1013F0000846406820F4FE00486000208860002114
:101400004FF0006000F058F800BD000000100240EE
:101410000000FFF8FFFFF6FE2DE9F0410746884681
:1014200014461D46284600F033F8C5F1040007FABB
:1014300000F60F20284100EA0800064306F00F06D8
:10144000E21704EBD2625211920002F1E022D2F8CC
:1014500000212146E31704EBD3635B11A4EB431C8B
:10146000012303FA0CF31A432046E31704EBD3637A
:101470005B119B0003F1E023C3F800210348005DEA
:1014800040EA061001490855BDE8F08100E400E09B
:101490000146072323EA01021202054B18684FF6A2
:1014A000FF031840034B18431043014B186070476B
:1014B0000CED00E00000FA05024A0A400243024B2C
:1014C0001A60704780FFFF1F08ED00E030B5002470
:1014D00019E004F1B001C8B2002100F099F900212F
:1014E000022000F095F90021102000F091F900256C
:1014F00005E00121002000F08BF9681CC5B2802DA9
:10150000F7DB601CC4B2082CE3DB30BD2DE9F04FE3
:1015100006460F4690461C46DDF824A04FF0000B0F
:10152000E11704EB5171C910A4EBC10131B9204698
:10153000E11704EB5171C1F3C70506E02046E1173E
:1015400004EB5171C910491CCDB23D4615E0294646
:10155000304600F0F3F8B1460BE059460BF1010BB1
:101560001AF80100012100F053F909F1010000F01F
:10157000FF09C145F1DB681CC5B2A542E7DBBDE848
:10158000F08F000010B56748806940F00800654999
:1015900088610846806940F01000886162480068F0
:1015A00020F0FF0060490860084600685F49084372
:1015B0005D4908605C480C30006840F003005A49FF
:1015C0000C3108605848001D006820F070605649D2
:1015D000091D08600846006840F0407008605248E5
:1015E0000C30006840F480404F490C31086050488E
:1015F000406820F0FF004E4948600846406840F0CF
:10160000330048600846C06840F44070C86001205C
:1016100048490860642003F01FF900204649C1F8DA
:10162000B801642003F018F9012042490860002144
:10163000AE2000F0EDF80021022000F0E9F80021D2
:10164000102000F0E5F80021402000F0E1F8002132
:10165000812000F0DDF80021CF2000F0D9F8002132
:10166000A12000F0D5F80021C82000F0D1F8002119
:10167000A62000F0CDF80021A82000F0C9F8002134
:101680003F2000F0C5F80021D32000F0C1F8002170
:10169000084600F0BDF80021D52000F0B9F800217F
:1016A000802000F0B5F80021D92000F0B1F8002129
:1016B000F12000F0ADF80021DA2000F0A9F80021B7
:1016C000122000F0A5F80021DB2000F0A1F8002195
:1016D000402000F09DF80021202000F099F8002122
:1016E000022000F095F800218D2000F091F80021F3
:1016F000142000F08DF80021A42000F089F80021CA
:10170000A62000F085F80021AF2000F081F800212C
:10171000AF2000F07DF8FFF7D9FE0021084600F069
:101720000DF810BD00100240000C0140330000F025
:1017300000100140B88121420080214230B50446AA
:101740000D4605F1B001C8B2002100F061F8A11CFE
:10175000C1F3031141F01000002100F059F8A11C61
:1017600001F00F00002100F053F830BD2DE9F041E9
:1017700006460C4617464FF000080025A7F120004A
:1017800000F0FF087F2E02DD0026601CC4B2601C42
:10179000C1B23046FFF7D2FF00250AE008EB48014E
:1017A000064A02EB4101485D012100F031F8681C56
:1017B000C5B2062DF2DBBDE8F0810000809C000878
:1017C0002DE9F04104460D461646002713E0F25D70
:1017D00029462046FFF7CAFF04F10800C4B2782C5E
:1017E00002DD0024A81CC5B2781CC7B22A462146D7
:1017F00003A001F045FCF05D0028E8D1BDE8F081D0
:10180000783A25642C20793A25640D0A00000000FE
:1018100010B50A46012A03D10123154C236002E0CA
:101820000023134C23600023114C241D236000214E
:1018300014E000230F4C236000F080031BB1012350
:10184000241D236003E000230A4C241D2360012390
:10185000084C23604306180E4B1CD9B20829E8DB5C
:101860000123034C241D2360034CC4F8A03110BD98
:10187000A0012242808121420000224270B5002650
:10188000002400253A4806883604001D00880644D6
:101890003848B6FBF0F438480088A0423AD03649C0
:1018A0000C8040F2B2750EE02846FFF719FD30B10A
:1018B000B4F5B77F02D3A4F5B77402E006E0A4F252
:1018C0006D14681C85B2B4F5B67FEDD800BF2B4807
:1018D0008580002516E029498888FFF701FD30B191
:1018E000012D04D11D2C01D31D3C09E00CE024483E
:1018F000405DA04203D82248405D241A00E003E086
:10190000681C85B21C2CE6D200BF681C1B4988717C
:10191000601CC8711748B6FBF0F100FB11644FF46E
:101920006160B4FBF0F0154908704FF46160B4FBDE
:10193000F0F100FB11403C21B0FBF1F00F49487081
:101940004FF46160B4FBF0F100FB11403C21B0FBAF
:10195000F1F201FB1200094988700B46DA79997996
:10196000988800F00FF805490872002070BD00004B
:101970001828004080510100260800202C1C00205F
:10198000A4A40008F0B503460C461546642093FB5A
:10199000F0F0C6B2642093FBF0F700FB1730C1B241
:1019A000132E02DD01F16400C1B20846CF1701EB2E
:1019B000977701EBA707BAB2072092FBF0F700FB7D
:1019C000172082B25719601EDFF82CC01CF80000E7
:1019D000384482B2CF1701EB9777BF10A1EB87078E
:1019E0001FB9032C01DA501E82B2072092FBF0F7D8
:1019F00000FB1720C0B2F0BD98A4000810B5124833
:101A0000008800F0010008B1FFF738FF0E48008899
:101A100000F0020040B10C48008820F002000A49A2
:101A200008800AA001F02CFB0748008840F6FA71F4
:101A300008400549088000BF0348008800F02000E6
:101A40000028F9D010BD000004280040416C6172EC
:101A50006D210A007FB500247E48008845F25101BF
:101A600088427DD07C48C06940F080507A49C86186
:101A70000846C06940F00060C8617848006840F4DA
:101A80008070764908607448006A40F4803072497A
:101A900008620846006A20F4803008620846006A3E
:101AA00040F00100086204E0601CC4B20A2002F0A9
:101AB000D3FE6948006A00F0020008B9FA2CF3DB93
:101AC000FA2C17DB6448406A40F001006249486222
:101AD00000BF6148406A00F002000028F9D05E486B
:101AE000006A40F400705C49086245F250005949B0
:101AF000088009E05848006A40F48070564908623E
:101B000045F25100534908805348006A40F40040B0
:101B10005149086200BF5248008800F020000028A8
:101B2000F9D000BF4E48008800F008000028F9D026
:101B30004B48001F008840F001004949091F0880F8
:101B400000BF4748008800F020000028F9D0444832
:101B5000008840F01000424908800020091D00E084
:101B600031E0088047F6FF70091D08803C48001FDF
:101B7000008840F002003A49091F088000BF384839
:101B8000008800F020000028F9D0364880783549D8
:101B90004978344DCDE900102B78EA79A979A888E5
:101BA00000F088F82E48008820F010002C490880AA
:101BB00000BF2B48008800F020000028F9D02AA0A0
:101BC00001F05EFA27E000BF2548008800F0080019
:101BD0000028F9D02248001F008840F00100204969
:101BE000091F088000BF1E48008800F02000002860
:101BF000F9D01B48001F008840F002001849091F57
:101C0000088000BF1648008800F020000028F9D0A6
:101C10001AA001F035FA0223032200210846FFF73B
:101C2000FBFBFFF72BFE0F48007A0E4989780D4A1F
:101C300052780C4B1B78CDE90032CDE902100948EF
:101C4000C3798279818812A001F01AFA002004B0C9
:101C500070BD0000046C00400010024000700040A5
:101C6000042800402C1C0020525443204649525363
:101C700054205345542054494D450A0052544320A2
:101C80004F4B2C206E6F742072656F70656E0A006A
:101C900054696D653A25642F25642F2564202564D9
:101CA0003A25643A256420205765656B3A25640D12
:101CB0000A0000002DE9F04F06460F46904699466F
:101CC000DDE909AB002440F2B270864203DB40F646
:101CD0003300864202DD0120BDE8F08F40F2B2758C
:101CE0000AE02846FFF7FCFA10B13048044401E04E
:101CF0002F480444681C85B2B542F2DB781EC7B297
:101D0000002510E02B48405D40F2A321484304EB3E
:101D1000C0143046FFF7E4FA18B1012D01D126486E
:101D20000444681C85B2BD42ECDBA8F1010040F21E
:101D3000A321484304EBC014C9EB4910C0EB0920B0
:101D400004EB0014CAEB0A1004EB80045C441B484B
:101D5000C06940F080501949C8610846C06940F028
:101D60000060C8611648006840F48070144908603B
:101D70001448008840F010001249088011491831B9
:101D80000C80200C091F08800E48008820F01000ED
:101D90000C49088000BF0B48008800F02000002894
:101DA000F9D0FFF76BFD002096E700000085E20107
:101DB0008033E101A4A4000880510100001002401A
:101DC000007000400428004010B50120024908605E
:101DD000FF2000F011FA10BD8C01214270B50546BC
:101DE00001220021092000F050FA044624B91021F4
:101DF000284600F0B9F90446FFF7E6FF0CB10120D0
:101E000070BD0020FCE770B505464FF6FF7401E099
:101E1000601E84B2FF2000F0EFF9A84201D0002C30
:101E2000F6D10CB9FF2070BD0020FCE72DE9FF5F63
:101E3000002000900190029003900026002481462B
:101E4000824683466846FFF7C9FF18B1002004B0F8
:101E5000BDE8F09F1021684606F0E6FA6C4620784F
:101E600000F0010038B9207800F0010117A001F05E
:101E700007F90020EBE7102119A001F001F9002576
:101E800006E01DF805101EA001F0FAF8681CC5B2A6
:101E9000102DF6DB11A001F0F3F8A079E17940EA0A
:101EA0000120217A01F03F0140EA014808F10100D8
:101EB0004602B20A314614A001F0E2F8B002470A25
:101EC00039461AA001F0DCF83846C0E76572726F37
:101ED000722C206269745B305D3A25640D0A000043
:101EE000736463617264204353443A2073697A6572
:101EF0006F66284353445F54293A25640D0A000055
:101F000025303258200000007364636172642063DE
:101F1000617061636974793A2564204B62797465F4
:101F20002C2025644D627974650D0A007365637415
:101F30006F723A25640D0A00F8B564A001F0A0F8AC
:101F400000F02EF900F063F9002504E0FF2000F016
:101F500053F9681C85B20A2DF8DB142600BF9522C0
:101F60000021084600F091F90446012C04D0301EEF
:101F7000A6F101018EB2F2D1002058490870012C5F
:101F80004AD187224FF4D571082000F07EF901284C
:101F900047D1002506E0FF2000F02EF90DF80500DE
:101FA000681C85B2042DF6DB9DF80200012879D16A
:101FB0009DF80300AA2875D14FF6FE7600BF0122D6
:101FC0000021372000F061F901229107292000F05B
:101FD0005CF9044624B1301EA6F101018EB2EED1A7
:101FE000002E5FD0012200213A2000F04EF9002897
:101FF00058D1002506E0FF2000F0FEF80DF805009E
:10200000681C85B2042DF6DB9DF8000000F040004E
:1020100018B106203149087044E004202F490870A7
:1020200040E001220021372000F02FF90122002199
:10203000292000F02AF90446012C17DC0220274948
:1020400008704FF6FE7600BF01220021372000F015
:102050001CF901220021292000F017F90446BCB127
:10206000301EA6F101018EB2EED111E001201B4914
:1020700008704FF6FE7600BF01220021104600F0E6
:1020800004F9044624B1301EA6F101018EB2F3D149
:102090002EB101225102102000F0F7F810B10020FB
:1020A0000E490870FFF790FE00F0ACF80B4801787D
:1020B0000BA000F0E5FF0948007808B10020F8BD4A
:1020C0000CB12046FBE7AA20F9E7000073646361C6
:1020D000726420696E69740D0A0000001D00002002
:1020E0005344206361726420747970653A25640DED
:1020F0000A0000002DE9F04106460F461546194832
:102100000078062800D07F02012D0CD1012239462B
:10211000112000F0BAF80446FCB96902304600F01C
:1021200023F8044619E001223946122000F0ADF8E8
:10213000044600BF4FF40071304600F015F8044625
:1021400006F50076681EC0B2051E01D0002CF1D045
:10215000012200210C2000F098F8FFF735FE204600
:10216000BDE8F0811D00002070B504460D46FE203C
:10217000FFF749FE08B1012070BD04E0FF2000F028
:1021800083F92070641C281EA5F101018DB2F5D1E0
:10219000FF2000F031F8FF2000F02EF80020EBE7E0
:1021A00010B51048806940F004000E4988610E485F
:1021B00000680E4908400C490860084600680C4950
:1021C00008430949086008480C30006840F01C00CA
:1021D00005490C31086000F0EDF801200549086060
:1021E00010BD00000010024000080140FF00F0FF99
:1021F000003303008C01214210B50446204600F054
:1022000043F910BD10B5002000F068F910BD10B5FD
:10221000072000F063F910BD10B5002005490860E3
:1022200000F06FF808B9002010BDFFF7CDFD0120C8
:10223000FAE700008C01214270B506460D4600F019
:1022400060F808B1012070BD2846FFF7D5FFFD2DCD
:1022500019D0002404E0305D00F016F9601C84B24F
:10226000B4F5007FF7DBFF20FFF7C6FFFF20FFF785
:10227000C3FFFF20FFF7C0FF044604F01F0005283E
:1022800001D00220DFE70020DDE72DE9F04105461F
:102290000C4617464FF00008FFF796FDFFF7BCFF0E
:1022A00010B1FF20BDE8F08145F04000FFF7A4FF2A
:1022B000200EFFF7A1FFC4F30740FFF79DFFC4F313
:1022C0000720FFF799FFE0B2FFF796FF3846FFF7C8
:1022D00093FF0C2D02D1FF20FFF78EFF4FF01F0858
:1022E00000BFFF20FFF788FF064606F0800030B1F0
:1022F000B8F10000A8F1010101F0FF08F1D130466A
:10230000D0E710B5002400BFFF20FFF775FFFF28BE
:1023100001D1002010BD641C6FF07F408442F3D3D4
:102320000120F7E72DE9F04106460F461546204803
:102330000078062800D07F02012D0CD101223946F9
:102340001820FFF7A2FF04466CBBFE213046FFF7C2
:1023500073FF044627E016480078012809D00122BF
:1023600000213720FFF791FF012229461720FFF7B0
:102370008CFF012239461920FFF787FF044694B9E4
:1023800000BFFC213046FFF757FF044606F50076F4
:10239000681EC0B2051E01D0002CF2D0FD21002025
:1023A000FFF74AFF0446FFF70FFD2046BDE8F08126
:1023B0001D00002010B52948806940F0040027491D
:1023C00088610846806940F480508861244800682C
:1023D000C0F31300224908600846006821490843F9
:1023E0001F4908601E480C30006840F0E0001C499E
:1023F0000C3108601C4800881B490880084600888A
:1024000040F4007008800846008840F4807008801E
:102410000846008840F004000880084600880880CC
:102420000846008840F0020008800846008840F016
:10243000010008800846008840F0380008800846FF
:10244000008808800846008840F040000880382254
:10245000064907A000F014FE10BD00000010024065
:10246000000801400000B0BB00300140B0A40008EB
:102470005B25733A25645D205350493120696E69AC
:10248000740D0A0A000000000246002107E0481C03
:1024900081B24FF6FE70814201DD002070470E4888
:1024A000008900F002000028F1D00B488281002151
:1024B00007E0481C81B24FF6FE70814201DD00202A
:1024C000ECE70548008900F001000028F1D002483F
:1024D0008089C0B2E2E700000030014000F0070050
:1024E000084909884FF6C7721140064A1180114603
:1024F000098841EAC00111801146098841F0400174
:10250000118070470030014010B500200449086078
:102510000620FFF7B9FF01200249C1F8880110BD6C
:10252000880121420000214210B504462403FFF730
:10253000EBFF00F04BF900200B4908602020FFF76B
:10254000A3FFC4F30740FFF79FFFC4F30720FFF783
:102550009BFFE0B2FFF798FF01200449C1F8880112
:1025600000F034F910BD0000880121420000214232
:102570003EB5002001900290082000902D4880690F
:1025800040F004002B4988612B4800682B49084023
:102590002949086008460068294908432649086017
:1025A00025480C30006840F01C0023490C310860BD
:1025B000FFF700FFFF20FFF767FF0120FFF78EFF07
:1025C00000F09CF81F4908800846038862221E49D3
:1025D0001EA000F055FD63221B4922A000F050FD13
:1025E000694601A800F0C4F800BF26A128A000F0A9
:1025F00047FD002405E001A8015D26A000F040FD94
:10260000641C9DF800008442F5DB24A000F038FD36
:10261000002405E001A8015D22A000F031FD641C4A
:102620009DF800008442F5DB1FA000F029FD00BFEB
:102630003EBD00000010024000080140FF00F0FF16
:102640000033030012000020719C00085B25733AE0
:1026500025645D20666C6173682049443A25233007
:1026600034580A005B25733A25645D2065787465EB
:10267000726E616C20666C61736820696E69740AA1
:1026800000000000756E697175655F69643A00004D
:102690002573000025303258200000002020202023
:1026A0007C200000256320000A0000002DE9F04195
:1026B00006460C46174600200F4908600320FFF726
:1026C000E3FEC4F30740FFF7DFFEC4F30720FFF784
:1026D000DBFEE0B2FFF7D8FE002505E0FF20FFF7A4
:1026E000D3FE7055681C85B2BD42F7DB012002495C
:1026F0000860BDE8F08100008801214210B5002487
:1027000000200E4908609020FFF7BEFE0020FFF772
:10271000BBFE0020FFF7B8FE0120FFF7B5FEFF204B
:10272000FFF7B2FE44EA0024FF20FFF7ADFE0443AA
:1027300001200349C1F88801204610BD88012142CB
:102740000000214210B50024002007490860052040
:10275000FFF79AFEFF20FFF797FE0446012003498A
:10276000C1F88801204610BD8801214200002142A5
:1027700070B505460E4615B13078082802DA4FF0DC
:10278000FF3070BD0020104908604B20FFF77CFE31
:102790000020FFF779FE0020FFF776FE0020FFF70C
:1027A00073FE0020FFF770FE002404E0FF20FFF717
:1027B0006BFE2855641C082CF8DB082030700120C3
:1027C000014908600020DCE78801214210B500BF04
:1027D000FFF7B8FF00F001000028F9D110BD00009C
:1027E0002DE9F04781460F4616464FEA1738C7F3E2
:1027F0000B0ACAF58054A64200DC344644E04FEA96
:1028000008314FF480522248FFF750FF002508E0BE
:102810000AEB05001E49085CFF2800D003E0681C95
:1028200085B2A542F4DB00BFA54216DA4046FFF7A9
:102830007BFE002507E019F8050005EB0A01144AA4
:102840005054681C85B2A542F5DB4FEA08314FF4BD
:1028500080520F4800F01EF804E0224639464846F0
:1028600000F018F8A64200D10FE008F101084FF07F
:10287000000AA1442744301B86B2B6F5805F02DD12
:102880004FF4805400E03446B9E700BFBDE8F0875C
:102890002C0C00202DE9F04107460E461446F0B2FC
:1028A000C0F58075AC4200DC254612E02A46314670
:1028B000384600F013F8AC4200D10BE02F442E4410
:1028C000601B84B2B4F5807F02DD4FF4807500E0B8
:1028D0002546EBE700BFBDE8F08100002DE9F0419F
:1028E00006460C4617460EB1002F01DCBDE8F0810C
:1028F000FFF70AFE0020104908600220FFF7C4FD20
:10290000C4F30740FFF7C0FDC4F30720FFF7BCFD89
:10291000E0B2FFF7B9FD002504E0705DFFF7B4FDFC
:10292000681C85B2BD42F8DB012003490860FFF74F
:102930004DFF00BFDAE700008801214270B505466F
:10294000002445F6FF7000F05FF80446C4B90D4856
:10295000006940F002000B490861084645610069C2
:1029600040F04000086145F6FF7000F04DF8044665
:10297000012C05D00348006920F0020001490861DC
:10298000204670BD002002400948C16801F00100E6
:1029900008B10120704701F0040008B10220F9E7F6
:1029A00001F0100008B10320F4E70020F2E7000076
:1029B000002002400348006940F08000014908619E
:1029C000704700000020024030B503460C46154613
:1029D000002207E0184600F008F824F812009B1CBB
:1029E000501C82B2AA42F5DB30BD01460888704710
:1029F000024803494860034848607047230167451F
:102A000000200240AB89EFCD70B5044600BFFFF750
:102A1000BBFF0546012D00D006E0012001F03AFF82
:102A2000601E84B2002CF2D100BF04B9FF252846F5
:102A300070BD00002DE9F05F80468A461746B8F168
:102A4000006F02D33348804501D3BDE8F09FFFF704
:102A5000CFFFA8F1006B4FEADB25CBF34909C9F59D
:102A60008064A74200DC3C464EE04FF0006101EB81
:102A7000C5204A142849FFF7A7FF00260BE009EB01
:102A80000600254931F810004FF6FF71884200D04A
:102A900003E0701C86B2A642F1DB00BFA6421BDA3F
:102AA0004FF0006101EBC520FFF748FF002608E06A
:102AB0003AF8160006EB0901174A22F81100701CBB
:102AC00086B2A642F4DB4FF0006101EBC5204A1448
:102AD000114900F043F804E022465146404600F018
:102AE0003DF8A74200D110E06D1C4FF000090AEB41
:102AF000440A08EB4408381B87B2B7F5806F02DD43
:102B00004FF4806400E03C46AFE700BFFFF752FFA0
:102B100000BF9AE700000408361C002070B5054687
:102B20000E46FF20FFF770FF044694B90A4800697B
:102B300040F00100084908612E80FF20FFF764FF84
:102B40000446012C05D00448006920F00100024928
:102B50000861204670BD0000002002402DE9F041D0
:102B600005460E461746002407E036F8141028469E
:102B7000FFF7D4FFAD1C601C84B2BC42F5DBBDE89E
:102B8000F081000030B504460025FEF711FC1F4817
:102B9000006840F480301D49086000BF1B48006891
:102BA000400C0028FAD04FF4806018494860A01EFD
:102BB000C4B20846406840EA84404860084640681D
:102BC00040F4803048601248006840F032001049FC
:102BD00008600E48006840F080700C49086000BF33
:102BE0000A480068400E0028FAD00848406840F0C3
:102BF00002000649486005E004484068C0F38705C4
:102C000005F00305022DF7D130BD00000010024091
:102C10000020024010B506A000F032FA0A48C06851
:102C200040F4FE700849C86000F010F810BD0000C4
:102C3000656E746572207374616E646279206D6F65
:102C400064650D0A000000000010024010B511A0DC
:102C500000F016FA1448006840F0040012490860B9
:102C60001248C06940F080501049C861104840685F
:102C700040F480700E4948600846006840F0040047
:102C800008600846006840F00200086000F0D6F9CD
:102C900010BD0000737973207374616E64627920D3
:102CA0006D6F64650D0A000010ED00E00010024039
:102CB000007000404FF08041088A2C49097801F0EB
:102CC000800100294CD100F00101D1B127490978D8
:102CD00001F04001A9B12549097801F03F013F29E0
:102CE0000AD12249097841F08001204A11704FF63B
:102CF000FF711F4A118004E01C490978491C1B4AD6
:102D0000117000F0020159B31849097801F040012F
:102D100099B11649097841F08001144A11704FF0B9
:102D20008041898E124A11804FF08041098C21F038
:102D300002014FF08042118412E000210C4A118000
:102D40000A4A11701146097841F0400111700021C2
:102D50004FF0804291841146098C41F002011184A8
:102D600000214FF080421182704700001E080020B1
:102D700020080020044800880348008820F0010053
:102D800001490880704700001004004010B50C484D
:102D9000008800F0010058B10A4908698047002006
:102DA0000749143108804FF47A7005491C310880B6
:102DB0000348008820F001000149088010BD000090
:102DC00010080040700800206149088800F00101E7
:102DD000F9B16049097801F08001D1B15D49097804
:102DE00021F010015B4A11701146097801F00F01C2
:102DF00021B91146097841F040011170554909780F
:102E000001F00F010E2905DA52490978491C514A8F
:102E100011700AE04F49097821F080014D4A117084
:102E20001146097801F0F001117000F00401002949
:102E300013D04949096889B145491031098841F0E1
:102E40002001434A103211800021121D1180414996
:102E5000097841F010013F4A117074E03C49283173
:102E600009883E4A11803A491031098821F0200131
:102E7000374A103211803749097801F010010029D2
:102E80005BD03449097801F08001E9B333490988FE
:102E9000B1F5967F0DDD31490988B1F5487F08DA33
:102EA0002F49096849002E4A1160114609681160CE
:102EB00043E02A490988B1F5AF6F0FDD274909883A
:102EC000B1F5E16F0ADA264909684900244A116020
:102ED0001146096841F0010111602EE01F4909887F
:102EE00040F69802914228DD1C49098840F62822C4
:102EF000914222DA1B490978491C1A4A1170154976
:102F0000097801F0F00100E002E0124A117014E0CB
:102F10001249098841F2680291420EDD0F49098881
:102F200041F25C22914208DA0A49097841F08001B5
:102F3000084A117000210B4A11700649097821F0E6
:102F40001001044A11700021014A118070470000ED
:102F5000100C004014000020040121421600002043
:102F6000180000201C00002070B505460C461048D3
:102F7000C06940F004000E49C8610E480580001F7A
:102F800004800C482038008840F0010009492039AD
:102F9000088008482C38008840F0010005492C3989
:102FA000088002231E2203210846FEF735FA70BD71
:102FB000001002402C0800401D49098801F0200142
:102FC00011B31B49091D0988C8B21A49098801F4BF
:102FD0000041C9B91749098801F4804161B10A2843
:102FE00003D00021134A118021E01249098841F4DD
:102FF0000041104A11801AE00D2806D10D490988B8
:1030000041F480410B4A118011E00A4A1288C2F350
:103010000D01094A5054074A1288521C054B1A8068
:103020001A461288C72A01DD00221A8000BF7047A5
:103030000038014010000020640B002030BF7047B2
:1030400000B50848007800F013F800200649086031
:103050000648006808B9012000E000200349086024
:1030600000BD000022080020082C00408881224278
:1030700000F07F01014A116070470000002C004001
:103080000FB4054B10B503A9044A029800F008F9E3
:1030900010BC5DF814FB00001D6A00080C00002045
:1030A0000FB41CB50A46521ECDE9000207A9054B14
:1030B0006A46069800F0F4F8009A002111701CBCD2
:1030C0005DF814FBCF3900080FB4084B10B504A904
:1030D00002AA039800F0E4F8044602A9002000F0D8
:1030E00081FC204610BC5DF814FB0000E5390008A7
:1030F0007CB5491E1C461546CDE90001044B6A46C5
:103100002146284600F0CCF8009A002111707CBDC1
:10311000CF39000800487047F00A002002E008C8D4
:10312000121F08C1002AFAD170477047002001E041
:1031300001C1121F002AFBD1704700002DE9FF5F7B
:10314000DDE90220010DDDF838B0024318D044F665
:103150001050A1F2FF3141430D140F98012820D0E7
:10316000A5EB0B00401C5FEA000A4FF00004474E3D
:10317000DFF81C91A046504616D5CAF1000728E09A
:103180000F98012443A2012808D0002100980F9B2A
:10319000C0E90021C0E90243BDE8FF9F6FEA0B01CF
:1031A000F4E7CBF10000DEE7074612E0F80707D0AE
:1031B0002246334640464946FDF7FCF9804689469B
:1031C0002246334610461946FDF7F4F904460E46EA
:1031D0007F10002FEAD1DDE90201BAF1000F42466B
:1031E0004B4602DAFDF7E6F901E0FDF755FA044631
:1031F0000E460022284BFDF703FC03D84FF0FF30AA
:10320000014607E00022254B20463146FDF72BF909
:10321000FDF7DDFB102409E0002C0ADB0A22002365
:10322000FCF79EFF019B30321A55641E50EA0102E2
:10323000F2D1641C019AC4F1110314440F9A012ABB
:1032400003D0012208430DD10AE0084304D0002036
:103250004FF0110B0F9080E7A3EB0B056D1E0DE0F7
:103260005B4504DD4FF0000205F1010504E003DADF
:103270004FF00002A5F10105002AECD000980F994B
:10328000C0E90231C0E9004586E7000000002440A3
:103290000000F03F300000000000F0430000E03F7D
:1032A0002DE9FF4F95B09B468946064600250FE263
:1032B000252877D100242746F84A0121059400E00B
:1032C000044316F8013F203B01FA03F01042F7D106
:1032D00030782A2811D06FF02F033078A0F1300217
:1032E000092A16D8059A44F0020402EB820203EB85
:1032F00042021044761C0590EFE759F8042B059222
:10330000002A03DA504244F40054059044F00204C9
:10331000761C30782E2816D116F8010F44F00404DC
:103320002A280DD06FF02F023078A0F13003092B3E
:1033300009D807EB870302EB4303C718761CF3E7B2
:1033400059F8047B761C30786C280FD006DC4C28AA
:1033500017D068280DD06A2814D104E0742810D042
:103360007A280FD10DE044F400140AE044F48014EC
:1033700001E044F440147278824202D104F58014D2
:10338000761C761C307866280BD013DC582877D052
:1033900009DC002875D04528F6D04628F4D0472807
:1033A0001AD19DE118E0632835D0642879D06528CA
:1033B00012D195E1702873D008DC6728F1D0692814
:1033C0006FD06E280DD06F2806D1B5E073282CD0B1
:1033D000752875D0782874D05A46179990476D1C77
:1033E00075E1C4F30250022809D003280DD0D9F8A2
:1033F000001004280DD00D6009F1040967E1D9F827
:103400000010EA17C1E90052F6E7D9F800100D8064
:10341000F2E70D70F0E719F8041B8DF8001000209A
:103420008DF80100EA46012003E059F804AB4FF0A3
:10343000FF3061074FF0000102D40DE008F10101F7
:103440008846B9420FDA8045F8DB1AF808100029DF
:10345000F4D108E008F1010188468142FADB1AF84C
:1034600008100029F6D105985B46A0EB0807214615
:103470003846179A00F094FA284400EB080507E054
:103480004DE029E10DE01AF8010B5A4617999047D3
:10349000B8F10108F7D25B4621463846179A13E186
:1034A00042E00A220092C4F302524FF0000A022ABC
:1034B00008D059F804CB032A4FEAEC710AD00DE08A
:1034C00029E02AE009F1070121F00702F2E802C130
:1034D000914609E00FFA8CFC4FEAEC71042A03D103
:1034E0004FFA8CFC4FEAEC71002907DA0A460021FA
:1034F000DCF1000C61EB02012D2202E0220504D573
:103500002B228DF80420012203E0E20701D02022C3
:10351000F7E7904659E00A2102E010220DE0102161
:103520004FF0000A00910BE010224FF0000A44F027
:1035300004040827009203E008224FF0000A0092DA
:10354000C4F30252022A05D059F804CB0021032A01
:1035500008D009E009F1070121F00702F2E802C1F1
:10356000914605E01FFA8CFC042A01D10CF0FF0CF7
:103570004FF00008220728D5702806D0009B83F062
:10358000100353EA0A0305D00EE040228DF8042010
:10359000012208E05CEA010206D030228DF8042006
:1035A0008DF8050002229046009B83F0080353EA41
:1035B0000A030AD15CEA010201D1620705D5302273
:1035C0008DF804204FF001087F1E582804D034A045
:1035D00003900EA802900DE036A0F9E7534660462E
:1035E000009AFCF7BDFD84460398825C0298401E59
:1035F000029002705CEA0100F0D1029806A9081A54
:1036000000F1200A600702D524F4803400E001278D
:10361000574502DDA7EB0A0000E0002000EB0A019D
:10362000009005984144401A0590E00306D45B469B
:103630002146179A059800F0B3F90544002706E0E3
:1036400001A85A46C05D179990476D1C7F1C4745DD
:10365000F6DBE0030CD55B462146179A059800F08F
:103660009FF9054404E030205A46179990476D1C95
:103670000099481E00900029F5DC08E002980299A4
:103680005A460078491C0291179990476D1CBAF16F
:103690000001AAF1010AF1DC65E10000092801003E
:1036A00030313233343536373839616263646566B8
:1036B000000000003031323334353637383941427A
:1036C000434445460000000000F058F90544761CCC
:1036D000307800287FF4ECAD19B02846BDE8F08FB3
:1036E000620700D4062709F1070222F0070CFCE864
:1036F0000223E14603F000485FEA080C02D00FF213
:10370000702C0DE05FEA045C02D50FF2682C07E034
:103710005FEAC47C02D00FF2602C01E0AFF2700CC3
:103720004FF0FF3823F00043CDF850C065280CD08F
:1037300006DC452809D046281DD047283DD13DE06C
:10374000662818D067287ED138E00021112F01DBD0
:10375000112000E0781CCDE9000106A90EA8FFF7B2
:10376000EDFCDDE90F010E9A03910021009207F1B3
:10377000010A04914DE04FF000400097CDE901109F
:1037800006A90EA8FFF7DAFCDDE90F0203920E9BF3
:1037900011990022DDF80CA00093049211B9791C54
:1037A00000EB010AB7EB0A0004D4C0F1FF3007F1C7
:1037B000010A0490AAEB0700019044E0012F00DA0F
:1037C00001270021112F01DD112000E03846CDE94D
:1037D000000106A90EA8FFF7B1FCDDE90F010E9A62
:1037E0000391002104910092BA4621070CD4039959
:1037F000514500DA8A46BAF1010F05DD009AAAF1B7
:103800000101515C302908D0B84202DA10F1040FEE
:1038100006DA0121CDE9011015E0AAF10101E9E77D
:10382000002805DC049901440491AAEB000102E0A0
:10383000411C514500DD8A460499401A401C019004
:103840004FF000400290200704D40198504501DB5E
:10385000CDF8048000208DF84F0002980DF14F073D
:10386000B0F1004F25D02B200E9002984FF00208A7
:1038700000280CDA404202902D200E9007E00A2129
:103880000298FCF791FF3031029007F8011DB8F162
:103890000001A8F10108F2DC02980028EFD1791E9E
:1038A0000E980870307800F0200040F0450007F8CE
:1038B000020D12A8C01B00F107081498007800B18F
:1038C000012000EB0A01019801EBE07105984144E9
:1038D000401A401E0590E00306D45B462146179A25
:1038E000059800F05DF805441498007818B15A4620
:1038F000179990476D1CE00324D55B462146179A23
:10390000059800F04DF805441CE00498002807DBFA
:10391000DDE90301884203DD0098405C179901E06E
:10392000179930205A469047049805F10105401C2C
:1039300004900198401E019004D12E205A461799F8
:1039400090476D1CBAF10001AAF1010ADDDC05E027
:1039500017F8010B5A46179990476D1CB8F10001F2
:10396000A8F10108F4DC5B462146179A0598ABE6FE
:103970002D0000002B000000200000002DE9F04188
:10398000044600251E461746880404D405E039463F
:103990002020B0476D1C641EF9D52846BDE8F08193
:1039A0002DE9F041044600251E469046C80301D586
:1039B000302700E02027880404D505E0414638463A
:1039C000B0476D1C641EF9D52846BDE8F0814A68F1
:1039D000002A06D00A68531C0B6010704868401E0D
:1039E000486070470A68531C0B60107070470000F5
:1039F0002DE9F04107460C4607B114B90EA004F0BA
:103A0000EFFD3846FCF75AFCC5B22046FCF756FCE1
:103A1000C6B2324629460AA004F0E2FD31462846E5
:103A200003F0BEFC28B904A004F0DAFD0020BDE8D4
:103A3000F0810120FBE700004552524F520D0A0071
:103A400025643A25640D0A4F4B0D0A0070B5002518
:103A50000E48008800F40040B8B100260B480478F6
:103A60000B480078412807D109484078542803D1F1
:103A7000074804F081FD00E000BF002003490880F2
:103A8000C8210348FCF7B6FB00BF70BD1000002042
:103A9000640B002070B504460E4624B907A004F05C
:103AA0009FFD002070BD2046FCF708FCC5B205B1A3
:103AB00000BF04A004F094FD0120F3E74552524FEB
:103AC000520D0A004F4B0D0A0000000070B504466D
:103AD0000D4601F08FFA02A004F082FD012070BDB6
:103AE0004F4B0D0A0000000070B504460E4600253D
:103AF00024B908A004F074FD002070BD2046FCF736
:103B0000DDFBC5B2284601F08FFB04A004F068FD80
:103B10000120F2E74552524F520D0A004F4B0D0A59
:103B2000000000002DE9F04105460C460026002764
:103B300005B12CB90DA004F053FD0020BDE8F081C3
:103B40002846FCF7BBFBC7B22046FCF7B7FBC6B262
:103B50001FB9304602F0C6FA02E0304602F094FF88
:103B600004A004F03DFD0120E8E700004552524F5B
:103B7000520D0A004F4B0D0A0000000070B50446BC
:103B80000E46002524B90AA004F02AFD002070BDCD
:103B90002046FCF793FBC5B207A0FFF771FA284651
:103BA00003F0A6FB07A004F01BFD0120EFE70000D7
:103BB0004552524F520D0A006469723A25640D0A4B
:103BC000000000004F4B0D0A0000000070B50446D5
:103BD0000E46002524B90AA004F002FD002070BDA5
:103BE0002046FCF76BFBC5B207A0FFF749FA284651
:103BF00003F06AFD07A004F0F3FC0120EFE70000EA
:103C00004552524F520D0A006469723A25640D0AFA
:103C1000000000004F4B0D0A00000000F8B50546FB
:103C20000E4625B921A004F0DBFC0020F8BD284693
:103C3000FCF744FBC4B221461EA004F0D1FC062CC4
:103C40002CD2DFE804F02B03090F15201D4A0021B8
:103C50000846FDF7B5FD22E02E2232210020FDF7B7
:103C600085FD1CE018A200210846FDF7A9FD16E01D
:103C7000FDF72CFC224807237F22002100900846F4
:103C8000FDF744FC0BE0FDF721FC1E4807237F22D3
:103C9000002100900846FDF739FC00E000BF00BF9E
:103CA00019A004F09DFC0120C0E700004552524FCE
:103CB00052000000646973706C61794E756D3A252D
:103CC000640D0A0034AB000861626364656667686E
:103CD00069676B6C6D6E6F707172737475767773E4
:103CE000797A616263646566676869676B6C6D6E3B
:103CF0006F707172737475767773797A0000000053
:103D00001E0000201E0400204F4B0D0A0000000082
:103D100070B504460E4624B908A004F061FC0020EA
:103D200070BD2046FCF7CAFAC5B2294605A004F0CA
:103D300057FC07A004F054FC0120F1E74552524F14
:103D4000520000006C6576656C3A25640D0A00002F
:103D50004F4B0D0A000000002DE9FC4107460E46BE
:103D600007B12EB955A004F03BFC0020BDE8FC8152
:103D70003846FCF7A3FAC5B23046FCF79FFA84B286
:103D8000224629464FA0FFF77BF9062D76D2DFE8C1
:103D900005F003152D455D76002C0EDBFDF76EFD5D
:103DA0004D4880784C494978CDE900104A4803785D
:103DB000C27981792046FDF77DFF79E0002C14DB84
:103DC0000C2C12DCFDF75AFD4348807842494978B3
:103DD000DFF804C1CDE900109CF800309CF8072002
:103DE000E1B2BCF80400FDF765FF61E0002C14DBD4
:103DF0001F2C12DCFDF742FD3748807836494978A0
:103E0000DFF8D4C0CDE900109CF80030E2B29CF895
:103E10000610BCF80400FDF74DFF49E0002C14DB50
:103E2000182C12DCFDF72AFD2B4880782A494978A6
:103E3000E3B2DFF8A4C0CDE900109CF807209CF89D
:103E40000610BCF80400FDF735FF31E0002C14DB50
:103E50003C2C12DCFDF712FD1F488078E1B2DFF840
:103E600078C0CDE900109CF800309CF807209CF841
:103E70000610BCF80400FDF71DFF19E017E0002C48
:103E800014DB3C2C12DCFDF7F9FCE0B21249497856
:103E9000DFF844C0CDE900109CF800309CF8072002
:103EA0009CF80610BCF80400FDF704FF00E000BF1A
:103EB00000BF0AA004F094FB012057E74552524F7F
:103EC000520000006964783A25642C2076616C3ACF
:103ED00025640D0A000000002C1C00204F4B0D0A29
:103EE000000000002DE9F04105460C4600270026A1
:103EF00005B12CB90DA004F073FB0020BDE8F081E2
:103F00002846FCF7DBF9C7B22046FCF7D7F9C6B262
:103F10003246394607A0FFF7B3F83946304604F079
:103F2000AFFA09A004F05CFB0120E7E74552524FCD
:103F3000520D0A006469723A256420736563743A0D
:103F400025640D0A000000004F4B0D0A0000000020
:103F500070B504460D4602A004F042FB012070BD7E
:103F60004F4B0D0A0000000070B504460D4602A03C
:103F700004F036FB70BD00004F4B0D0A000000003E
:103F800070B504460D4602A004F02AFB70BD000087
:103F90004F4B0D0A000000002DE9F04F87B032258D
:103FA00040F2E67609274FF001084FF008094FF07C
:103FB000000A4FF0000B002006900920FEF7E2FDFA
:103FC000284800F029FC642000F046FC4FF4E13161
:103FD000244804F0EDFC24A0FFF752F829A0FFF7D5
:103FE0004FF8FDF79BF9FDF735FD2948007A284980
:103FF0008978274A5278264B1B78CDE90132CDE9E2
:1040000003102348C079009021488379828821A138
:104010002648FFF759F8FDF7B5FA244A002108466B
:10402000FDF7CEFB03F093FEFCF7F0FDFCF79EFDE1
:10403000FCF782FEFEF79CFA02E01DA0FFF720F8D5
:10404000FDF77AFF041EF8D14CB91FA0FFF718F84E
:10405000FDF7ECFE059022A00599FFF711F807B0D7
:10406000BDE8F08F00A24A040D0A0D0A0D0A0D0AE0
:104070000D0A73797374656D20726573746172745F
:104080000D0A00007561727420696E69740D0A0072
:104090002C1C002025642F25642F25642025643ADC
:1040A00025643A256420202564000000F40A0020DD
:1040B00073646361726420696E6974206661696CFF
:1040C00065640D0A0000000053442063617264209F
:1040D000696E697420737563636573730D0A0000FC
:1040E0005344206361726420736563746F72206E41
:1040F000756D6265723A25640D0A000070B504465C
:104100000D4600202071401EE0622946204603F043
:10411000CFFD08B1032070BD94F82E1294F82F0241
:1041200041EA00204AF65521884201D00220F2E7F8
:1041300094F86900010694F8680041EA004194F897
:10414000670041EA002094F86610084320F07F40A1
:104150000D49884201D10020DDE794F88500010671
:1041600094F8840041EA004194F8830041EA002079
:1041700094F88210084320F07F400349884201D11F
:104180000020C8E70120C6E746415400024600E08F
:10419000521C107810B110788842F9D1107870470D
:1041A00030B502460B4600200446014621E001EBF3
:1041B00041001D4D55F82000C8B101EB410055F8F4
:1041C00020001568A84213D101EB4100164D05EB04
:1041D000800040689568A8420AD101EB4100124D69
:1041E00005EB80000089D588A84201D103E00124B5
:1041F000491C0329DBD300BF032906D10CB9022BCC
:1042000001D1002030BD1220FCE743B901EB410091
:10421000054D05EB80004089B0F5807F01D110206D
:10422000F0E70020EEE70000F881002010B501461D
:1042300000200DE000EB4002074B53F822208A4299
:1042400005D1002200EB4003034C44F82320401C1E
:104250000328EFD310BD0000F881002070B503469D
:104260000D46586A021D680A1E68B678B0FBF6F45F
:1042700000BF02CA09B9002070BD8C4200D202E022
:10428000641A121DF5E700BF10682044F4E700002F
:1042900070B504462646B42094FBF0F100FB1144AF
:1042A000002C01DB032C06DB214631A0FEF7E8FEE3
:1042B0006FF0120070BDFCF79BFE04EB840000EB76
:1042C0008410314901EB8000D0F81001B04211D0C8
:1042D00004EB840000EB84100A4602EB800000F13E
:1042E0000C01324629A0FEF7CBFEFCF782FE6FF0F0
:1042F0000800DFE704EB840000EB8410224911F88A
:10430000200001282FD104EB840101EB84111E4A07
:1043100002EB8101886801F00DF8054685B104EBD8
:10432000840000EB8410184A02EB800000F10C01BD
:104330002A461FA0FEF7A4FEFCF75BFE2846B9E75D
:1043400004EB840101EB84110F4A02EB81004FF46E
:104350008A71FBF74FFF1E48006820B11C480068B7
:10436000401E1B490860FCF744FE0020A2E7000045
:10437000636C6F73652065727220706172616D3A53
:1043800025640D0A0A000000387B002046696C6530
:1043900020257320636C6F7365206661696C6564AA
:1043A0002C20706172616D3A25640D0A0A000000CC
:1043B00046696C6520257320636C6F7365206661A8
:1043C000696C65642C207265733A25640D0A0A00D5
:1043D000400800200246891E5069801E884201D88C
:1043E000002070479378906A01FB0300F9E7000012
:1043F0002DE9F04705460C46207820F04000401E8D
:1044000000EB800101EBC00600274FF0010800BF60
:104410001A48C05D205C1949C95D2144497840EAC9
:104420000129B8F1000F10D0484602F00DF880467F
:10443000FF2E07D23146761C35F8110002F004F841
:10444000404508D00020BDE8F0874FF6FF70814559
:1044500001D00020F7E7781C07460D28D8D3207834
:1044600000F0400038B1B8F1000F04D035F8160064
:1044700008B10020E7E70120E5E70000B4A5000847
:104480002DE9F04704468946B9F1000F06D1E768E7
:1044900017B16069B84215D8012713E04946204694
:1044A00002F08CFD0646022E02D20120BDE8F08704
:1044B000701C08B93046F9E76069B04201D930464E
:1044C000F4E74F463D4600BF6D1C6069A84204D822
:1044D0000225BD4201D90020E8E72946204602F026
:1044E0006DFD064606B909E0701C08B1012E01D128
:1044F0003046DBE7BD42E7D10020D7E700BF6FF0D1
:1045000070422946204603F067FD8046B8F1000F4F
:1045100008D1B9F1000F05D02A464946204603F0DC
:104520005BFD8046B8F1000F0BD1E5602069401CAF
:1045300078B12069401E2061607940F0010060710F
:1045400007E0B8F1010F02D14FF0FF3000E0012089
:1045500005462846AAE700002DE9F34F83B08246BE
:104560000498D0F800B001E00BF1010B9BF80000BB
:104570002F28F9D09BF800005C28F5D0DAF82090BD
:1045800000252E4600BF3046761C1BF80040202C2C
:1045900003DB2F2C01D05C2C00D11CE0FF2D03D3BA
:1045A000062005B0BDE8F08FE4B20121204601F0FD
:1045B00019FF04460CB90620F3E7802C06DA2146E1
:1045C0006BA0FFF7E3FD08B10620EAE728466D1C63
:1045D00029F81040D7E700BF0BEB060104980160F3
:1045E000202C01DA042000E00020074608E0681EC5
:1045F00039F81040202C02D02E2C00D002E06D1E85
:10460000002DF4D100BF0DB90620CAE7002029F81B
:1046100015000B222021DAF8180003F04BF80026D1
:1046200000E0761C39F816002028FAD039F8160078
:104630002E28F6D00EB147F0030700E06D1E25B11D
:10464000681E39F810002E28F8D14FF00008CDF878
:1046500008800820019000BF3046761C39F81040D1
:1046600004B955E0202C03D02E2C04D1AE4202D048
:1046700047F00307F0E7DDE90110884201D2AE42BE
:1046800016D101980B2802D147F0030740E0AE4253
:1046900001D047F00307AE4200D939E02E4608208A
:1046A00002900B2001904FEA88604FEA1068D3E730
:1046B000802C0BDB0021204601F094FE04461CB147
:1046C000A4F180002D490C5C47F0020700BF24B123
:1046D00021462BA0FFF75AFD18B15F2447F00307CE
:1046E0000FE0412C04DB5A2C02DC48F0020808E001
:1046F000612C06DB7A2C04DC48F00108A4F12000D0
:1047000084B2DAF818300298411C02911C54A3E7D5
:1047100000BFDAF818000078E52803D10520DAF8A0
:10472000181008700198082803D14FEA88604FEAF2
:10473000106808F00C000C2803D008F003000328D0
:1047400001D147F0020707F0020058B908F0030052
:10475000012801D147F0100708F00C00042801D10E
:1047600047F00807DAF81800C772002019E70000C0
:10477000222A3A3C3E3F7C7F0000000034A500081E
:104780002B2C3B3D5B5D00002DE9F04107460D46BB
:1047900016464FF00E080020044611E00A4850F873
:1047A00034103846FBF744FD40B9074800EBC4001D
:1047B0003146426828469047BDE8F081601C0446B7
:1047C0004445EBDB00BFF7E7C4A4000830B5024660
:1047D000531E1A46032B1BD202EB42030D4C04EB73
:1047E00083035989B1F5807F00D1002109B14B1EA7
:1047F00099B202EB4203074C04EB8303598129B9B8
:10480000002302EB4204034D45F82430002000E071
:10481000022030BDF88100204FF0E021096921F02D
:1048200004014FF0E02211610849B0FBF1F1084AA0
:1048300011701146097801EB4102C2EBC1114FF62C
:10484000FF7202EAC101034A1180704700127A0028
:10485000080000200A00002001460D4A12884A4341
:104860004FF0E0235A6100229A6101221A6100BFD1
:104870004FF0E022106900F001021AB100F480321A
:10488000002AF5D000224FF0E0231A619A617047A8
:104890000A00002001460D4A12784A434FF0E023F7
:1048A0005A6100229A6101221A6100BF4FF0E02292
:1048B000106900F001021AB100F48032002AF5D02C
:1048C00000224FF0E0231A619A617047080000202F
:1048D0002DE9F04104460E460021204600F049FA39
:1048E0000546EDB9002700BF2169206803F0E0F913
:1048F000054605B113E060690078E52802D06069DB
:10490000007820B9781C0746B04201D107E00027A3
:104910000121204600F079F80546002DE4D000BFC3
:10492000042D00D107252846BDE8F0812DE9F04788
:1049300004460021204600F01CFA074617B138460D
:10494000BDE8F0874FF0FF09CA4600BF2169206823
:1049500003F0AEF9074607B154E065692E780EB949
:1049600004274FE0E87A00F03F08E52E05D008F074
:10497000080028B1B8F10F0F02D04FF0FF093AE05C
:10498000B8F10F0F1CD1206AA0B306F0400030B17F
:1049900095F80DA026F04006B146E088A0844E456B
:1049A0000AD1687B504507D12946206AFFF720FDD0
:1049B00010B1A9F1010000E0FF2000F0FF091AE0AA
:1049C000B9F1000F05D1284603F058FF504500D13A
:1049D00018E04FF0FF094FF6FF70A084A069C07A7D
:1049E00000F0010030B90B222846A16902F06EFDEB
:1049F00000B907E0FFE70021204600F006F807466F
:104A0000002FA3D000BF38469AE72DE9F0410446B5
:104A10008846E088461CB0B208B1206910B904206D
:104A2000BDE8F08106F00F0000286CD12069401C21
:104A30002061E06828B920680089B04263D804206A
:104A4000EEE720688078401E00EA161000285AD150
:104A5000E168206802F0B2FA0546012D01D8022073
:104A6000DEE7681C08B90120DAE720684069A8423F
:104A700043D8B8F1000F01D10420D1E7E1682068E4
:104A8000FFF7FEFC05460DB90720C9E7012D01D14E
:104A90000220C5E7681C08B90120C1E7206803F0BF
:104AA00061FF08B10120BBE7216801F130004FF43C
:104AB0000072002102F0FEFD29462068FFF78AFC03
:104AC0002168C86200270EE0012021680871206873
:104AD00003F048FF08B10120A2E72068C06A401C2B
:104AE0002168C8627F1C20688078B842ECD82068B2
:104AF000C06AC01B2168C86200BFE5602946206803
:104B0000FFF768FC2061E6802068303006F00F0176
:104B100000EB41106061002082E72DE9F05F044660
:104B20008A464FF0FF09CB4604274EE021692068F2
:104B300003F0BEF8074607B14AE0666935780DB95B
:104B4000042745E0F07A00F03F08E52D09D02E2D2E
:104B500007D0B8F1080F01D1012000E00020504536
:104B600002D04FF0FF0929E0B8F10F0F1AD105F07C
:104B7000400030B196F80DB025F04005A946E08818
:104B8000A0844D450AD1707B584507D13146206A33
:104B900003F0E8F910B1A9F1010000E0FF2000F0F6
:104BA000FF090BE0B9F1000F04D1304603F066FEB7
:104BB000584502D04FF6FF70A08409E0002120463E
:104BC000FFF723FF074607B102E020690028ADD1B7
:104BD00000BF0FB1002020613846BDE8F09F2DE9ED
:104BE000FE4F0446D4F81880D4F820900C22414699
:104BF000684602F07EFC00BF9DF80B0000F001004B
:104C000020B3002088F80B00206201260CE0334618
:104C10004A466946404602F079F92046FFF786FE8B
:104C2000054605B102E0761C642EF0D300BF642E69
:104C300002D10720BDE8FE8F042D01D02846F9E7F8
:104C40009DF80B0088F80B00C4F820909DF80B002D
:104C500000F0020060B1002600E0761C39F8160072
:104C60000028FAD106F119000D21B0FBF1F700E0A0
:104C7000012739462046FFF72BFE054645BB781E27
:104C8000071E25D0E088C11B204600F072F80546BB
:104C9000F5B9A06903F0F2FD824600BF21692068E2
:104CA00003F006F8054605B111E0FAB25346616912
:104CB000206A01F02BFE01202168087100212046A6
:104CC000FFF7A3FE054615B9781E071EE6D100BF03
:104CD000C5B92169206802F0EBFF054695B920228D
:104CE0000021606902F0E6FC0B22D4E9050102F024
:104CF00000FCA069C07A00F0180061690873012007
:104D000021680871284695E770B50446E688A08CAE
:104D10004FF6FF72904201D1304600E0A08C014670
:104D2000204600F026F805460DBB00BF216920682B
:104D300002F0BEFF054605B115E0202200216069A2
:104D400002F0B8FCE5206169087001202168087153
:104D5000E088B04200D306E000212046FFF755FE70
:104D60000546002DE2D000BF042D00D102252846C3
:104D700070BD2DE9F04104460E46E680A568012D80
:104D800003D020684069A84202D80220BDE8F08123
:104D90002DB920680078032801D12068456A45B9FB
:104DA00020680089B04201D80220EFE72068476AF6
:104DB0001EE0206880784FEA001812E0294620683B
:104DC00002F0FCF80546681C08B90120DEE7022D58
:104DD00003D320684069A84201D80220D6E7A6EB99
:104DE00008064645EAD229462068FFF7F3FA074647
:104DF000E5600FB90220C9E707EB161020612068B3
:104E0000303006F00F0100EB411060610020BDE77B
:104E100070B50446002514B1012C1DD10BE0FDF73F
:104E20008BF8054635B1FDF7F2F9FF20FDF7E4F9FF
:104E3000FDF7E8F912E0FDF79BFB0B4800884EF602
:104E40001671884204D142F268600849088002E085
:104E500000200649088001E0012500BF00BF0DB118
:104E6000012070BD0020FCE712000020D40A0020C1
:104E70002DE9F04106460F4615462EBB37B1012FEE
:104E80001AD0022F0FD0032F1BD111E000201F4991
:104E90000860FDF736FA08B9002400E0012401207B
:104EA0001A4908600FE04FF40070288000240AE0DF
:104EB00008202880002406E0FCF7B8FF28600024C2
:104EC00001E0042400BF1DE0012E1AD137B1012FEB
:104ED0000FD0022F04D0032F10D106E000240FE0E2
:104EE0004FF40070288000240AE008202880002465
:104EF00006E0074800882860002401E0042400BF81
:104F000000E001242046BDE8F08100008C01214230
:104F1000D40A00202DE9F04107460E4615461C46EE
:104F20004FF0000814B90420BDE8F08117B1012F3B
:104F300020D110E0E2B229463046FDF7DBF880468A
:104F4000B8F1000F06D0FDF762F9FF20FDF754F924
:104F5000FDF758F911E009E069024FF4007230469C
:104F6000FDF7A4FB6D1C06F50076641E002CF3D142
:104F7000A04602E04FF0010800BF00BFB8F1000FEB
:104F800001D10020D0E70120CEE701460020704784
:104F90002DE9F04107460E4615461C464FF0000825
:104FA00014B90420BDE8F08117B1012F16D106E035
:104FB000E2B229463046FDF7B5F9804611E009E036
:104FC00069024FF400723046FDF70AFC6D1C06F5CD
:104FD0000076641E002CF3D1A04602E04FF00108D9
:104FE00000BF00BFB8F1000F01D10020DAE70120B7
:104FF000D8E7000038B500240FE0601CC0B20446BA
:105000000A2803DD24A0FEF73BF838BD28A0FEF7F0
:1050100037F84FF4FA70FFF71FFCFBF7A7FD0028E5
:10502000EBD102212CA0FEF72BF89DF8000020F018
:105030000200801C8DF800009DF80000C0F3800382
:10504000C0F3400200F0010128A0FEF719F8022287
:1050500069460020FBF732FE002000909DF800001A
:10506000C0F38003C0F3400200F0010126A0FEF768
:1050700007F8022269460020FBF7E0FD9DF80000DA
:10508000C0F38003C0F3400200F0010125A0FDF74A
:10509000F7FF00BFB9E700006465746563742045DD
:1050A0004550524F4D206661696C65640A000000EE
:1050B00043616E27742064657465637420454550B0
:1050C000524F4D3A32344330322C20747279206181
:1050D0006761696E0A0000007374726375742073EF
:1050E000697A653A25640D0A00000000626F6F74EA
:1050F000206D6F6465206265666F72653A25642075
:1051000025642025640D0A00626F6F74206D6F6442
:105110006520696E6E65723A2564202564202564D9
:105120000D0A0000626F6F74206D6F646520616608
:105130007465723A25642025642025640D0A0000F8
:10514000002100E0491C032906D201EB4100054A79
:1051500052F820000028F5D1032901D00120704722
:105160000020FCE7F88100202DE9FC4707460C46AB
:105170001546002000908046814601AA69463846BF
:1051800000F0FFF806468EB901984069801E01992B
:10519000897800FB01F901988078009900FB01F8FB
:1051A0004FEA590020604FEA580028603046BDE8B9
:1051B000FC87000010B54FF40C7002F0A1FD1649F9
:1051C00008604FF40C7002F09BFD134948604FF4E7
:1051D0000B7002F095FD114908604FF40B7002F05E
:1051E0008FFD0F4908604FF4007002F089FD0D49F2
:1051F00008600948006868B10748406850B107482E
:10520000006838B10648006820B10846006808B157
:10521000002010BD0120FCE7B80A0020C00A0020D1
:10522000C40A0020D00A0020F0B5C5B0044600250D
:10523000142220A140A8FAF7C4FF13264FF4000758
:1052400010E0681CC0B205460A2804DD1EA0FDF768
:1052500017FF45B0F0BD21A0FDF712FF4FF4FA7023
:10526000FFF7FAFAFDF74AFA4EF616718842E8D1CE
:1052700074B91322002140A8FDF7B2FA40AA002118
:105280001EA0FDF7FDFE4FF47A70FFF7E5FA0FE080
:10529000012C0DD1132200216846FDF707FA6A465A
:1052A00000211DA0FDF7ECFE4FF47A70FFF7D4FA51
:1052B00000BFCEE753544D33325F544553545F50D3
:1052C000524F4A454354000066616C617368207216
:1052D000656164206572726F720A000063616E27F7
:1052E00074207265616420666C6173682C2074722E
:1052F0007920616761696E0A000000007772697445
:105300006520616464723A3078253038582C206406
:105310006174613A25730A00726561642061646496
:10532000723A30782530385820646174613A2573B8
:105330000A00000070B50546284600F01AFD044634
:105340005CB9284604F004FB044634B9A86AFFF7A8
:105350003DFA04460CB900202860204670BD70B5A7
:105360000446204604F0F4FA054645B9E06918B150
:10537000E069FFF72BFA05460DB9002020602846AA
:1053800070BD2DE9F74F82B08A46002202A9049829
:1053900001F0F6F8019004980468019800286DD196
:1053A000D4E90410801E814203D82069CAF80000A5
:1053B00064E094F800B00026BBF1010F1CD1022775
:1053C00000BF3946204601F0F9FD804608F1010092
:1053D00010B9012001900EE0B8F1010F02D10220B6
:1053E000019008E0B8F1000F00D1761C781C074648
:1053F00061698842E5D33AE06769206A00904FF01E
:105400000009002500BFB9F1000F0ED10098421C21
:1054100001462046009202F04BFC0190019800B139
:1054200024E004F130054FF40079BBF1020F09D1FB
:105430002878697840EA012000B9761CAD1CA9F1F2
:10544000020910E0E8780006A97840EA014069788E
:1054500040EA01202978084320F0704000B9761C0A
:105460002D1DA9F10409781E071ECCD100BF2661AD
:10547000607940F001006071CAF80060019805B0E1
:10548000BDE8F08F2DE9FE4F04460D46204604F09E
:105490005FFA0290029810B10298BDE8FE8FE079A1
:1054A00008B1E079F9E7606A002871D0681C00282B
:1054B0003BD1D4F8248058F804AB4FF00209266998
:1054C0003EB300BF00964FF0000B09F1020900BF88
:1054D00001960BF1010B3146206801F06FFD064685
:1054E000012E02D80220E071D7E7701C10B901200C
:1054F000E071D2E70198401C8642E9D0D14504D83A
:1055000048F804BB009848F8040B20684069B04292
:10551000D8D8606AC0F80090D14503D80020C8F8F8
:10552000000047E01120029044E0E068A84200D269
:10553000E568A560002D3DD0691E2046FEF78EFE71
:10554000606161692068FEF745FF074617B90220D0
:10555000E071A2E720688078401E691E00EA5120B1
:1055600007442089C0F3080020B3A069B84221D0C5
:10557000A07900F0400080B121684878012304F14F
:105580002C01A269FFF704FD18B10120E07184E746
:1055900011E0A07920F04000A07121684878012333
:1055A0003A4604F12C01FFF7B5FC10B10120E0717F
:1055B00073E7A761ABE0E068A84204D2A07900F0ED
:1055C000020000B9E568D4F808904FF00008C4F86C
:1055D0000880002D67D0206880784702B9F1000F5D
:1055E00011D0681EB0FBF7F1A9F10100B0FBF7F094
:1055F000814208D3A9F10100791E8843A060A06808
:105600002D1A666912E026697EB900212068FEF72E
:1056100037FF0646012E02D10220E0713DE7701CE3
:1056200010B90120E07138E726616661C6B323E056
:10563000A07900F0020038B131462068FEF720FF63
:10564000064636B93D4619E03146206801F0B6FC01
:105650000646701C10B90120E0711EE7012E03D927
:1056600020684069B04202D80220E07115E7666107
:10567000A0683844A060ED1BBD42D9D800BFA06827
:105680002844A060C5F3080050B131462068FEF7F9
:10569000A1FE8046B8F1000F03D10220E071FCE6C4
:1056A00001E008EB55282089C0F3080020B3A06969
:1056B000404521D0A07900F0400078B121684878B9
:1056C000012304F12C01A269FFF762FC10B1012053
:1056D000E071E2E6A07920F04000A07121684878EE
:1056E0000123424604F12C01FFF714FC10B1012004
:1056F000E071D2E6C4F81880D4E90201884205D9E5
:10570000A068E060A07940F02000A07100BF02987E
:10571000C3E62DE9F14F8EB001F0C4FC064601222C
:105720000EA904A800F02CFF0546002D7BD14FF4F4
:10573000007000F07DFE8046B8F1000F03D111200B
:105740000FB0BDE8F08FCDF8308001A80A9004A812
:105750000E9901F01BF9054605B9082500BF042D77
:105760007AD100210498FEF78BFE0746002507B981
:105770000725012F00D10225781C00B901251DB98C
:10578000049803F0EFF80546002D5BD139460498E4
:10579000FEF720FE8246049800F130044FF40072B8
:1057A0000021204601F086FF0B222021204601F037
:1057B00081FF2E2020701020E072A675310AE1755D
:1057C000310C2176310E61763946204603F04EF8D1
:1057D0002022214604F1200001F08BFE2E2084F8C7
:1057E0002100DDF818B004980078032804D104984B
:1057F000406A584500D1AB46594604F1200003F0F9
:1058000035F8049890F8029018E00498C0F82CA09D
:105810000AF1010A012004990871049803F0A2F822
:1058200005460DB10DE030E04FF400720021204636
:1058300001F040FFA9F1010000F0FF09B9F1000FEC
:10584000E3D100BF1DB904A8FFF7C9F9054625B18A
:105850003946049802F0B2FD14E0099C1020E07271
:10586000A675310AE175310C2176310E6176394623
:10587000204602F0FBFF012004990871049803F010
:105880000DF80546404600F0D9FD284658E70000CF
:10589000F7B582B016460398019001A801F095FC77
:1058A0000546002D02DA0B2005B0F0BD0F4850F878
:1058B000254024B12046FEF7B9FC00202070029854
:1058C00010B10020029908700849029841F825009B
:1058D000029808B1012E01D00020E5E7002203A9BB
:1058E00002A800F04DFE07463846DDE7D80A002042
:1058F0002DE9F7478DB0054616461DB9092010B0B1
:10590000BDE8F0870020286006F01F0626F001029F
:105910000EA903A800F034FE0746002F7CD14FF4F7
:10592000007000F085FD8146B9F1000F01D1112012
:10593000E5E7CDF82C90CDF824D003A80E9901F01E
:1059400025F80746089C6FB90CB906270AE026F02F
:10595000010008B1012000E00020014603A8FEF785
:105960001FFC074606F01C00002856D077B1042F14
:1059700008D1FFF7E5FB18B103A8FFF730F900E005
:105980001220074646F00806089C09E0E07A00F07D
:10599000110008B1072703E006F0040000B1082752
:1059A000002F38D106F00800A8B301F07BFB804639
:1059B00084F80E804FEA1821E1734FEA18412174F0
:1059C0004FEA186161740020E0722077002161774E
:1059D000A177E1772146039801F0D2FC82460021AD
:1059E000204602F043FF012003990871BAF1000F2D
:1059F00011D00398D0F82C805146039802F0DEFCB9
:105A0000074647B9AAF101000399C86041460398C7
:105A100002F04EF907460FE046E06FB9E07A00F079
:105A2000100008B1042707E006F0020020B1E07A78
:105A300000F0010000B10727B7B906F0080008B16F
:105A400046F020060398C06AE8612C6226F0010047
:105A500008B1012000E00020014603A801F0DAFBB4
:105A6000A862A86A00B90227484600F0E7FCDFB93F
:105A7000AE710020E8712146039801F081FC286195
:105A8000E07F0106A07F41EA0041607F41EA0020FB
:105A9000217F0843E8600020A860A861686203983D
:105AA00028602868C088A880384628E773B584B085
:105AB000044614B9092006B070BD002205A903A848
:105AC00000F05EFD0546002D3DD1039820604FF4A7
:105AD000007000F0ADFC06460EB91120EBE726621F
